{
	"data": {
		"bytecode": {
			"linkReferences": {},
			"object": "60806040523480156200001157600080fd5b50604051620018ef380380620018ef8339818101604052810190620000379190620002c1565b620000576200004b6200018b60201b60201c565b6200019360201b60201c565b81600160006101000a81548173ffffffffffffffffffffffffffffffffffffffff021916908373ffffffffffffffffffffffffffffffffffffffff16021790555080600260006101000a81548173ffffffffffffffffffffffffffffffffffffffff021916908373ffffffffffffffffffffffffffffffffffffffff160217905550600260009054906101000a900473ffffffffffffffffffffffffffffffffffffffff1673ffffffffffffffffffffffffffffffffffffffff166398d5fdca6040518163ffffffff1660e01b815260040160206040518083038186803b1580156200014257600080fd5b505afa15801562000157573d6000803e3d6000fd5b505050506040513d601f19601f820116820180604052508101906200017d919062000343565b600381905550505062000375565b600033905090565b60008060009054906101000a900473ffffffffffffffffffffffffffffffffffffffff169050816000806101000a81548173ffffffffffffffffffffffffffffffffffffffff021916908373ffffffffffffffffffffffffffffffffffffffff1602179055508173ffffffffffffffffffffffffffffffffffffffff168173ffffffffffffffffffffffffffffffffffffffff167f8be0079c531659141344cd1fd0a4f28419497f9722a3daafe3b4186f6b6457e060405160405180910390a35050565b600080fd5b600073ffffffffffffffffffffffffffffffffffffffff82169050919050565b600062000289826200025c565b9050919050565b6200029b816200027c565b8114620002a757600080fd5b50565b600081519050620002bb8162000290565b92915050565b60008060408385031215620002db57620002da62000257565b5b6000620002eb85828601620002aa565b9250506020620002fe85828601620002aa565b9150509250929050565b6000819050919050565b6200031d8162000308565b81146200032957600080fd5b50565b6000815190506200033d8162000312565b92915050565b6000602082840312156200035c576200035b62000257565b5b60006200036c848285016200032c565b91505092915050565b61156a80620003856000396000f3fe6080604052600436106100745760003560e01c80638da5cb5b1161004e5780638da5cb5b146100d7578063cbdd69b514610102578063d0febe4c1461012d578063f2fde38b1461014b5761007b565b80633ccfd60b146100805780636c11bcd314610097578063715018a6146100c05761007b565b3661007b57005b600080fd5b34801561008c57600080fd5b50610095610174565b005b3480156100a357600080fd5b506100be60048036038101906100b99190610b6a565b610274565b005b3480156100cc57600080fd5b506100d56105ee565b005b3480156100e357600080fd5b506100ec610602565b6040516100f99190610bd8565b60405180910390f35b34801561010e57600080fd5b5061011761062b565b6040516101249190610c02565b60405180910390f35b610135610631565b6040516101429190610c02565b60405180910390f35b34801561015757600080fd5b50610172600480360381019061016d9190610c49565b6108b9565b005b61017c61093d565b6000479050600081116101c4576040517f08c379a00000000000000000000000000000000000000000000000000000000081526004016101bb90610cf9565b60405180910390fd5b60003373ffffffffffffffffffffffffffffffffffffffff16476040516101ea90610d4a565b60006040518083038185875af1925050503d8060008114610227576040519150601f19603f3d011682016040523d82523d6000602084013e61022c565b606091505b5050905080610270576040517f08c379a000000000000000000000000000000000000000000000000000000000815260040161026790610dd1565b60405180910390fd5b5050565b61027c6109bb565b600081116102bf576040517f08c379a00000000000000000000000000000000000000000000000000000000081526004016102b690610e63565b60405180910390fd5b6000600160009054906101000a900473ffffffffffffffffffffffffffffffffffffffff1673ffffffffffffffffffffffffffffffffffffffff166370a08231336040518263ffffffff1660e01b815260040161031c9190610bd8565b60206040518083038186803b15801561033457600080fd5b505afa158015610348573d6000803e3d6000fd5b505050506040513d601f19601f8201168201806040525081019061036c9190610e98565b9050818110156103b1576040517f08c379a00000000000000000000000000000000000000000000000000000000081526004016103a890610f37565b60405180910390fd5b6000600354836103c19190610fb5565b905060004790508181101561040b576040517f08c379a000000000000000000000000000000000000000000000000000000000815260040161040290611058565b60405180910390fd5b6000600160009054906101000a900473ffffffffffffffffffffffffffffffffffffffff1673ffffffffffffffffffffffffffffffffffffffff166323b872dd3330886040518463ffffffff1660e01b815260040161046c93929190611078565b602060405180830381600087803b15801561048657600080fd5b505af115801561049a573d6000803e3d6000fd5b505050506040513d601f19601f820116820180604052508101906104be91906110e7565b905080610500576040517f08c379a00000000000000000000000000000000000000000000000000000000081526004016104f790611186565b60405180910390fd5b3373ffffffffffffffffffffffffffffffffffffffff168360405161052490610d4a565b60006040518083038185875af1925050503d8060008114610561576040519150601f19603f3d011682016040523d82523d6000602084013e610566565b606091505b505080915050806105ac576040517f08c379a00000000000000000000000000000000000000000000000000000000081526004016105a3906111f2565b60405180910390fd5b7fa24838acd4af5195a2396965dae5abf54e84e8c19f5698bb966ae64e29994ee53386856040516105df93929190611212565b60405180910390a15050505050565b6105f661093d565b6106006000610a63565b565b60008060009054906101000a900473ffffffffffffffffffffffffffffffffffffffff16905090565b60035481565b600061063b6109bb565b6000341161067e576040517f08c379a000000000000000000000000000000000000000000000000000000000815260040161067590611295565b60405180910390fd5b60006003543461068e91906112b5565b90506000600160009054906101000a900473ffffffffffffffffffffffffffffffffffffffff1673ffffffffffffffffffffffffffffffffffffffff166370a08231306040518263ffffffff1660e01b81526004016106ed9190610bd8565b60206040518083038186803b15801561070557600080fd5b505afa158015610719573d6000803e3d6000fd5b505050506040513d601f19601f8201168201806040525081019061073d9190610e98565b905081811015610782576040517f08c379a000000000000000000000000000000000000000000000000000000000815260040161077990611381565b60405180910390fd5b6000600160009054906101000a900473ffffffffffffffffffffffffffffffffffffffff1673ffffffffffffffffffffffffffffffffffffffff1663a9059cbb33856040518363ffffffff1660e01b81526004016107e19291906113a1565b602060405180830381600087803b1580156107fb57600080fd5b505af115801561080f573d6000803e3d6000fd5b505050506040513d601f19601f8201168201806040525081019061083391906110e7565b905080610875576040517f08c379a000000000000000000000000000000000000000000000000000000000815260040161086c90611416565b60405180910390fd5b7f0a37b72bb67eee30e09084cf386f8a17817c57f620c3ab95fb25d6a20356ec773334856040516108a893929190611212565b60405180910390a182935050505090565b6108c161093d565b600073ffffffffffffffffffffffffffffffffffffffff168173ffffffffffffffffffffffffffffffffffffffff161415610931576040517f08c379a0000000000000000000000000000000000000000000000000000000008152600401610928906114a8565b60405180910390fd5b61093a81610a63565b50565b610945610b27565b73ffffffffffffffffffffffffffffffffffffffff16610963610602565b73ffffffffffffffffffffffffffffffffffffffff16146109b9576040517f08c379a00000000000000000000000000000000000000000000000000000000081526004016109b090611514565b60405180910390fd5b565b600260009054906101000a900473ffffffffffffffffffffffffffffffffffffffff1673ffffffffffffffffffffffffffffffffffffffff166398d5fdca6040518163ffffffff1660e01b815260040160206040518083038186803b158015610a2357600080fd5b505afa158015610a37573d6000803e3d6000fd5b505050506040513d601f19601f82011682018060405250810190610a5b9190610e98565b600381905550565b60008060009054906101000a900473ffffffffffffffffffffffffffffffffffffffff169050816000806101000a81548173ffffffffffffffffffffffffffffffffffffffff021916908373ffffffffffffffffffffffffffffffffffffffff1602179055508173ffffffffffffffffffffffffffffffffffffffff168173ffffffffffffffffffffffffffffffffffffffff167f8be0079c531659141344cd1fd0a4f28419497f9722a3daafe3b4186f6b6457e060405160405180910390a35050565b600033905090565b600080fd5b6000819050919050565b610b4781610b34565b8114610b5257600080fd5b50565b600081359050610b6481610b3e565b92915050565b600060208284031215610b8057610b7f610b2f565b5b6000610b8e84828501610b55565b91505092915050565b600073ffffffffffffffffffffffffffffffffffffffff82169050919050565b6000610bc282610b97565b9050919050565b610bd281610bb7565b82525050565b6000602082019050610bed6000830184610bc9565b92915050565b610bfc81610b34565b82525050565b6000602082019050610c176000830184610bf3565b92915050565b610c2681610bb7565b8114610c3157600080fd5b50565b600081359050610c4381610c1d565b92915050565b600060208284031215610c5f57610c5e610b2f565b5b6000610c6d84828501610c34565b91505092915050565b600082825260208201905092915050565b7f4f776e657220686173206e6f742062616c616e636520746f207769746864726160008201527f7700000000000000000000000000000000000000000000000000000000000000602082015250565b6000610ce3602183610c76565b9150610cee82610c87565b604082019050919050565b60006020820190508181036000830152610d1281610cd6565b9050919050565b600081905092915050565b50565b6000610d34600083610d19565b9150610d3f82610d24565b600082019050919050565b6000610d5582610d27565b9150819050919050565b7f4661696c656420746f2073656e6420757365722062616c616e6365206261636b60008201527f20746f20746865206f776e657200000000000000000000000000000000000000602082015250565b6000610dbb602d83610c76565b9150610dc682610d5f565b604082019050919050565b60006020820190508181036000830152610dea81610dae565b9050919050565b7f5370656369667920616e20616d6f756e74206f6620746f6b656e20677265617460008201527f6572207468616e207a65726f0000000000000000000000000000000000000000602082015250565b6000610e4d602c83610c76565b9150610e5882610df1565b604082019050919050565b60006020820190508181036000830152610e7c81610e40565b9050919050565b600081519050610e9281610b3e565b92915050565b600060208284031215610eae57610ead610b2f565b5b6000610ebc84828501610e83565b91505092915050565b7f596f75722062616c616e6365206973206c6f776572207468616e20746865206160008201527f6d6f756e74206f6620746f6b656e7320796f752077616e7420746f2073656c6c602082015250565b6000610f21604083610c76565b9150610f2c82610ec5565b604082019050919050565b60006020820190508181036000830152610f5081610f14565b9050919050565b7f4e487b7100000000000000000000000000000000000000000000000000000000600052601260045260246000fd5b7f4e487b7100000000000000000000000000000000000000000000000000000000600052601160045260246000fd5b6000610fc082610b34565b9150610fcb83610b34565b925082610fdb57610fda610f57565b5b828204905092915050565b7f56656e646f7220686173206e6f7420656e6f7567682066756e647320746f206160008201527f6363657074207468652073656c6c207265717565737400000000000000000000602082015250565b6000611042603683610c76565b915061104d82610fe6565b604082019050919050565b6000602082019050818103600083015261107181611035565b9050919050565b600060608201905061108d6000830186610bc9565b61109a6020830185610bc9565b6110a76040830184610bf3565b949350505050565b60008115159050919050565b6110c4816110af565b81146110cf57600080fd5b50565b6000815190506110e1816110bb565b92915050565b6000602082840312156110fd576110fc610b2f565b5b600061110b848285016110d2565b91505092915050565b7f4661696c656420746f207472616e7366657220746f6b656e732066726f6d207560008201527f73657220746f2076656e646f7200000000000000000000000000000000000000602082015250565b6000611170602d83610c76565b915061117b82611114565b604082019050919050565b6000602082019050818103600083015261119f81611163565b9050919050565b7f4661696c656420746f2073656e642045544820746f2074686520757365720000600082015250565b60006111dc601e83610c76565b91506111e7826111a6565b602082019050919050565b6000602082019050818103600083015261120b816111cf565b9050919050565b60006060820190506112276000830186610bc9565b6112346020830185610bf3565b6112416040830184610bf3565b949350505050565b7f53656e642045544820746f2062757920736f6d6520746f6b656e730000000000600082015250565b600061127f601b83610c76565b915061128a82611249565b602082019050919050565b600060208201905081810360008301526112ae81611272565b9050919050565b60006112c082610b34565b91506112cb83610b34565b9250817fffffffffffffffffffffffffffffffffffffffffffffffffffffffffffffffff048311821515161561130457611303610f86565b5b828202905092915050565b7f56656e646f7220636f6e747261637420686173206e6f7420656e6f756768207460008201527f6f6b656e7320696e206974732062616c616e6365000000000000000000000000602082015250565b600061136b603483610c76565b91506113768261130f565b604082019050919050565b6000602082019050818103600083015261139a8161135e565b9050919050565b60006040820190506113b66000830185610bc9565b6113c36020830184610bf3565b9392505050565b7f4661696c656420746f207472616e7366657220746f6b656e20746f2075736572600082015250565b6000611400602083610c76565b915061140b826113ca565b602082019050919050565b6000602082019050818103600083015261142f816113f3565b9050919050565b7f4f776e61626c653a206e6577206f776e657220697320746865207a65726f206160008201527f6464726573730000000000000000000000000000000000000000000000000000602082015250565b6000611492602683610c76565b915061149d82611436565b604082019050919050565b600060208201905081810360008301526114c181611485565b9050919050565b7f4f776e61626c653a2063616c6c6572206973206e6f7420746865206f776e6572600082015250565b60006114fe602083610c76565b9150611509826114c8565b602082019050919050565b6000602082019050818103600083015261152d816114f1565b905091905056fea264697066735822122030dcdddf90f208eb6132e9b7d2755e9e9a15ead67f2a48cd1f20814a4ad0c4a664736f6c63430008090033",
			"opcodes": "PUSH1 0x80 PUSH1 0x40 MSTORE CALLVALUE DUP1 ISZERO PUSH3 0x11 JUMPI PUSH1 0x0 DUP1 REVERT JUMPDEST POP PUSH1 0x40 MLOAD PUSH3 0x18EF CODESIZE SUB DUP1 PUSH3 0x18EF DUP4 CODECOPY DUP2 DUP2 ADD PUSH1 0x40 MSTORE DUP2 ADD SWAP1 PUSH3 0x37 SWAP2 SWAP1 PUSH3 0x2C1 JUMP JUMPDEST PUSH3 0x57 PUSH3 0x4B PUSH3 0x18B PUSH1 0x20 SHL PUSH1 0x20 SHR JUMP JUMPDEST PUSH3 0x193 PUSH1 0x20 SHL PUSH1 0x20 SHR JUMP JUMPDEST DUP2 PUSH1 0x1 PUSH1 0x0 PUSH2 0x100 EXP DUP2 SLOAD DUP2 PUSH20 0xFFFFFFFFFFFFFFFFFFFFFFFFFFFFFFFFFFFFFFFF MUL NOT AND SWAP1 DUP4 PUSH20 0xFFFFFFFFFFFFFFFFFFFFFFFFFFFFFFFFFFFFFFFF AND MUL OR SWAP1 SSTORE POP DUP1 PUSH1 0x2 PUSH1 0x0 PUSH2 0x100 EXP DUP2 SLOAD DUP2 PUSH20 0xFFFFFFFFFFFFFFFFFFFFFFFFFFFFFFFFFFFFFFFF MUL NOT AND SWAP1 DUP4 PUSH20 0xFFFFFFFFFFFFFFFFFFFFFFFFFFFFFFFFFFFFFFFF AND MUL OR SWAP1 SSTORE POP PUSH1 0x2 PUSH1 0x0 SWAP1 SLOAD SWAP1 PUSH2 0x100 EXP SWAP1 DIV PUSH20 0xFFFFFFFFFFFFFFFFFFFFFFFFFFFFFFFFFFFFFFFF AND PUSH20 0xFFFFFFFFFFFFFFFFFFFFFFFFFFFFFFFFFFFFFFFF AND PUSH4 0x98D5FDCA PUSH1 0x40 MLOAD DUP2 PUSH4 0xFFFFFFFF AND PUSH1 0xE0 SHL DUP2 MSTORE PUSH1 0x4 ADD PUSH1 0x20 PUSH1 0x40 MLOAD DUP1 DUP4 SUB DUP2 DUP7 DUP1 EXTCODESIZE ISZERO DUP1 ISZERO PUSH3 0x142 JUMPI PUSH1 0x0 DUP1 REVERT JUMPDEST POP GAS STATICCALL ISZERO DUP1 ISZERO PUSH3 0x157 JUMPI RETURNDATASIZE PUSH1 0x0 DUP1 RETURNDATACOPY RETURNDATASIZE PUSH1 0x0 REVERT JUMPDEST POP POP POP POP PUSH1 0x40 MLOAD RETURNDATASIZE PUSH1 0x1F NOT PUSH1 0x1F DUP3 ADD AND DUP3 ADD DUP1 PUSH1 0x40 MSTORE POP DUP2 ADD SWAP1 PUSH3 0x17D SWAP2 SWAP1 PUSH3 0x343 JUMP JUMPDEST PUSH1 0x3 DUP2 SWAP1 SSTORE POP POP POP PUSH3 0x375 JUMP JUMPDEST PUSH1 0x0 CALLER SWAP1 POP SWAP1 JUMP JUMPDEST PUSH1 0x0 DUP1 PUSH1 0x0 SWAP1 SLOAD SWAP1 PUSH2 0x100 EXP SWAP1 DIV PUSH20 0xFFFFFFFFFFFFFFFFFFFFFFFFFFFFFFFFFFFFFFFF AND SWAP1 POP DUP2 PUSH1 0x0 DUP1 PUSH2 0x100 EXP DUP2 SLOAD DUP2 PUSH20 0xFFFFFFFFFFFFFFFFFFFFFFFFFFFFFFFFFFFFFFFF MUL NOT AND SWAP1 DUP4 PUSH20 0xFFFFFFFFFFFFFFFFFFFFFFFFFFFFFFFFFFFFFFFF AND MUL OR SWAP1 SSTORE POP DUP2 PUSH20 0xFFFFFFFFFFFFFFFFFFFFFFFFFFFFFFFFFFFFFFFF AND DUP2 PUSH20 0xFFFFFFFFFFFFFFFFFFFFFFFFFFFFFFFFFFFFFFFF AND PUSH32 0x8BE0079C531659141344CD1FD0A4F28419497F9722A3DAAFE3B4186F6B6457E0 PUSH1 0x40 MLOAD PUSH1 0x40 MLOAD DUP1 SWAP2 SUB SWAP1 LOG3 POP POP JUMP JUMPDEST PUSH1 0x0 DUP1 REVERT JUMPDEST PUSH1 0x0 PUSH20 0xFFFFFFFFFFFFFFFFFFFFFFFFFFFFFFFFFFFFFFFF DUP3 AND SWAP1 POP SWAP2 SWAP1 POP JUMP JUMPDEST PUSH1 0x0 PUSH3 0x289 DUP3 PUSH3 0x25C JUMP JUMPDEST SWAP1 POP SWAP2 SWAP1 POP JUMP JUMPDEST PUSH3 0x29B DUP2 PUSH3 0x27C JUMP JUMPDEST DUP2 EQ PUSH3 0x2A7 JUMPI PUSH1 0x0 DUP1 REVERT JUMPDEST POP JUMP JUMPDEST PUSH1 0x0 DUP2 MLOAD SWAP1 POP PUSH3 0x2BB DUP2 PUSH3 0x290 JUMP JUMPDEST SWAP3 SWAP2 POP POP JUMP JUMPDEST PUSH1 0x0 DUP1 PUSH1 0x40 DUP4 DUP6 SUB SLT ISZERO PUSH3 0x2DB JUMPI PUSH3 0x2DA PUSH3 0x257 JUMP JUMPDEST JUMPDEST PUSH1 0x0 PUSH3 0x2EB DUP6 DUP3 DUP7 ADD PUSH3 0x2AA JUMP JUMPDEST SWAP3 POP POP PUSH1 0x20 PUSH3 0x2FE DUP6 DUP3 DUP7 ADD PUSH3 0x2AA JUMP JUMPDEST SWAP2 POP POP SWAP3 POP SWAP3 SWAP1 POP JUMP JUMPDEST PUSH1 0x0 DUP2 SWAP1 POP SWAP2 SWAP1 POP JUMP JUMPDEST PUSH3 0x31D DUP2 PUSH3 0x308 JUMP JUMPDEST DUP2 EQ PUSH3 0x329 JUMPI PUSH1 0x0 DUP1 REVERT JUMPDEST POP JUMP JUMPDEST PUSH1 0x0 DUP2 MLOAD SWAP1 POP PUSH3 0x33D DUP2 PUSH3 0x312 JUMP JUMPDEST SWAP3 SWAP2 POP POP JUMP JUMPDEST PUSH1 0x0 PUSH1 0x20 DUP3 DUP5 SUB SLT ISZERO PUSH3 0x35C JUMPI PUSH3 0x35B PUSH3 0x257 JUMP JUMPDEST JUMPDEST PUSH1 0x0 PUSH3 0x36C DUP5 DUP3 DUP6 ADD PUSH3 0x32C JUMP JUMPDEST SWAP2 POP POP SWAP3 SWAP2 POP POP JUMP JUMPDEST PUSH2 0x156A DUP1 PUSH3 0x385 PUSH1 0x0 CODECOPY PUSH1 0x0 RETURN INVALID PUSH1 0x80 PUSH1 0x40 MSTORE PUSH1 0x4 CALLDATASIZE LT PUSH2 0x74 JUMPI PUSH1 0x0 CALLDATALOAD PUSH1 0xE0 SHR DUP1 PUSH4 0x8DA5CB5B GT PUSH2 0x4E JUMPI DUP1 PUSH4 0x8DA5CB5B EQ PUSH2 0xD7 JUMPI DUP1 PUSH4 0xCBDD69B5 EQ PUSH2 0x102 JUMPI DUP1 PUSH4 0xD0FEBE4C EQ PUSH2 0x12D JUMPI DUP1 PUSH4 0xF2FDE38B EQ PUSH2 0x14B JUMPI PUSH2 0x7B JUMP JUMPDEST DUP1 PUSH4 0x3CCFD60B EQ PUSH2 0x80 JUMPI DUP1 PUSH4 0x6C11BCD3 EQ PUSH2 0x97 JUMPI DUP1 PUSH4 0x715018A6 EQ PUSH2 0xC0 JUMPI PUSH2 0x7B JUMP JUMPDEST CALLDATASIZE PUSH2 0x7B JUMPI STOP JUMPDEST PUSH1 0x0 DUP1 REVERT JUMPDEST CALLVALUE DUP1 ISZERO PUSH2 0x8C JUMPI PUSH1 0x0 DUP1 REVERT JUMPDEST POP PUSH2 0x95 PUSH2 0x174 JUMP JUMPDEST STOP JUMPDEST CALLVALUE DUP1 ISZERO PUSH2 0xA3 JUMPI PUSH1 0x0 DUP1 REVERT JUMPDEST POP PUSH2 0xBE PUSH1 0x4 DUP1 CALLDATASIZE SUB DUP2 ADD SWAP1 PUSH2 0xB9 SWAP2 SWAP1 PUSH2 0xB6A JUMP JUMPDEST PUSH2 0x274 JUMP JUMPDEST STOP JUMPDEST CALLVALUE DUP1 ISZERO PUSH2 0xCC JUMPI PUSH1 0x0 DUP1 REVERT JUMPDEST POP PUSH2 0xD5 PUSH2 0x5EE JUMP JUMPDEST STOP JUMPDEST CALLVALUE DUP1 ISZERO PUSH2 0xE3 JUMPI PUSH1 0x0 DUP1 REVERT JUMPDEST POP PUSH2 0xEC PUSH2 0x602 JUMP JUMPDEST PUSH1 0x40 MLOAD PUSH2 0xF9 SWAP2 SWAP1 PUSH2 0xBD8 JUMP JUMPDEST PUSH1 0x40 MLOAD DUP1 SWAP2 SUB SWAP1 RETURN JUMPDEST CALLVALUE DUP1 ISZERO PUSH2 0x10E JUMPI PUSH1 0x0 DUP1 REVERT JUMPDEST POP PUSH2 0x117 PUSH2 0x62B JUMP JUMPDEST PUSH1 0x40 MLOAD PUSH2 0x124 SWAP2 SWAP1 PUSH2 0xC02 JUMP JUMPDEST PUSH1 0x40 MLOAD DUP1 SWAP2 SUB SWAP1 RETURN JUMPDEST PUSH2 0x135 PUSH2 0x631 JUMP JUMPDEST PUSH1 0x40 MLOAD PUSH2 0x142 SWAP2 SWAP1 PUSH2 0xC02 JUMP JUMPDEST PUSH1 0x40 MLOAD DUP1 SWAP2 SUB SWAP1 RETURN JUMPDEST CALLVALUE DUP1 ISZERO PUSH2 0x157 JUMPI PUSH1 0x0 DUP1 REVERT JUMPDEST POP PUSH2 0x172 PUSH1 0x4 DUP1 CALLDATASIZE SUB DUP2 ADD SWAP1 PUSH2 0x16D SWAP2 SWAP1 PUSH2 0xC49 JUMP JUMPDEST PUSH2 0x8B9 JUMP JUMPDEST STOP JUMPDEST PUSH2 0x17C PUSH2 0x93D JUMP JUMPDEST PUSH1 0x0 SELFBALANCE SWAP1 POP PUSH1 0x0 DUP2 GT PUSH2 0x1C4 JUMPI PUSH1 0x40 MLOAD PUSH32 0x8C379A000000000000000000000000000000000000000000000000000000000 DUP2 MSTORE PUSH1 0x4 ADD PUSH2 0x1BB SWAP1 PUSH2 0xCF9 JUMP JUMPDEST PUSH1 0x40 MLOAD DUP1 SWAP2 SUB SWAP1 REVERT JUMPDEST PUSH1 0x0 CALLER PUSH20 0xFFFFFFFFFFFFFFFFFFFFFFFFFFFFFFFFFFFFFFFF AND SELFBALANCE PUSH1 0x40 MLOAD PUSH2 0x1EA SWAP1 PUSH2 0xD4A JUMP JUMPDEST PUSH1 0x0 PUSH1 0x40 MLOAD DUP1 DUP4 SUB DUP2 DUP6 DUP8 GAS CALL SWAP3 POP POP POP RETURNDATASIZE DUP1 PUSH1 0x0 DUP2 EQ PUSH2 0x227 JUMPI PUSH1 0x40 MLOAD SWAP2 POP PUSH1 0x1F NOT PUSH1 0x3F RETURNDATASIZE ADD AND DUP3 ADD PUSH1 0x40 MSTORE RETURNDATASIZE DUP3 MSTORE RETURNDATASIZE PUSH1 0x0 PUSH1 0x20 DUP5 ADD RETURNDATACOPY PUSH2 0x22C JUMP JUMPDEST PUSH1 0x60 SWAP2 POP JUMPDEST POP POP SWAP1 POP DUP1 PUSH2 0x270 JUMPI PUSH1 0x40 MLOAD PUSH32 0x8C379A000000000000000000000000000000000000000000000000000000000 DUP2 MSTORE PUSH1 0x4 ADD PUSH2 0x267 SWAP1 PUSH2 0xDD1 JUMP JUMPDEST PUSH1 0x40 MLOAD DUP1 SWAP2 SUB SWAP1 REVERT JUMPDEST POP POP JUMP JUMPDEST PUSH2 0x27C PUSH2 0x9BB JUMP JUMPDEST PUSH1 0x0 DUP2 GT PUSH2 0x2BF JUMPI PUSH1 0x40 MLOAD PUSH32 0x8C379A000000000000000000000000000000000000000000000000000000000 DUP2 MSTORE PUSH1 0x4 ADD PUSH2 0x2B6 SWAP1 PUSH2 0xE63 JUMP JUMPDEST PUSH1 0x40 MLOAD DUP1 SWAP2 SUB SWAP1 REVERT JUMPDEST PUSH1 0x0 PUSH1 0x1 PUSH1 0x0 SWAP1 SLOAD SWAP1 PUSH2 0x100 EXP SWAP1 DIV PUSH20 0xFFFFFFFFFFFFFFFFFFFFFFFFFFFFFFFFFFFFFFFF AND PUSH20 0xFFFFFFFFFFFFFFFFFFFFFFFFFFFFFFFFFFFFFFFF AND PUSH4 0x70A08231 CALLER PUSH1 0x40 MLOAD DUP3 PUSH4 0xFFFFFFFF AND PUSH1 0xE0 SHL DUP2 MSTORE PUSH1 0x4 ADD PUSH2 0x31C SWAP2 SWAP1 PUSH2 0xBD8 JUMP JUMPDEST PUSH1 0x20 PUSH1 0x40 MLOAD DUP1 DUP4 SUB DUP2 DUP7 DUP1 EXTCODESIZE ISZERO DUP1 ISZERO PUSH2 0x334 JUMPI PUSH1 0x0 DUP1 REVERT JUMPDEST POP GAS STATICCALL ISZERO DUP1 ISZERO PUSH2 0x348 JUMPI RETURNDATASIZE PUSH1 0x0 DUP1 RETURNDATACOPY RETURNDATASIZE PUSH1 0x0 REVERT JUMPDEST POP POP POP POP PUSH1 0x40 MLOAD RETURNDATASIZE PUSH1 0x1F NOT PUSH1 0x1F DUP3 ADD AND DUP3 ADD DUP1 PUSH1 0x40 MSTORE POP DUP2 ADD SWAP1 PUSH2 0x36C SWAP2 SWAP1 PUSH2 0xE98 JUMP JUMPDEST SWAP1 POP DUP2 DUP2 LT ISZERO PUSH2 0x3B1 JUMPI PUSH1 0x40 MLOAD PUSH32 0x8C379A000000000000000000000000000000000000000000000000000000000 DUP2 MSTORE PUSH1 0x4 ADD PUSH2 0x3A8 SWAP1 PUSH2 0xF37 JUMP JUMPDEST PUSH1 0x40 MLOAD DUP1 SWAP2 SUB SWAP1 REVERT JUMPDEST PUSH1 0x0 PUSH1 0x3 SLOAD DUP4 PUSH2 0x3C1 SWAP2 SWAP1 PUSH2 0xFB5 JUMP JUMPDEST SWAP1 POP PUSH1 0x0 SELFBALANCE SWAP1 POP DUP2 DUP2 LT ISZERO PUSH2 0x40B JUMPI PUSH1 0x40 MLOAD PUSH32 0x8C379A000000000000000000000000000000000000000000000000000000000 DUP2 MSTORE PUSH1 0x4 ADD PUSH2 0x402 SWAP1 PUSH2 0x1058 JUMP JUMPDEST PUSH1 0x40 MLOAD DUP1 SWAP2 SUB SWAP1 REVERT JUMPDEST PUSH1 0x0 PUSH1 0x1 PUSH1 0x0 SWAP1 SLOAD SWAP1 PUSH2 0x100 EXP SWAP1 DIV PUSH20 0xFFFFFFFFFFFFFFFFFFFFFFFFFFFFFFFFFFFFFFFF AND PUSH20 0xFFFFFFFFFFFFFFFFFFFFFFFFFFFFFFFFFFFFFFFF AND PUSH4 0x23B872DD CALLER ADDRESS DUP9 PUSH1 0x40 MLOAD DUP5 PUSH4 0xFFFFFFFF AND PUSH1 0xE0 SHL DUP2 MSTORE PUSH1 0x4 ADD PUSH2 0x46C SWAP4 SWAP3 SWAP2 SWAP1 PUSH2 0x1078 JUMP JUMPDEST PUSH1 0x20 PUSH1 0x40 MLOAD DUP1 DUP4 SUB DUP2 PUSH1 0x0 DUP8 DUP1 EXTCODESIZE ISZERO DUP1 ISZERO PUSH2 0x486 JUMPI PUSH1 0x0 DUP1 REVERT JUMPDEST POP GAS CALL ISZERO DUP1 ISZERO PUSH2 0x49A JUMPI RETURNDATASIZE PUSH1 0x0 DUP1 RETURNDATACOPY RETURNDATASIZE PUSH1 0x0 REVERT JUMPDEST POP POP POP POP PUSH1 0x40 MLOAD RETURNDATASIZE PUSH1 0x1F NOT PUSH1 0x1F DUP3 ADD AND DUP3 ADD DUP1 PUSH1 0x40 MSTORE POP DUP2 ADD SWAP1 PUSH2 0x4BE SWAP2 SWAP1 PUSH2 0x10E7 JUMP JUMPDEST SWAP1 POP DUP1 PUSH2 0x500 JUMPI PUSH1 0x40 MLOAD PUSH32 0x8C379A000000000000000000000000000000000000000000000000000000000 DUP2 MSTORE PUSH1 0x4 ADD PUSH2 0x4F7 SWAP1 PUSH2 0x1186 JUMP JUMPDEST PUSH1 0x40 MLOAD DUP1 SWAP2 SUB SWAP1 REVERT JUMPDEST CALLER PUSH20 0xFFFFFFFFFFFFFFFFFFFFFFFFFFFFFFFFFFFFFFFF AND DUP4 PUSH1 0x40 MLOAD PUSH2 0x524 SWAP1 PUSH2 0xD4A JUMP JUMPDEST PUSH1 0x0 PUSH1 0x40 MLOAD DUP1 DUP4 SUB DUP2 DUP6 DUP8 GAS CALL SWAP3 POP POP POP RETURNDATASIZE DUP1 PUSH1 0x0 DUP2 EQ PUSH2 0x561 JUMPI PUSH1 0x40 MLOAD SWAP2 POP PUSH1 0x1F NOT PUSH1 0x3F RETURNDATASIZE ADD AND DUP3 ADD PUSH1 0x40 MSTORE RETURNDATASIZE DUP3 MSTORE RETURNDATASIZE PUSH1 0x0 PUSH1 0x20 DUP5 ADD RETURNDATACOPY PUSH2 0x566 JUMP JUMPDEST PUSH1 0x60 SWAP2 POP JUMPDEST POP POP DUP1 SWAP2 POP POP DUP1 PUSH2 0x5AC JUMPI PUSH1 0x40 MLOAD PUSH32 0x8C379A000000000000000000000000000000000000000000000000000000000 DUP2 MSTORE PUSH1 0x4 ADD PUSH2 0x5A3 SWAP1 PUSH2 0x11F2 JUMP JUMPDEST PUSH1 0x40 MLOAD DUP1 SWAP2 SUB SWAP1 REVERT JUMPDEST PUSH32 0xA24838ACD4AF5195A2396965DAE5ABF54E84E8C19F5698BB966AE64E29994EE5 CALLER DUP7 DUP6 PUSH1 0x40 MLOAD PUSH2 0x5DF SWAP4 SWAP3 SWAP2 SWAP1 PUSH2 0x1212 JUMP JUMPDEST PUSH1 0x40 MLOAD DUP1 SWAP2 SUB SWAP1 LOG1 POP POP POP POP POP JUMP JUMPDEST PUSH2 0x5F6 PUSH2 0x93D JUMP JUMPDEST PUSH2 0x600 PUSH1 0x0 PUSH2 0xA63 JUMP JUMPDEST JUMP JUMPDEST PUSH1 0x0 DUP1 PUSH1 0x0 SWAP1 SLOAD SWAP1 PUSH2 0x100 EXP SWAP1 DIV PUSH20 0xFFFFFFFFFFFFFFFFFFFFFFFFFFFFFFFFFFFFFFFF AND SWAP1 POP SWAP1 JUMP JUMPDEST PUSH1 0x3 SLOAD DUP2 JUMP JUMPDEST PUSH1 0x0 PUSH2 0x63B PUSH2 0x9BB JUMP JUMPDEST PUSH1 0x0 CALLVALUE GT PUSH2 0x67E JUMPI PUSH1 0x40 MLOAD PUSH32 0x8C379A000000000000000000000000000000000000000000000000000000000 DUP2 MSTORE PUSH1 0x4 ADD PUSH2 0x675 SWAP1 PUSH2 0x1295 JUMP JUMPDEST PUSH1 0x40 MLOAD DUP1 SWAP2 SUB SWAP1 REVERT JUMPDEST PUSH1 0x0 PUSH1 0x3 SLOAD CALLVALUE PUSH2 0x68E SWAP2 SWAP1 PUSH2 0x12B5 JUMP JUMPDEST SWAP1 POP PUSH1 0x0 PUSH1 0x1 PUSH1 0x0 SWAP1 SLOAD SWAP1 PUSH2 0x100 EXP SWAP1 DIV PUSH20 0xFFFFFFFFFFFFFFFFFFFFFFFFFFFFFFFFFFFFFFFF AND PUSH20 0xFFFFFFFFFFFFFFFFFFFFFFFFFFFFFFFFFFFFFFFF AND PUSH4 0x70A08231 ADDRESS PUSH1 0x40 MLOAD DUP3 PUSH4 0xFFFFFFFF AND PUSH1 0xE0 SHL DUP2 MSTORE PUSH1 0x4 ADD PUSH2 0x6ED SWAP2 SWAP1 PUSH2 0xBD8 JUMP JUMPDEST PUSH1 0x20 PUSH1 0x40 MLOAD DUP1 DUP4 SUB DUP2 DUP7 DUP1 EXTCODESIZE ISZERO DUP1 ISZERO PUSH2 0x705 JUMPI PUSH1 0x0 DUP1 REVERT JUMPDEST POP GAS STATICCALL ISZERO DUP1 ISZERO PUSH2 0x719 JUMPI RETURNDATASIZE PUSH1 0x0 DUP1 RETURNDATACOPY RETURNDATASIZE PUSH1 0x0 REVERT JUMPDEST POP POP POP POP PUSH1 0x40 MLOAD RETURNDATASIZE PUSH1 0x1F NOT PUSH1 0x1F DUP3 ADD AND DUP3 ADD DUP1 PUSH1 0x40 MSTORE POP DUP2 ADD SWAP1 PUSH2 0x73D SWAP2 SWAP1 PUSH2 0xE98 JUMP JUMPDEST SWAP1 POP DUP2 DUP2 LT ISZERO PUSH2 0x782 JUMPI PUSH1 0x40 MLOAD PUSH32 0x8C379A000000000000000000000000000000000000000000000000000000000 DUP2 MSTORE PUSH1 0x4 ADD PUSH2 0x779 SWAP1 PUSH2 0x1381 JUMP JUMPDEST PUSH1 0x40 MLOAD DUP1 SWAP2 SUB SWAP1 REVERT JUMPDEST PUSH1 0x0 PUSH1 0x1 PUSH1 0x0 SWAP1 SLOAD SWAP1 PUSH2 0x100 EXP SWAP1 DIV PUSH20 0xFFFFFFFFFFFFFFFFFFFFFFFFFFFFFFFFFFFFFFFF AND PUSH20 0xFFFFFFFFFFFFFFFFFFFFFFFFFFFFFFFFFFFFFFFF AND PUSH4 0xA9059CBB CALLER DUP6 PUSH1 0x40 MLOAD DUP4 PUSH4 0xFFFFFFFF AND PUSH1 0xE0 SHL DUP2 MSTORE PUSH1 0x4 ADD PUSH2 0x7E1 SWAP3 SWAP2 SWAP1 PUSH2 0x13A1 JUMP JUMPDEST PUSH1 0x20 PUSH1 0x40 MLOAD DUP1 DUP4 SUB DUP2 PUSH1 0x0 DUP8 DUP1 EXTCODESIZE ISZERO DUP1 ISZERO PUSH2 0x7FB JUMPI PUSH1 0x0 DUP1 REVERT JUMPDEST POP GAS CALL ISZERO DUP1 ISZERO PUSH2 0x80F JUMPI RETURNDATASIZE PUSH1 0x0 DUP1 RETURNDATACOPY RETURNDATASIZE PUSH1 0x0 REVERT JUMPDEST POP POP POP POP PUSH1 0x40 MLOAD RETURNDATASIZE PUSH1 0x1F NOT PUSH1 0x1F DUP3 ADD AND DUP3 ADD DUP1 PUSH1 0x40 MSTORE POP DUP2 ADD SWAP1 PUSH2 0x833 SWAP2 SWAP1 PUSH2 0x10E7 JUMP JUMPDEST SWAP1 POP DUP1 PUSH2 0x875 JUMPI PUSH1 0x40 MLOAD PUSH32 0x8C379A000000000000000000000000000000000000000000000000000000000 DUP2 MSTORE PUSH1 0x4 ADD PUSH2 0x86C SWAP1 PUSH2 0x1416 JUMP JUMPDEST PUSH1 0x40 MLOAD DUP1 SWAP2 SUB SWAP1 REVERT JUMPDEST PUSH32 0xA37B72BB67EEE30E09084CF386F8A17817C57F620C3AB95FB25D6A20356EC77 CALLER CALLVALUE DUP6 PUSH1 0x40 MLOAD PUSH2 0x8A8 SWAP4 SWAP3 SWAP2 SWAP1 PUSH2 0x1212 JUMP JUMPDEST PUSH1 0x40 MLOAD DUP1 SWAP2 SUB SWAP1 LOG1 DUP3 SWAP4 POP POP POP POP SWAP1 JUMP JUMPDEST PUSH2 0x8C1 PUSH2 0x93D JUMP JUMPDEST PUSH1 0x0 PUSH20 0xFFFFFFFFFFFFFFFFFFFFFFFFFFFFFFFFFFFFFFFF AND DUP2 PUSH20 0xFFFFFFFFFFFFFFFFFFFFFFFFFFFFFFFFFFFFFFFF AND EQ ISZERO PUSH2 0x931 JUMPI PUSH1 0x40 MLOAD PUSH32 0x8C379A000000000000000000000000000000000000000000000000000000000 DUP2 MSTORE PUSH1 0x4 ADD PUSH2 0x928 SWAP1 PUSH2 0x14A8 JUMP JUMPDEST PUSH1 0x40 MLOAD DUP1 SWAP2 SUB SWAP1 REVERT JUMPDEST PUSH2 0x93A DUP2 PUSH2 0xA63 JUMP JUMPDEST POP JUMP JUMPDEST PUSH2 0x945 PUSH2 0xB27 JUMP JUMPDEST PUSH20 0xFFFFFFFFFFFFFFFFFFFFFFFFFFFFFFFFFFFFFFFF AND PUSH2 0x963 PUSH2 0x602 JUMP JUMPDEST PUSH20 0xFFFFFFFFFFFFFFFFFFFFFFFFFFFFFFFFFFFFFFFF AND EQ PUSH2 0x9B9 JUMPI PUSH1 0x40 MLOAD PUSH32 0x8C379A000000000000000000000000000000000000000000000000000000000 DUP2 MSTORE PUSH1 0x4 ADD PUSH2 0x9B0 SWAP1 PUSH2 0x1514 JUMP JUMPDEST PUSH1 0x40 MLOAD DUP1 SWAP2 SUB SWAP1 REVERT JUMPDEST JUMP JUMPDEST PUSH1 0x2 PUSH1 0x0 SWAP1 SLOAD SWAP1 PUSH2 0x100 EXP SWAP1 DIV PUSH20 0xFFFFFFFFFFFFFFFFFFFFFFFFFFFFFFFFFFFFFFFF AND PUSH20 0xFFFFFFFFFFFFFFFFFFFFFFFFFFFFFFFFFFFFFFFF AND PUSH4 0x98D5FDCA PUSH1 0x40 MLOAD DUP2 PUSH4 0xFFFFFFFF AND PUSH1 0xE0 SHL DUP2 MSTORE PUSH1 0x4 ADD PUSH1 0x20 PUSH1 0x40 MLOAD DUP1 DUP4 SUB DUP2 DUP7 DUP1 EXTCODESIZE ISZERO DUP1 ISZERO PUSH2 0xA23 JUMPI PUSH1 0x0 DUP1 REVERT JUMPDEST POP GAS STATICCALL ISZERO DUP1 ISZERO PUSH2 0xA37 JUMPI RETURNDATASIZE PUSH1 0x0 DUP1 RETURNDATACOPY RETURNDATASIZE PUSH1 0x0 REVERT JUMPDEST POP POP POP POP PUSH1 0x40 MLOAD RETURNDATASIZE PUSH1 0x1F NOT PUSH1 0x1F DUP3 ADD AND DUP3 ADD DUP1 PUSH1 0x40 MSTORE POP DUP2 ADD SWAP1 PUSH2 0xA5B SWAP2 SWAP1 PUSH2 0xE98 JUMP JUMPDEST PUSH1 0x3 DUP2 SWAP1 SSTORE POP JUMP JUMPDEST PUSH1 0x0 DUP1 PUSH1 0x0 SWAP1 SLOAD SWAP1 PUSH2 0x100 EXP SWAP1 DIV PUSH20 0xFFFFFFFFFFFFFFFFFFFFFFFFFFFFFFFFFFFFFFFF AND SWAP1 POP DUP2 PUSH1 0x0 DUP1 PUSH2 0x100 EXP DUP2 SLOAD DUP2 PUSH20 0xFFFFFFFFFFFFFFFFFFFFFFFFFFFFFFFFFFFFFFFF MUL NOT AND SWAP1 DUP4 PUSH20 0xFFFFFFFFFFFFFFFFFFFFFFFFFFFFFFFFFFFFFFFF AND MUL OR SWAP1 SSTORE POP DUP2 PUSH20 0xFFFFFFFFFFFFFFFFFFFFFFFFFFFFFFFFFFFFFFFF AND DUP2 PUSH20 0xFFFFFFFFFFFFFFFFFFFFFFFFFFFFFFFFFFFFFFFF AND PUSH32 0x8BE0079C531659141344CD1FD0A4F28419497F9722A3DAAFE3B4186F6B6457E0 PUSH1 0x40 MLOAD PUSH1 0x40 MLOAD DUP1 SWAP2 SUB SWAP1 LOG3 POP POP JUMP JUMPDEST PUSH1 0x0 CALLER SWAP1 POP SWAP1 JUMP JUMPDEST PUSH1 0x0 DUP1 REVERT JUMPDEST PUSH1 0x0 DUP2 SWAP1 POP SWAP2 SWAP1 POP JUMP JUMPDEST PUSH2 0xB47 DUP2 PUSH2 0xB34 JUMP JUMPDEST DUP2 EQ PUSH2 0xB52 JUMPI PUSH1 0x0 DUP1 REVERT JUMPDEST POP JUMP JUMPDEST PUSH1 0x0 DUP2 CALLDATALOAD SWAP1 POP PUSH2 0xB64 DUP2 PUSH2 0xB3E JUMP JUMPDEST SWAP3 SWAP2 POP POP JUMP JUMPDEST PUSH1 0x0 PUSH1 0x20 DUP3 DUP5 SUB SLT ISZERO PUSH2 0xB80 JUMPI PUSH2 0xB7F PUSH2 0xB2F JUMP JUMPDEST JUMPDEST PUSH1 0x0 PUSH2 0xB8E DUP5 DUP3 DUP6 ADD PUSH2 0xB55 JUMP JUMPDEST SWAP2 POP POP SWAP3 SWAP2 POP POP JUMP JUMPDEST PUSH1 0x0 PUSH20 0xFFFFFFFFFFFFFFFFFFFFFFFFFFFFFFFFFFFFFFFF DUP3 AND SWAP1 POP SWAP2 SWAP1 POP JUMP JUMPDEST PUSH1 0x0 PUSH2 0xBC2 DUP3 PUSH2 0xB97 JUMP JUMPDEST SWAP1 POP SWAP2 SWAP1 POP JUMP JUMPDEST PUSH2 0xBD2 DUP2 PUSH2 0xBB7 JUMP JUMPDEST DUP3 MSTORE POP POP JUMP JUMPDEST PUSH1 0x0 PUSH1 0x20 DUP3 ADD SWAP1 POP PUSH2 0xBED PUSH1 0x0 DUP4 ADD DUP5 PUSH2 0xBC9 JUMP JUMPDEST SWAP3 SWAP2 POP POP JUMP JUMPDEST PUSH2 0xBFC DUP2 PUSH2 0xB34 JUMP JUMPDEST DUP3 MSTORE POP POP JUMP JUMPDEST PUSH1 0x0 PUSH1 0x20 DUP3 ADD SWAP1 POP PUSH2 0xC17 PUSH1 0x0 DUP4 ADD DUP5 PUSH2 0xBF3 JUMP JUMPDEST SWAP3 SWAP2 POP POP JUMP JUMPDEST PUSH2 0xC26 DUP2 PUSH2 0xBB7 JUMP JUMPDEST DUP2 EQ PUSH2 0xC31 JUMPI PUSH1 0x0 DUP1 REVERT JUMPDEST POP JUMP JUMPDEST PUSH1 0x0 DUP2 CALLDATALOAD SWAP1 POP PUSH2 0xC43 DUP2 PUSH2 0xC1D JUMP JUMPDEST SWAP3 SWAP2 POP POP JUMP JUMPDEST PUSH1 0x0 PUSH1 0x20 DUP3 DUP5 SUB SLT ISZERO PUSH2 0xC5F JUMPI PUSH2 0xC5E PUSH2 0xB2F JUMP JUMPDEST JUMPDEST PUSH1 0x0 PUSH2 0xC6D DUP5 DUP3 DUP6 ADD PUSH2 0xC34 JUMP JUMPDEST SWAP2 POP POP SWAP3 SWAP2 POP POP JUMP JUMPDEST PUSH1 0x0 DUP3 DUP3 MSTORE PUSH1 0x20 DUP3 ADD SWAP1 POP SWAP3 SWAP2 POP POP JUMP JUMPDEST PUSH32 0x4F776E657220686173206E6F742062616C616E636520746F2077697468647261 PUSH1 0x0 DUP3 ADD MSTORE PUSH32 0x7700000000000000000000000000000000000000000000000000000000000000 PUSH1 0x20 DUP3 ADD MSTORE POP JUMP JUMPDEST PUSH1 0x0 PUSH2 0xCE3 PUSH1 0x21 DUP4 PUSH2 0xC76 JUMP JUMPDEST SWAP2 POP PUSH2 0xCEE DUP3 PUSH2 0xC87 JUMP JUMPDEST PUSH1 0x40 DUP3 ADD SWAP1 POP SWAP2 SWAP1 POP JUMP JUMPDEST PUSH1 0x0 PUSH1 0x20 DUP3 ADD SWAP1 POP DUP2 DUP2 SUB PUSH1 0x0 DUP4 ADD MSTORE PUSH2 0xD12 DUP2 PUSH2 0xCD6 JUMP JUMPDEST SWAP1 POP SWAP2 SWAP1 POP JUMP JUMPDEST PUSH1 0x0 DUP2 SWAP1 POP SWAP3 SWAP2 POP POP JUMP JUMPDEST POP JUMP JUMPDEST PUSH1 0x0 PUSH2 0xD34 PUSH1 0x0 DUP4 PUSH2 0xD19 JUMP JUMPDEST SWAP2 POP PUSH2 0xD3F DUP3 PUSH2 0xD24 JUMP JUMPDEST PUSH1 0x0 DUP3 ADD SWAP1 POP SWAP2 SWAP1 POP JUMP JUMPDEST PUSH1 0x0 PUSH2 0xD55 DUP3 PUSH2 0xD27 JUMP JUMPDEST SWAP2 POP DUP2 SWAP1 POP SWAP2 SWAP1 POP JUMP JUMPDEST PUSH32 0x4661696C656420746F2073656E6420757365722062616C616E6365206261636B PUSH1 0x0 DUP3 ADD MSTORE PUSH32 0x20746F20746865206F776E657200000000000000000000000000000000000000 PUSH1 0x20 DUP3 ADD MSTORE POP JUMP JUMPDEST PUSH1 0x0 PUSH2 0xDBB PUSH1 0x2D DUP4 PUSH2 0xC76 JUMP JUMPDEST SWAP2 POP PUSH2 0xDC6 DUP3 PUSH2 0xD5F JUMP JUMPDEST PUSH1 0x40 DUP3 ADD SWAP1 POP SWAP2 SWAP1 POP JUMP JUMPDEST PUSH1 0x0 PUSH1 0x20 DUP3 ADD SWAP1 POP DUP2 DUP2 SUB PUSH1 0x0 DUP4 ADD MSTORE PUSH2 0xDEA DUP2 PUSH2 0xDAE JUMP JUMPDEST SWAP1 POP SWAP2 SWAP1 POP JUMP JUMPDEST PUSH32 0x5370656369667920616E20616D6F756E74206F6620746F6B656E206772656174 PUSH1 0x0 DUP3 ADD MSTORE PUSH32 0x6572207468616E207A65726F0000000000000000000000000000000000000000 PUSH1 0x20 DUP3 ADD MSTORE POP JUMP JUMPDEST PUSH1 0x0 PUSH2 0xE4D PUSH1 0x2C DUP4 PUSH2 0xC76 JUMP JUMPDEST SWAP2 POP PUSH2 0xE58 DUP3 PUSH2 0xDF1 JUMP JUMPDEST PUSH1 0x40 DUP3 ADD SWAP1 POP SWAP2 SWAP1 POP JUMP JUMPDEST PUSH1 0x0 PUSH1 0x20 DUP3 ADD SWAP1 POP DUP2 DUP2 SUB PUSH1 0x0 DUP4 ADD MSTORE PUSH2 0xE7C DUP2 PUSH2 0xE40 JUMP JUMPDEST SWAP1 POP SWAP2 SWAP1 POP JUMP JUMPDEST PUSH1 0x0 DUP2 MLOAD SWAP1 POP PUSH2 0xE92 DUP2 PUSH2 0xB3E JUMP JUMPDEST SWAP3 SWAP2 POP POP JUMP JUMPDEST PUSH1 0x0 PUSH1 0x20 DUP3 DUP5 SUB SLT ISZERO PUSH2 0xEAE JUMPI PUSH2 0xEAD PUSH2 0xB2F JUMP JUMPDEST JUMPDEST PUSH1 0x0 PUSH2 0xEBC DUP5 DUP3 DUP6 ADD PUSH2 0xE83 JUMP JUMPDEST SWAP2 POP POP SWAP3 SWAP2 POP POP JUMP JUMPDEST PUSH32 0x596F75722062616C616E6365206973206C6F776572207468616E207468652061 PUSH1 0x0 DUP3 ADD MSTORE PUSH32 0x6D6F756E74206F6620746F6B656E7320796F752077616E7420746F2073656C6C PUSH1 0x20 DUP3 ADD MSTORE POP JUMP JUMPDEST PUSH1 0x0 PUSH2 0xF21 PUSH1 0x40 DUP4 PUSH2 0xC76 JUMP JUMPDEST SWAP2 POP PUSH2 0xF2C DUP3 PUSH2 0xEC5 JUMP JUMPDEST PUSH1 0x40 DUP3 ADD SWAP1 POP SWAP2 SWAP1 POP JUMP JUMPDEST PUSH1 0x0 PUSH1 0x20 DUP3 ADD SWAP1 POP DUP2 DUP2 SUB PUSH1 0x0 DUP4 ADD MSTORE PUSH2 0xF50 DUP2 PUSH2 0xF14 JUMP JUMPDEST SWAP1 POP SWAP2 SWAP1 POP JUMP JUMPDEST PUSH32 0x4E487B7100000000000000000000000000000000000000000000000000000000 PUSH1 0x0 MSTORE PUSH1 0x12 PUSH1 0x4 MSTORE PUSH1 0x24 PUSH1 0x0 REVERT JUMPDEST PUSH32 0x4E487B7100000000000000000000000000000000000000000000000000000000 PUSH1 0x0 MSTORE PUSH1 0x11 PUSH1 0x4 MSTORE PUSH1 0x24 PUSH1 0x0 REVERT JUMPDEST PUSH1 0x0 PUSH2 0xFC0 DUP3 PUSH2 0xB34 JUMP JUMPDEST SWAP2 POP PUSH2 0xFCB DUP4 PUSH2 0xB34 JUMP JUMPDEST SWAP3 POP DUP3 PUSH2 0xFDB JUMPI PUSH2 0xFDA PUSH2 0xF57 JUMP JUMPDEST JUMPDEST DUP3 DUP3 DIV SWAP1 POP SWAP3 SWAP2 POP POP JUMP JUMPDEST PUSH32 0x56656E646F7220686173206E6F7420656E6F7567682066756E647320746F2061 PUSH1 0x0 DUP3 ADD MSTORE PUSH32 0x6363657074207468652073656C6C207265717565737400000000000000000000 PUSH1 0x20 DUP3 ADD MSTORE POP JUMP JUMPDEST PUSH1 0x0 PUSH2 0x1042 PUSH1 0x36 DUP4 PUSH2 0xC76 JUMP JUMPDEST SWAP2 POP PUSH2 0x104D DUP3 PUSH2 0xFE6 JUMP JUMPDEST PUSH1 0x40 DUP3 ADD SWAP1 POP SWAP2 SWAP1 POP JUMP JUMPDEST PUSH1 0x0 PUSH1 0x20 DUP3 ADD SWAP1 POP DUP2 DUP2 SUB PUSH1 0x0 DUP4 ADD MSTORE PUSH2 0x1071 DUP2 PUSH2 0x1035 JUMP JUMPDEST SWAP1 POP SWAP2 SWAP1 POP JUMP JUMPDEST PUSH1 0x0 PUSH1 0x60 DUP3 ADD SWAP1 POP PUSH2 0x108D PUSH1 0x0 DUP4 ADD DUP7 PUSH2 0xBC9 JUMP JUMPDEST PUSH2 0x109A PUSH1 0x20 DUP4 ADD DUP6 PUSH2 0xBC9 JUMP JUMPDEST PUSH2 0x10A7 PUSH1 0x40 DUP4 ADD DUP5 PUSH2 0xBF3 JUMP JUMPDEST SWAP5 SWAP4 POP POP POP POP JUMP JUMPDEST PUSH1 0x0 DUP2 ISZERO ISZERO SWAP1 POP SWAP2 SWAP1 POP JUMP JUMPDEST PUSH2 0x10C4 DUP2 PUSH2 0x10AF JUMP JUMPDEST DUP2 EQ PUSH2 0x10CF JUMPI PUSH1 0x0 DUP1 REVERT JUMPDEST POP JUMP JUMPDEST PUSH1 0x0 DUP2 MLOAD SWAP1 POP PUSH2 0x10E1 DUP2 PUSH2 0x10BB JUMP JUMPDEST SWAP3 SWAP2 POP POP JUMP JUMPDEST PUSH1 0x0 PUSH1 0x20 DUP3 DUP5 SUB SLT ISZERO PUSH2 0x10FD JUMPI PUSH2 0x10FC PUSH2 0xB2F JUMP JUMPDEST JUMPDEST PUSH1 0x0 PUSH2 0x110B DUP5 DUP3 DUP6 ADD PUSH2 0x10D2 JUMP JUMPDEST SWAP2 POP POP SWAP3 SWAP2 POP POP JUMP JUMPDEST PUSH32 0x4661696C656420746F207472616E7366657220746F6B656E732066726F6D2075 PUSH1 0x0 DUP3 ADD MSTORE PUSH32 0x73657220746F2076656E646F7200000000000000000000000000000000000000 PUSH1 0x20 DUP3 ADD MSTORE POP JUMP JUMPDEST PUSH1 0x0 PUSH2 0x1170 PUSH1 0x2D DUP4 PUSH2 0xC76 JUMP JUMPDEST SWAP2 POP PUSH2 0x117B DUP3 PUSH2 0x1114 JUMP JUMPDEST PUSH1 0x40 DUP3 ADD SWAP1 POP SWAP2 SWAP1 POP JUMP JUMPDEST PUSH1 0x0 PUSH1 0x20 DUP3 ADD SWAP1 POP DUP2 DUP2 SUB PUSH1 0x0 DUP4 ADD MSTORE PUSH2 0x119F DUP2 PUSH2 0x1163 JUMP JUMPDEST SWAP1 POP SWAP2 SWAP1 POP JUMP JUMPDEST PUSH32 0x4661696C656420746F2073656E642045544820746F2074686520757365720000 PUSH1 0x0 DUP3 ADD MSTORE POP JUMP JUMPDEST PUSH1 0x0 PUSH2 0x11DC PUSH1 0x1E DUP4 PUSH2 0xC76 JUMP JUMPDEST SWAP2 POP PUSH2 0x11E7 DUP3 PUSH2 0x11A6 JUMP JUMPDEST PUSH1 0x20 DUP3 ADD SWAP1 POP SWAP2 SWAP1 POP JUMP JUMPDEST PUSH1 0x0 PUSH1 0x20 DUP3 ADD SWAP1 POP DUP2 DUP2 SUB PUSH1 0x0 DUP4 ADD MSTORE PUSH2 0x120B DUP2 PUSH2 0x11CF JUMP JUMPDEST SWAP1 POP SWAP2 SWAP1 POP JUMP JUMPDEST PUSH1 0x0 PUSH1 0x60 DUP3 ADD SWAP1 POP PUSH2 0x1227 PUSH1 0x0 DUP4 ADD DUP7 PUSH2 0xBC9 JUMP JUMPDEST PUSH2 0x1234 PUSH1 0x20 DUP4 ADD DUP6 PUSH2 0xBF3 JUMP JUMPDEST PUSH2 0x1241 PUSH1 0x40 DUP4 ADD DUP5 PUSH2 0xBF3 JUMP JUMPDEST SWAP5 SWAP4 POP POP POP POP JUMP JUMPDEST PUSH32 0x53656E642045544820746F2062757920736F6D6520746F6B656E730000000000 PUSH1 0x0 DUP3 ADD MSTORE POP JUMP JUMPDEST PUSH1 0x0 PUSH2 0x127F PUSH1 0x1B DUP4 PUSH2 0xC76 JUMP JUMPDEST SWAP2 POP PUSH2 0x128A DUP3 PUSH2 0x1249 JUMP JUMPDEST PUSH1 0x20 DUP3 ADD SWAP1 POP SWAP2 SWAP1 POP JUMP JUMPDEST PUSH1 0x0 PUSH1 0x20 DUP3 ADD SWAP1 POP DUP2 DUP2 SUB PUSH1 0x0 DUP4 ADD MSTORE PUSH2 0x12AE DUP2 PUSH2 0x1272 JUMP JUMPDEST SWAP1 POP SWAP2 SWAP1 POP JUMP JUMPDEST PUSH1 0x0 PUSH2 0x12C0 DUP3 PUSH2 0xB34 JUMP JUMPDEST SWAP2 POP PUSH2 0x12CB DUP4 PUSH2 0xB34 JUMP JUMPDEST SWAP3 POP DUP2 PUSH32 0xFFFFFFFFFFFFFFFFFFFFFFFFFFFFFFFFFFFFFFFFFFFFFFFFFFFFFFFFFFFFFFFF DIV DUP4 GT DUP3 ISZERO ISZERO AND ISZERO PUSH2 0x1304 JUMPI PUSH2 0x1303 PUSH2 0xF86 JUMP JUMPDEST JUMPDEST DUP3 DUP3 MUL SWAP1 POP SWAP3 SWAP2 POP POP JUMP JUMPDEST PUSH32 0x56656E646F7220636F6E747261637420686173206E6F7420656E6F7567682074 PUSH1 0x0 DUP3 ADD MSTORE PUSH32 0x6F6B656E7320696E206974732062616C616E6365000000000000000000000000 PUSH1 0x20 DUP3 ADD MSTORE POP JUMP JUMPDEST PUSH1 0x0 PUSH2 0x136B PUSH1 0x34 DUP4 PUSH2 0xC76 JUMP JUMPDEST SWAP2 POP PUSH2 0x1376 DUP3 PUSH2 0x130F JUMP JUMPDEST PUSH1 0x40 DUP3 ADD SWAP1 POP SWAP2 SWAP1 POP JUMP JUMPDEST PUSH1 0x0 PUSH1 0x20 DUP3 ADD SWAP1 POP DUP2 DUP2 SUB PUSH1 0x0 DUP4 ADD MSTORE PUSH2 0x139A DUP2 PUSH2 0x135E JUMP JUMPDEST SWAP1 POP SWAP2 SWAP1 POP JUMP JUMPDEST PUSH1 0x0 PUSH1 0x40 DUP3 ADD SWAP1 POP PUSH2 0x13B6 PUSH1 0x0 DUP4 ADD DUP6 PUSH2 0xBC9 JUMP JUMPDEST PUSH2 0x13C3 PUSH1 0x20 DUP4 ADD DUP5 PUSH2 0xBF3 JUMP JUMPDEST SWAP4 SWAP3 POP POP POP JUMP JUMPDEST PUSH32 0x4661696C656420746F207472616E7366657220746F6B656E20746F2075736572 PUSH1 0x0 DUP3 ADD MSTORE POP JUMP JUMPDEST PUSH1 0x0 PUSH2 0x1400 PUSH1 0x20 DUP4 PUSH2 0xC76 JUMP JUMPDEST SWAP2 POP PUSH2 0x140B DUP3 PUSH2 0x13CA JUMP JUMPDEST PUSH1 0x20 DUP3 ADD SWAP1 POP SWAP2 SWAP1 POP JUMP JUMPDEST PUSH1 0x0 PUSH1 0x20 DUP3 ADD SWAP1 POP DUP2 DUP2 SUB PUSH1 0x0 DUP4 ADD MSTORE PUSH2 0x142F DUP2 PUSH2 0x13F3 JUMP JUMPDEST SWAP1 POP SWAP2 SWAP1 POP JUMP JUMPDEST PUSH32 0x4F776E61626C653A206E6577206F776E657220697320746865207A65726F2061 PUSH1 0x0 DUP3 ADD MSTORE PUSH32 0x6464726573730000000000000000000000000000000000000000000000000000 PUSH1 0x20 DUP3 ADD MSTORE POP JUMP JUMPDEST PUSH1 0x0 PUSH2 0x1492 PUSH1 0x26 DUP4 PUSH2 0xC76 JUMP JUMPDEST SWAP2 POP PUSH2 0x149D DUP3 PUSH2 0x1436 JUMP JUMPDEST PUSH1 0x40 DUP3 ADD SWAP1 POP SWAP2 SWAP1 POP JUMP JUMPDEST PUSH1 0x0 PUSH1 0x20 DUP3 ADD SWAP1 POP DUP2 DUP2 SUB PUSH1 0x0 DUP4 ADD MSTORE PUSH2 0x14C1 DUP2 PUSH2 0x1485 JUMP JUMPDEST SWAP1 POP SWAP2 SWAP1 POP JUMP JUMPDEST PUSH32 0x4F776E61626C653A2063616C6C6572206973206E6F7420746865206F776E6572 PUSH1 0x0 DUP3 ADD MSTORE POP JUMP JUMPDEST PUSH1 0x0 PUSH2 0x14FE PUSH1 0x20 DUP4 PUSH2 0xC76 JUMP JUMPDEST SWAP2 POP PUSH2 0x1509 DUP3 PUSH2 0x14C8 JUMP JUMPDEST PUSH1 0x20 DUP3 ADD SWAP1 POP SWAP2 SWAP1 POP JUMP JUMPDEST PUSH1 0x0 PUSH1 0x20 DUP3 ADD SWAP1 POP DUP2 DUP2 SUB PUSH1 0x0 DUP4 ADD MSTORE PUSH2 0x152D DUP2 PUSH2 0x14F1 JUMP JUMPDEST SWAP1 POP SWAP2 SWAP1 POP JUMP INVALID LOG2 PUSH5 0x6970667358 0x22 SLT KECCAK256 ADDRESS 0xDC 0xDD 0xDF SWAP1 CALLCODE ADDMOD 0xEB PUSH2 0x32E9 0xB7 0xD2 PUSH22 0x5E9E9A15EAD67F2A48CD1F20814A4AD0C4A664736F6C PUSH4 0x43000809 STOP CALLER "
		},
		"gasEstimates": {
			"creation": {
				"codeDepositCost": "1096400",
				"executionCost": "infinite",
				"totalCost": "infinite"
			},
			"external": {
				"buyTokens()": "infinite",
				"owner()": "2522",
				"renounceOwnership()": "30443",
				"sellTokens(uint256)": "infinite",
				"tokensPerEth()": "2451",
				"transferOwnership(address)": "30813",
				"withdraw()": "infinite"
			},
			"internal": {
				"getTokenPrice()": "infinite"
			}
		},
		"methodIdentifiers": {
			"buyTokens()": "d0febe4c",
			"owner()": "8da5cb5b",
			"renounceOwnership()": "715018a6",
			"sellTokens(uint256)": "6c11bcd3",
			"tokensPerEth()": "cbdd69b5",
			"transferOwnership(address)": "f2fde38b",
			"withdraw()": "3ccfd60b"
		}
	},
	"abi": [
		{
			"inputs": [
				{
					"internalType": "address",
					"name": "tokenAddress",
					"type": "address"
				},
				{
					"internalType": "address",
					"name": "oracleAddress",
					"type": "address"
				}
			],
			"stateMutability": "nonpayable",
			"type": "constructor"
		},
		{
			"anonymous": false,
			"inputs": [
				{
					"indexed": false,
					"internalType": "address",
					"name": "buyer",
					"type": "address"
				},
				{
					"indexed": false,
					"internalType": "uint256",
					"name": "amountOfETH",
					"type": "uint256"
				},
				{
					"indexed": false,
					"internalType": "uint256",
					"name": "amountOfTokens",
					"type": "uint256"
				}
			],
			"name": "BuyTokens",
			"type": "event"
		},
		{
			"anonymous": false,
			"inputs": [
				{
					"indexed": true,
					"internalType": "address",
					"name": "previousOwner",
					"type": "address"
				},
				{
					"indexed": true,
					"internalType": "address",
					"name": "newOwner",
					"type": "address"
				}
			],
			"name": "OwnershipTransferred",
			"type": "event"
		},
		{
			"anonymous": false,
			"inputs": [
				{
					"indexed": false,
					"internalType": "address",
					"name": "seller",
					"type": "address"
				},
				{
					"indexed": false,
					"internalType": "uint256",
					"name": "amountOfTokens",
					"type": "uint256"
				},
				{
					"indexed": false,
					"internalType": "uint256",
					"name": "amountOfETH",
					"type": "uint256"
				}
			],
			"name": "SellTokens",
			"type": "event"
		},
		{
			"inputs": [],
			"name": "buyTokens",
			"outputs": [
				{
					"internalType": "uint256",
					"name": "tokenAmount",
					"type": "uint256"
				}
			],
			"stateMutability": "payable",
			"type": "function"
		},
		{
			"inputs": [],
			"name": "owner",
			"outputs": [
				{
					"internalType": "address",
					"name": "",
					"type": "address"
				}
			],
			"stateMutability": "view",
			"type": "function"
		},
		{
			"inputs": [],
			"name": "renounceOwnership",
			"outputs": [],
			"stateMutability": "nonpayable",
			"type": "function"
		},
		{
			"inputs": [
				{
					"internalType": "uint256",
					"name": "tokenAmountToSell",
					"type": "uint256"
				}
			],
			"name": "sellTokens",
			"outputs": [],
			"stateMutability": "nonpayable",
			"type": "function"
		},
		{
			"inputs": [],
			"name": "tokensPerEth",
			"outputs": [
				{
					"internalType": "uint256",
					"name": "",
					"type": "uint256"
				}
			],
			"stateMutability": "view",
			"type": "function"
		},
		{
			"inputs": [
				{
					"internalType": "address",
					"name": "newOwner",
					"type": "address"
				}
			],
			"name": "transferOwnership",
			"outputs": [],
			"stateMutability": "nonpayable",
			"type": "function"
		},
		{
			"inputs": [],
			"name": "withdraw",
			"outputs": [],
			"stateMutability": "nonpayable",
			"type": "function"
		},
		{
			"stateMutability": "payable",
			"type": "receive"
		}
	]
}