{
	"data": {
		"bytecode": {
			"linkReferences": {},
			"object": "60806040523480156200001157600080fd5b5060405162001927380380620019278339818101604052810190620000379190620002b9565b620000576200004b6200018360201b60201c565b6200018b60201b60201c565b81600160006101000a81548173ffffffffffffffffffffffffffffffffffffffff021916908373ffffffffffffffffffffffffffffffffffffffff16021790555080600260006101000a81548173ffffffffffffffffffffffffffffffffffffffff021916908373ffffffffffffffffffffffffffffffffffffffff160217905550600260009054906101000a900473ffffffffffffffffffffffffffffffffffffffff1673ffffffffffffffffffffffffffffffffffffffff166398d5fdca6040518163ffffffff1660e01b8152600401602060405180830381865afa15801562000147573d6000803e3d6000fd5b505050506040513d601f19601f820116820180604052508101906200016d91906200033b565b600381905550600360048190555050506200036d565b600033905090565b60008060009054906101000a900473ffffffffffffffffffffffffffffffffffffffff169050816000806101000a81548173ffffffffffffffffffffffffffffffffffffffff021916908373ffffffffffffffffffffffffffffffffffffffff1602179055508173ffffffffffffffffffffffffffffffffffffffff168173ffffffffffffffffffffffffffffffffffffffff167f8be0079c531659141344cd1fd0a4f28419497f9722a3daafe3b4186f6b6457e060405160405180910390a35050565b600080fd5b600073ffffffffffffffffffffffffffffffffffffffff82169050919050565b6000620002818262000254565b9050919050565b620002938162000274565b81146200029f57600080fd5b50565b600081519050620002b38162000288565b92915050565b60008060408385031215620002d357620002d26200024f565b5b6000620002e385828601620002a2565b9250506020620002f685828601620002a2565b9150509250929050565b6000819050919050565b620003158162000300565b81146200032157600080fd5b50565b60008151905062000335816200030a565b92915050565b6000602082840312156200035457620003536200024f565b5b6000620003648482850162000324565b91505092915050565b6115aa806200037d6000396000f3fe6080604052600436106100745760003560e01c80638da5cb5b1161004e5780638da5cb5b146100d7578063d0febe4c14610102578063f2fde38b14610120578063fcee45f4146101495761007b565b80633ccfd60b146100805780636c11bcd314610097578063715018a6146100c05761007b565b3661007b57005b600080fd5b34801561008c57600080fd5b50610095610186565b005b3480156100a357600080fd5b506100be60048036038101906100b99190610b8e565b610286565b005b3480156100cc57600080fd5b506100d56105fc565b005b3480156100e357600080fd5b506100ec610610565b6040516100f99190610bfc565b60405180910390f35b61010a610639565b6040516101179190610c26565b60405180910390f35b34801561012c57600080fd5b5061014760048036038101906101429190610c6d565b6108c9565b005b34801561015557600080fd5b50610170600480360381019061016b9190610b8e565b61094c565b60405161017d9190610c26565b60405180910390f35b61018e610970565b6000479050600081116101d6576040517f08c379a00000000000000000000000000000000000000000000000000000000081526004016101cd90610d1d565b60405180910390fd5b60003373ffffffffffffffffffffffffffffffffffffffff16476040516101fc90610d6e565b60006040518083038185875af1925050503d8060008114610239576040519150601f19603f3d011682016040523d82523d6000602084013e61023e565b606091505b5050905080610282576040517f08c379a000000000000000000000000000000000000000000000000000000000815260040161027990610df5565b60405180910390fd5b5050565b61028e6109ee565b6103e881116102d2576040517f08c379a00000000000000000000000000000000000000000000000000000000081526004016102c990610e87565b60405180910390fd5b6000600160009054906101000a900473ffffffffffffffffffffffffffffffffffffffff1673ffffffffffffffffffffffffffffffffffffffff166370a08231336040518263ffffffff1660e01b815260040161032f9190610bfc565b602060405180830381865afa15801561034c573d6000803e3d6000fd5b505050506040513d601f19601f820116820180604052508101906103709190610ebc565b9050818110156103b5576040517f08c379a00000000000000000000000000000000000000000000000000000000081526004016103ac90610f5b565b60405180910390fd5b60006103c08361094c565b9050600081600354856103d39190610fd9565b6103dd919061100a565b9050600047905081811015610427576040517f08c379a000000000000000000000000000000000000000000000000000000000815260040161041e906110b0565b60405180910390fd5b6000600160009054906101000a900473ffffffffffffffffffffffffffffffffffffffff1673ffffffffffffffffffffffffffffffffffffffff166323b872dd3330896040518463ffffffff1660e01b8152600401610488939291906110d0565b6020604051808303816000875af11580156104a7573d6000803e3d6000fd5b505050506040513d601f19601f820116820180604052508101906104cb919061113f565b90508061050d576040517f08c379a0000000000000000000000000000000000000000000000000000000008152600401610504906111de565b60405180910390fd5b3373ffffffffffffffffffffffffffffffffffffffff168360405161053190610d6e565b60006040518083038185875af1925050503d806000811461056e576040519150601f19603f3d011682016040523d82523d6000602084013e610573565b606091505b505080915050806105b9576040517f08c379a00000000000000000000000000000000000000000000000000000000081526004016105b09061124a565b60405180910390fd5b7fa24838acd4af5195a2396965dae5abf54e84e8c19f5698bb966ae64e29994ee53387856040516105ec9392919061126a565b60405180910390a1505050505050565b610604610970565b61060e6000610a87565b565b60008060009054906101000a900473ffffffffffffffffffffffffffffffffffffffff16905090565b60006106436109ee565b60003411610686576040517f08c379a000000000000000000000000000000000000000000000000000000000815260040161067d906112ed565b60405180910390fd5b600061069e60035434610699919061130d565b61094c565b9050600081600354346106b1919061130d565b6106bb919061100a565b90506000600160009054906101000a900473ffffffffffffffffffffffffffffffffffffffff1673ffffffffffffffffffffffffffffffffffffffff166370a08231306040518263ffffffff1660e01b815260040161071a9190610bfc565b602060405180830381865afa158015610737573d6000803e3d6000fd5b505050506040513d601f19601f8201168201806040525081019061075b9190610ebc565b9050818110156107a0576040517f08c379a0000000000000000000000000000000000000000000000000000000008152600401610797906113c1565b60405180910390fd5b6000600160009054906101000a900473ffffffffffffffffffffffffffffffffffffffff1673ffffffffffffffffffffffffffffffffffffffff1663a9059cbb33856040518363ffffffff1660e01b81526004016107ff9291906113e1565b6020604051808303816000875af115801561081e573d6000803e3d6000fd5b505050506040513d601f19601f82011682018060405250810190610842919061113f565b905080610884576040517f08c379a000000000000000000000000000000000000000000000000000000000815260040161087b90611456565b60405180910390fd5b7f0a37b72bb67eee30e09084cf386f8a17817c57f620c3ab95fb25d6a20356ec773334856040516108b79392919061126a565b60405180910390a18294505050505090565b6108d1610970565b600073ffffffffffffffffffffffffffffffffffffffff168173ffffffffffffffffffffffffffffffffffffffff1603610940576040517f08c379a0000000000000000000000000000000000000000000000000000000008152600401610937906114e8565b60405180910390fd5b61094981610a87565b50565b60006103e86004548361095f919061130d565b6109699190610fd9565b9050919050565b610978610b4b565b73ffffffffffffffffffffffffffffffffffffffff16610996610610565b73ffffffffffffffffffffffffffffffffffffffff16146109ec576040517f08c379a00000000000000000000000000000000000000000000000000000000081526004016109e390611554565b60405180910390fd5b565b600260009054906101000a900473ffffffffffffffffffffffffffffffffffffffff1673ffffffffffffffffffffffffffffffffffffffff166398d5fdca6040518163ffffffff1660e01b8152600401602060405180830381865afa158015610a5b573d6000803e3d6000fd5b505050506040513d601f19601f82011682018060405250810190610a7f9190610ebc565b600381905550565b60008060009054906101000a900473ffffffffffffffffffffffffffffffffffffffff169050816000806101000a81548173ffffffffffffffffffffffffffffffffffffffff021916908373ffffffffffffffffffffffffffffffffffffffff1602179055508173ffffffffffffffffffffffffffffffffffffffff168173ffffffffffffffffffffffffffffffffffffffff167f8be0079c531659141344cd1fd0a4f28419497f9722a3daafe3b4186f6b6457e060405160405180910390a35050565b600033905090565b600080fd5b6000819050919050565b610b6b81610b58565b8114610b7657600080fd5b50565b600081359050610b8881610b62565b92915050565b600060208284031215610ba457610ba3610b53565b5b6000610bb284828501610b79565b91505092915050565b600073ffffffffffffffffffffffffffffffffffffffff82169050919050565b6000610be682610bbb565b9050919050565b610bf681610bdb565b82525050565b6000602082019050610c116000830184610bed565b92915050565b610c2081610b58565b82525050565b6000602082019050610c3b6000830184610c17565b92915050565b610c4a81610bdb565b8114610c5557600080fd5b50565b600081359050610c6781610c41565b92915050565b600060208284031215610c8357610c82610b53565b5b6000610c9184828501610c58565b91505092915050565b600082825260208201905092915050565b7f4f776e657220686173206e6f742062616c616e636520746f207769746864726160008201527f7700000000000000000000000000000000000000000000000000000000000000602082015250565b6000610d07602183610c9a565b9150610d1282610cab565b604082019050919050565b60006020820190508181036000830152610d3681610cfa565b9050919050565b600081905092915050565b50565b6000610d58600083610d3d565b9150610d6382610d48565b600082019050919050565b6000610d7982610d4b565b9150819050919050565b7f4661696c656420746f2073656e6420757365722062616c616e6365206261636b60008201527f20746f20746865206f776e657200000000000000000000000000000000000000602082015250565b6000610ddf602d83610c9a565b9150610dea82610d83565b604082019050919050565b60006020820190508181036000830152610e0e81610dd2565b9050919050565b7f5370656369667920616e20616d6f756e74206f6620746f6b656e20677265617460008201527f6572207468616e20313030300000000000000000000000000000000000000000602082015250565b6000610e71602c83610c9a565b9150610e7c82610e15565b604082019050919050565b60006020820190508181036000830152610ea081610e64565b9050919050565b600081519050610eb681610b62565b92915050565b600060208284031215610ed257610ed1610b53565b5b6000610ee084828501610ea7565b91505092915050565b7f596f75722062616c616e6365206973206c6f776572207468616e20746865206160008201527f6d6f756e74206f6620746f6b656e7320796f752077616e7420746f2073656c6c602082015250565b6000610f45604083610c9a565b9150610f5082610ee9565b604082019050919050565b60006020820190508181036000830152610f7481610f38565b9050919050565b7f4e487b7100000000000000000000000000000000000000000000000000000000600052601260045260246000fd5b7f4e487b7100000000000000000000000000000000000000000000000000000000600052601160045260246000fd5b6000610fe482610b58565b9150610fef83610b58565b925082610fff57610ffe610f7b565b5b828204905092915050565b600061101582610b58565b915061102083610b58565b925082820390508181111561103857611037610faa565b5b92915050565b7f56656e646f7220686173206e6f7420656e6f7567682066756e647320746f206160008201527f6363657074207468652073656c6c207265717565737400000000000000000000602082015250565b600061109a603683610c9a565b91506110a58261103e565b604082019050919050565b600060208201905081810360008301526110c98161108d565b9050919050565b60006060820190506110e56000830186610bed565b6110f26020830185610bed565b6110ff6040830184610c17565b949350505050565b60008115159050919050565b61111c81611107565b811461112757600080fd5b50565b60008151905061113981611113565b92915050565b60006020828403121561115557611154610b53565b5b60006111638482850161112a565b91505092915050565b7f4661696c656420746f207472616e7366657220746f6b656e732066726f6d207560008201527f73657220746f2076656e646f7200000000000000000000000000000000000000602082015250565b60006111c8602d83610c9a565b91506111d38261116c565b604082019050919050565b600060208201905081810360008301526111f7816111bb565b9050919050565b7f4661696c656420746f2073656e642045544820746f2074686520757365720000600082015250565b6000611234601e83610c9a565b915061123f826111fe565b602082019050919050565b6000602082019050818103600083015261126381611227565b9050919050565b600060608201905061127f6000830186610bed565b61128c6020830185610c17565b6112996040830184610c17565b949350505050565b7f53656e642045544820746f2062757920736f6d6520746f6b656e730000000000600082015250565b60006112d7601b83610c9a565b91506112e2826112a1565b602082019050919050565b60006020820190508181036000830152611306816112ca565b9050919050565b600061131882610b58565b915061132383610b58565b925082820261133181610b58565b9150828204841483151761134857611347610faa565b5b5092915050565b7f56656e646f7220636f6e747261637420686173206e6f7420656e6f756768207460008201527f6f6b656e7320696e206974732062616c616e6365000000000000000000000000602082015250565b60006113ab603483610c9a565b91506113b68261134f565b604082019050919050565b600060208201905081810360008301526113da8161139e565b9050919050565b60006040820190506113f66000830185610bed565b6114036020830184610c17565b9392505050565b7f4661696c656420746f207472616e7366657220746f6b656e20746f2075736572600082015250565b6000611440602083610c9a565b915061144b8261140a565b602082019050919050565b6000602082019050818103600083015261146f81611433565b9050919050565b7f4f776e61626c653a206e6577206f776e657220697320746865207a65726f206160008201527f6464726573730000000000000000000000000000000000000000000000000000602082015250565b60006114d2602683610c9a565b91506114dd82611476565b604082019050919050565b60006020820190508181036000830152611501816114c5565b9050919050565b7f4f776e61626c653a2063616c6c6572206973206e6f7420746865206f776e6572600082015250565b600061153e602083610c9a565b915061154982611508565b602082019050919050565b6000602082019050818103600083015261156d81611531565b905091905056fea2646970667358221220272e69bfcf49b0e408288692fa234e0258d969ee14ec497147fcfec640bf41cd64736f6c63430008130033",
			"opcodes": "PUSH1 0x80 PUSH1 0x40 MSTORE CALLVALUE DUP1 ISZERO PUSH3 0x11 JUMPI PUSH1 0x0 DUP1 REVERT JUMPDEST POP PUSH1 0x40 MLOAD PUSH3 0x1927 CODESIZE SUB DUP1 PUSH3 0x1927 DUP4 CODECOPY DUP2 DUP2 ADD PUSH1 0x40 MSTORE DUP2 ADD SWAP1 PUSH3 0x37 SWAP2 SWAP1 PUSH3 0x2B9 JUMP JUMPDEST PUSH3 0x57 PUSH3 0x4B PUSH3 0x183 PUSH1 0x20 SHL PUSH1 0x20 SHR JUMP JUMPDEST PUSH3 0x18B PUSH1 0x20 SHL PUSH1 0x20 SHR JUMP JUMPDEST DUP2 PUSH1 0x1 PUSH1 0x0 PUSH2 0x100 EXP DUP2 SLOAD DUP2 PUSH20 0xFFFFFFFFFFFFFFFFFFFFFFFFFFFFFFFFFFFFFFFF MUL NOT AND SWAP1 DUP4 PUSH20 0xFFFFFFFFFFFFFFFFFFFFFFFFFFFFFFFFFFFFFFFF AND MUL OR SWAP1 SSTORE POP DUP1 PUSH1 0x2 PUSH1 0x0 PUSH2 0x100 EXP DUP2 SLOAD DUP2 PUSH20 0xFFFFFFFFFFFFFFFFFFFFFFFFFFFFFFFFFFFFFFFF MUL NOT AND SWAP1 DUP4 PUSH20 0xFFFFFFFFFFFFFFFFFFFFFFFFFFFFFFFFFFFFFFFF AND MUL OR SWAP1 SSTORE POP PUSH1 0x2 PUSH1 0x0 SWAP1 SLOAD SWAP1 PUSH2 0x100 EXP SWAP1 DIV PUSH20 0xFFFFFFFFFFFFFFFFFFFFFFFFFFFFFFFFFFFFFFFF AND PUSH20 0xFFFFFFFFFFFFFFFFFFFFFFFFFFFFFFFFFFFFFFFF AND PUSH4 0x98D5FDCA PUSH1 0x40 MLOAD DUP2 PUSH4 0xFFFFFFFF AND PUSH1 0xE0 SHL DUP2 MSTORE PUSH1 0x4 ADD PUSH1 0x20 PUSH1 0x40 MLOAD DUP1 DUP4 SUB DUP2 DUP7 GAS STATICCALL ISZERO DUP1 ISZERO PUSH3 0x147 JUMPI RETURNDATASIZE PUSH1 0x0 DUP1 RETURNDATACOPY RETURNDATASIZE PUSH1 0x0 REVERT JUMPDEST POP POP POP POP PUSH1 0x40 MLOAD RETURNDATASIZE PUSH1 0x1F NOT PUSH1 0x1F DUP3 ADD AND DUP3 ADD DUP1 PUSH1 0x40 MSTORE POP DUP2 ADD SWAP1 PUSH3 0x16D SWAP2 SWAP1 PUSH3 0x33B JUMP JUMPDEST PUSH1 0x3 DUP2 SWAP1 SSTORE POP PUSH1 0x3 PUSH1 0x4 DUP2 SWAP1 SSTORE POP POP POP PUSH3 0x36D JUMP JUMPDEST PUSH1 0x0 CALLER SWAP1 POP SWAP1 JUMP JUMPDEST PUSH1 0x0 DUP1 PUSH1 0x0 SWAP1 SLOAD SWAP1 PUSH2 0x100 EXP SWAP1 DIV PUSH20 0xFFFFFFFFFFFFFFFFFFFFFFFFFFFFFFFFFFFFFFFF AND SWAP1 POP DUP2 PUSH1 0x0 DUP1 PUSH2 0x100 EXP DUP2 SLOAD DUP2 PUSH20 0xFFFFFFFFFFFFFFFFFFFFFFFFFFFFFFFFFFFFFFFF MUL NOT AND SWAP1 DUP4 PUSH20 0xFFFFFFFFFFFFFFFFFFFFFFFFFFFFFFFFFFFFFFFF AND MUL OR SWAP1 SSTORE POP DUP2 PUSH20 0xFFFFFFFFFFFFFFFFFFFFFFFFFFFFFFFFFFFFFFFF AND DUP2 PUSH20 0xFFFFFFFFFFFFFFFFFFFFFFFFFFFFFFFFFFFFFFFF AND PUSH32 0x8BE0079C531659141344CD1FD0A4F28419497F9722A3DAAFE3B4186F6B6457E0 PUSH1 0x40 MLOAD PUSH1 0x40 MLOAD DUP1 SWAP2 SUB SWAP1 LOG3 POP POP JUMP JUMPDEST PUSH1 0x0 DUP1 REVERT JUMPDEST PUSH1 0x0 PUSH20 0xFFFFFFFFFFFFFFFFFFFFFFFFFFFFFFFFFFFFFFFF DUP3 AND SWAP1 POP SWAP2 SWAP1 POP JUMP JUMPDEST PUSH1 0x0 PUSH3 0x281 DUP3 PUSH3 0x254 JUMP JUMPDEST SWAP1 POP SWAP2 SWAP1 POP JUMP JUMPDEST PUSH3 0x293 DUP2 PUSH3 0x274 JUMP JUMPDEST DUP2 EQ PUSH3 0x29F JUMPI PUSH1 0x0 DUP1 REVERT JUMPDEST POP JUMP JUMPDEST PUSH1 0x0 DUP2 MLOAD SWAP1 POP PUSH3 0x2B3 DUP2 PUSH3 0x288 JUMP JUMPDEST SWAP3 SWAP2 POP POP JUMP JUMPDEST PUSH1 0x0 DUP1 PUSH1 0x40 DUP4 DUP6 SUB SLT ISZERO PUSH3 0x2D3 JUMPI PUSH3 0x2D2 PUSH3 0x24F JUMP JUMPDEST JUMPDEST PUSH1 0x0 PUSH3 0x2E3 DUP6 DUP3 DUP7 ADD PUSH3 0x2A2 JUMP JUMPDEST SWAP3 POP POP PUSH1 0x20 PUSH3 0x2F6 DUP6 DUP3 DUP7 ADD PUSH3 0x2A2 JUMP JUMPDEST SWAP2 POP POP SWAP3 POP SWAP3 SWAP1 POP JUMP JUMPDEST PUSH1 0x0 DUP2 SWAP1 POP SWAP2 SWAP1 POP JUMP JUMPDEST PUSH3 0x315 DUP2 PUSH3 0x300 JUMP JUMPDEST DUP2 EQ PUSH3 0x321 JUMPI PUSH1 0x0 DUP1 REVERT JUMPDEST POP JUMP JUMPDEST PUSH1 0x0 DUP2 MLOAD SWAP1 POP PUSH3 0x335 DUP2 PUSH3 0x30A JUMP JUMPDEST SWAP3 SWAP2 POP POP JUMP JUMPDEST PUSH1 0x0 PUSH1 0x20 DUP3 DUP5 SUB SLT ISZERO PUSH3 0x354 JUMPI PUSH3 0x353 PUSH3 0x24F JUMP JUMPDEST JUMPDEST PUSH1 0x0 PUSH3 0x364 DUP5 DUP3 DUP6 ADD PUSH3 0x324 JUMP JUMPDEST SWAP2 POP POP SWAP3 SWAP2 POP POP JUMP JUMPDEST PUSH2 0x15AA DUP1 PUSH3 0x37D PUSH1 0x0 CODECOPY PUSH1 0x0 RETURN INVALID PUSH1 0x80 PUSH1 0x40 MSTORE PUSH1 0x4 CALLDATASIZE LT PUSH2 0x74 JUMPI PUSH1 0x0 CALLDATALOAD PUSH1 0xE0 SHR DUP1 PUSH4 0x8DA5CB5B GT PUSH2 0x4E JUMPI DUP1 PUSH4 0x8DA5CB5B EQ PUSH2 0xD7 JUMPI DUP1 PUSH4 0xD0FEBE4C EQ PUSH2 0x102 JUMPI DUP1 PUSH4 0xF2FDE38B EQ PUSH2 0x120 JUMPI DUP1 PUSH4 0xFCEE45F4 EQ PUSH2 0x149 JUMPI PUSH2 0x7B JUMP JUMPDEST DUP1 PUSH4 0x3CCFD60B EQ PUSH2 0x80 JUMPI DUP1 PUSH4 0x6C11BCD3 EQ PUSH2 0x97 JUMPI DUP1 PUSH4 0x715018A6 EQ PUSH2 0xC0 JUMPI PUSH2 0x7B JUMP JUMPDEST CALLDATASIZE PUSH2 0x7B JUMPI STOP JUMPDEST PUSH1 0x0 DUP1 REVERT JUMPDEST CALLVALUE DUP1 ISZERO PUSH2 0x8C JUMPI PUSH1 0x0 DUP1 REVERT JUMPDEST POP PUSH2 0x95 PUSH2 0x186 JUMP JUMPDEST STOP JUMPDEST CALLVALUE DUP1 ISZERO PUSH2 0xA3 JUMPI PUSH1 0x0 DUP1 REVERT JUMPDEST POP PUSH2 0xBE PUSH1 0x4 DUP1 CALLDATASIZE SUB DUP2 ADD SWAP1 PUSH2 0xB9 SWAP2 SWAP1 PUSH2 0xB8E JUMP JUMPDEST PUSH2 0x286 JUMP JUMPDEST STOP JUMPDEST CALLVALUE DUP1 ISZERO PUSH2 0xCC JUMPI PUSH1 0x0 DUP1 REVERT JUMPDEST POP PUSH2 0xD5 PUSH2 0x5FC JUMP JUMPDEST STOP JUMPDEST CALLVALUE DUP1 ISZERO PUSH2 0xE3 JUMPI PUSH1 0x0 DUP1 REVERT JUMPDEST POP PUSH2 0xEC PUSH2 0x610 JUMP JUMPDEST PUSH1 0x40 MLOAD PUSH2 0xF9 SWAP2 SWAP1 PUSH2 0xBFC JUMP JUMPDEST PUSH1 0x40 MLOAD DUP1 SWAP2 SUB SWAP1 RETURN JUMPDEST PUSH2 0x10A PUSH2 0x639 JUMP JUMPDEST PUSH1 0x40 MLOAD PUSH2 0x117 SWAP2 SWAP1 PUSH2 0xC26 JUMP JUMPDEST PUSH1 0x40 MLOAD DUP1 SWAP2 SUB SWAP1 RETURN JUMPDEST CALLVALUE DUP1 ISZERO PUSH2 0x12C JUMPI PUSH1 0x0 DUP1 REVERT JUMPDEST POP PUSH2 0x147 PUSH1 0x4 DUP1 CALLDATASIZE SUB DUP2 ADD SWAP1 PUSH2 0x142 SWAP2 SWAP1 PUSH2 0xC6D JUMP JUMPDEST PUSH2 0x8C9 JUMP JUMPDEST STOP JUMPDEST CALLVALUE DUP1 ISZERO PUSH2 0x155 JUMPI PUSH1 0x0 DUP1 REVERT JUMPDEST POP PUSH2 0x170 PUSH1 0x4 DUP1 CALLDATASIZE SUB DUP2 ADD SWAP1 PUSH2 0x16B SWAP2 SWAP1 PUSH2 0xB8E JUMP JUMPDEST PUSH2 0x94C JUMP JUMPDEST PUSH1 0x40 MLOAD PUSH2 0x17D SWAP2 SWAP1 PUSH2 0xC26 JUMP JUMPDEST PUSH1 0x40 MLOAD DUP1 SWAP2 SUB SWAP1 RETURN JUMPDEST PUSH2 0x18E PUSH2 0x970 JUMP JUMPDEST PUSH1 0x0 SELFBALANCE SWAP1 POP PUSH1 0x0 DUP2 GT PUSH2 0x1D6 JUMPI PUSH1 0x40 MLOAD PUSH32 0x8C379A000000000000000000000000000000000000000000000000000000000 DUP2 MSTORE PUSH1 0x4 ADD PUSH2 0x1CD SWAP1 PUSH2 0xD1D JUMP JUMPDEST PUSH1 0x40 MLOAD DUP1 SWAP2 SUB SWAP1 REVERT JUMPDEST PUSH1 0x0 CALLER PUSH20 0xFFFFFFFFFFFFFFFFFFFFFFFFFFFFFFFFFFFFFFFF AND SELFBALANCE PUSH1 0x40 MLOAD PUSH2 0x1FC SWAP1 PUSH2 0xD6E JUMP JUMPDEST PUSH1 0x0 PUSH1 0x40 MLOAD DUP1 DUP4 SUB DUP2 DUP6 DUP8 GAS CALL SWAP3 POP POP POP RETURNDATASIZE DUP1 PUSH1 0x0 DUP2 EQ PUSH2 0x239 JUMPI PUSH1 0x40 MLOAD SWAP2 POP PUSH1 0x1F NOT PUSH1 0x3F RETURNDATASIZE ADD AND DUP3 ADD PUSH1 0x40 MSTORE RETURNDATASIZE DUP3 MSTORE RETURNDATASIZE PUSH1 0x0 PUSH1 0x20 DUP5 ADD RETURNDATACOPY PUSH2 0x23E JUMP JUMPDEST PUSH1 0x60 SWAP2 POP JUMPDEST POP POP SWAP1 POP DUP1 PUSH2 0x282 JUMPI PUSH1 0x40 MLOAD PUSH32 0x8C379A000000000000000000000000000000000000000000000000000000000 DUP2 MSTORE PUSH1 0x4 ADD PUSH2 0x279 SWAP1 PUSH2 0xDF5 JUMP JUMPDEST PUSH1 0x40 MLOAD DUP1 SWAP2 SUB SWAP1 REVERT JUMPDEST POP POP JUMP JUMPDEST PUSH2 0x28E PUSH2 0x9EE JUMP JUMPDEST PUSH2 0x3E8 DUP2 GT PUSH2 0x2D2 JUMPI PUSH1 0x40 MLOAD PUSH32 0x8C379A000000000000000000000000000000000000000000000000000000000 DUP2 MSTORE PUSH1 0x4 ADD PUSH2 0x2C9 SWAP1 PUSH2 0xE87 JUMP JUMPDEST PUSH1 0x40 MLOAD DUP1 SWAP2 SUB SWAP1 REVERT JUMPDEST PUSH1 0x0 PUSH1 0x1 PUSH1 0x0 SWAP1 SLOAD SWAP1 PUSH2 0x100 EXP SWAP1 DIV PUSH20 0xFFFFFFFFFFFFFFFFFFFFFFFFFFFFFFFFFFFFFFFF AND PUSH20 0xFFFFFFFFFFFFFFFFFFFFFFFFFFFFFFFFFFFFFFFF AND PUSH4 0x70A08231 CALLER PUSH1 0x40 MLOAD DUP3 PUSH4 0xFFFFFFFF AND PUSH1 0xE0 SHL DUP2 MSTORE PUSH1 0x4 ADD PUSH2 0x32F SWAP2 SWAP1 PUSH2 0xBFC JUMP JUMPDEST PUSH1 0x20 PUSH1 0x40 MLOAD DUP1 DUP4 SUB DUP2 DUP7 GAS STATICCALL ISZERO DUP1 ISZERO PUSH2 0x34C JUMPI RETURNDATASIZE PUSH1 0x0 DUP1 RETURNDATACOPY RETURNDATASIZE PUSH1 0x0 REVERT JUMPDEST POP POP POP POP PUSH1 0x40 MLOAD RETURNDATASIZE PUSH1 0x1F NOT PUSH1 0x1F DUP3 ADD AND DUP3 ADD DUP1 PUSH1 0x40 MSTORE POP DUP2 ADD SWAP1 PUSH2 0x370 SWAP2 SWAP1 PUSH2 0xEBC JUMP JUMPDEST SWAP1 POP DUP2 DUP2 LT ISZERO PUSH2 0x3B5 JUMPI PUSH1 0x40 MLOAD PUSH32 0x8C379A000000000000000000000000000000000000000000000000000000000 DUP2 MSTORE PUSH1 0x4 ADD PUSH2 0x3AC SWAP1 PUSH2 0xF5B JUMP JUMPDEST PUSH1 0x40 MLOAD DUP1 SWAP2 SUB SWAP1 REVERT JUMPDEST PUSH1 0x0 PUSH2 0x3C0 DUP4 PUSH2 0x94C JUMP JUMPDEST SWAP1 POP PUSH1 0x0 DUP2 PUSH1 0x3 SLOAD DUP6 PUSH2 0x3D3 SWAP2 SWAP1 PUSH2 0xFD9 JUMP JUMPDEST PUSH2 0x3DD SWAP2 SWAP1 PUSH2 0x100A JUMP JUMPDEST SWAP1 POP PUSH1 0x0 SELFBALANCE SWAP1 POP DUP2 DUP2 LT ISZERO PUSH2 0x427 JUMPI PUSH1 0x40 MLOAD PUSH32 0x8C379A000000000000000000000000000000000000000000000000000000000 DUP2 MSTORE PUSH1 0x4 ADD PUSH2 0x41E SWAP1 PUSH2 0x10B0 JUMP JUMPDEST PUSH1 0x40 MLOAD DUP1 SWAP2 SUB SWAP1 REVERT JUMPDEST PUSH1 0x0 PUSH1 0x1 PUSH1 0x0 SWAP1 SLOAD SWAP1 PUSH2 0x100 EXP SWAP1 DIV PUSH20 0xFFFFFFFFFFFFFFFFFFFFFFFFFFFFFFFFFFFFFFFF AND PUSH20 0xFFFFFFFFFFFFFFFFFFFFFFFFFFFFFFFFFFFFFFFF AND PUSH4 0x23B872DD CALLER ADDRESS DUP10 PUSH1 0x40 MLOAD DUP5 PUSH4 0xFFFFFFFF AND PUSH1 0xE0 SHL DUP2 MSTORE PUSH1 0x4 ADD PUSH2 0x488 SWAP4 SWAP3 SWAP2 SWAP1 PUSH2 0x10D0 JUMP JUMPDEST PUSH1 0x20 PUSH1 0x40 MLOAD DUP1 DUP4 SUB DUP2 PUSH1 0x0 DUP8 GAS CALL ISZERO DUP1 ISZERO PUSH2 0x4A7 JUMPI RETURNDATASIZE PUSH1 0x0 DUP1 RETURNDATACOPY RETURNDATASIZE PUSH1 0x0 REVERT JUMPDEST POP POP POP POP PUSH1 0x40 MLOAD RETURNDATASIZE PUSH1 0x1F NOT PUSH1 0x1F DUP3 ADD AND DUP3 ADD DUP1 PUSH1 0x40 MSTORE POP DUP2 ADD SWAP1 PUSH2 0x4CB SWAP2 SWAP1 PUSH2 0x113F JUMP JUMPDEST SWAP1 POP DUP1 PUSH2 0x50D JUMPI PUSH1 0x40 MLOAD PUSH32 0x8C379A000000000000000000000000000000000000000000000000000000000 DUP2 MSTORE PUSH1 0x4 ADD PUSH2 0x504 SWAP1 PUSH2 0x11DE JUMP JUMPDEST PUSH1 0x40 MLOAD DUP1 SWAP2 SUB SWAP1 REVERT JUMPDEST CALLER PUSH20 0xFFFFFFFFFFFFFFFFFFFFFFFFFFFFFFFFFFFFFFFF AND DUP4 PUSH1 0x40 MLOAD PUSH2 0x531 SWAP1 PUSH2 0xD6E JUMP JUMPDEST PUSH1 0x0 PUSH1 0x40 MLOAD DUP1 DUP4 SUB DUP2 DUP6 DUP8 GAS CALL SWAP3 POP POP POP RETURNDATASIZE DUP1 PUSH1 0x0 DUP2 EQ PUSH2 0x56E JUMPI PUSH1 0x40 MLOAD SWAP2 POP PUSH1 0x1F NOT PUSH1 0x3F RETURNDATASIZE ADD AND DUP3 ADD PUSH1 0x40 MSTORE RETURNDATASIZE DUP3 MSTORE RETURNDATASIZE PUSH1 0x0 PUSH1 0x20 DUP5 ADD RETURNDATACOPY PUSH2 0x573 JUMP JUMPDEST PUSH1 0x60 SWAP2 POP JUMPDEST POP POP DUP1 SWAP2 POP POP DUP1 PUSH2 0x5B9 JUMPI PUSH1 0x40 MLOAD PUSH32 0x8C379A000000000000000000000000000000000000000000000000000000000 DUP2 MSTORE PUSH1 0x4 ADD PUSH2 0x5B0 SWAP1 PUSH2 0x124A JUMP JUMPDEST PUSH1 0x40 MLOAD DUP1 SWAP2 SUB SWAP1 REVERT JUMPDEST PUSH32 0xA24838ACD4AF5195A2396965DAE5ABF54E84E8C19F5698BB966AE64E29994EE5 CALLER DUP8 DUP6 PUSH1 0x40 MLOAD PUSH2 0x5EC SWAP4 SWAP3 SWAP2 SWAP1 PUSH2 0x126A JUMP JUMPDEST PUSH1 0x40 MLOAD DUP1 SWAP2 SUB SWAP1 LOG1 POP POP POP POP POP POP JUMP JUMPDEST PUSH2 0x604 PUSH2 0x970 JUMP JUMPDEST PUSH2 0x60E PUSH1 0x0 PUSH2 0xA87 JUMP JUMPDEST JUMP JUMPDEST PUSH1 0x0 DUP1 PUSH1 0x0 SWAP1 SLOAD SWAP1 PUSH2 0x100 EXP SWAP1 DIV PUSH20 0xFFFFFFFFFFFFFFFFFFFFFFFFFFFFFFFFFFFFFFFF AND SWAP1 POP SWAP1 JUMP JUMPDEST PUSH1 0x0 PUSH2 0x643 PUSH2 0x9EE JUMP JUMPDEST PUSH1 0x0 CALLVALUE GT PUSH2 0x686 JUMPI PUSH1 0x40 MLOAD PUSH32 0x8C379A000000000000000000000000000000000000000000000000000000000 DUP2 MSTORE PUSH1 0x4 ADD PUSH2 0x67D SWAP1 PUSH2 0x12ED JUMP JUMPDEST PUSH1 0x40 MLOAD DUP1 SWAP2 SUB SWAP1 REVERT JUMPDEST PUSH1 0x0 PUSH2 0x69E PUSH1 0x3 SLOAD CALLVALUE PUSH2 0x699 SWAP2 SWAP1 PUSH2 0x130D JUMP JUMPDEST PUSH2 0x94C JUMP JUMPDEST SWAP1 POP PUSH1 0x0 DUP2 PUSH1 0x3 SLOAD CALLVALUE PUSH2 0x6B1 SWAP2 SWAP1 PUSH2 0x130D JUMP JUMPDEST PUSH2 0x6BB SWAP2 SWAP1 PUSH2 0x100A JUMP JUMPDEST SWAP1 POP PUSH1 0x0 PUSH1 0x1 PUSH1 0x0 SWAP1 SLOAD SWAP1 PUSH2 0x100 EXP SWAP1 DIV PUSH20 0xFFFFFFFFFFFFFFFFFFFFFFFFFFFFFFFFFFFFFFFF AND PUSH20 0xFFFFFFFFFFFFFFFFFFFFFFFFFFFFFFFFFFFFFFFF AND PUSH4 0x70A08231 ADDRESS PUSH1 0x40 MLOAD DUP3 PUSH4 0xFFFFFFFF AND PUSH1 0xE0 SHL DUP2 MSTORE PUSH1 0x4 ADD PUSH2 0x71A SWAP2 SWAP1 PUSH2 0xBFC JUMP JUMPDEST PUSH1 0x20 PUSH1 0x40 MLOAD DUP1 DUP4 SUB DUP2 DUP7 GAS STATICCALL ISZERO DUP1 ISZERO PUSH2 0x737 JUMPI RETURNDATASIZE PUSH1 0x0 DUP1 RETURNDATACOPY RETURNDATASIZE PUSH1 0x0 REVERT JUMPDEST POP POP POP POP PUSH1 0x40 MLOAD RETURNDATASIZE PUSH1 0x1F NOT PUSH1 0x1F DUP3 ADD AND DUP3 ADD DUP1 PUSH1 0x40 MSTORE POP DUP2 ADD SWAP1 PUSH2 0x75B SWAP2 SWAP1 PUSH2 0xEBC JUMP JUMPDEST SWAP1 POP DUP2 DUP2 LT ISZERO PUSH2 0x7A0 JUMPI PUSH1 0x40 MLOAD PUSH32 0x8C379A000000000000000000000000000000000000000000000000000000000 DUP2 MSTORE PUSH1 0x4 ADD PUSH2 0x797 SWAP1 PUSH2 0x13C1 JUMP JUMPDEST PUSH1 0x40 MLOAD DUP1 SWAP2 SUB SWAP1 REVERT JUMPDEST PUSH1 0x0 PUSH1 0x1 PUSH1 0x0 SWAP1 SLOAD SWAP1 PUSH2 0x100 EXP SWAP1 DIV PUSH20 0xFFFFFFFFFFFFFFFFFFFFFFFFFFFFFFFFFFFFFFFF AND PUSH20 0xFFFFFFFFFFFFFFFFFFFFFFFFFFFFFFFFFFFFFFFF AND PUSH4 0xA9059CBB CALLER DUP6 PUSH1 0x40 MLOAD DUP4 PUSH4 0xFFFFFFFF AND PUSH1 0xE0 SHL DUP2 MSTORE PUSH1 0x4 ADD PUSH2 0x7FF SWAP3 SWAP2 SWAP1 PUSH2 0x13E1 JUMP JUMPDEST PUSH1 0x20 PUSH1 0x40 MLOAD DUP1 DUP4 SUB DUP2 PUSH1 0x0 DUP8 GAS CALL ISZERO DUP1 ISZERO PUSH2 0x81E JUMPI RETURNDATASIZE PUSH1 0x0 DUP1 RETURNDATACOPY RETURNDATASIZE PUSH1 0x0 REVERT JUMPDEST POP POP POP POP PUSH1 0x40 MLOAD RETURNDATASIZE PUSH1 0x1F NOT PUSH1 0x1F DUP3 ADD AND DUP3 ADD DUP1 PUSH1 0x40 MSTORE POP DUP2 ADD SWAP1 PUSH2 0x842 SWAP2 SWAP1 PUSH2 0x113F JUMP JUMPDEST SWAP1 POP DUP1 PUSH2 0x884 JUMPI PUSH1 0x40 MLOAD PUSH32 0x8C379A000000000000000000000000000000000000000000000000000000000 DUP2 MSTORE PUSH1 0x4 ADD PUSH2 0x87B SWAP1 PUSH2 0x1456 JUMP JUMPDEST PUSH1 0x40 MLOAD DUP1 SWAP2 SUB SWAP1 REVERT JUMPDEST PUSH32 0xA37B72BB67EEE30E09084CF386F8A17817C57F620C3AB95FB25D6A20356EC77 CALLER CALLVALUE DUP6 PUSH1 0x40 MLOAD PUSH2 0x8B7 SWAP4 SWAP3 SWAP2 SWAP1 PUSH2 0x126A JUMP JUMPDEST PUSH1 0x40 MLOAD DUP1 SWAP2 SUB SWAP1 LOG1 DUP3 SWAP5 POP POP POP POP POP SWAP1 JUMP JUMPDEST PUSH2 0x8D1 PUSH2 0x970 JUMP JUMPDEST PUSH1 0x0 PUSH20 0xFFFFFFFFFFFFFFFFFFFFFFFFFFFFFFFFFFFFFFFF AND DUP2 PUSH20 0xFFFFFFFFFFFFFFFFFFFFFFFFFFFFFFFFFFFFFFFF AND SUB PUSH2 0x940 JUMPI PUSH1 0x40 MLOAD PUSH32 0x8C379A000000000000000000000000000000000000000000000000000000000 DUP2 MSTORE PUSH1 0x4 ADD PUSH2 0x937 SWAP1 PUSH2 0x14E8 JUMP JUMPDEST PUSH1 0x40 MLOAD DUP1 SWAP2 SUB SWAP1 REVERT JUMPDEST PUSH2 0x949 DUP2 PUSH2 0xA87 JUMP JUMPDEST POP JUMP JUMPDEST PUSH1 0x0 PUSH2 0x3E8 PUSH1 0x4 SLOAD DUP4 PUSH2 0x95F SWAP2 SWAP1 PUSH2 0x130D JUMP JUMPDEST PUSH2 0x969 SWAP2 SWAP1 PUSH2 0xFD9 JUMP JUMPDEST SWAP1 POP SWAP2 SWAP1 POP JUMP JUMPDEST PUSH2 0x978 PUSH2 0xB4B JUMP JUMPDEST PUSH20 0xFFFFFFFFFFFFFFFFFFFFFFFFFFFFFFFFFFFFFFFF AND PUSH2 0x996 PUSH2 0x610 JUMP JUMPDEST PUSH20 0xFFFFFFFFFFFFFFFFFFFFFFFFFFFFFFFFFFFFFFFF AND EQ PUSH2 0x9EC JUMPI PUSH1 0x40 MLOAD PUSH32 0x8C379A000000000000000000000000000000000000000000000000000000000 DUP2 MSTORE PUSH1 0x4 ADD PUSH2 0x9E3 SWAP1 PUSH2 0x1554 JUMP JUMPDEST PUSH1 0x40 MLOAD DUP1 SWAP2 SUB SWAP1 REVERT JUMPDEST JUMP JUMPDEST PUSH1 0x2 PUSH1 0x0 SWAP1 SLOAD SWAP1 PUSH2 0x100 EXP SWAP1 DIV PUSH20 0xFFFFFFFFFFFFFFFFFFFFFFFFFFFFFFFFFFFFFFFF AND PUSH20 0xFFFFFFFFFFFFFFFFFFFFFFFFFFFFFFFFFFFFFFFF AND PUSH4 0x98D5FDCA PUSH1 0x40 MLOAD DUP2 PUSH4 0xFFFFFFFF AND PUSH1 0xE0 SHL DUP2 MSTORE PUSH1 0x4 ADD PUSH1 0x20 PUSH1 0x40 MLOAD DUP1 DUP4 SUB DUP2 DUP7 GAS STATICCALL ISZERO DUP1 ISZERO PUSH2 0xA5B JUMPI RETURNDATASIZE PUSH1 0x0 DUP1 RETURNDATACOPY RETURNDATASIZE PUSH1 0x0 REVERT JUMPDEST POP POP POP POP PUSH1 0x40 MLOAD RETURNDATASIZE PUSH1 0x1F NOT PUSH1 0x1F DUP3 ADD AND DUP3 ADD DUP1 PUSH1 0x40 MSTORE POP DUP2 ADD SWAP1 PUSH2 0xA7F SWAP2 SWAP1 PUSH2 0xEBC JUMP JUMPDEST PUSH1 0x3 DUP2 SWAP1 SSTORE POP JUMP JUMPDEST PUSH1 0x0 DUP1 PUSH1 0x0 SWAP1 SLOAD SWAP1 PUSH2 0x100 EXP SWAP1 DIV PUSH20 0xFFFFFFFFFFFFFFFFFFFFFFFFFFFFFFFFFFFFFFFF AND SWAP1 POP DUP2 PUSH1 0x0 DUP1 PUSH2 0x100 EXP DUP2 SLOAD DUP2 PUSH20 0xFFFFFFFFFFFFFFFFFFFFFFFFFFFFFFFFFFFFFFFF MUL NOT AND SWAP1 DUP4 PUSH20 0xFFFFFFFFFFFFFFFFFFFFFFFFFFFFFFFFFFFFFFFF AND MUL OR SWAP1 SSTORE POP DUP2 PUSH20 0xFFFFFFFFFFFFFFFFFFFFFFFFFFFFFFFFFFFFFFFF AND DUP2 PUSH20 0xFFFFFFFFFFFFFFFFFFFFFFFFFFFFFFFFFFFFFFFF AND PUSH32 0x8BE0079C531659141344CD1FD0A4F28419497F9722A3DAAFE3B4186F6B6457E0 PUSH1 0x40 MLOAD PUSH1 0x40 MLOAD DUP1 SWAP2 SUB SWAP1 LOG3 POP POP JUMP JUMPDEST PUSH1 0x0 CALLER SWAP1 POP SWAP1 JUMP JUMPDEST PUSH1 0x0 DUP1 REVERT JUMPDEST PUSH1 0x0 DUP2 SWAP1 POP SWAP2 SWAP1 POP JUMP JUMPDEST PUSH2 0xB6B DUP2 PUSH2 0xB58 JUMP JUMPDEST DUP2 EQ PUSH2 0xB76 JUMPI PUSH1 0x0 DUP1 REVERT JUMPDEST POP JUMP JUMPDEST PUSH1 0x0 DUP2 CALLDATALOAD SWAP1 POP PUSH2 0xB88 DUP2 PUSH2 0xB62 JUMP JUMPDEST SWAP3 SWAP2 POP POP JUMP JUMPDEST PUSH1 0x0 PUSH1 0x20 DUP3 DUP5 SUB SLT ISZERO PUSH2 0xBA4 JUMPI PUSH2 0xBA3 PUSH2 0xB53 JUMP JUMPDEST JUMPDEST PUSH1 0x0 PUSH2 0xBB2 DUP5 DUP3 DUP6 ADD PUSH2 0xB79 JUMP JUMPDEST SWAP2 POP POP SWAP3 SWAP2 POP POP JUMP JUMPDEST PUSH1 0x0 PUSH20 0xFFFFFFFFFFFFFFFFFFFFFFFFFFFFFFFFFFFFFFFF DUP3 AND SWAP1 POP SWAP2 SWAP1 POP JUMP JUMPDEST PUSH1 0x0 PUSH2 0xBE6 DUP3 PUSH2 0xBBB JUMP JUMPDEST SWAP1 POP SWAP2 SWAP1 POP JUMP JUMPDEST PUSH2 0xBF6 DUP2 PUSH2 0xBDB JUMP JUMPDEST DUP3 MSTORE POP POP JUMP JUMPDEST PUSH1 0x0 PUSH1 0x20 DUP3 ADD SWAP1 POP PUSH2 0xC11 PUSH1 0x0 DUP4 ADD DUP5 PUSH2 0xBED JUMP JUMPDEST SWAP3 SWAP2 POP POP JUMP JUMPDEST PUSH2 0xC20 DUP2 PUSH2 0xB58 JUMP JUMPDEST DUP3 MSTORE POP POP JUMP JUMPDEST PUSH1 0x0 PUSH1 0x20 DUP3 ADD SWAP1 POP PUSH2 0xC3B PUSH1 0x0 DUP4 ADD DUP5 PUSH2 0xC17 JUMP JUMPDEST SWAP3 SWAP2 POP POP JUMP JUMPDEST PUSH2 0xC4A DUP2 PUSH2 0xBDB JUMP JUMPDEST DUP2 EQ PUSH2 0xC55 JUMPI PUSH1 0x0 DUP1 REVERT JUMPDEST POP JUMP JUMPDEST PUSH1 0x0 DUP2 CALLDATALOAD SWAP1 POP PUSH2 0xC67 DUP2 PUSH2 0xC41 JUMP JUMPDEST SWAP3 SWAP2 POP POP JUMP JUMPDEST PUSH1 0x0 PUSH1 0x20 DUP3 DUP5 SUB SLT ISZERO PUSH2 0xC83 JUMPI PUSH2 0xC82 PUSH2 0xB53 JUMP JUMPDEST JUMPDEST PUSH1 0x0 PUSH2 0xC91 DUP5 DUP3 DUP6 ADD PUSH2 0xC58 JUMP JUMPDEST SWAP2 POP POP SWAP3 SWAP2 POP POP JUMP JUMPDEST PUSH1 0x0 DUP3 DUP3 MSTORE PUSH1 0x20 DUP3 ADD SWAP1 POP SWAP3 SWAP2 POP POP JUMP JUMPDEST PUSH32 0x4F776E657220686173206E6F742062616C616E636520746F2077697468647261 PUSH1 0x0 DUP3 ADD MSTORE PUSH32 0x7700000000000000000000000000000000000000000000000000000000000000 PUSH1 0x20 DUP3 ADD MSTORE POP JUMP JUMPDEST PUSH1 0x0 PUSH2 0xD07 PUSH1 0x21 DUP4 PUSH2 0xC9A JUMP JUMPDEST SWAP2 POP PUSH2 0xD12 DUP3 PUSH2 0xCAB JUMP JUMPDEST PUSH1 0x40 DUP3 ADD SWAP1 POP SWAP2 SWAP1 POP JUMP JUMPDEST PUSH1 0x0 PUSH1 0x20 DUP3 ADD SWAP1 POP DUP2 DUP2 SUB PUSH1 0x0 DUP4 ADD MSTORE PUSH2 0xD36 DUP2 PUSH2 0xCFA JUMP JUMPDEST SWAP1 POP SWAP2 SWAP1 POP JUMP JUMPDEST PUSH1 0x0 DUP2 SWAP1 POP SWAP3 SWAP2 POP POP JUMP JUMPDEST POP JUMP JUMPDEST PUSH1 0x0 PUSH2 0xD58 PUSH1 0x0 DUP4 PUSH2 0xD3D JUMP JUMPDEST SWAP2 POP PUSH2 0xD63 DUP3 PUSH2 0xD48 JUMP JUMPDEST PUSH1 0x0 DUP3 ADD SWAP1 POP SWAP2 SWAP1 POP JUMP JUMPDEST PUSH1 0x0 PUSH2 0xD79 DUP3 PUSH2 0xD4B JUMP JUMPDEST SWAP2 POP DUP2 SWAP1 POP SWAP2 SWAP1 POP JUMP JUMPDEST PUSH32 0x4661696C656420746F2073656E6420757365722062616C616E6365206261636B PUSH1 0x0 DUP3 ADD MSTORE PUSH32 0x20746F20746865206F776E657200000000000000000000000000000000000000 PUSH1 0x20 DUP3 ADD MSTORE POP JUMP JUMPDEST PUSH1 0x0 PUSH2 0xDDF PUSH1 0x2D DUP4 PUSH2 0xC9A JUMP JUMPDEST SWAP2 POP PUSH2 0xDEA DUP3 PUSH2 0xD83 JUMP JUMPDEST PUSH1 0x40 DUP3 ADD SWAP1 POP SWAP2 SWAP1 POP JUMP JUMPDEST PUSH1 0x0 PUSH1 0x20 DUP3 ADD SWAP1 POP DUP2 DUP2 SUB PUSH1 0x0 DUP4 ADD MSTORE PUSH2 0xE0E DUP2 PUSH2 0xDD2 JUMP JUMPDEST SWAP1 POP SWAP2 SWAP1 POP JUMP JUMPDEST PUSH32 0x5370656369667920616E20616D6F756E74206F6620746F6B656E206772656174 PUSH1 0x0 DUP3 ADD MSTORE PUSH32 0x6572207468616E20313030300000000000000000000000000000000000000000 PUSH1 0x20 DUP3 ADD MSTORE POP JUMP JUMPDEST PUSH1 0x0 PUSH2 0xE71 PUSH1 0x2C DUP4 PUSH2 0xC9A JUMP JUMPDEST SWAP2 POP PUSH2 0xE7C DUP3 PUSH2 0xE15 JUMP JUMPDEST PUSH1 0x40 DUP3 ADD SWAP1 POP SWAP2 SWAP1 POP JUMP JUMPDEST PUSH1 0x0 PUSH1 0x20 DUP3 ADD SWAP1 POP DUP2 DUP2 SUB PUSH1 0x0 DUP4 ADD MSTORE PUSH2 0xEA0 DUP2 PUSH2 0xE64 JUMP JUMPDEST SWAP1 POP SWAP2 SWAP1 POP JUMP JUMPDEST PUSH1 0x0 DUP2 MLOAD SWAP1 POP PUSH2 0xEB6 DUP2 PUSH2 0xB62 JUMP JUMPDEST SWAP3 SWAP2 POP POP JUMP JUMPDEST PUSH1 0x0 PUSH1 0x20 DUP3 DUP5 SUB SLT ISZERO PUSH2 0xED2 JUMPI PUSH2 0xED1 PUSH2 0xB53 JUMP JUMPDEST JUMPDEST PUSH1 0x0 PUSH2 0xEE0 DUP5 DUP3 DUP6 ADD PUSH2 0xEA7 JUMP JUMPDEST SWAP2 POP POP SWAP3 SWAP2 POP POP JUMP JUMPDEST PUSH32 0x596F75722062616C616E6365206973206C6F776572207468616E207468652061 PUSH1 0x0 DUP3 ADD MSTORE PUSH32 0x6D6F756E74206F6620746F6B656E7320796F752077616E7420746F2073656C6C PUSH1 0x20 DUP3 ADD MSTORE POP JUMP JUMPDEST PUSH1 0x0 PUSH2 0xF45 PUSH1 0x40 DUP4 PUSH2 0xC9A JUMP JUMPDEST SWAP2 POP PUSH2 0xF50 DUP3 PUSH2 0xEE9 JUMP JUMPDEST PUSH1 0x40 DUP3 ADD SWAP1 POP SWAP2 SWAP1 POP JUMP JUMPDEST PUSH1 0x0 PUSH1 0x20 DUP3 ADD SWAP1 POP DUP2 DUP2 SUB PUSH1 0x0 DUP4 ADD MSTORE PUSH2 0xF74 DUP2 PUSH2 0xF38 JUMP JUMPDEST SWAP1 POP SWAP2 SWAP1 POP JUMP JUMPDEST PUSH32 0x4E487B7100000000000000000000000000000000000000000000000000000000 PUSH1 0x0 MSTORE PUSH1 0x12 PUSH1 0x4 MSTORE PUSH1 0x24 PUSH1 0x0 REVERT JUMPDEST PUSH32 0x4E487B7100000000000000000000000000000000000000000000000000000000 PUSH1 0x0 MSTORE PUSH1 0x11 PUSH1 0x4 MSTORE PUSH1 0x24 PUSH1 0x0 REVERT JUMPDEST PUSH1 0x0 PUSH2 0xFE4 DUP3 PUSH2 0xB58 JUMP JUMPDEST SWAP2 POP PUSH2 0xFEF DUP4 PUSH2 0xB58 JUMP JUMPDEST SWAP3 POP DUP3 PUSH2 0xFFF JUMPI PUSH2 0xFFE PUSH2 0xF7B JUMP JUMPDEST JUMPDEST DUP3 DUP3 DIV SWAP1 POP SWAP3 SWAP2 POP POP JUMP JUMPDEST PUSH1 0x0 PUSH2 0x1015 DUP3 PUSH2 0xB58 JUMP JUMPDEST SWAP2 POP PUSH2 0x1020 DUP4 PUSH2 0xB58 JUMP JUMPDEST SWAP3 POP DUP3 DUP3 SUB SWAP1 POP DUP2 DUP2 GT ISZERO PUSH2 0x1038 JUMPI PUSH2 0x1037 PUSH2 0xFAA JUMP JUMPDEST JUMPDEST SWAP3 SWAP2 POP POP JUMP JUMPDEST PUSH32 0x56656E646F7220686173206E6F7420656E6F7567682066756E647320746F2061 PUSH1 0x0 DUP3 ADD MSTORE PUSH32 0x6363657074207468652073656C6C207265717565737400000000000000000000 PUSH1 0x20 DUP3 ADD MSTORE POP JUMP JUMPDEST PUSH1 0x0 PUSH2 0x109A PUSH1 0x36 DUP4 PUSH2 0xC9A JUMP JUMPDEST SWAP2 POP PUSH2 0x10A5 DUP3 PUSH2 0x103E JUMP JUMPDEST PUSH1 0x40 DUP3 ADD SWAP1 POP SWAP2 SWAP1 POP JUMP JUMPDEST PUSH1 0x0 PUSH1 0x20 DUP3 ADD SWAP1 POP DUP2 DUP2 SUB PUSH1 0x0 DUP4 ADD MSTORE PUSH2 0x10C9 DUP2 PUSH2 0x108D JUMP JUMPDEST SWAP1 POP SWAP2 SWAP1 POP JUMP JUMPDEST PUSH1 0x0 PUSH1 0x60 DUP3 ADD SWAP1 POP PUSH2 0x10E5 PUSH1 0x0 DUP4 ADD DUP7 PUSH2 0xBED JUMP JUMPDEST PUSH2 0x10F2 PUSH1 0x20 DUP4 ADD DUP6 PUSH2 0xBED JUMP JUMPDEST PUSH2 0x10FF PUSH1 0x40 DUP4 ADD DUP5 PUSH2 0xC17 JUMP JUMPDEST SWAP5 SWAP4 POP POP POP POP JUMP JUMPDEST PUSH1 0x0 DUP2 ISZERO ISZERO SWAP1 POP SWAP2 SWAP1 POP JUMP JUMPDEST PUSH2 0x111C DUP2 PUSH2 0x1107 JUMP JUMPDEST DUP2 EQ PUSH2 0x1127 JUMPI PUSH1 0x0 DUP1 REVERT JUMPDEST POP JUMP JUMPDEST PUSH1 0x0 DUP2 MLOAD SWAP1 POP PUSH2 0x1139 DUP2 PUSH2 0x1113 JUMP JUMPDEST SWAP3 SWAP2 POP POP JUMP JUMPDEST PUSH1 0x0 PUSH1 0x20 DUP3 DUP5 SUB SLT ISZERO PUSH2 0x1155 JUMPI PUSH2 0x1154 PUSH2 0xB53 JUMP JUMPDEST JUMPDEST PUSH1 0x0 PUSH2 0x1163 DUP5 DUP3 DUP6 ADD PUSH2 0x112A JUMP JUMPDEST SWAP2 POP POP SWAP3 SWAP2 POP POP JUMP JUMPDEST PUSH32 0x4661696C656420746F207472616E7366657220746F6B656E732066726F6D2075 PUSH1 0x0 DUP3 ADD MSTORE PUSH32 0x73657220746F2076656E646F7200000000000000000000000000000000000000 PUSH1 0x20 DUP3 ADD MSTORE POP JUMP JUMPDEST PUSH1 0x0 PUSH2 0x11C8 PUSH1 0x2D DUP4 PUSH2 0xC9A JUMP JUMPDEST SWAP2 POP PUSH2 0x11D3 DUP3 PUSH2 0x116C JUMP JUMPDEST PUSH1 0x40 DUP3 ADD SWAP1 POP SWAP2 SWAP1 POP JUMP JUMPDEST PUSH1 0x0 PUSH1 0x20 DUP3 ADD SWAP1 POP DUP2 DUP2 SUB PUSH1 0x0 DUP4 ADD MSTORE PUSH2 0x11F7 DUP2 PUSH2 0x11BB JUMP JUMPDEST SWAP1 POP SWAP2 SWAP1 POP JUMP JUMPDEST PUSH32 0x4661696C656420746F2073656E642045544820746F2074686520757365720000 PUSH1 0x0 DUP3 ADD MSTORE POP JUMP JUMPDEST PUSH1 0x0 PUSH2 0x1234 PUSH1 0x1E DUP4 PUSH2 0xC9A JUMP JUMPDEST SWAP2 POP PUSH2 0x123F DUP3 PUSH2 0x11FE JUMP JUMPDEST PUSH1 0x20 DUP3 ADD SWAP1 POP SWAP2 SWAP1 POP JUMP JUMPDEST PUSH1 0x0 PUSH1 0x20 DUP3 ADD SWAP1 POP DUP2 DUP2 SUB PUSH1 0x0 DUP4 ADD MSTORE PUSH2 0x1263 DUP2 PUSH2 0x1227 JUMP JUMPDEST SWAP1 POP SWAP2 SWAP1 POP JUMP JUMPDEST PUSH1 0x0 PUSH1 0x60 DUP3 ADD SWAP1 POP PUSH2 0x127F PUSH1 0x0 DUP4 ADD DUP7 PUSH2 0xBED JUMP JUMPDEST PUSH2 0x128C PUSH1 0x20 DUP4 ADD DUP6 PUSH2 0xC17 JUMP JUMPDEST PUSH2 0x1299 PUSH1 0x40 DUP4 ADD DUP5 PUSH2 0xC17 JUMP JUMPDEST SWAP5 SWAP4 POP POP POP POP JUMP JUMPDEST PUSH32 0x53656E642045544820746F2062757920736F6D6520746F6B656E730000000000 PUSH1 0x0 DUP3 ADD MSTORE POP JUMP JUMPDEST PUSH1 0x0 PUSH2 0x12D7 PUSH1 0x1B DUP4 PUSH2 0xC9A JUMP JUMPDEST SWAP2 POP PUSH2 0x12E2 DUP3 PUSH2 0x12A1 JUMP JUMPDEST PUSH1 0x20 DUP3 ADD SWAP1 POP SWAP2 SWAP1 POP JUMP JUMPDEST PUSH1 0x0 PUSH1 0x20 DUP3 ADD SWAP1 POP DUP2 DUP2 SUB PUSH1 0x0 DUP4 ADD MSTORE PUSH2 0x1306 DUP2 PUSH2 0x12CA JUMP JUMPDEST SWAP1 POP SWAP2 SWAP1 POP JUMP JUMPDEST PUSH1 0x0 PUSH2 0x1318 DUP3 PUSH2 0xB58 JUMP JUMPDEST SWAP2 POP PUSH2 0x1323 DUP4 PUSH2 0xB58 JUMP JUMPDEST SWAP3 POP DUP3 DUP3 MUL PUSH2 0x1331 DUP2 PUSH2 0xB58 JUMP JUMPDEST SWAP2 POP DUP3 DUP3 DIV DUP5 EQ DUP4 ISZERO OR PUSH2 0x1348 JUMPI PUSH2 0x1347 PUSH2 0xFAA JUMP JUMPDEST JUMPDEST POP SWAP3 SWAP2 POP POP JUMP JUMPDEST PUSH32 0x56656E646F7220636F6E747261637420686173206E6F7420656E6F7567682074 PUSH1 0x0 DUP3 ADD MSTORE PUSH32 0x6F6B656E7320696E206974732062616C616E6365000000000000000000000000 PUSH1 0x20 DUP3 ADD MSTORE POP JUMP JUMPDEST PUSH1 0x0 PUSH2 0x13AB PUSH1 0x34 DUP4 PUSH2 0xC9A JUMP JUMPDEST SWAP2 POP PUSH2 0x13B6 DUP3 PUSH2 0x134F JUMP JUMPDEST PUSH1 0x40 DUP3 ADD SWAP1 POP SWAP2 SWAP1 POP JUMP JUMPDEST PUSH1 0x0 PUSH1 0x20 DUP3 ADD SWAP1 POP DUP2 DUP2 SUB PUSH1 0x0 DUP4 ADD MSTORE PUSH2 0x13DA DUP2 PUSH2 0x139E JUMP JUMPDEST SWAP1 POP SWAP2 SWAP1 POP JUMP JUMPDEST PUSH1 0x0 PUSH1 0x40 DUP3 ADD SWAP1 POP PUSH2 0x13F6 PUSH1 0x0 DUP4 ADD DUP6 PUSH2 0xBED JUMP JUMPDEST PUSH2 0x1403 PUSH1 0x20 DUP4 ADD DUP5 PUSH2 0xC17 JUMP JUMPDEST SWAP4 SWAP3 POP POP POP JUMP JUMPDEST PUSH32 0x4661696C656420746F207472616E7366657220746F6B656E20746F2075736572 PUSH1 0x0 DUP3 ADD MSTORE POP JUMP JUMPDEST PUSH1 0x0 PUSH2 0x1440 PUSH1 0x20 DUP4 PUSH2 0xC9A JUMP JUMPDEST SWAP2 POP PUSH2 0x144B DUP3 PUSH2 0x140A JUMP JUMPDEST PUSH1 0x20 DUP3 ADD SWAP1 POP SWAP2 SWAP1 POP JUMP JUMPDEST PUSH1 0x0 PUSH1 0x20 DUP3 ADD SWAP1 POP DUP2 DUP2 SUB PUSH1 0x0 DUP4 ADD MSTORE PUSH2 0x146F DUP2 PUSH2 0x1433 JUMP JUMPDEST SWAP1 POP SWAP2 SWAP1 POP JUMP JUMPDEST PUSH32 0x4F776E61626C653A206E6577206F776E657220697320746865207A65726F2061 PUSH1 0x0 DUP3 ADD MSTORE PUSH32 0x6464726573730000000000000000000000000000000000000000000000000000 PUSH1 0x20 DUP3 ADD MSTORE POP JUMP JUMPDEST PUSH1 0x0 PUSH2 0x14D2 PUSH1 0x26 DUP4 PUSH2 0xC9A JUMP JUMPDEST SWAP2 POP PUSH2 0x14DD DUP3 PUSH2 0x1476 JUMP JUMPDEST PUSH1 0x40 DUP3 ADD SWAP1 POP SWAP2 SWAP1 POP JUMP JUMPDEST PUSH1 0x0 PUSH1 0x20 DUP3 ADD SWAP1 POP DUP2 DUP2 SUB PUSH1 0x0 DUP4 ADD MSTORE PUSH2 0x1501 DUP2 PUSH2 0x14C5 JUMP JUMPDEST SWAP1 POP SWAP2 SWAP1 POP JUMP JUMPDEST PUSH32 0x4F776E61626C653A2063616C6C6572206973206E6F7420746865206F776E6572 PUSH1 0x0 DUP3 ADD MSTORE POP JUMP JUMPDEST PUSH1 0x0 PUSH2 0x153E PUSH1 0x20 DUP4 PUSH2 0xC9A JUMP JUMPDEST SWAP2 POP PUSH2 0x1549 DUP3 PUSH2 0x1508 JUMP JUMPDEST PUSH1 0x20 DUP3 ADD SWAP1 POP SWAP2 SWAP1 POP JUMP JUMPDEST PUSH1 0x0 PUSH1 0x20 DUP3 ADD SWAP1 POP DUP2 DUP2 SUB PUSH1 0x0 DUP4 ADD MSTORE PUSH2 0x156D DUP2 PUSH2 0x1531 JUMP JUMPDEST SWAP1 POP SWAP2 SWAP1 POP JUMP INVALID LOG2 PUSH5 0x6970667358 0x22 SLT KECCAK256 0x27 0x2E PUSH10 0xBFCF49B0E408288692FA 0x23 0x4E MUL PC 0xD9 PUSH10 0xEE14EC497147FCFEC640 0xBF COINBASE 0xCD PUSH5 0x736F6C6343 STOP ADDMOD SGT STOP CALLER "
		},
		"gasEstimates": {
			"creation": {
				"codeDepositCost": "1109200",
				"executionCost": "infinite",
				"totalCost": "infinite"
			},
			"external": {
				"buyTokens()": "infinite",
				"getFee(uint256)": "infinite",
				"owner()": "2522",
				"renounceOwnership()": "30443",
				"sellTokens(uint256)": "infinite",
				"transferOwnership(address)": "30788",
				"withdraw()": "infinite"
			},
			"internal": {
				"getTokenPrice()": "infinite"
			}
		},
		"methodIdentifiers": {
			"buyTokens()": "d0febe4c",
			"getFee(uint256)": "fcee45f4",
			"owner()": "8da5cb5b",
			"renounceOwnership()": "715018a6",
			"sellTokens(uint256)": "6c11bcd3",
			"transferOwnership(address)": "f2fde38b",
			"withdraw()": "3ccfd60b"
		}
	},
	"abi": [
		{
			"inputs": [
				{
					"internalType": "address",
					"name": "tokenAddress",
					"type": "address"
				},
				{
					"internalType": "address",
					"name": "oracleAddress",
					"type": "address"
				}
			],
			"stateMutability": "nonpayable",
			"type": "constructor"
		},
		{
			"anonymous": false,
			"inputs": [
				{
					"indexed": false,
					"internalType": "address",
					"name": "buyer",
					"type": "address"
				},
				{
					"indexed": false,
					"internalType": "uint256",
					"name": "amountOfETH",
					"type": "uint256"
				},
				{
					"indexed": false,
					"internalType": "uint256",
					"name": "amountOfTokens",
					"type": "uint256"
				}
			],
			"name": "BuyTokens",
			"type": "event"
		},
		{
			"anonymous": false,
			"inputs": [
				{
					"indexed": true,
					"internalType": "address",
					"name": "previousOwner",
					"type": "address"
				},
				{
					"indexed": true,
					"internalType": "address",
					"name": "newOwner",
					"type": "address"
				}
			],
			"name": "OwnershipTransferred",
			"type": "event"
		},
		{
			"anonymous": false,
			"inputs": [
				{
					"indexed": false,
					"internalType": "address",
					"name": "seller",
					"type": "address"
				},
				{
					"indexed": false,
					"internalType": "uint256",
					"name": "amountOfTokens",
					"type": "uint256"
				},
				{
					"indexed": false,
					"internalType": "uint256",
					"name": "amountOfETH",
					"type": "uint256"
				}
			],
			"name": "SellTokens",
			"type": "event"
		},
		{
			"inputs": [],
			"name": "buyTokens",
			"outputs": [
				{
					"internalType": "uint256",
					"name": "tokenAmount",
					"type": "uint256"
				}
			],
			"stateMutability": "payable",
			"type": "function"
		},
		{
			"inputs": [
				{
					"internalType": "uint256",
					"name": "_amount",
					"type": "uint256"
				}
			],
			"name": "getFee",
			"outputs": [
				{
					"internalType": "uint256",
					"name": "fee",
					"type": "uint256"
				}
			],
			"stateMutability": "view",
			"type": "function"
		},
		{
			"inputs": [],
			"name": "owner",
			"outputs": [
				{
					"internalType": "address",
					"name": "",
					"type": "address"
				}
			],
			"stateMutability": "view",
			"type": "function"
		},
		{
			"inputs": [],
			"name": "renounceOwnership",
			"outputs": [],
			"stateMutability": "nonpayable",
			"type": "function"
		},
		{
			"inputs": [
				{
					"internalType": "uint256",
					"name": "tokenAmountToSell",
					"type": "uint256"
				}
			],
			"name": "sellTokens",
			"outputs": [],
			"stateMutability": "nonpayable",
			"type": "function"
		},
		{
			"inputs": [
				{
					"internalType": "address",
					"name": "newOwner",
					"type": "address"
				}
			],
			"name": "transferOwnership",
			"outputs": [],
			"stateMutability": "nonpayable",
			"type": "function"
		},
		{
			"inputs": [],
			"name": "withdraw",
			"outputs": [],
			"stateMutability": "nonpayable",
			"type": "function"
		},
		{
			"stateMutability": "payable",
			"type": "receive"
		}
	]
}