{
	"contracts/SecondOracle.sol": {
		"SecondPriceOracle": {
			"abi": [
				{
					"inputs": [],
					"stateMutability": "nonpayable",
					"type": "constructor"
				},
				{
					"anonymous": false,
					"inputs": [
						{
							"indexed": false,
							"internalType": "uint256",
							"name": "_price",
							"type": "uint256"
						}
					],
					"name": "UpdateSPrice",
					"type": "event"
				},
				{
					"inputs": [],
					"name": "getPrice",
					"outputs": [
						{
							"internalType": "uint256",
							"name": "",
							"type": "uint256"
						}
					],
					"stateMutability": "view",
					"type": "function"
				},
				{
					"inputs": [],
					"name": "tkPerETH",
					"outputs": [
						{
							"internalType": "uint256",
							"name": "",
							"type": "uint256"
						}
					],
					"stateMutability": "view",
					"type": "function"
				},
				{
					"inputs": [
						{
							"internalType": "uint256",
							"name": "_price",
							"type": "uint256"
						}
					],
					"name": "updateSPrice",
					"outputs": [],
					"stateMutability": "nonpayable",
					"type": "function"
				}
			],
			"devdoc": {
				"kind": "dev",
				"methods": {},
				"version": 1
			},
			"evm": {
				"assembly": "    /* \"contracts/SecondOracle.sol\":60:718  contract SecondPriceOracle {... */\n  mstore(0x40, 0x80)\n    /* \"contracts/SecondOracle.sol\":219:267  constructor() {... */\n  callvalue\n  dup1\n  iszero\n  tag_1\n  jumpi\n  0x00\n  dup1\n  revert\ntag_1:\n  pop\n    /* \"contracts/SecondOracle.sol\":251:261  msg.sender */\n  caller\n    /* \"contracts/SecondOracle.sol\":242:248  _owner */\n  0x01\n  0x00\n    /* \"contracts/SecondOracle.sol\":242:261  _owner = msg.sender */\n  0x0100\n  exp\n  dup2\n  sload\n  dup2\n  0xffffffffffffffffffffffffffffffffffffffff\n  mul\n  not\n  and\n  swap1\n  dup4\n  0xffffffffffffffffffffffffffffffffffffffff\n  and\n  mul\n  or\n  swap1\n  sstore\n  pop\n    /* \"contracts/SecondOracle.sol\":60:718  contract SecondPriceOracle {... */\n  dataSize(sub_0)\n  dup1\n  dataOffset(sub_0)\n  0x00\n  codecopy\n  0x00\n  return\nstop\n\nsub_0: assembly {\n        /* \"contracts/SecondOracle.sol\":60:718  contract SecondPriceOracle {... */\n      mstore(0x40, 0x80)\n      callvalue\n      dup1\n      iszero\n      tag_1\n      jumpi\n      0x00\n      dup1\n      revert\n    tag_1:\n      pop\n      jumpi(tag_2, lt(calldatasize, 0x04))\n      shr(0xe0, calldataload(0x00))\n      dup1\n      0x3111a6a8\n      eq\n      tag_3\n      jumpi\n      dup1\n      0x98d5fdca\n      eq\n      tag_4\n      jumpi\n      dup1\n      0xeb26de71\n      eq\n      tag_5\n      jumpi\n    tag_2:\n      0x00\n      dup1\n      revert\n        /* \"contracts/SecondOracle.sol\":516:633  function updateSPrice (uint256 _price) public onlyOwner{... */\n    tag_3:\n      tag_6\n      0x04\n      dup1\n      calldatasize\n      sub\n      dup2\n      add\n      swap1\n      tag_7\n      swap2\n      swap1\n      tag_8\n      jump\t// in\n    tag_7:\n      tag_9\n      jump\t// in\n    tag_6:\n      stop\n        /* \"contracts/SecondOracle.sol\":637:715  function getPrice() public view returns(uint256){... */\n    tag_4:\n      tag_10\n      tag_11\n      jump\t// in\n    tag_10:\n      mload(0x40)\n      tag_12\n      swap2\n      swap1\n      tag_13\n      jump\t// in\n    tag_12:\n      mload(0x40)\n      dup1\n      swap2\n      sub\n      swap1\n      return\n        /* \"contracts/SecondOracle.sol\":96:119  uint256 public tkPerETH */\n    tag_5:\n      tag_14\n      tag_15\n      jump\t// in\n    tag_14:\n      mload(0x40)\n      tag_16\n      swap2\n      swap1\n      tag_13\n      jump\t// in\n    tag_16:\n      mload(0x40)\n      dup1\n      swap2\n      sub\n      swap1\n      return\n        /* \"contracts/SecondOracle.sol\":516:633  function updateSPrice (uint256 _price) public onlyOwner{... */\n    tag_9:\n        /* \"contracts/SecondOracle.sol\":322:332  msg.sender */\n      caller\n        /* \"contracts/SecondOracle.sol\":312:332  _owner == msg.sender */\n      0xffffffffffffffffffffffffffffffffffffffff\n      and\n        /* \"contracts/SecondOracle.sol\":312:318  _owner */\n      0x01\n      0x00\n      swap1\n      sload\n      swap1\n      0x0100\n      exp\n      swap1\n      div\n      0xffffffffffffffffffffffffffffffffffffffff\n      and\n        /* \"contracts/SecondOracle.sol\":312:332  _owner == msg.sender */\n      0xffffffffffffffffffffffffffffffffffffffff\n      and\n      eq\n        /* \"contracts/SecondOracle.sol\":303:398  require( _owner == msg.sender, \"Ownership Assertion: Caller of the function is not the owner.\") */\n      tag_18\n      jumpi\n      mload(0x40)\n      0x08c379a000000000000000000000000000000000000000000000000000000000\n      dup2\n      mstore\n      0x04\n      add\n      tag_19\n      swap1\n      tag_20\n      jump\t// in\n    tag_19:\n      mload(0x40)\n      dup1\n      swap2\n      sub\n      swap1\n      revert\n    tag_18:\n        /* \"contracts/SecondOracle.sol\":589:595  _price */\n      dup1\n        /* \"contracts/SecondOracle.sol\":578:586  tkPerETH */\n      0x00\n        /* \"contracts/SecondOracle.sol\":578:595  tkPerETH = _price */\n      dup2\n      swap1\n      sstore\n      pop\n        /* \"contracts/SecondOracle.sol\":607:627  UpdateSPrice(_price) */\n      0x4fbda56347d164cac40a4f0dff20a65280979fce48785f404ad9ce4233ca5c02\n        /* \"contracts/SecondOracle.sol\":620:626  _price */\n      dup2\n        /* \"contracts/SecondOracle.sol\":607:627  UpdateSPrice(_price) */\n      mload(0x40)\n      tag_22\n      swap2\n      swap1\n      tag_13\n      jump\t// in\n    tag_22:\n      mload(0x40)\n      dup1\n      swap2\n      sub\n      swap1\n      log1\n        /* \"contracts/SecondOracle.sol\":516:633  function updateSPrice (uint256 _price) public onlyOwner{... */\n      pop\n      jump\t// out\n        /* \"contracts/SecondOracle.sol\":637:715  function getPrice() public view returns(uint256){... */\n    tag_11:\n        /* \"contracts/SecondOracle.sol\":677:684  uint256 */\n      0x00\n        /* \"contracts/SecondOracle.sol\":701:709  tkPerETH */\n      dup1\n      sload\n        /* \"contracts/SecondOracle.sol\":694:709  return tkPerETH */\n      swap1\n      pop\n        /* \"contracts/SecondOracle.sol\":637:715  function getPrice() public view returns(uint256){... */\n      swap1\n      jump\t// out\n        /* \"contracts/SecondOracle.sol\":96:119  uint256 public tkPerETH */\n    tag_15:\n      sload(0x00)\n      dup2\n      jump\t// out\n        /* \"#utility.yul\":88:205   */\n    tag_25:\n        /* \"#utility.yul\":197:198   */\n      0x00\n        /* \"#utility.yul\":194:195   */\n      dup1\n        /* \"#utility.yul\":187:199   */\n      revert\n        /* \"#utility.yul\":334:411   */\n    tag_27:\n        /* \"#utility.yul\":371:378   */\n      0x00\n        /* \"#utility.yul\":400:405   */\n      dup2\n        /* \"#utility.yul\":389:405   */\n      swap1\n      pop\n        /* \"#utility.yul\":334:411   */\n      swap2\n      swap1\n      pop\n      jump\t// out\n        /* \"#utility.yul\":417:539   */\n    tag_28:\n        /* \"#utility.yul\":490:514   */\n      tag_40\n        /* \"#utility.yul\":508:513   */\n      dup2\n        /* \"#utility.yul\":490:514   */\n      tag_27\n      jump\t// in\n    tag_40:\n        /* \"#utility.yul\":483:488   */\n      dup2\n        /* \"#utility.yul\":480:515   */\n      eq\n        /* \"#utility.yul\":470:533   */\n      tag_41\n      jumpi\n        /* \"#utility.yul\":529:530   */\n      0x00\n        /* \"#utility.yul\":526:527   */\n      dup1\n        /* \"#utility.yul\":519:531   */\n      revert\n        /* \"#utility.yul\":470:533   */\n    tag_41:\n        /* \"#utility.yul\":417:539   */\n      pop\n      jump\t// out\n        /* \"#utility.yul\":545:684   */\n    tag_29:\n        /* \"#utility.yul\":591:596   */\n      0x00\n        /* \"#utility.yul\":629:635   */\n      dup2\n        /* \"#utility.yul\":616:636   */\n      calldataload\n        /* \"#utility.yul\":607:636   */\n      swap1\n      pop\n        /* \"#utility.yul\":645:678   */\n      tag_43\n        /* \"#utility.yul\":672:677   */\n      dup2\n        /* \"#utility.yul\":645:678   */\n      tag_28\n      jump\t// in\n    tag_43:\n        /* \"#utility.yul\":545:684   */\n      swap3\n      swap2\n      pop\n      pop\n      jump\t// out\n        /* \"#utility.yul\":690:1019   */\n    tag_8:\n        /* \"#utility.yul\":749:755   */\n      0x00\n        /* \"#utility.yul\":798:800   */\n      0x20\n        /* \"#utility.yul\":786:795   */\n      dup3\n        /* \"#utility.yul\":777:784   */\n      dup5\n        /* \"#utility.yul\":773:796   */\n      sub\n        /* \"#utility.yul\":769:801   */\n      slt\n        /* \"#utility.yul\":766:885   */\n      iszero\n      tag_45\n      jumpi\n        /* \"#utility.yul\":804:883   */\n      tag_46\n      tag_25\n      jump\t// in\n    tag_46:\n        /* \"#utility.yul\":766:885   */\n    tag_45:\n        /* \"#utility.yul\":924:925   */\n      0x00\n        /* \"#utility.yul\":949:1002   */\n      tag_47\n        /* \"#utility.yul\":994:1001   */\n      dup5\n        /* \"#utility.yul\":985:991   */\n      dup3\n        /* \"#utility.yul\":974:983   */\n      dup6\n        /* \"#utility.yul\":970:992   */\n      add\n        /* \"#utility.yul\":949:1002   */\n      tag_29\n      jump\t// in\n    tag_47:\n        /* \"#utility.yul\":939:1002   */\n      swap2\n      pop\n        /* \"#utility.yul\":895:1012   */\n      pop\n        /* \"#utility.yul\":690:1019   */\n      swap3\n      swap2\n      pop\n      pop\n      jump\t// out\n        /* \"#utility.yul\":1025:1143   */\n    tag_30:\n        /* \"#utility.yul\":1112:1136   */\n      tag_49\n        /* \"#utility.yul\":1130:1135   */\n      dup2\n        /* \"#utility.yul\":1112:1136   */\n      tag_27\n      jump\t// in\n    tag_49:\n        /* \"#utility.yul\":1107:1110   */\n      dup3\n        /* \"#utility.yul\":1100:1137   */\n      mstore\n        /* \"#utility.yul\":1025:1143   */\n      pop\n      pop\n      jump\t// out\n        /* \"#utility.yul\":1149:1371   */\n    tag_13:\n        /* \"#utility.yul\":1242:1246   */\n      0x00\n        /* \"#utility.yul\":1280:1282   */\n      0x20\n        /* \"#utility.yul\":1269:1278   */\n      dup3\n        /* \"#utility.yul\":1265:1283   */\n      add\n        /* \"#utility.yul\":1257:1283   */\n      swap1\n      pop\n        /* \"#utility.yul\":1293:1364   */\n      tag_51\n        /* \"#utility.yul\":1361:1362   */\n      0x00\n        /* \"#utility.yul\":1350:1359   */\n      dup4\n        /* \"#utility.yul\":1346:1363   */\n      add\n        /* \"#utility.yul\":1337:1343   */\n      dup5\n        /* \"#utility.yul\":1293:1364   */\n      tag_30\n      jump\t// in\n    tag_51:\n        /* \"#utility.yul\":1149:1371   */\n      swap3\n      swap2\n      pop\n      pop\n      jump\t// out\n        /* \"#utility.yul\":1377:1546   */\n    tag_31:\n        /* \"#utility.yul\":1461:1472   */\n      0x00\n        /* \"#utility.yul\":1495:1501   */\n      dup3\n        /* \"#utility.yul\":1490:1493   */\n      dup3\n        /* \"#utility.yul\":1483:1502   */\n      mstore\n        /* \"#utility.yul\":1535:1539   */\n      0x20\n        /* \"#utility.yul\":1530:1533   */\n      dup3\n        /* \"#utility.yul\":1526:1540   */\n      add\n        /* \"#utility.yul\":1511:1540   */\n      swap1\n      pop\n        /* \"#utility.yul\":1377:1546   */\n      swap3\n      swap2\n      pop\n      pop\n      jump\t// out\n        /* \"#utility.yul\":1552:1800   */\n    tag_32:\n        /* \"#utility.yul\":1692:1726   */\n      0x4f776e65727368697020417373657274696f6e3a2043616c6c6572206f662074\n        /* \"#utility.yul\":1688:1689   */\n      0x00\n        /* \"#utility.yul\":1680:1686   */\n      dup3\n        /* \"#utility.yul\":1676:1690   */\n      add\n        /* \"#utility.yul\":1669:1727   */\n      mstore\n        /* \"#utility.yul\":1761:1792   */\n      0x68652066756e6374696f6e206973206e6f7420746865206f776e65722e000000\n        /* \"#utility.yul\":1756:1758   */\n      0x20\n        /* \"#utility.yul\":1748:1754   */\n      dup3\n        /* \"#utility.yul\":1744:1759   */\n      add\n        /* \"#utility.yul\":1737:1793   */\n      mstore\n        /* \"#utility.yul\":1552:1800   */\n      pop\n      jump\t// out\n        /* \"#utility.yul\":1806:2172   */\n    tag_33:\n        /* \"#utility.yul\":1948:1951   */\n      0x00\n        /* \"#utility.yul\":1969:2036   */\n      tag_55\n        /* \"#utility.yul\":2033:2035   */\n      0x3d\n        /* \"#utility.yul\":2028:2031   */\n      dup4\n        /* \"#utility.yul\":1969:2036   */\n      tag_31\n      jump\t// in\n    tag_55:\n        /* \"#utility.yul\":1962:2036   */\n      swap2\n      pop\n        /* \"#utility.yul\":2045:2138   */\n      tag_56\n        /* \"#utility.yul\":2134:2137   */\n      dup3\n        /* \"#utility.yul\":2045:2138   */\n      tag_32\n      jump\t// in\n    tag_56:\n        /* \"#utility.yul\":2163:2165   */\n      0x40\n        /* \"#utility.yul\":2158:2161   */\n      dup3\n        /* \"#utility.yul\":2154:2166   */\n      add\n        /* \"#utility.yul\":2147:2166   */\n      swap1\n      pop\n        /* \"#utility.yul\":1806:2172   */\n      swap2\n      swap1\n      pop\n      jump\t// out\n        /* \"#utility.yul\":2178:2597   */\n    tag_20:\n        /* \"#utility.yul\":2344:2348   */\n      0x00\n        /* \"#utility.yul\":2382:2384   */\n      0x20\n        /* \"#utility.yul\":2371:2380   */\n      dup3\n        /* \"#utility.yul\":2367:2385   */\n      add\n        /* \"#utility.yul\":2359:2385   */\n      swap1\n      pop\n        /* \"#utility.yul\":2431:2440   */\n      dup2\n        /* \"#utility.yul\":2425:2429   */\n      dup2\n        /* \"#utility.yul\":2421:2441   */\n      sub\n        /* \"#utility.yul\":2417:2418   */\n      0x00\n        /* \"#utility.yul\":2406:2415   */\n      dup4\n        /* \"#utility.yul\":2402:2419   */\n      add\n        /* \"#utility.yul\":2395:2442   */\n      mstore\n        /* \"#utility.yul\":2459:2590   */\n      tag_58\n        /* \"#utility.yul\":2585:2589   */\n      dup2\n        /* \"#utility.yul\":2459:2590   */\n      tag_33\n      jump\t// in\n    tag_58:\n        /* \"#utility.yul\":2451:2590   */\n      swap1\n      pop\n        /* \"#utility.yul\":2178:2597   */\n      swap2\n      swap1\n      pop\n      jump\t// out\n\n    auxdata: 0xa264697066735822122059ae6d8f197b9d1563e2b0ea0bf1989af47ab896fa799f67d472c8f377211b5f64736f6c63430008130033\n}\n",
				"bytecode": {
					"linkReferences": {},
					"object": "608060405234801561001057600080fd5b5033600160006101000a81548173ffffffffffffffffffffffffffffffffffffffff021916908373ffffffffffffffffffffffffffffffffffffffff1602179055506102e9806100616000396000f3fe608060405234801561001057600080fd5b50600436106100415760003560e01c80633111a6a81461004657806398d5fdca14610062578063eb26de7114610080575b600080fd5b610060600480360381019061005b91906101b9565b61009e565b005b61006a61016f565b60405161007791906101f5565b60405180910390f35b610088610178565b60405161009591906101f5565b60405180910390f35b3373ffffffffffffffffffffffffffffffffffffffff16600160009054906101000a900473ffffffffffffffffffffffffffffffffffffffff1673ffffffffffffffffffffffffffffffffffffffff161461012e576040517f08c379a000000000000000000000000000000000000000000000000000000000815260040161012590610293565b60405180910390fd5b806000819055507f4fbda56347d164cac40a4f0dff20a65280979fce48785f404ad9ce4233ca5c028160405161016491906101f5565b60405180910390a150565b60008054905090565b60005481565b600080fd5b6000819050919050565b61019681610183565b81146101a157600080fd5b50565b6000813590506101b38161018d565b92915050565b6000602082840312156101cf576101ce61017e565b5b60006101dd848285016101a4565b91505092915050565b6101ef81610183565b82525050565b600060208201905061020a60008301846101e6565b92915050565b600082825260208201905092915050565b7f4f776e65727368697020417373657274696f6e3a2043616c6c6572206f66207460008201527f68652066756e6374696f6e206973206e6f7420746865206f776e65722e000000602082015250565b600061027d603d83610210565b915061028882610221565b604082019050919050565b600060208201905081810360008301526102ac81610270565b905091905056fea264697066735822122059ae6d8f197b9d1563e2b0ea0bf1989af47ab896fa799f67d472c8f377211b5f64736f6c63430008130033",
					"opcodes": "PUSH1 0x80 PUSH1 0x40 MSTORE CALLVALUE DUP1 ISZERO PUSH2 0x10 JUMPI PUSH1 0x0 DUP1 REVERT JUMPDEST POP CALLER PUSH1 0x1 PUSH1 0x0 PUSH2 0x100 EXP DUP2 SLOAD DUP2 PUSH20 0xFFFFFFFFFFFFFFFFFFFFFFFFFFFFFFFFFFFFFFFF MUL NOT AND SWAP1 DUP4 PUSH20 0xFFFFFFFFFFFFFFFFFFFFFFFFFFFFFFFFFFFFFFFF AND MUL OR SWAP1 SSTORE POP PUSH2 0x2E9 DUP1 PUSH2 0x61 PUSH1 0x0 CODECOPY PUSH1 0x0 RETURN INVALID PUSH1 0x80 PUSH1 0x40 MSTORE CALLVALUE DUP1 ISZERO PUSH2 0x10 JUMPI PUSH1 0x0 DUP1 REVERT JUMPDEST POP PUSH1 0x4 CALLDATASIZE LT PUSH2 0x41 JUMPI PUSH1 0x0 CALLDATALOAD PUSH1 0xE0 SHR DUP1 PUSH4 0x3111A6A8 EQ PUSH2 0x46 JUMPI DUP1 PUSH4 0x98D5FDCA EQ PUSH2 0x62 JUMPI DUP1 PUSH4 0xEB26DE71 EQ PUSH2 0x80 JUMPI JUMPDEST PUSH1 0x0 DUP1 REVERT JUMPDEST PUSH2 0x60 PUSH1 0x4 DUP1 CALLDATASIZE SUB DUP2 ADD SWAP1 PUSH2 0x5B SWAP2 SWAP1 PUSH2 0x1B9 JUMP JUMPDEST PUSH2 0x9E JUMP JUMPDEST STOP JUMPDEST PUSH2 0x6A PUSH2 0x16F JUMP JUMPDEST PUSH1 0x40 MLOAD PUSH2 0x77 SWAP2 SWAP1 PUSH2 0x1F5 JUMP JUMPDEST PUSH1 0x40 MLOAD DUP1 SWAP2 SUB SWAP1 RETURN JUMPDEST PUSH2 0x88 PUSH2 0x178 JUMP JUMPDEST PUSH1 0x40 MLOAD PUSH2 0x95 SWAP2 SWAP1 PUSH2 0x1F5 JUMP JUMPDEST PUSH1 0x40 MLOAD DUP1 SWAP2 SUB SWAP1 RETURN JUMPDEST CALLER PUSH20 0xFFFFFFFFFFFFFFFFFFFFFFFFFFFFFFFFFFFFFFFF AND PUSH1 0x1 PUSH1 0x0 SWAP1 SLOAD SWAP1 PUSH2 0x100 EXP SWAP1 DIV PUSH20 0xFFFFFFFFFFFFFFFFFFFFFFFFFFFFFFFFFFFFFFFF AND PUSH20 0xFFFFFFFFFFFFFFFFFFFFFFFFFFFFFFFFFFFFFFFF AND EQ PUSH2 0x12E JUMPI PUSH1 0x40 MLOAD PUSH32 0x8C379A000000000000000000000000000000000000000000000000000000000 DUP2 MSTORE PUSH1 0x4 ADD PUSH2 0x125 SWAP1 PUSH2 0x293 JUMP JUMPDEST PUSH1 0x40 MLOAD DUP1 SWAP2 SUB SWAP1 REVERT JUMPDEST DUP1 PUSH1 0x0 DUP2 SWAP1 SSTORE POP PUSH32 0x4FBDA56347D164CAC40A4F0DFF20A65280979FCE48785F404AD9CE4233CA5C02 DUP2 PUSH1 0x40 MLOAD PUSH2 0x164 SWAP2 SWAP1 PUSH2 0x1F5 JUMP JUMPDEST PUSH1 0x40 MLOAD DUP1 SWAP2 SUB SWAP1 LOG1 POP JUMP JUMPDEST PUSH1 0x0 DUP1 SLOAD SWAP1 POP SWAP1 JUMP JUMPDEST PUSH1 0x0 SLOAD DUP2 JUMP JUMPDEST PUSH1 0x0 DUP1 REVERT JUMPDEST PUSH1 0x0 DUP2 SWAP1 POP SWAP2 SWAP1 POP JUMP JUMPDEST PUSH2 0x196 DUP2 PUSH2 0x183 JUMP JUMPDEST DUP2 EQ PUSH2 0x1A1 JUMPI PUSH1 0x0 DUP1 REVERT JUMPDEST POP JUMP JUMPDEST PUSH1 0x0 DUP2 CALLDATALOAD SWAP1 POP PUSH2 0x1B3 DUP2 PUSH2 0x18D JUMP JUMPDEST SWAP3 SWAP2 POP POP JUMP JUMPDEST PUSH1 0x0 PUSH1 0x20 DUP3 DUP5 SUB SLT ISZERO PUSH2 0x1CF JUMPI PUSH2 0x1CE PUSH2 0x17E JUMP JUMPDEST JUMPDEST PUSH1 0x0 PUSH2 0x1DD DUP5 DUP3 DUP6 ADD PUSH2 0x1A4 JUMP JUMPDEST SWAP2 POP POP SWAP3 SWAP2 POP POP JUMP JUMPDEST PUSH2 0x1EF DUP2 PUSH2 0x183 JUMP JUMPDEST DUP3 MSTORE POP POP JUMP JUMPDEST PUSH1 0x0 PUSH1 0x20 DUP3 ADD SWAP1 POP PUSH2 0x20A PUSH1 0x0 DUP4 ADD DUP5 PUSH2 0x1E6 JUMP JUMPDEST SWAP3 SWAP2 POP POP JUMP JUMPDEST PUSH1 0x0 DUP3 DUP3 MSTORE PUSH1 0x20 DUP3 ADD SWAP1 POP SWAP3 SWAP2 POP POP JUMP JUMPDEST PUSH32 0x4F776E65727368697020417373657274696F6E3A2043616C6C6572206F662074 PUSH1 0x0 DUP3 ADD MSTORE PUSH32 0x68652066756E6374696F6E206973206E6F7420746865206F776E65722E000000 PUSH1 0x20 DUP3 ADD MSTORE POP JUMP JUMPDEST PUSH1 0x0 PUSH2 0x27D PUSH1 0x3D DUP4 PUSH2 0x210 JUMP JUMPDEST SWAP2 POP PUSH2 0x288 DUP3 PUSH2 0x221 JUMP JUMPDEST PUSH1 0x40 DUP3 ADD SWAP1 POP SWAP2 SWAP1 POP JUMP JUMPDEST PUSH1 0x0 PUSH1 0x20 DUP3 ADD SWAP1 POP DUP2 DUP2 SUB PUSH1 0x0 DUP4 ADD MSTORE PUSH2 0x2AC DUP2 PUSH2 0x270 JUMP JUMPDEST SWAP1 POP SWAP2 SWAP1 POP JUMP INVALID LOG2 PUSH5 0x6970667358 0x22 SLT KECCAK256 MSIZE 0xAE PUSH14 0x8F197B9D1563E2B0EA0BF1989AF4 PUSH27 0xB896FA799F67D472C8F377211B5F64736F6C634300081300330000 "
				},
				"gasEstimates": {
					"creation": {
						"codeDepositCost": "149000",
						"executionCost": "24462",
						"totalCost": "173462"
					},
					"external": {
						"getPrice()": "2437",
						"tkPerETH()": "2451",
						"updateSPrice(uint256)": "infinite"
					}
				},
				"methodIdentifiers": {
					"getPrice()": "98d5fdca",
					"tkPerETH()": "eb26de71",
					"updateSPrice(uint256)": "3111a6a8"
				}
			},
			"storageLayout": {
				"storage": [
					{
						"astId": 3,
						"contract": "contracts/SecondOracle.sol:SecondPriceOracle",
						"label": "tkPerETH",
						"offset": 0,
						"slot": "0",
						"type": "t_uint256"
					},
					{
						"astId": 9,
						"contract": "contracts/SecondOracle.sol:SecondPriceOracle",
						"label": "_owner",
						"offset": 0,
						"slot": "1",
						"type": "t_address"
					}
				],
				"types": {
					"t_address": {
						"encoding": "inplace",
						"label": "address",
						"numberOfBytes": "20"
					},
					"t_uint256": {
						"encoding": "inplace",
						"label": "uint256",
						"numberOfBytes": "32"
					}
				}
			},
			"userdoc": {
				"kind": "user",
				"methods": {},
				"version": 1
			}
		}
	}
}