{
	"contracts/STKVendor.sol": {
		"STKVendor": {
			"abi": [
				{
					"inputs": [
						{
							"internalType": "address",
							"name": "tokenAddress",
							"type": "address"
						},
						{
							"internalType": "address",
							"name": "oracleAddress",
							"type": "address"
						}
					],
					"stateMutability": "nonpayable",
					"type": "constructor"
				},
				{
					"anonymous": false,
					"inputs": [
						{
							"indexed": false,
							"internalType": "address",
							"name": "buyer",
							"type": "address"
						},
						{
							"indexed": false,
							"internalType": "uint256",
							"name": "amountOfETH",
							"type": "uint256"
						},
						{
							"indexed": false,
							"internalType": "uint256",
							"name": "amountOfTokens",
							"type": "uint256"
						}
					],
					"name": "BuyTokens",
					"type": "event"
				},
				{
					"anonymous": false,
					"inputs": [
						{
							"indexed": true,
							"internalType": "address",
							"name": "previousOwner",
							"type": "address"
						},
						{
							"indexed": true,
							"internalType": "address",
							"name": "newOwner",
							"type": "address"
						}
					],
					"name": "OwnershipTransferred",
					"type": "event"
				},
				{
					"anonymous": false,
					"inputs": [
						{
							"indexed": false,
							"internalType": "address",
							"name": "seller",
							"type": "address"
						},
						{
							"indexed": false,
							"internalType": "uint256",
							"name": "amountOfTokens",
							"type": "uint256"
						},
						{
							"indexed": false,
							"internalType": "uint256",
							"name": "amountOfETH",
							"type": "uint256"
						}
					],
					"name": "SellTokens",
					"type": "event"
				},
				{
					"inputs": [],
					"name": "buyTokens",
					"outputs": [
						{
							"internalType": "uint256",
							"name": "tokenAmount",
							"type": "uint256"
						}
					],
					"stateMutability": "payable",
					"type": "function"
				},
				{
					"inputs": [],
					"name": "owner",
					"outputs": [
						{
							"internalType": "address",
							"name": "",
							"type": "address"
						}
					],
					"stateMutability": "view",
					"type": "function"
				},
				{
					"inputs": [],
					"name": "renounceOwnership",
					"outputs": [],
					"stateMutability": "nonpayable",
					"type": "function"
				},
				{
					"inputs": [
						{
							"internalType": "uint256",
							"name": "tokenAmountToSell",
							"type": "uint256"
						}
					],
					"name": "sellTokens",
					"outputs": [],
					"stateMutability": "nonpayable",
					"type": "function"
				},
				{
					"inputs": [],
					"name": "tokensPerEth",
					"outputs": [
						{
							"internalType": "uint256",
							"name": "",
							"type": "uint256"
						}
					],
					"stateMutability": "view",
					"type": "function"
				},
				{
					"inputs": [
						{
							"internalType": "address",
							"name": "newOwner",
							"type": "address"
						}
					],
					"name": "transferOwnership",
					"outputs": [],
					"stateMutability": "nonpayable",
					"type": "function"
				},
				{
					"inputs": [],
					"name": "withdraw",
					"outputs": [],
					"stateMutability": "nonpayable",
					"type": "function"
				},
				{
					"stateMutability": "payable",
					"type": "receive"
				}
			],
			"devdoc": {
				"kind": "dev",
				"methods": {
					"owner()": {
						"details": "Returns the address of the current owner."
					},
					"renounceOwnership()": {
						"details": "Leaves the contract without owner. It will not be possible to call `onlyOwner` functions anymore. Can only be called by the current owner. NOTE: Renouncing ownership will leave the contract without an owner, thereby removing any functionality that is only available to the owner."
					},
					"transferOwnership(address)": {
						"details": "Transfers ownership of the contract to a new account (`newOwner`). Can only be called by the current owner."
					}
				},
				"version": 1
			},
			"evm": {
				"assembly": "    /* \"contracts/STKVendor.sol\":314:3634  contract STKVendor is Ownable {... */\n  mstore(0x40, 0x80)\n    /* \"contracts/STKVendor.sol\":684:915  constructor(address tokenAddress, address oracleAddress) {... */\n  callvalue\n  dup1\n  iszero\n  tag_1\n  jumpi\n  0x00\n  dup1\n  revert\ntag_1:\n  pop\n  mload(0x40)\n  sub(codesize, bytecodeSize)\n  dup1\n  bytecodeSize\n  dup4\n  codecopy\n  dup2\n  dup2\n  add\n  0x40\n  mstore\n  dup2\n  add\n  swap1\n  tag_2\n  swap2\n  swap1\n  tag_3\n  jump\t// in\ntag_2:\n    /* \"@openzeppelin/contracts@4.8.2/access/Ownable.sol\":936:968  _transferOwnership(_msgSender()) */\n  tag_7\n    /* \"@openzeppelin/contracts@4.8.2/access/Ownable.sol\":955:967  _msgSender() */\n  tag_8\n    /* \"@openzeppelin/contracts@4.8.2/access/Ownable.sol\":955:965  _msgSender */\n  shl(0x20, tag_9)\n    /* \"@openzeppelin/contracts@4.8.2/access/Ownable.sol\":955:967  _msgSender() */\n  0x20\n  shr\n  jump\t// in\ntag_8:\n    /* \"@openzeppelin/contracts@4.8.2/access/Ownable.sol\":936:954  _transferOwnership */\n  shl(0x20, tag_10)\n    /* \"@openzeppelin/contracts@4.8.2/access/Ownable.sol\":936:968  _transferOwnership(_msgSender()) */\n  0x20\n  shr\n  jump\t// in\ntag_7:\n    /* \"contracts/STKVendor.sol\":806:818  tokenAddress */\n  dup2\n    /* \"contracts/STKVendor.sol\":780:791  secondToken */\n  0x01\n  0x00\n    /* \"contracts/STKVendor.sol\":780:819  secondToken = SecondToken(tokenAddress) */\n  0x0100\n  exp\n  dup2\n  sload\n  dup2\n  0xffffffffffffffffffffffffffffffffffffffff\n  mul\n  not\n  and\n  swap1\n  dup4\n  0xffffffffffffffffffffffffffffffffffffffff\n  and\n  mul\n  or\n  swap1\n  sstore\n  pop\n    /* \"contracts/STKVendor.sol\":853:866  oracleAddress */\n  dup1\n    /* \"contracts/STKVendor.sol\":826:835  stkOracle */\n  0x02\n  0x00\n    /* \"contracts/STKVendor.sol\":826:867  stkOracle = STKPriceOracle(oracleAddress) */\n  0x0100\n  exp\n  dup2\n  sload\n  dup2\n  0xffffffffffffffffffffffffffffffffffffffff\n  mul\n  not\n  and\n  swap1\n  dup4\n  0xffffffffffffffffffffffffffffffffffffffff\n  and\n  mul\n  or\n  swap1\n  sstore\n  pop\n    /* \"contracts/STKVendor.sol\":889:898  stkOracle */\n  0x02\n  0x00\n  swap1\n  sload\n  swap1\n  0x0100\n  exp\n  swap1\n  div\n  0xffffffffffffffffffffffffffffffffffffffff\n  and\n    /* \"contracts/STKVendor.sol\":889:907  stkOracle.getPrice */\n  0xffffffffffffffffffffffffffffffffffffffff\n  and\n  0x98d5fdca\n    /* \"contracts/STKVendor.sol\":889:909  stkOracle.getPrice() */\n  mload(0x40)\n  dup2\n  0xffffffff\n  and\n  0xe0\n  shl\n  dup2\n  mstore\n  0x04\n  add\n  0x20\n  mload(0x40)\n  dup1\n  dup4\n  sub\n  dup2\n  dup7\n  dup1\n  extcodesize\n  iszero\n  dup1\n  iszero\n  tag_12\n  jumpi\n  0x00\n  dup1\n  revert\ntag_12:\n  pop\n  gas\n  staticcall\n  iszero\n  dup1\n  iszero\n  tag_14\n  jumpi\n  returndatasize\n  0x00\n  dup1\n  returndatacopy\n  revert(0x00, returndatasize)\ntag_14:\n  pop\n  pop\n  pop\n  pop\n  mload(0x40)\n  returndatasize\n  not(0x1f)\n  0x1f\n  dup3\n  add\n  and\n  dup3\n  add\n  dup1\n  0x40\n  mstore\n  pop\n  dup2\n  add\n  swap1\n  tag_15\n  swap2\n  swap1\n  tag_16\n  jump\t// in\ntag_15:\n    /* \"contracts/STKVendor.sol\":874:886  tokensPerEth */\n  0x03\n    /* \"contracts/STKVendor.sol\":874:909  tokensPerEth = stkOracle.getPrice() */\n  dup2\n  swap1\n  sstore\n  pop\n    /* \"contracts/STKVendor.sol\":684:915  constructor(address tokenAddress, address oracleAddress) {... */\n  pop\n  pop\n    /* \"contracts/STKVendor.sol\":314:3634  contract STKVendor is Ownable {... */\n  jump(tag_17)\n    /* \"@openzeppelin/contracts@4.8.2/utils/Context.sol\":640:736  function _msgSender() internal view virtual returns (address) {... */\ntag_9:\n    /* \"@openzeppelin/contracts@4.8.2/utils/Context.sol\":693:700  address */\n  0x00\n    /* \"@openzeppelin/contracts@4.8.2/utils/Context.sol\":719:729  msg.sender */\n  caller\n    /* \"@openzeppelin/contracts@4.8.2/utils/Context.sol\":712:729  return msg.sender */\n  swap1\n  pop\n    /* \"@openzeppelin/contracts@4.8.2/utils/Context.sol\":640:736  function _msgSender() internal view virtual returns (address) {... */\n  swap1\n  jump\t// out\n    /* \"@openzeppelin/contracts@4.8.2/access/Ownable.sol\":2433:2620  function _transferOwnership(address newOwner) internal virtual {... */\ntag_10:\n    /* \"@openzeppelin/contracts@4.8.2/access/Ownable.sol\":2506:2522  address oldOwner */\n  0x00\n    /* \"@openzeppelin/contracts@4.8.2/access/Ownable.sol\":2525:2531  _owner */\n  dup1\n  0x00\n  swap1\n  sload\n  swap1\n  0x0100\n  exp\n  swap1\n  div\n  0xffffffffffffffffffffffffffffffffffffffff\n  and\n    /* \"@openzeppelin/contracts@4.8.2/access/Ownable.sol\":2506:2531  address oldOwner = _owner */\n  swap1\n  pop\n    /* \"@openzeppelin/contracts@4.8.2/access/Ownable.sol\":2550:2558  newOwner */\n  dup2\n    /* \"@openzeppelin/contracts@4.8.2/access/Ownable.sol\":2541:2547  _owner */\n  0x00\n  dup1\n    /* \"@openzeppelin/contracts@4.8.2/access/Ownable.sol\":2541:2558  _owner = newOwner */\n  0x0100\n  exp\n  dup2\n  sload\n  dup2\n  0xffffffffffffffffffffffffffffffffffffffff\n  mul\n  not\n  and\n  swap1\n  dup4\n  0xffffffffffffffffffffffffffffffffffffffff\n  and\n  mul\n  or\n  swap1\n  sstore\n  pop\n    /* \"@openzeppelin/contracts@4.8.2/access/Ownable.sol\":2604:2612  newOwner */\n  dup2\n    /* \"@openzeppelin/contracts@4.8.2/access/Ownable.sol\":2573:2613  OwnershipTransferred(oldOwner, newOwner) */\n  0xffffffffffffffffffffffffffffffffffffffff\n  and\n    /* \"@openzeppelin/contracts@4.8.2/access/Ownable.sol\":2594:2602  oldOwner */\n  dup2\n    /* \"@openzeppelin/contracts@4.8.2/access/Ownable.sol\":2573:2613  OwnershipTransferred(oldOwner, newOwner) */\n  0xffffffffffffffffffffffffffffffffffffffff\n  and\n  0x8be0079c531659141344cd1fd0a4f28419497f9722a3daafe3b4186f6b6457e0\n  mload(0x40)\n  mload(0x40)\n  dup1\n  swap2\n  sub\n  swap1\n  log3\n    /* \"@openzeppelin/contracts@4.8.2/access/Ownable.sol\":2496:2620  {... */\n  pop\n    /* \"@openzeppelin/contracts@4.8.2/access/Ownable.sol\":2433:2620  function _transferOwnership(address newOwner) internal virtual {... */\n  pop\n  jump\t// out\n    /* \"#utility.yul\":88:205   */\ntag_21:\n    /* \"#utility.yul\":197:198   */\n  0x00\n    /* \"#utility.yul\":194:195   */\n  dup1\n    /* \"#utility.yul\":187:199   */\n  revert\n    /* \"#utility.yul\":334:460   */\ntag_23:\n    /* \"#utility.yul\":371:378   */\n  0x00\n    /* \"#utility.yul\":411:453   */\n  0xffffffffffffffffffffffffffffffffffffffff\n    /* \"#utility.yul\":404:409   */\n  dup3\n    /* \"#utility.yul\":400:454   */\n  and\n    /* \"#utility.yul\":389:454   */\n  swap1\n  pop\n    /* \"#utility.yul\":334:460   */\n  swap2\n  swap1\n  pop\n  jump\t// out\n    /* \"#utility.yul\":466:562   */\ntag_24:\n    /* \"#utility.yul\":503:510   */\n  0x00\n    /* \"#utility.yul\":532:556   */\n  tag_36\n    /* \"#utility.yul\":550:555   */\n  dup3\n    /* \"#utility.yul\":532:556   */\n  tag_23\n  jump\t// in\ntag_36:\n    /* \"#utility.yul\":521:556   */\n  swap1\n  pop\n    /* \"#utility.yul\":466:562   */\n  swap2\n  swap1\n  pop\n  jump\t// out\n    /* \"#utility.yul\":568:690   */\ntag_25:\n    /* \"#utility.yul\":641:665   */\n  tag_38\n    /* \"#utility.yul\":659:664   */\n  dup2\n    /* \"#utility.yul\":641:665   */\n  tag_24\n  jump\t// in\ntag_38:\n    /* \"#utility.yul\":634:639   */\n  dup2\n    /* \"#utility.yul\":631:666   */\n  eq\n    /* \"#utility.yul\":621:684   */\n  tag_39\n  jumpi\n    /* \"#utility.yul\":680:681   */\n  0x00\n    /* \"#utility.yul\":677:678   */\n  dup1\n    /* \"#utility.yul\":670:682   */\n  revert\n    /* \"#utility.yul\":621:684   */\ntag_39:\n    /* \"#utility.yul\":568:690   */\n  pop\n  jump\t// out\n    /* \"#utility.yul\":696:839   */\ntag_26:\n    /* \"#utility.yul\":753:758   */\n  0x00\n    /* \"#utility.yul\":784:790   */\n  dup2\n    /* \"#utility.yul\":778:791   */\n  mload\n    /* \"#utility.yul\":769:791   */\n  swap1\n  pop\n    /* \"#utility.yul\":800:833   */\n  tag_41\n    /* \"#utility.yul\":827:832   */\n  dup2\n    /* \"#utility.yul\":800:833   */\n  tag_25\n  jump\t// in\ntag_41:\n    /* \"#utility.yul\":696:839   */\n  swap3\n  swap2\n  pop\n  pop\n  jump\t// out\n    /* \"#utility.yul\":845:1352   */\ntag_3:\n    /* \"#utility.yul\":924:930   */\n  0x00\n    /* \"#utility.yul\":932:938   */\n  dup1\n    /* \"#utility.yul\":981:983   */\n  0x40\n    /* \"#utility.yul\":969:978   */\n  dup4\n    /* \"#utility.yul\":960:967   */\n  dup6\n    /* \"#utility.yul\":956:979   */\n  sub\n    /* \"#utility.yul\":952:984   */\n  slt\n    /* \"#utility.yul\":949:1068   */\n  iszero\n  tag_43\n  jumpi\n    /* \"#utility.yul\":987:1066   */\n  tag_44\n  tag_21\n  jump\t// in\ntag_44:\n    /* \"#utility.yul\":949:1068   */\ntag_43:\n    /* \"#utility.yul\":1107:1108   */\n  0x00\n    /* \"#utility.yul\":1132:1196   */\n  tag_45\n    /* \"#utility.yul\":1188:1195   */\n  dup6\n    /* \"#utility.yul\":1179:1185   */\n  dup3\n    /* \"#utility.yul\":1168:1177   */\n  dup7\n    /* \"#utility.yul\":1164:1186   */\n  add\n    /* \"#utility.yul\":1132:1196   */\n  tag_26\n  jump\t// in\ntag_45:\n    /* \"#utility.yul\":1122:1196   */\n  swap3\n  pop\n    /* \"#utility.yul\":1078:1206   */\n  pop\n    /* \"#utility.yul\":1245:1247   */\n  0x20\n    /* \"#utility.yul\":1271:1335   */\n  tag_46\n    /* \"#utility.yul\":1327:1334   */\n  dup6\n    /* \"#utility.yul\":1318:1324   */\n  dup3\n    /* \"#utility.yul\":1307:1316   */\n  dup7\n    /* \"#utility.yul\":1303:1325   */\n  add\n    /* \"#utility.yul\":1271:1335   */\n  tag_26\n  jump\t// in\ntag_46:\n    /* \"#utility.yul\":1261:1335   */\n  swap2\n  pop\n    /* \"#utility.yul\":1216:1345   */\n  pop\n    /* \"#utility.yul\":845:1352   */\n  swap3\n  pop\n  swap3\n  swap1\n  pop\n  jump\t// out\n    /* \"#utility.yul\":1358:1435   */\ntag_27:\n    /* \"#utility.yul\":1395:1402   */\n  0x00\n    /* \"#utility.yul\":1424:1429   */\n  dup2\n    /* \"#utility.yul\":1413:1429   */\n  swap1\n  pop\n    /* \"#utility.yul\":1358:1435   */\n  swap2\n  swap1\n  pop\n  jump\t// out\n    /* \"#utility.yul\":1441:1563   */\ntag_28:\n    /* \"#utility.yul\":1514:1538   */\n  tag_49\n    /* \"#utility.yul\":1532:1537   */\n  dup2\n    /* \"#utility.yul\":1514:1538   */\n  tag_27\n  jump\t// in\ntag_49:\n    /* \"#utility.yul\":1507:1512   */\n  dup2\n    /* \"#utility.yul\":1504:1539   */\n  eq\n    /* \"#utility.yul\":1494:1557   */\n  tag_50\n  jumpi\n    /* \"#utility.yul\":1553:1554   */\n  0x00\n    /* \"#utility.yul\":1550:1551   */\n  dup1\n    /* \"#utility.yul\":1543:1555   */\n  revert\n    /* \"#utility.yul\":1494:1557   */\ntag_50:\n    /* \"#utility.yul\":1441:1563   */\n  pop\n  jump\t// out\n    /* \"#utility.yul\":1569:1712   */\ntag_29:\n    /* \"#utility.yul\":1626:1631   */\n  0x00\n    /* \"#utility.yul\":1657:1663   */\n  dup2\n    /* \"#utility.yul\":1651:1664   */\n  mload\n    /* \"#utility.yul\":1642:1664   */\n  swap1\n  pop\n    /* \"#utility.yul\":1673:1706   */\n  tag_52\n    /* \"#utility.yul\":1700:1705   */\n  dup2\n    /* \"#utility.yul\":1673:1706   */\n  tag_28\n  jump\t// in\ntag_52:\n    /* \"#utility.yul\":1569:1712   */\n  swap3\n  swap2\n  pop\n  pop\n  jump\t// out\n    /* \"#utility.yul\":1718:2069   */\ntag_16:\n    /* \"#utility.yul\":1788:1794   */\n  0x00\n    /* \"#utility.yul\":1837:1839   */\n  0x20\n    /* \"#utility.yul\":1825:1834   */\n  dup3\n    /* \"#utility.yul\":1816:1823   */\n  dup5\n    /* \"#utility.yul\":1812:1835   */\n  sub\n    /* \"#utility.yul\":1808:1840   */\n  slt\n    /* \"#utility.yul\":1805:1924   */\n  iszero\n  tag_54\n  jumpi\n    /* \"#utility.yul\":1843:1922   */\n  tag_55\n  tag_21\n  jump\t// in\ntag_55:\n    /* \"#utility.yul\":1805:1924   */\ntag_54:\n    /* \"#utility.yul\":1963:1964   */\n  0x00\n    /* \"#utility.yul\":1988:2052   */\n  tag_56\n    /* \"#utility.yul\":2044:2051   */\n  dup5\n    /* \"#utility.yul\":2035:2041   */\n  dup3\n    /* \"#utility.yul\":2024:2033   */\n  dup6\n    /* \"#utility.yul\":2020:2042   */\n  add\n    /* \"#utility.yul\":1988:2052   */\n  tag_29\n  jump\t// in\ntag_56:\n    /* \"#utility.yul\":1978:2052   */\n  swap2\n  pop\n    /* \"#utility.yul\":1934:2062   */\n  pop\n    /* \"#utility.yul\":1718:2069   */\n  swap3\n  swap2\n  pop\n  pop\n  jump\t// out\n    /* \"contracts/STKVendor.sol\":314:3634  contract STKVendor is Ownable {... */\ntag_17:\n  dataSize(sub_0)\n  dup1\n  dataOffset(sub_0)\n  0x00\n  codecopy\n  0x00\n  return\nstop\n\nsub_0: assembly {\n        /* \"contracts/STKVendor.sol\":314:3634  contract STKVendor is Ownable {... */\n      mstore(0x40, 0x80)\n      jumpi(tag_1, lt(calldatasize, 0x04))\n      shr(0xe0, calldataload(0x00))\n      dup1\n      0x8da5cb5b\n      gt\n      tag_10\n      jumpi\n      dup1\n      0x8da5cb5b\n      eq\n      tag_6\n      jumpi\n      dup1\n      0xcbdd69b5\n      eq\n      tag_7\n      jumpi\n      dup1\n      0xd0febe4c\n      eq\n      tag_8\n      jumpi\n      dup1\n      0xf2fde38b\n      eq\n      tag_9\n      jumpi\n      jump(tag_2)\n    tag_10:\n      dup1\n      0x3ccfd60b\n      eq\n      tag_3\n      jumpi\n      dup1\n      0x6c11bcd3\n      eq\n      tag_4\n      jumpi\n      dup1\n      0x715018a6\n      eq\n      tag_5\n      jumpi\n      jump(tag_2)\n    tag_1:\n      jumpi(tag_2, calldatasize)\n      stop\n    tag_2:\n      0x00\n      dup1\n      revert\n        /* \"contracts/STKVendor.sol\":3217:3596  function withdraw() public onlyOwner {... */\n    tag_3:\n      callvalue\n      dup1\n      iszero\n      tag_13\n      jumpi\n      0x00\n      dup1\n      revert\n    tag_13:\n      pop\n      tag_14\n      tag_15\n      jump\t// in\n    tag_14:\n      stop\n        /* \"contracts/STKVendor.sol\":1949:3144  function sellTokens(uint256 tokenAmountToSell) public {... */\n    tag_4:\n      callvalue\n      dup1\n      iszero\n      tag_16\n      jumpi\n      0x00\n      dup1\n      revert\n    tag_16:\n      pop\n      tag_17\n      0x04\n      dup1\n      calldatasize\n      sub\n      dup2\n      add\n      swap1\n      tag_18\n      swap2\n      swap1\n      tag_19\n      jump\t// in\n    tag_18:\n      tag_20\n      jump\t// in\n    tag_17:\n      stop\n        /* \"@openzeppelin/contracts@4.8.2/access/Ownable.sol\":1831:1932  function renounceOwnership() public virtual onlyOwner {... */\n    tag_5:\n      callvalue\n      dup1\n      iszero\n      tag_21\n      jumpi\n      0x00\n      dup1\n      revert\n    tag_21:\n      pop\n      tag_22\n      tag_23\n      jump\t// in\n    tag_22:\n      stop\n        /* \"@openzeppelin/contracts@4.8.2/access/Ownable.sol\":1201:1286  function owner() public view virtual returns (address) {... */\n    tag_6:\n      callvalue\n      dup1\n      iszero\n      tag_24\n      jumpi\n      0x00\n      dup1\n      revert\n    tag_24:\n      pop\n      tag_25\n      tag_26\n      jump\t// in\n    tag_25:\n      mload(0x40)\n      tag_27\n      swap2\n      swap1\n      tag_28\n      jump\t// in\n    tag_27:\n      mload(0x40)\n      dup1\n      swap2\n      sub\n      swap1\n      return\n        /* \"contracts/STKVendor.sol\":461:488  uint256 public tokensPerEth */\n    tag_7:\n      callvalue\n      dup1\n      iszero\n      tag_29\n      jumpi\n      0x00\n      dup1\n      revert\n    tag_29:\n      pop\n      tag_30\n      tag_31\n      jump\t// in\n    tag_30:\n      mload(0x40)\n      tag_32\n      swap2\n      swap1\n      tag_33\n      jump\t// in\n    tag_32:\n      mload(0x40)\n      dup1\n      swap2\n      sub\n      swap1\n      return\n        /* \"contracts/STKVendor.sol\":1045:1912  function buyTokens() public payable returns (uint256 tokenAmount) {... */\n    tag_8:\n      tag_34\n      tag_35\n      jump\t// in\n    tag_34:\n      mload(0x40)\n      tag_36\n      swap2\n      swap1\n      tag_33\n      jump\t// in\n    tag_36:\n      mload(0x40)\n      dup1\n      swap2\n      sub\n      swap1\n      return\n        /* \"@openzeppelin/contracts@4.8.2/access/Ownable.sol\":2081:2279  function transferOwnership(address newOwner) public virtual onlyOwner {... */\n    tag_9:\n      callvalue\n      dup1\n      iszero\n      tag_37\n      jumpi\n      0x00\n      dup1\n      revert\n    tag_37:\n      pop\n      tag_38\n      0x04\n      dup1\n      calldatasize\n      sub\n      dup2\n      add\n      swap1\n      tag_39\n      swap2\n      swap1\n      tag_40\n      jump\t// in\n    tag_39:\n      tag_41\n      jump\t// in\n    tag_38:\n      stop\n        /* \"contracts/STKVendor.sol\":3217:3596  function withdraw() public onlyOwner {... */\n    tag_15:\n        /* \"@openzeppelin/contracts@4.8.2/access/Ownable.sol\":1094:1107  _checkOwner() */\n      tag_43\n        /* \"@openzeppelin/contracts@4.8.2/access/Ownable.sol\":1094:1105  _checkOwner */\n      tag_44\n        /* \"@openzeppelin/contracts@4.8.2/access/Ownable.sol\":1094:1107  _checkOwner() */\n      jump\t// in\n    tag_43:\n        /* \"contracts/STKVendor.sol\":3261:3281  uint256 ownerBalance */\n      0x00\n        /* \"contracts/STKVendor.sol\":3284:3305  address(this).balance */\n      selfbalance\n        /* \"contracts/STKVendor.sol\":3261:3305  uint256 ownerBalance = address(this).balance */\n      swap1\n      pop\n        /* \"contracts/STKVendor.sol\":3335:3336  0 */\n      0x00\n        /* \"contracts/STKVendor.sol\":3320:3332  ownerBalance */\n      dup2\n        /* \"contracts/STKVendor.sol\":3320:3336  ownerBalance > 0 */\n      gt\n        /* \"contracts/STKVendor.sol\":3312:3374  require(ownerBalance > 0, \"Owner has not balance to withdraw\") */\n      tag_46\n      jumpi\n      mload(0x40)\n      0x08c379a000000000000000000000000000000000000000000000000000000000\n      dup2\n      mstore\n      0x04\n      add\n      tag_47\n      swap1\n      tag_48\n      jump\t// in\n    tag_47:\n      mload(0x40)\n      dup1\n      swap2\n      sub\n      swap1\n      revert\n    tag_46:\n        /* \"contracts/STKVendor.sol\":3458:3467  bool sent */\n      0x00\n        /* \"contracts/STKVendor.sol\":3472:3482  msg.sender */\n      caller\n        /* \"contracts/STKVendor.sol\":3472:3487  msg.sender.call */\n      0xffffffffffffffffffffffffffffffffffffffff\n      and\n        /* \"contracts/STKVendor.sol\":3495:3516  address(this).balance */\n      selfbalance\n        /* \"contracts/STKVendor.sol\":3472:3521  msg.sender.call{value: address(this).balance}(\"\") */\n      mload(0x40)\n      tag_49\n      swap1\n      tag_50\n      jump\t// in\n    tag_49:\n      0x00\n      mload(0x40)\n      dup1\n      dup4\n      sub\n      dup2\n      dup6\n      dup8\n      gas\n      call\n      swap3\n      pop\n      pop\n      pop\n      returndatasize\n      dup1\n      0x00\n      dup2\n      eq\n      tag_53\n      jumpi\n      mload(0x40)\n      swap2\n      pop\n      and(add(returndatasize, 0x3f), not(0x1f))\n      dup3\n      add\n      0x40\n      mstore\n      returndatasize\n      dup3\n      mstore\n      returndatasize\n      0x00\n      0x20\n      dup5\n      add\n      returndatacopy\n      jump(tag_52)\n    tag_53:\n      0x60\n      swap2\n      pop\n    tag_52:\n      pop\n        /* \"contracts/STKVendor.sol\":3457:3521  (bool sent,) = msg.sender.call{value: address(this).balance}(\"\") */\n      pop\n      swap1\n      pop\n        /* \"contracts/STKVendor.sol\":3536:3540  sent */\n      dup1\n        /* \"contracts/STKVendor.sol\":3528:3590  require(sent, \"Failed to send user balance back to the owner\") */\n      tag_54\n      jumpi\n      mload(0x40)\n      0x08c379a000000000000000000000000000000000000000000000000000000000\n      dup2\n      mstore\n      0x04\n      add\n      tag_55\n      swap1\n      tag_56\n      jump\t// in\n    tag_55:\n      mload(0x40)\n      dup1\n      swap2\n      sub\n      swap1\n      revert\n    tag_54:\n        /* \"contracts/STKVendor.sol\":3254:3596  {... */\n      pop\n      pop\n        /* \"contracts/STKVendor.sol\":3217:3596  function withdraw() public onlyOwner {... */\n      jump\t// out\n        /* \"contracts/STKVendor.sol\":1949:3144  function sellTokens(uint256 tokenAmountToSell) public {... */\n    tag_20:\n        /* \"contracts/STKVendor.sol\":2010:2025  getTokenPrice() */\n      tag_58\n        /* \"contracts/STKVendor.sol\":2010:2023  getTokenPrice */\n      tag_59\n        /* \"contracts/STKVendor.sol\":2010:2025  getTokenPrice() */\n      jump\t// in\n    tag_58:\n        /* \"contracts/STKVendor.sol\":2096:2097  0 */\n      0x00\n        /* \"contracts/STKVendor.sol\":2076:2093  tokenAmountToSell */\n      dup2\n        /* \"contracts/STKVendor.sol\":2076:2097  tokenAmountToSell > 0 */\n      gt\n        /* \"contracts/STKVendor.sol\":2068:2146  require(tokenAmountToSell > 0, \"Specify an amount of token greater than zero\") */\n      tag_60\n      jumpi\n      mload(0x40)\n      0x08c379a000000000000000000000000000000000000000000000000000000000\n      dup2\n      mstore\n      0x04\n      add\n      tag_61\n      swap1\n      tag_62\n      jump\t// in\n    tag_61:\n      mload(0x40)\n      dup1\n      swap2\n      sub\n      swap1\n      revert\n    tag_60:\n        /* \"contracts/STKVendor.sol\":2206:2225  uint256 userBalance */\n      0x00\n        /* \"contracts/STKVendor.sol\":2228:2239  secondToken */\n      0x01\n      0x00\n      swap1\n      sload\n      swap1\n      0x0100\n      exp\n      swap1\n      div\n      0xffffffffffffffffffffffffffffffffffffffff\n      and\n        /* \"contracts/STKVendor.sol\":2228:2249  secondToken.balanceOf */\n      0xffffffffffffffffffffffffffffffffffffffff\n      and\n      0x70a08231\n        /* \"contracts/STKVendor.sol\":2250:2260  msg.sender */\n      caller\n        /* \"contracts/STKVendor.sol\":2228:2261  secondToken.balanceOf(msg.sender) */\n      mload(0x40)\n      dup3\n      0xffffffff\n      and\n      0xe0\n      shl\n      dup2\n      mstore\n      0x04\n      add\n      tag_63\n      swap2\n      swap1\n      tag_28\n      jump\t// in\n    tag_63:\n      0x20\n      mload(0x40)\n      dup1\n      dup4\n      sub\n      dup2\n      dup7\n      dup1\n      extcodesize\n      iszero\n      dup1\n      iszero\n      tag_64\n      jumpi\n      0x00\n      dup1\n      revert\n    tag_64:\n      pop\n      gas\n      staticcall\n      iszero\n      dup1\n      iszero\n      tag_66\n      jumpi\n      returndatasize\n      0x00\n      dup1\n      returndatacopy\n      revert(0x00, returndatasize)\n    tag_66:\n      pop\n      pop\n      pop\n      pop\n      mload(0x40)\n      returndatasize\n      not(0x1f)\n      0x1f\n      dup3\n      add\n      and\n      dup3\n      add\n      dup1\n      0x40\n      mstore\n      pop\n      dup2\n      add\n      swap1\n      tag_67\n      swap2\n      swap1\n      tag_68\n      jump\t// in\n    tag_67:\n        /* \"contracts/STKVendor.sol\":2206:2261  uint256 userBalance = secondToken.balanceOf(msg.sender) */\n      swap1\n      pop\n        /* \"contracts/STKVendor.sol\":2291:2308  tokenAmountToSell */\n      dup2\n        /* \"contracts/STKVendor.sol\":2276:2287  userBalance */\n      dup2\n        /* \"contracts/STKVendor.sol\":2276:2308  userBalance >= tokenAmountToSell */\n      lt\n      iszero\n        /* \"contracts/STKVendor.sol\":2268:2377  require(userBalance >= tokenAmountToSell, \"Your balance is lower than the amount of tokens you want to sell\") */\n      tag_69\n      jumpi\n      mload(0x40)\n      0x08c379a000000000000000000000000000000000000000000000000000000000\n      dup2\n      mstore\n      0x04\n      add\n      tag_70\n      swap1\n      tag_71\n      jump\t// in\n    tag_70:\n      mload(0x40)\n      dup1\n      swap2\n      sub\n      swap1\n      revert\n    tag_69:\n        /* \"contracts/STKVendor.sol\":2437:2466  uint256 amountOfETHToTransfer */\n      0x00\n        /* \"contracts/STKVendor.sol\":2489:2501  tokensPerEth */\n      sload(0x03)\n        /* \"contracts/STKVendor.sol\":2469:2486  tokenAmountToSell */\n      dup4\n        /* \"contracts/STKVendor.sol\":2469:2501  tokenAmountToSell / tokensPerEth */\n      tag_72\n      swap2\n      swap1\n      tag_73\n      jump\t// in\n    tag_72:\n        /* \"contracts/STKVendor.sol\":2437:2501  uint256 amountOfETHToTransfer = tokenAmountToSell / tokensPerEth */\n      swap1\n      pop\n        /* \"contracts/STKVendor.sol\":2508:2531  uint256 ownerETHBalance */\n      0x00\n        /* \"contracts/STKVendor.sol\":2534:2555  address(this).balance */\n      selfbalance\n        /* \"contracts/STKVendor.sol\":2508:2555  uint256 ownerETHBalance = address(this).balance */\n      swap1\n      pop\n        /* \"contracts/STKVendor.sol\":2589:2610  amountOfETHToTransfer */\n      dup2\n        /* \"contracts/STKVendor.sol\":2570:2585  ownerETHBalance */\n      dup2\n        /* \"contracts/STKVendor.sol\":2570:2610  ownerETHBalance >= amountOfETHToTransfer */\n      lt\n      iszero\n        /* \"contracts/STKVendor.sol\":2562:2669  require(ownerETHBalance >= amountOfETHToTransfer, \"Vendor has not enough funds to accept the sell request\") */\n      tag_74\n      jumpi\n      mload(0x40)\n      0x08c379a000000000000000000000000000000000000000000000000000000000\n      dup2\n      mstore\n      0x04\n      add\n      tag_75\n      swap1\n      tag_76\n      jump\t// in\n    tag_75:\n      mload(0x40)\n      dup1\n      swap2\n      sub\n      swap1\n      revert\n    tag_74:\n        /* \"contracts/STKVendor.sol\":2727:2736  bool sent */\n      0x00\n        /* \"contracts/STKVendor.sol\":2740:2751  secondToken */\n      0x01\n      0x00\n      swap1\n      sload\n      swap1\n      0x0100\n      exp\n      swap1\n      div\n      0xffffffffffffffffffffffffffffffffffffffff\n      and\n        /* \"contracts/STKVendor.sol\":2740:2764  secondToken.transferFrom */\n      0xffffffffffffffffffffffffffffffffffffffff\n      and\n      0x23b872dd\n        /* \"contracts/STKVendor.sol\":2765:2775  msg.sender */\n      caller\n        /* \"contracts/STKVendor.sol\":2785:2789  this */\n      address\n        /* \"contracts/STKVendor.sol\":2792:2809  tokenAmountToSell */\n      dup9\n        /* \"contracts/STKVendor.sol\":2740:2810  secondToken.transferFrom(msg.sender, address(this), tokenAmountToSell) */\n      mload(0x40)\n      dup5\n      0xffffffff\n      and\n      0xe0\n      shl\n      dup2\n      mstore\n      0x04\n      add\n      tag_77\n      swap4\n      swap3\n      swap2\n      swap1\n      tag_78\n      jump\t// in\n    tag_77:\n      0x20\n      mload(0x40)\n      dup1\n      dup4\n      sub\n      dup2\n      0x00\n      dup8\n      dup1\n      extcodesize\n      iszero\n      dup1\n      iszero\n      tag_79\n      jumpi\n      0x00\n      dup1\n      revert\n    tag_79:\n      pop\n      gas\n      call\n      iszero\n      dup1\n      iszero\n      tag_81\n      jumpi\n      returndatasize\n      0x00\n      dup1\n      returndatacopy\n      revert(0x00, returndatasize)\n    tag_81:\n      pop\n      pop\n      pop\n      pop\n      mload(0x40)\n      returndatasize\n      not(0x1f)\n      0x1f\n      dup3\n      add\n      and\n      dup3\n      add\n      dup1\n      0x40\n      mstore\n      pop\n      dup2\n      add\n      swap1\n      tag_82\n      swap2\n      swap1\n      tag_83\n      jump\t// in\n    tag_82:\n        /* \"contracts/STKVendor.sol\":2726:2810  (bool sent) = secondToken.transferFrom(msg.sender, address(this), tokenAmountToSell) */\n      swap1\n      pop\n        /* \"contracts/STKVendor.sol\":2825:2829  sent */\n      dup1\n        /* \"contracts/STKVendor.sol\":2817:2879  require(sent, \"Failed to transfer tokens from user to vendor\") */\n      tag_84\n      jumpi\n      mload(0x40)\n      0x08c379a000000000000000000000000000000000000000000000000000000000\n      dup2\n      mstore\n      0x04\n      add\n      tag_85\n      swap1\n      tag_86\n      jump\t// in\n    tag_85:\n      mload(0x40)\n      dup1\n      swap2\n      sub\n      swap1\n      revert\n    tag_84:\n        /* \"contracts/STKVendor.sol\":2934:2944  msg.sender */\n      caller\n        /* \"contracts/STKVendor.sol\":2934:2949  msg.sender.call */\n      0xffffffffffffffffffffffffffffffffffffffff\n      and\n        /* \"contracts/STKVendor.sol\":2957:2978  amountOfETHToTransfer */\n      dup4\n        /* \"contracts/STKVendor.sol\":2934:2983  msg.sender.call{value: amountOfETHToTransfer}(\"\") */\n      mload(0x40)\n      tag_87\n      swap1\n      tag_50\n      jump\t// in\n    tag_87:\n      0x00\n      mload(0x40)\n      dup1\n      dup4\n      sub\n      dup2\n      dup6\n      dup8\n      gas\n      call\n      swap3\n      pop\n      pop\n      pop\n      returndatasize\n      dup1\n      0x00\n      dup2\n      eq\n      tag_90\n      jumpi\n      mload(0x40)\n      swap2\n      pop\n      and(add(returndatasize, 0x3f), not(0x1f))\n      dup3\n      add\n      0x40\n      mstore\n      returndatasize\n      dup3\n      mstore\n      returndatasize\n      0x00\n      0x20\n      dup5\n      add\n      returndatacopy\n      jump(tag_89)\n    tag_90:\n      0x60\n      swap2\n      pop\n    tag_89:\n      pop\n        /* \"contracts/STKVendor.sol\":2924:2983  (sent,) = msg.sender.call{value: amountOfETHToTransfer}(\"\") */\n      pop\n      dup1\n      swap2\n      pop\n      pop\n        /* \"contracts/STKVendor.sol\":2998:3002  sent */\n      dup1\n        /* \"contracts/STKVendor.sol\":2990:3037  require(sent, \"Failed to send ETH to the user\") */\n      tag_91\n      jumpi\n      mload(0x40)\n      0x08c379a000000000000000000000000000000000000000000000000000000000\n      dup2\n      mstore\n      0x04\n      add\n      tag_92\n      swap1\n      tag_93\n      jump\t// in\n    tag_92:\n      mload(0x40)\n      dup1\n      swap2\n      sub\n      swap1\n      revert\n    tag_91:\n        /* \"contracts/STKVendor.sol\":3072:3136  SellTokens(msg.sender, tokenAmountToSell, amountOfETHToTransfer) */\n      0xa24838acd4af5195a2396965dae5abf54e84e8c19f5698bb966ae64e29994ee5\n        /* \"contracts/STKVendor.sol\":3083:3093  msg.sender */\n      caller\n        /* \"contracts/STKVendor.sol\":3095:3112  tokenAmountToSell */\n      dup7\n        /* \"contracts/STKVendor.sol\":3114:3135  amountOfETHToTransfer */\n      dup6\n        /* \"contracts/STKVendor.sol\":3072:3136  SellTokens(msg.sender, tokenAmountToSell, amountOfETHToTransfer) */\n      mload(0x40)\n      tag_94\n      swap4\n      swap3\n      swap2\n      swap1\n      tag_95\n      jump\t// in\n    tag_94:\n      mload(0x40)\n      dup1\n      swap2\n      sub\n      swap1\n      log1\n        /* \"contracts/STKVendor.sol\":2003:3144  {... */\n      pop\n      pop\n      pop\n      pop\n        /* \"contracts/STKVendor.sol\":1949:3144  function sellTokens(uint256 tokenAmountToSell) public {... */\n      pop\n      jump\t// out\n        /* \"@openzeppelin/contracts@4.8.2/access/Ownable.sol\":1831:1932  function renounceOwnership() public virtual onlyOwner {... */\n    tag_23:\n        /* \"@openzeppelin/contracts@4.8.2/access/Ownable.sol\":1094:1107  _checkOwner() */\n      tag_97\n        /* \"@openzeppelin/contracts@4.8.2/access/Ownable.sol\":1094:1105  _checkOwner */\n      tag_44\n        /* \"@openzeppelin/contracts@4.8.2/access/Ownable.sol\":1094:1107  _checkOwner() */\n      jump\t// in\n    tag_97:\n        /* \"@openzeppelin/contracts@4.8.2/access/Ownable.sol\":1895:1925  _transferOwnership(address(0)) */\n      tag_99\n        /* \"@openzeppelin/contracts@4.8.2/access/Ownable.sol\":1922:1923  0 */\n      0x00\n        /* \"@openzeppelin/contracts@4.8.2/access/Ownable.sol\":1895:1913  _transferOwnership */\n      tag_100\n        /* \"@openzeppelin/contracts@4.8.2/access/Ownable.sol\":1895:1925  _transferOwnership(address(0)) */\n      jump\t// in\n    tag_99:\n        /* \"@openzeppelin/contracts@4.8.2/access/Ownable.sol\":1831:1932  function renounceOwnership() public virtual onlyOwner {... */\n      jump\t// out\n        /* \"@openzeppelin/contracts@4.8.2/access/Ownable.sol\":1201:1286  function owner() public view virtual returns (address) {... */\n    tag_26:\n        /* \"@openzeppelin/contracts@4.8.2/access/Ownable.sol\":1247:1254  address */\n      0x00\n        /* \"@openzeppelin/contracts@4.8.2/access/Ownable.sol\":1273:1279  _owner */\n      dup1\n      0x00\n      swap1\n      sload\n      swap1\n      0x0100\n      exp\n      swap1\n      div\n      0xffffffffffffffffffffffffffffffffffffffff\n      and\n        /* \"@openzeppelin/contracts@4.8.2/access/Ownable.sol\":1266:1279  return _owner */\n      swap1\n      pop\n        /* \"@openzeppelin/contracts@4.8.2/access/Ownable.sol\":1201:1286  function owner() public view virtual returns (address) {... */\n      swap1\n      jump\t// out\n        /* \"contracts/STKVendor.sol\":461:488  uint256 public tokensPerEth */\n    tag_31:\n      sload(0x03)\n      dup2\n      jump\t// out\n        /* \"contracts/STKVendor.sol\":1045:1912  function buyTokens() public payable returns (uint256 tokenAmount) {... */\n    tag_35:\n        /* \"contracts/STKVendor.sol\":1090:1109  uint256 tokenAmount */\n      0x00\n        /* \"contracts/STKVendor.sol\":1159:1174  getTokenPrice() */\n      tag_103\n        /* \"contracts/STKVendor.sol\":1159:1172  getTokenPrice */\n      tag_59\n        /* \"contracts/STKVendor.sol\":1159:1174  getTokenPrice() */\n      jump\t// in\n    tag_103:\n        /* \"contracts/STKVendor.sol\":1201:1202  0 */\n      0x00\n        /* \"contracts/STKVendor.sol\":1189:1198  msg.value */\n      callvalue\n        /* \"contracts/STKVendor.sol\":1189:1202  msg.value > 0 */\n      gt\n        /* \"contracts/STKVendor.sol\":1181:1234  require(msg.value > 0, \"Send ETH to buy some tokens\") */\n      tag_104\n      jumpi\n      mload(0x40)\n      0x08c379a000000000000000000000000000000000000000000000000000000000\n      dup2\n      mstore\n      0x04\n      add\n      tag_105\n      swap1\n      tag_106\n      jump\t// in\n    tag_105:\n      mload(0x40)\n      dup1\n      swap2\n      sub\n      swap1\n      revert\n    tag_104:\n        /* \"contracts/STKVendor.sol\":1287:1306  uint256 amountToBuy */\n      0x00\n        /* \"contracts/STKVendor.sol\":1321:1333  tokensPerEth */\n      sload(0x03)\n        /* \"contracts/STKVendor.sol\":1309:1318  msg.value */\n      callvalue\n        /* \"contracts/STKVendor.sol\":1309:1333  msg.value * tokensPerEth */\n      tag_107\n      swap2\n      swap1\n      tag_108\n      jump\t// in\n    tag_107:\n        /* \"contracts/STKVendor.sol\":1287:1333  uint256 amountToBuy = msg.value * tokensPerEth */\n      swap1\n      pop\n        /* \"contracts/STKVendor.sol\":1472:1493  uint256 vendorBalance */\n      0x00\n        /* \"contracts/STKVendor.sol\":1496:1507  secondToken */\n      0x01\n      0x00\n      swap1\n      sload\n      swap1\n      0x0100\n      exp\n      swap1\n      div\n      0xffffffffffffffffffffffffffffffffffffffff\n      and\n        /* \"contracts/STKVendor.sol\":1496:1517  secondToken.balanceOf */\n      0xffffffffffffffffffffffffffffffffffffffff\n      and\n      0x70a08231\n        /* \"contracts/STKVendor.sol\":1526:1530  this */\n      address\n        /* \"contracts/STKVendor.sol\":1496:1532  secondToken.balanceOf(address(this)) */\n      mload(0x40)\n      dup3\n      0xffffffff\n      and\n      0xe0\n      shl\n      dup2\n      mstore\n      0x04\n      add\n      tag_109\n      swap2\n      swap1\n      tag_28\n      jump\t// in\n    tag_109:\n      0x20\n      mload(0x40)\n      dup1\n      dup4\n      sub\n      dup2\n      dup7\n      dup1\n      extcodesize\n      iszero\n      dup1\n      iszero\n      tag_110\n      jumpi\n      0x00\n      dup1\n      revert\n    tag_110:\n      pop\n      gas\n      staticcall\n      iszero\n      dup1\n      iszero\n      tag_112\n      jumpi\n      returndatasize\n      0x00\n      dup1\n      returndatacopy\n      revert(0x00, returndatasize)\n    tag_112:\n      pop\n      pop\n      pop\n      pop\n      mload(0x40)\n      returndatasize\n      not(0x1f)\n      0x1f\n      dup3\n      add\n      and\n      dup3\n      add\n      dup1\n      0x40\n      mstore\n      pop\n      dup2\n      add\n      swap1\n      tag_113\n      swap2\n      swap1\n      tag_68\n      jump\t// in\n    tag_113:\n        /* \"contracts/STKVendor.sol\":1472:1532  uint256 vendorBalance = secondToken.balanceOf(address(this)) */\n      swap1\n      pop\n        /* \"contracts/STKVendor.sol\":1564:1575  amountToBuy */\n      dup2\n        /* \"contracts/STKVendor.sol\":1547:1560  vendorBalance */\n      dup2\n        /* \"contracts/STKVendor.sol\":1547:1575  vendorBalance >= amountToBuy */\n      lt\n      iszero\n        /* \"contracts/STKVendor.sol\":1539:1632  require(vendorBalance >= amountToBuy, \"Vendor contract has not enough tokens in its balance\") */\n      tag_114\n      jumpi\n      mload(0x40)\n      0x08c379a000000000000000000000000000000000000000000000000000000000\n      dup2\n      mstore\n      0x04\n      add\n      tag_115\n      swap1\n      tag_116\n      jump\t// in\n    tag_115:\n      mload(0x40)\n      dup1\n      swap2\n      sub\n      swap1\n      revert\n    tag_114:\n        /* \"contracts/STKVendor.sol\":1685:1694  bool sent */\n      0x00\n        /* \"contracts/STKVendor.sol\":1698:1709  secondToken */\n      0x01\n      0x00\n      swap1\n      sload\n      swap1\n      0x0100\n      exp\n      swap1\n      div\n      0xffffffffffffffffffffffffffffffffffffffff\n      and\n        /* \"contracts/STKVendor.sol\":1698:1718  secondToken.transfer */\n      0xffffffffffffffffffffffffffffffffffffffff\n      and\n      0xa9059cbb\n        /* \"contracts/STKVendor.sol\":1719:1729  msg.sender */\n      caller\n        /* \"contracts/STKVendor.sol\":1731:1742  amountToBuy */\n      dup6\n        /* \"contracts/STKVendor.sol\":1698:1743  secondToken.transfer(msg.sender, amountToBuy) */\n      mload(0x40)\n      dup4\n      0xffffffff\n      and\n      0xe0\n      shl\n      dup2\n      mstore\n      0x04\n      add\n      tag_117\n      swap3\n      swap2\n      swap1\n      tag_118\n      jump\t// in\n    tag_117:\n      0x20\n      mload(0x40)\n      dup1\n      dup4\n      sub\n      dup2\n      0x00\n      dup8\n      dup1\n      extcodesize\n      iszero\n      dup1\n      iszero\n      tag_119\n      jumpi\n      0x00\n      dup1\n      revert\n    tag_119:\n      pop\n      gas\n      call\n      iszero\n      dup1\n      iszero\n      tag_121\n      jumpi\n      returndatasize\n      0x00\n      dup1\n      returndatacopy\n      revert(0x00, returndatasize)\n    tag_121:\n      pop\n      pop\n      pop\n      pop\n      mload(0x40)\n      returndatasize\n      not(0x1f)\n      0x1f\n      dup3\n      add\n      and\n      dup3\n      add\n      dup1\n      0x40\n      mstore\n      pop\n      dup2\n      add\n      swap1\n      tag_122\n      swap2\n      swap1\n      tag_83\n      jump\t// in\n    tag_122:\n        /* \"contracts/STKVendor.sol\":1684:1743  (bool sent) = secondToken.transfer(msg.sender, amountToBuy) */\n      swap1\n      pop\n        /* \"contracts/STKVendor.sol\":1758:1762  sent */\n      dup1\n        /* \"contracts/STKVendor.sol\":1750:1799  require(sent, \"Failed to transfer token to user\") */\n      tag_123\n      jumpi\n      mload(0x40)\n      0x08c379a000000000000000000000000000000000000000000000000000000000\n      dup2\n      mstore\n      0x04\n      add\n      tag_124\n      swap1\n      tag_125\n      jump\t// in\n    tag_124:\n      mload(0x40)\n      dup1\n      swap2\n      sub\n      swap1\n      revert\n    tag_123:\n        /* \"contracts/STKVendor.sol\":1834:1879  BuyTokens(msg.sender, msg.value, amountToBuy) */\n      0x0a37b72bb67eee30e09084cf386f8a17817c57f620c3ab95fb25d6a20356ec77\n        /* \"contracts/STKVendor.sol\":1844:1854  msg.sender */\n      caller\n        /* \"contracts/STKVendor.sol\":1856:1865  msg.value */\n      callvalue\n        /* \"contracts/STKVendor.sol\":1867:1878  amountToBuy */\n      dup6\n        /* \"contracts/STKVendor.sol\":1834:1879  BuyTokens(msg.sender, msg.value, amountToBuy) */\n      mload(0x40)\n      tag_126\n      swap4\n      swap3\n      swap2\n      swap1\n      tag_95\n      jump\t// in\n    tag_126:\n      mload(0x40)\n      dup1\n      swap2\n      sub\n      swap1\n      log1\n        /* \"contracts/STKVendor.sol\":1895:1906  amountToBuy */\n      dup3\n        /* \"contracts/STKVendor.sol\":1888:1906  return amountToBuy */\n      swap4\n      pop\n      pop\n      pop\n      pop\n        /* \"contracts/STKVendor.sol\":1045:1912  function buyTokens() public payable returns (uint256 tokenAmount) {... */\n      swap1\n      jump\t// out\n        /* \"@openzeppelin/contracts@4.8.2/access/Ownable.sol\":2081:2279  function transferOwnership(address newOwner) public virtual onlyOwner {... */\n    tag_41:\n        /* \"@openzeppelin/contracts@4.8.2/access/Ownable.sol\":1094:1107  _checkOwner() */\n      tag_128\n        /* \"@openzeppelin/contracts@4.8.2/access/Ownable.sol\":1094:1105  _checkOwner */\n      tag_44\n        /* \"@openzeppelin/contracts@4.8.2/access/Ownable.sol\":1094:1107  _checkOwner() */\n      jump\t// in\n    tag_128:\n        /* \"@openzeppelin/contracts@4.8.2/access/Ownable.sol\":2189:2190  0 */\n      0x00\n        /* \"@openzeppelin/contracts@4.8.2/access/Ownable.sol\":2169:2191  newOwner != address(0) */\n      0xffffffffffffffffffffffffffffffffffffffff\n      and\n        /* \"@openzeppelin/contracts@4.8.2/access/Ownable.sol\":2169:2177  newOwner */\n      dup2\n        /* \"@openzeppelin/contracts@4.8.2/access/Ownable.sol\":2169:2191  newOwner != address(0) */\n      0xffffffffffffffffffffffffffffffffffffffff\n      and\n      eq\n      iszero\n        /* \"@openzeppelin/contracts@4.8.2/access/Ownable.sol\":2161:2234  require(newOwner != address(0), \"Ownable: new owner is the zero address\") */\n      tag_130\n      jumpi\n      mload(0x40)\n      0x08c379a000000000000000000000000000000000000000000000000000000000\n      dup2\n      mstore\n      0x04\n      add\n      tag_131\n      swap1\n      tag_132\n      jump\t// in\n    tag_131:\n      mload(0x40)\n      dup1\n      swap2\n      sub\n      swap1\n      revert\n    tag_130:\n        /* \"@openzeppelin/contracts@4.8.2/access/Ownable.sol\":2244:2272  _transferOwnership(newOwner) */\n      tag_133\n        /* \"@openzeppelin/contracts@4.8.2/access/Ownable.sol\":2263:2271  newOwner */\n      dup2\n        /* \"@openzeppelin/contracts@4.8.2/access/Ownable.sol\":2244:2262  _transferOwnership */\n      tag_100\n        /* \"@openzeppelin/contracts@4.8.2/access/Ownable.sol\":2244:2272  _transferOwnership(newOwner) */\n      jump\t// in\n    tag_133:\n        /* \"@openzeppelin/contracts@4.8.2/access/Ownable.sol\":2081:2279  function transferOwnership(address newOwner) public virtual onlyOwner {... */\n      pop\n      jump\t// out\n        /* \"@openzeppelin/contracts@4.8.2/access/Ownable.sol\":1359:1489  function _checkOwner() internal view virtual {... */\n    tag_44:\n        /* \"@openzeppelin/contracts@4.8.2/access/Ownable.sol\":1433:1445  _msgSender() */\n      tag_135\n        /* \"@openzeppelin/contracts@4.8.2/access/Ownable.sol\":1433:1443  _msgSender */\n      tag_136\n        /* \"@openzeppelin/contracts@4.8.2/access/Ownable.sol\":1433:1445  _msgSender() */\n      jump\t// in\n    tag_135:\n        /* \"@openzeppelin/contracts@4.8.2/access/Ownable.sol\":1422:1445  owner() == _msgSender() */\n      0xffffffffffffffffffffffffffffffffffffffff\n      and\n        /* \"@openzeppelin/contracts@4.8.2/access/Ownable.sol\":1422:1429  owner() */\n      tag_137\n        /* \"@openzeppelin/contracts@4.8.2/access/Ownable.sol\":1422:1427  owner */\n      tag_26\n        /* \"@openzeppelin/contracts@4.8.2/access/Ownable.sol\":1422:1429  owner() */\n      jump\t// in\n    tag_137:\n        /* \"@openzeppelin/contracts@4.8.2/access/Ownable.sol\":1422:1445  owner() == _msgSender() */\n      0xffffffffffffffffffffffffffffffffffffffff\n      and\n      eq\n        /* \"@openzeppelin/contracts@4.8.2/access/Ownable.sol\":1414:1482  require(owner() == _msgSender(), \"Ownable: caller is not the owner\") */\n      tag_138\n      jumpi\n      mload(0x40)\n      0x08c379a000000000000000000000000000000000000000000000000000000000\n      dup2\n      mstore\n      0x04\n      add\n      tag_139\n      swap1\n      tag_140\n      jump\t// in\n    tag_139:\n      mload(0x40)\n      dup1\n      swap2\n      sub\n      swap1\n      revert\n    tag_138:\n        /* \"@openzeppelin/contracts@4.8.2/access/Ownable.sol\":1359:1489  function _checkOwner() internal view virtual {... */\n      jump\t// out\n        /* \"contracts/STKVendor.sol\":925:1006  function getTokenPrice() private {... */\n    tag_59:\n        /* \"contracts/STKVendor.sol\":980:989  stkOracle */\n      0x02\n      0x00\n      swap1\n      sload\n      swap1\n      0x0100\n      exp\n      swap1\n      div\n      0xffffffffffffffffffffffffffffffffffffffff\n      and\n        /* \"contracts/STKVendor.sol\":980:998  stkOracle.getPrice */\n      0xffffffffffffffffffffffffffffffffffffffff\n      and\n      0x98d5fdca\n        /* \"contracts/STKVendor.sol\":980:1000  stkOracle.getPrice() */\n      mload(0x40)\n      dup2\n      0xffffffff\n      and\n      0xe0\n      shl\n      dup2\n      mstore\n      0x04\n      add\n      0x20\n      mload(0x40)\n      dup1\n      dup4\n      sub\n      dup2\n      dup7\n      dup1\n      extcodesize\n      iszero\n      dup1\n      iszero\n      tag_142\n      jumpi\n      0x00\n      dup1\n      revert\n    tag_142:\n      pop\n      gas\n      staticcall\n      iszero\n      dup1\n      iszero\n      tag_144\n      jumpi\n      returndatasize\n      0x00\n      dup1\n      returndatacopy\n      revert(0x00, returndatasize)\n    tag_144:\n      pop\n      pop\n      pop\n      pop\n      mload(0x40)\n      returndatasize\n      not(0x1f)\n      0x1f\n      dup3\n      add\n      and\n      dup3\n      add\n      dup1\n      0x40\n      mstore\n      pop\n      dup2\n      add\n      swap1\n      tag_145\n      swap2\n      swap1\n      tag_68\n      jump\t// in\n    tag_145:\n        /* \"contracts/STKVendor.sol\":965:977  tokensPerEth */\n      0x03\n        /* \"contracts/STKVendor.sol\":965:1000  tokensPerEth = stkOracle.getPrice() */\n      dup2\n      swap1\n      sstore\n      pop\n        /* \"contracts/STKVendor.sol\":925:1006  function getTokenPrice() private {... */\n      jump\t// out\n        /* \"@openzeppelin/contracts@4.8.2/access/Ownable.sol\":2433:2620  function _transferOwnership(address newOwner) internal virtual {... */\n    tag_100:\n        /* \"@openzeppelin/contracts@4.8.2/access/Ownable.sol\":2506:2522  address oldOwner */\n      0x00\n        /* \"@openzeppelin/contracts@4.8.2/access/Ownable.sol\":2525:2531  _owner */\n      dup1\n      0x00\n      swap1\n      sload\n      swap1\n      0x0100\n      exp\n      swap1\n      div\n      0xffffffffffffffffffffffffffffffffffffffff\n      and\n        /* \"@openzeppelin/contracts@4.8.2/access/Ownable.sol\":2506:2531  address oldOwner = _owner */\n      swap1\n      pop\n        /* \"@openzeppelin/contracts@4.8.2/access/Ownable.sol\":2550:2558  newOwner */\n      dup2\n        /* \"@openzeppelin/contracts@4.8.2/access/Ownable.sol\":2541:2547  _owner */\n      0x00\n      dup1\n        /* \"@openzeppelin/contracts@4.8.2/access/Ownable.sol\":2541:2558  _owner = newOwner */\n      0x0100\n      exp\n      dup2\n      sload\n      dup2\n      0xffffffffffffffffffffffffffffffffffffffff\n      mul\n      not\n      and\n      swap1\n      dup4\n      0xffffffffffffffffffffffffffffffffffffffff\n      and\n      mul\n      or\n      swap1\n      sstore\n      pop\n        /* \"@openzeppelin/contracts@4.8.2/access/Ownable.sol\":2604:2612  newOwner */\n      dup2\n        /* \"@openzeppelin/contracts@4.8.2/access/Ownable.sol\":2573:2613  OwnershipTransferred(oldOwner, newOwner) */\n      0xffffffffffffffffffffffffffffffffffffffff\n      and\n        /* \"@openzeppelin/contracts@4.8.2/access/Ownable.sol\":2594:2602  oldOwner */\n      dup2\n        /* \"@openzeppelin/contracts@4.8.2/access/Ownable.sol\":2573:2613  OwnershipTransferred(oldOwner, newOwner) */\n      0xffffffffffffffffffffffffffffffffffffffff\n      and\n      0x8be0079c531659141344cd1fd0a4f28419497f9722a3daafe3b4186f6b6457e0\n      mload(0x40)\n      mload(0x40)\n      dup1\n      swap2\n      sub\n      swap1\n      log3\n        /* \"@openzeppelin/contracts@4.8.2/access/Ownable.sol\":2496:2620  {... */\n      pop\n        /* \"@openzeppelin/contracts@4.8.2/access/Ownable.sol\":2433:2620  function _transferOwnership(address newOwner) internal virtual {... */\n      pop\n      jump\t// out\n        /* \"@openzeppelin/contracts@4.8.2/utils/Context.sol\":640:736  function _msgSender() internal view virtual returns (address) {... */\n    tag_136:\n        /* \"@openzeppelin/contracts@4.8.2/utils/Context.sol\":693:700  address */\n      0x00\n        /* \"@openzeppelin/contracts@4.8.2/utils/Context.sol\":719:729  msg.sender */\n      caller\n        /* \"@openzeppelin/contracts@4.8.2/utils/Context.sol\":712:729  return msg.sender */\n      swap1\n      pop\n        /* \"@openzeppelin/contracts@4.8.2/utils/Context.sol\":640:736  function _msgSender() internal view virtual returns (address) {... */\n      swap1\n      jump\t// out\n        /* \"#utility.yul\":88:205   */\n    tag_149:\n        /* \"#utility.yul\":197:198   */\n      0x00\n        /* \"#utility.yul\":194:195   */\n      dup1\n        /* \"#utility.yul\":187:199   */\n      revert\n        /* \"#utility.yul\":334:411   */\n    tag_151:\n        /* \"#utility.yul\":371:378   */\n      0x00\n        /* \"#utility.yul\":400:405   */\n      dup2\n        /* \"#utility.yul\":389:405   */\n      swap1\n      pop\n        /* \"#utility.yul\":334:411   */\n      swap2\n      swap1\n      pop\n      jump\t// out\n        /* \"#utility.yul\":417:539   */\n    tag_152:\n        /* \"#utility.yul\":490:514   */\n      tag_200\n        /* \"#utility.yul\":508:513   */\n      dup2\n        /* \"#utility.yul\":490:514   */\n      tag_151\n      jump\t// in\n    tag_200:\n        /* \"#utility.yul\":483:488   */\n      dup2\n        /* \"#utility.yul\":480:515   */\n      eq\n        /* \"#utility.yul\":470:533   */\n      tag_201\n      jumpi\n        /* \"#utility.yul\":529:530   */\n      0x00\n        /* \"#utility.yul\":526:527   */\n      dup1\n        /* \"#utility.yul\":519:531   */\n      revert\n        /* \"#utility.yul\":470:533   */\n    tag_201:\n        /* \"#utility.yul\":417:539   */\n      pop\n      jump\t// out\n        /* \"#utility.yul\":545:684   */\n    tag_153:\n        /* \"#utility.yul\":591:596   */\n      0x00\n        /* \"#utility.yul\":629:635   */\n      dup2\n        /* \"#utility.yul\":616:636   */\n      calldataload\n        /* \"#utility.yul\":607:636   */\n      swap1\n      pop\n        /* \"#utility.yul\":645:678   */\n      tag_203\n        /* \"#utility.yul\":672:677   */\n      dup2\n        /* \"#utility.yul\":645:678   */\n      tag_152\n      jump\t// in\n    tag_203:\n        /* \"#utility.yul\":545:684   */\n      swap3\n      swap2\n      pop\n      pop\n      jump\t// out\n        /* \"#utility.yul\":690:1019   */\n    tag_19:\n        /* \"#utility.yul\":749:755   */\n      0x00\n        /* \"#utility.yul\":798:800   */\n      0x20\n        /* \"#utility.yul\":786:795   */\n      dup3\n        /* \"#utility.yul\":777:784   */\n      dup5\n        /* \"#utility.yul\":773:796   */\n      sub\n        /* \"#utility.yul\":769:801   */\n      slt\n        /* \"#utility.yul\":766:885   */\n      iszero\n      tag_205\n      jumpi\n        /* \"#utility.yul\":804:883   */\n      tag_206\n      tag_149\n      jump\t// in\n    tag_206:\n        /* \"#utility.yul\":766:885   */\n    tag_205:\n        /* \"#utility.yul\":924:925   */\n      0x00\n        /* \"#utility.yul\":949:1002   */\n      tag_207\n        /* \"#utility.yul\":994:1001   */\n      dup5\n        /* \"#utility.yul\":985:991   */\n      dup3\n        /* \"#utility.yul\":974:983   */\n      dup6\n        /* \"#utility.yul\":970:992   */\n      add\n        /* \"#utility.yul\":949:1002   */\n      tag_153\n      jump\t// in\n    tag_207:\n        /* \"#utility.yul\":939:1002   */\n      swap2\n      pop\n        /* \"#utility.yul\":895:1012   */\n      pop\n        /* \"#utility.yul\":690:1019   */\n      swap3\n      swap2\n      pop\n      pop\n      jump\t// out\n        /* \"#utility.yul\":1025:1151   */\n    tag_154:\n        /* \"#utility.yul\":1062:1069   */\n      0x00\n        /* \"#utility.yul\":1102:1144   */\n      0xffffffffffffffffffffffffffffffffffffffff\n        /* \"#utility.yul\":1095:1100   */\n      dup3\n        /* \"#utility.yul\":1091:1145   */\n      and\n        /* \"#utility.yul\":1080:1145   */\n      swap1\n      pop\n        /* \"#utility.yul\":1025:1151   */\n      swap2\n      swap1\n      pop\n      jump\t// out\n        /* \"#utility.yul\":1157:1253   */\n    tag_155:\n        /* \"#utility.yul\":1194:1201   */\n      0x00\n        /* \"#utility.yul\":1223:1247   */\n      tag_210\n        /* \"#utility.yul\":1241:1246   */\n      dup3\n        /* \"#utility.yul\":1223:1247   */\n      tag_154\n      jump\t// in\n    tag_210:\n        /* \"#utility.yul\":1212:1247   */\n      swap1\n      pop\n        /* \"#utility.yul\":1157:1253   */\n      swap2\n      swap1\n      pop\n      jump\t// out\n        /* \"#utility.yul\":1259:1377   */\n    tag_156:\n        /* \"#utility.yul\":1346:1370   */\n      tag_212\n        /* \"#utility.yul\":1364:1369   */\n      dup2\n        /* \"#utility.yul\":1346:1370   */\n      tag_155\n      jump\t// in\n    tag_212:\n        /* \"#utility.yul\":1341:1344   */\n      dup3\n        /* \"#utility.yul\":1334:1371   */\n      mstore\n        /* \"#utility.yul\":1259:1377   */\n      pop\n      pop\n      jump\t// out\n        /* \"#utility.yul\":1383:1605   */\n    tag_28:\n        /* \"#utility.yul\":1476:1480   */\n      0x00\n        /* \"#utility.yul\":1514:1516   */\n      0x20\n        /* \"#utility.yul\":1503:1512   */\n      dup3\n        /* \"#utility.yul\":1499:1517   */\n      add\n        /* \"#utility.yul\":1491:1517   */\n      swap1\n      pop\n        /* \"#utility.yul\":1527:1598   */\n      tag_214\n        /* \"#utility.yul\":1595:1596   */\n      0x00\n        /* \"#utility.yul\":1584:1593   */\n      dup4\n        /* \"#utility.yul\":1580:1597   */\n      add\n        /* \"#utility.yul\":1571:1577   */\n      dup5\n        /* \"#utility.yul\":1527:1598   */\n      tag_156\n      jump\t// in\n    tag_214:\n        /* \"#utility.yul\":1383:1605   */\n      swap3\n      swap2\n      pop\n      pop\n      jump\t// out\n        /* \"#utility.yul\":1611:1729   */\n    tag_157:\n        /* \"#utility.yul\":1698:1722   */\n      tag_216\n        /* \"#utility.yul\":1716:1721   */\n      dup2\n        /* \"#utility.yul\":1698:1722   */\n      tag_151\n      jump\t// in\n    tag_216:\n        /* \"#utility.yul\":1693:1696   */\n      dup3\n        /* \"#utility.yul\":1686:1723   */\n      mstore\n        /* \"#utility.yul\":1611:1729   */\n      pop\n      pop\n      jump\t// out\n        /* \"#utility.yul\":1735:1957   */\n    tag_33:\n        /* \"#utility.yul\":1828:1832   */\n      0x00\n        /* \"#utility.yul\":1866:1868   */\n      0x20\n        /* \"#utility.yul\":1855:1864   */\n      dup3\n        /* \"#utility.yul\":1851:1869   */\n      add\n        /* \"#utility.yul\":1843:1869   */\n      swap1\n      pop\n        /* \"#utility.yul\":1879:1950   */\n      tag_218\n        /* \"#utility.yul\":1947:1948   */\n      0x00\n        /* \"#utility.yul\":1936:1945   */\n      dup4\n        /* \"#utility.yul\":1932:1949   */\n      add\n        /* \"#utility.yul\":1923:1929   */\n      dup5\n        /* \"#utility.yul\":1879:1950   */\n      tag_157\n      jump\t// in\n    tag_218:\n        /* \"#utility.yul\":1735:1957   */\n      swap3\n      swap2\n      pop\n      pop\n      jump\t// out\n        /* \"#utility.yul\":1963:2085   */\n    tag_158:\n        /* \"#utility.yul\":2036:2060   */\n      tag_220\n        /* \"#utility.yul\":2054:2059   */\n      dup2\n        /* \"#utility.yul\":2036:2060   */\n      tag_155\n      jump\t// in\n    tag_220:\n        /* \"#utility.yul\":2029:2034   */\n      dup2\n        /* \"#utility.yul\":2026:2061   */\n      eq\n        /* \"#utility.yul\":2016:2079   */\n      tag_221\n      jumpi\n        /* \"#utility.yul\":2075:2076   */\n      0x00\n        /* \"#utility.yul\":2072:2073   */\n      dup1\n        /* \"#utility.yul\":2065:2077   */\n      revert\n        /* \"#utility.yul\":2016:2079   */\n    tag_221:\n        /* \"#utility.yul\":1963:2085   */\n      pop\n      jump\t// out\n        /* \"#utility.yul\":2091:2230   */\n    tag_159:\n        /* \"#utility.yul\":2137:2142   */\n      0x00\n        /* \"#utility.yul\":2175:2181   */\n      dup2\n        /* \"#utility.yul\":2162:2182   */\n      calldataload\n        /* \"#utility.yul\":2153:2182   */\n      swap1\n      pop\n        /* \"#utility.yul\":2191:2224   */\n      tag_223\n        /* \"#utility.yul\":2218:2223   */\n      dup2\n        /* \"#utility.yul\":2191:2224   */\n      tag_158\n      jump\t// in\n    tag_223:\n        /* \"#utility.yul\":2091:2230   */\n      swap3\n      swap2\n      pop\n      pop\n      jump\t// out\n        /* \"#utility.yul\":2236:2565   */\n    tag_40:\n        /* \"#utility.yul\":2295:2301   */\n      0x00\n        /* \"#utility.yul\":2344:2346   */\n      0x20\n        /* \"#utility.yul\":2332:2341   */\n      dup3\n        /* \"#utility.yul\":2323:2330   */\n      dup5\n        /* \"#utility.yul\":2319:2342   */\n      sub\n        /* \"#utility.yul\":2315:2347   */\n      slt\n        /* \"#utility.yul\":2312:2431   */\n      iszero\n      tag_225\n      jumpi\n        /* \"#utility.yul\":2350:2429   */\n      tag_226\n      tag_149\n      jump\t// in\n    tag_226:\n        /* \"#utility.yul\":2312:2431   */\n    tag_225:\n        /* \"#utility.yul\":2470:2471   */\n      0x00\n        /* \"#utility.yul\":2495:2548   */\n      tag_227\n        /* \"#utility.yul\":2540:2547   */\n      dup5\n        /* \"#utility.yul\":2531:2537   */\n      dup3\n        /* \"#utility.yul\":2520:2529   */\n      dup6\n        /* \"#utility.yul\":2516:2538   */\n      add\n        /* \"#utility.yul\":2495:2548   */\n      tag_159\n      jump\t// in\n    tag_227:\n        /* \"#utility.yul\":2485:2548   */\n      swap2\n      pop\n        /* \"#utility.yul\":2441:2558   */\n      pop\n        /* \"#utility.yul\":2236:2565   */\n      swap3\n      swap2\n      pop\n      pop\n      jump\t// out\n        /* \"#utility.yul\":2571:2740   */\n    tag_160:\n        /* \"#utility.yul\":2655:2666   */\n      0x00\n        /* \"#utility.yul\":2689:2695   */\n      dup3\n        /* \"#utility.yul\":2684:2687   */\n      dup3\n        /* \"#utility.yul\":2677:2696   */\n      mstore\n        /* \"#utility.yul\":2729:2733   */\n      0x20\n        /* \"#utility.yul\":2724:2727   */\n      dup3\n        /* \"#utility.yul\":2720:2734   */\n      add\n        /* \"#utility.yul\":2705:2734   */\n      swap1\n      pop\n        /* \"#utility.yul\":2571:2740   */\n      swap3\n      swap2\n      pop\n      pop\n      jump\t// out\n        /* \"#utility.yul\":2746:2966   */\n    tag_161:\n        /* \"#utility.yul\":2886:2920   */\n      0x4f776e657220686173206e6f742062616c616e636520746f2077697468647261\n        /* \"#utility.yul\":2882:2883   */\n      0x00\n        /* \"#utility.yul\":2874:2880   */\n      dup3\n        /* \"#utility.yul\":2870:2884   */\n      add\n        /* \"#utility.yul\":2863:2921   */\n      mstore\n        /* \"#utility.yul\":2955:2958   */\n      0x7700000000000000000000000000000000000000000000000000000000000000\n        /* \"#utility.yul\":2950:2952   */\n      0x20\n        /* \"#utility.yul\":2942:2948   */\n      dup3\n        /* \"#utility.yul\":2938:2953   */\n      add\n        /* \"#utility.yul\":2931:2959   */\n      mstore\n        /* \"#utility.yul\":2746:2966   */\n      pop\n      jump\t// out\n        /* \"#utility.yul\":2972:3338   */\n    tag_162:\n        /* \"#utility.yul\":3114:3117   */\n      0x00\n        /* \"#utility.yul\":3135:3202   */\n      tag_231\n        /* \"#utility.yul\":3199:3201   */\n      0x21\n        /* \"#utility.yul\":3194:3197   */\n      dup4\n        /* \"#utility.yul\":3135:3202   */\n      tag_160\n      jump\t// in\n    tag_231:\n        /* \"#utility.yul\":3128:3202   */\n      swap2\n      pop\n        /* \"#utility.yul\":3211:3304   */\n      tag_232\n        /* \"#utility.yul\":3300:3303   */\n      dup3\n        /* \"#utility.yul\":3211:3304   */\n      tag_161\n      jump\t// in\n    tag_232:\n        /* \"#utility.yul\":3329:3331   */\n      0x40\n        /* \"#utility.yul\":3324:3327   */\n      dup3\n        /* \"#utility.yul\":3320:3332   */\n      add\n        /* \"#utility.yul\":3313:3332   */\n      swap1\n      pop\n        /* \"#utility.yul\":2972:3338   */\n      swap2\n      swap1\n      pop\n      jump\t// out\n        /* \"#utility.yul\":3344:3763   */\n    tag_48:\n        /* \"#utility.yul\":3510:3514   */\n      0x00\n        /* \"#utility.yul\":3548:3550   */\n      0x20\n        /* \"#utility.yul\":3537:3546   */\n      dup3\n        /* \"#utility.yul\":3533:3551   */\n      add\n        /* \"#utility.yul\":3525:3551   */\n      swap1\n      pop\n        /* \"#utility.yul\":3597:3606   */\n      dup2\n        /* \"#utility.yul\":3591:3595   */\n      dup2\n        /* \"#utility.yul\":3587:3607   */\n      sub\n        /* \"#utility.yul\":3583:3584   */\n      0x00\n        /* \"#utility.yul\":3572:3581   */\n      dup4\n        /* \"#utility.yul\":3568:3585   */\n      add\n        /* \"#utility.yul\":3561:3608   */\n      mstore\n        /* \"#utility.yul\":3625:3756   */\n      tag_234\n        /* \"#utility.yul\":3751:3755   */\n      dup2\n        /* \"#utility.yul\":3625:3756   */\n      tag_162\n      jump\t// in\n    tag_234:\n        /* \"#utility.yul\":3617:3756   */\n      swap1\n      pop\n        /* \"#utility.yul\":3344:3763   */\n      swap2\n      swap1\n      pop\n      jump\t// out\n        /* \"#utility.yul\":3769:3916   */\n    tag_163:\n        /* \"#utility.yul\":3870:3881   */\n      0x00\n        /* \"#utility.yul\":3907:3910   */\n      dup2\n        /* \"#utility.yul\":3892:3910   */\n      swap1\n      pop\n        /* \"#utility.yul\":3769:3916   */\n      swap3\n      swap2\n      pop\n      pop\n      jump\t// out\n        /* \"#utility.yul\":3922:4036   */\n    tag_164:\n      pop\n      jump\t// out\n        /* \"#utility.yul\":4042:4440   */\n    tag_165:\n        /* \"#utility.yul\":4201:4204   */\n      0x00\n        /* \"#utility.yul\":4222:4305   */\n      tag_238\n        /* \"#utility.yul\":4303:4304   */\n      0x00\n        /* \"#utility.yul\":4298:4301   */\n      dup4\n        /* \"#utility.yul\":4222:4305   */\n      tag_163\n      jump\t// in\n    tag_238:\n        /* \"#utility.yul\":4215:4305   */\n      swap2\n      pop\n        /* \"#utility.yul\":4314:4407   */\n      tag_239\n        /* \"#utility.yul\":4403:4406   */\n      dup3\n        /* \"#utility.yul\":4314:4407   */\n      tag_164\n      jump\t// in\n    tag_239:\n        /* \"#utility.yul\":4432:4433   */\n      0x00\n        /* \"#utility.yul\":4427:4430   */\n      dup3\n        /* \"#utility.yul\":4423:4434   */\n      add\n        /* \"#utility.yul\":4416:4434   */\n      swap1\n      pop\n        /* \"#utility.yul\":4042:4440   */\n      swap2\n      swap1\n      pop\n      jump\t// out\n        /* \"#utility.yul\":4446:4825   */\n    tag_50:\n        /* \"#utility.yul\":4630:4633   */\n      0x00\n        /* \"#utility.yul\":4652:4799   */\n      tag_241\n        /* \"#utility.yul\":4795:4798   */\n      dup3\n        /* \"#utility.yul\":4652:4799   */\n      tag_165\n      jump\t// in\n    tag_241:\n        /* \"#utility.yul\":4645:4799   */\n      swap2\n      pop\n        /* \"#utility.yul\":4816:4819   */\n      dup2\n        /* \"#utility.yul\":4809:4819   */\n      swap1\n      pop\n        /* \"#utility.yul\":4446:4825   */\n      swap2\n      swap1\n      pop\n      jump\t// out\n        /* \"#utility.yul\":4831:5063   */\n    tag_166:\n        /* \"#utility.yul\":4971:5005   */\n      0x4661696c656420746f2073656e6420757365722062616c616e6365206261636b\n        /* \"#utility.yul\":4967:4968   */\n      0x00\n        /* \"#utility.yul\":4959:4965   */\n      dup3\n        /* \"#utility.yul\":4955:4969   */\n      add\n        /* \"#utility.yul\":4948:5006   */\n      mstore\n        /* \"#utility.yul\":5040:5055   */\n      0x20746f20746865206f776e657200000000000000000000000000000000000000\n        /* \"#utility.yul\":5035:5037   */\n      0x20\n        /* \"#utility.yul\":5027:5033   */\n      dup3\n        /* \"#utility.yul\":5023:5038   */\n      add\n        /* \"#utility.yul\":5016:5056   */\n      mstore\n        /* \"#utility.yul\":4831:5063   */\n      pop\n      jump\t// out\n        /* \"#utility.yul\":5069:5435   */\n    tag_167:\n        /* \"#utility.yul\":5211:5214   */\n      0x00\n        /* \"#utility.yul\":5232:5299   */\n      tag_244\n        /* \"#utility.yul\":5296:5298   */\n      0x2d\n        /* \"#utility.yul\":5291:5294   */\n      dup4\n        /* \"#utility.yul\":5232:5299   */\n      tag_160\n      jump\t// in\n    tag_244:\n        /* \"#utility.yul\":5225:5299   */\n      swap2\n      pop\n        /* \"#utility.yul\":5308:5401   */\n      tag_245\n        /* \"#utility.yul\":5397:5400   */\n      dup3\n        /* \"#utility.yul\":5308:5401   */\n      tag_166\n      jump\t// in\n    tag_245:\n        /* \"#utility.yul\":5426:5428   */\n      0x40\n        /* \"#utility.yul\":5421:5424   */\n      dup3\n        /* \"#utility.yul\":5417:5429   */\n      add\n        /* \"#utility.yul\":5410:5429   */\n      swap1\n      pop\n        /* \"#utility.yul\":5069:5435   */\n      swap2\n      swap1\n      pop\n      jump\t// out\n        /* \"#utility.yul\":5441:5860   */\n    tag_56:\n        /* \"#utility.yul\":5607:5611   */\n      0x00\n        /* \"#utility.yul\":5645:5647   */\n      0x20\n        /* \"#utility.yul\":5634:5643   */\n      dup3\n        /* \"#utility.yul\":5630:5648   */\n      add\n        /* \"#utility.yul\":5622:5648   */\n      swap1\n      pop\n        /* \"#utility.yul\":5694:5703   */\n      dup2\n        /* \"#utility.yul\":5688:5692   */\n      dup2\n        /* \"#utility.yul\":5684:5704   */\n      sub\n        /* \"#utility.yul\":5680:5681   */\n      0x00\n        /* \"#utility.yul\":5669:5678   */\n      dup4\n        /* \"#utility.yul\":5665:5682   */\n      add\n        /* \"#utility.yul\":5658:5705   */\n      mstore\n        /* \"#utility.yul\":5722:5853   */\n      tag_247\n        /* \"#utility.yul\":5848:5852   */\n      dup2\n        /* \"#utility.yul\":5722:5853   */\n      tag_167\n      jump\t// in\n    tag_247:\n        /* \"#utility.yul\":5714:5853   */\n      swap1\n      pop\n        /* \"#utility.yul\":5441:5860   */\n      swap2\n      swap1\n      pop\n      jump\t// out\n        /* \"#utility.yul\":5866:6097   */\n    tag_168:\n        /* \"#utility.yul\":6006:6040   */\n      0x5370656369667920616e20616d6f756e74206f6620746f6b656e206772656174\n        /* \"#utility.yul\":6002:6003   */\n      0x00\n        /* \"#utility.yul\":5994:6000   */\n      dup3\n        /* \"#utility.yul\":5990:6004   */\n      add\n        /* \"#utility.yul\":5983:6041   */\n      mstore\n        /* \"#utility.yul\":6075:6089   */\n      0x6572207468616e207a65726f0000000000000000000000000000000000000000\n        /* \"#utility.yul\":6070:6072   */\n      0x20\n        /* \"#utility.yul\":6062:6068   */\n      dup3\n        /* \"#utility.yul\":6058:6073   */\n      add\n        /* \"#utility.yul\":6051:6090   */\n      mstore\n        /* \"#utility.yul\":5866:6097   */\n      pop\n      jump\t// out\n        /* \"#utility.yul\":6103:6469   */\n    tag_169:\n        /* \"#utility.yul\":6245:6248   */\n      0x00\n        /* \"#utility.yul\":6266:6333   */\n      tag_250\n        /* \"#utility.yul\":6330:6332   */\n      0x2c\n        /* \"#utility.yul\":6325:6328   */\n      dup4\n        /* \"#utility.yul\":6266:6333   */\n      tag_160\n      jump\t// in\n    tag_250:\n        /* \"#utility.yul\":6259:6333   */\n      swap2\n      pop\n        /* \"#utility.yul\":6342:6435   */\n      tag_251\n        /* \"#utility.yul\":6431:6434   */\n      dup3\n        /* \"#utility.yul\":6342:6435   */\n      tag_168\n      jump\t// in\n    tag_251:\n        /* \"#utility.yul\":6460:6462   */\n      0x40\n        /* \"#utility.yul\":6455:6458   */\n      dup3\n        /* \"#utility.yul\":6451:6463   */\n      add\n        /* \"#utility.yul\":6444:6463   */\n      swap1\n      pop\n        /* \"#utility.yul\":6103:6469   */\n      swap2\n      swap1\n      pop\n      jump\t// out\n        /* \"#utility.yul\":6475:6894   */\n    tag_62:\n        /* \"#utility.yul\":6641:6645   */\n      0x00\n        /* \"#utility.yul\":6679:6681   */\n      0x20\n        /* \"#utility.yul\":6668:6677   */\n      dup3\n        /* \"#utility.yul\":6664:6682   */\n      add\n        /* \"#utility.yul\":6656:6682   */\n      swap1\n      pop\n        /* \"#utility.yul\":6728:6737   */\n      dup2\n        /* \"#utility.yul\":6722:6726   */\n      dup2\n        /* \"#utility.yul\":6718:6738   */\n      sub\n        /* \"#utility.yul\":6714:6715   */\n      0x00\n        /* \"#utility.yul\":6703:6712   */\n      dup4\n        /* \"#utility.yul\":6699:6716   */\n      add\n        /* \"#utility.yul\":6692:6739   */\n      mstore\n        /* \"#utility.yul\":6756:6887   */\n      tag_253\n        /* \"#utility.yul\":6882:6886   */\n      dup2\n        /* \"#utility.yul\":6756:6887   */\n      tag_169\n      jump\t// in\n    tag_253:\n        /* \"#utility.yul\":6748:6887   */\n      swap1\n      pop\n        /* \"#utility.yul\":6475:6894   */\n      swap2\n      swap1\n      pop\n      jump\t// out\n        /* \"#utility.yul\":6900:7043   */\n    tag_170:\n        /* \"#utility.yul\":6957:6962   */\n      0x00\n        /* \"#utility.yul\":6988:6994   */\n      dup2\n        /* \"#utility.yul\":6982:6995   */\n      mload\n        /* \"#utility.yul\":6973:6995   */\n      swap1\n      pop\n        /* \"#utility.yul\":7004:7037   */\n      tag_255\n        /* \"#utility.yul\":7031:7036   */\n      dup2\n        /* \"#utility.yul\":7004:7037   */\n      tag_152\n      jump\t// in\n    tag_255:\n        /* \"#utility.yul\":6900:7043   */\n      swap3\n      swap2\n      pop\n      pop\n      jump\t// out\n        /* \"#utility.yul\":7049:7400   */\n    tag_68:\n        /* \"#utility.yul\":7119:7125   */\n      0x00\n        /* \"#utility.yul\":7168:7170   */\n      0x20\n        /* \"#utility.yul\":7156:7165   */\n      dup3\n        /* \"#utility.yul\":7147:7154   */\n      dup5\n        /* \"#utility.yul\":7143:7166   */\n      sub\n        /* \"#utility.yul\":7139:7171   */\n      slt\n        /* \"#utility.yul\":7136:7255   */\n      iszero\n      tag_257\n      jumpi\n        /* \"#utility.yul\":7174:7253   */\n      tag_258\n      tag_149\n      jump\t// in\n    tag_258:\n        /* \"#utility.yul\":7136:7255   */\n    tag_257:\n        /* \"#utility.yul\":7294:7295   */\n      0x00\n        /* \"#utility.yul\":7319:7383   */\n      tag_259\n        /* \"#utility.yul\":7375:7382   */\n      dup5\n        /* \"#utility.yul\":7366:7372   */\n      dup3\n        /* \"#utility.yul\":7355:7364   */\n      dup6\n        /* \"#utility.yul\":7351:7373   */\n      add\n        /* \"#utility.yul\":7319:7383   */\n      tag_170\n      jump\t// in\n    tag_259:\n        /* \"#utility.yul\":7309:7383   */\n      swap2\n      pop\n        /* \"#utility.yul\":7265:7393   */\n      pop\n        /* \"#utility.yul\":7049:7400   */\n      swap3\n      swap2\n      pop\n      pop\n      jump\t// out\n        /* \"#utility.yul\":7406:7657   */\n    tag_171:\n        /* \"#utility.yul\":7546:7580   */\n      0x596f75722062616c616e6365206973206c6f776572207468616e207468652061\n        /* \"#utility.yul\":7542:7543   */\n      0x00\n        /* \"#utility.yul\":7534:7540   */\n      dup3\n        /* \"#utility.yul\":7530:7544   */\n      add\n        /* \"#utility.yul\":7523:7581   */\n      mstore\n        /* \"#utility.yul\":7615:7649   */\n      0x6d6f756e74206f6620746f6b656e7320796f752077616e7420746f2073656c6c\n        /* \"#utility.yul\":7610:7612   */\n      0x20\n        /* \"#utility.yul\":7602:7608   */\n      dup3\n        /* \"#utility.yul\":7598:7613   */\n      add\n        /* \"#utility.yul\":7591:7650   */\n      mstore\n        /* \"#utility.yul\":7406:7657   */\n      pop\n      jump\t// out\n        /* \"#utility.yul\":7663:8029   */\n    tag_172:\n        /* \"#utility.yul\":7805:7808   */\n      0x00\n        /* \"#utility.yul\":7826:7893   */\n      tag_262\n        /* \"#utility.yul\":7890:7892   */\n      0x40\n        /* \"#utility.yul\":7885:7888   */\n      dup4\n        /* \"#utility.yul\":7826:7893   */\n      tag_160\n      jump\t// in\n    tag_262:\n        /* \"#utility.yul\":7819:7893   */\n      swap2\n      pop\n        /* \"#utility.yul\":7902:7995   */\n      tag_263\n        /* \"#utility.yul\":7991:7994   */\n      dup3\n        /* \"#utility.yul\":7902:7995   */\n      tag_171\n      jump\t// in\n    tag_263:\n        /* \"#utility.yul\":8020:8022   */\n      0x40\n        /* \"#utility.yul\":8015:8018   */\n      dup3\n        /* \"#utility.yul\":8011:8023   */\n      add\n        /* \"#utility.yul\":8004:8023   */\n      swap1\n      pop\n        /* \"#utility.yul\":7663:8029   */\n      swap2\n      swap1\n      pop\n      jump\t// out\n        /* \"#utility.yul\":8035:8454   */\n    tag_71:\n        /* \"#utility.yul\":8201:8205   */\n      0x00\n        /* \"#utility.yul\":8239:8241   */\n      0x20\n        /* \"#utility.yul\":8228:8237   */\n      dup3\n        /* \"#utility.yul\":8224:8242   */\n      add\n        /* \"#utility.yul\":8216:8242   */\n      swap1\n      pop\n        /* \"#utility.yul\":8288:8297   */\n      dup2\n        /* \"#utility.yul\":8282:8286   */\n      dup2\n        /* \"#utility.yul\":8278:8298   */\n      sub\n        /* \"#utility.yul\":8274:8275   */\n      0x00\n        /* \"#utility.yul\":8263:8272   */\n      dup4\n        /* \"#utility.yul\":8259:8276   */\n      add\n        /* \"#utility.yul\":8252:8299   */\n      mstore\n        /* \"#utility.yul\":8316:8447   */\n      tag_265\n        /* \"#utility.yul\":8442:8446   */\n      dup2\n        /* \"#utility.yul\":8316:8447   */\n      tag_172\n      jump\t// in\n    tag_265:\n        /* \"#utility.yul\":8308:8447   */\n      swap1\n      pop\n        /* \"#utility.yul\":8035:8454   */\n      swap2\n      swap1\n      pop\n      jump\t// out\n        /* \"#utility.yul\":8460:8640   */\n    tag_173:\n        /* \"#utility.yul\":8508:8585   */\n      0x4e487b7100000000000000000000000000000000000000000000000000000000\n        /* \"#utility.yul\":8505:8506   */\n      0x00\n        /* \"#utility.yul\":8498:8586   */\n      mstore\n        /* \"#utility.yul\":8605:8609   */\n      0x12\n        /* \"#utility.yul\":8602:8603   */\n      0x04\n        /* \"#utility.yul\":8595:8610   */\n      mstore\n        /* \"#utility.yul\":8629:8633   */\n      0x24\n        /* \"#utility.yul\":8626:8627   */\n      0x00\n        /* \"#utility.yul\":8619:8634   */\n      revert\n        /* \"#utility.yul\":8646:8826   */\n    tag_174:\n        /* \"#utility.yul\":8694:8771   */\n      0x4e487b7100000000000000000000000000000000000000000000000000000000\n        /* \"#utility.yul\":8691:8692   */\n      0x00\n        /* \"#utility.yul\":8684:8772   */\n      mstore\n        /* \"#utility.yul\":8791:8795   */\n      0x11\n        /* \"#utility.yul\":8788:8789   */\n      0x04\n        /* \"#utility.yul\":8781:8796   */\n      mstore\n        /* \"#utility.yul\":8815:8819   */\n      0x24\n        /* \"#utility.yul\":8812:8813   */\n      0x00\n        /* \"#utility.yul\":8805:8820   */\n      revert\n        /* \"#utility.yul\":8832:9017   */\n    tag_73:\n        /* \"#utility.yul\":8872:8873   */\n      0x00\n        /* \"#utility.yul\":8889:8909   */\n      tag_269\n        /* \"#utility.yul\":8907:8908   */\n      dup3\n        /* \"#utility.yul\":8889:8909   */\n      tag_151\n      jump\t// in\n    tag_269:\n        /* \"#utility.yul\":8884:8909   */\n      swap2\n      pop\n        /* \"#utility.yul\":8923:8943   */\n      tag_270\n        /* \"#utility.yul\":8941:8942   */\n      dup4\n        /* \"#utility.yul\":8923:8943   */\n      tag_151\n      jump\t// in\n    tag_270:\n        /* \"#utility.yul\":8918:8943   */\n      swap3\n      pop\n        /* \"#utility.yul\":8962:8963   */\n      dup3\n        /* \"#utility.yul\":8952:8987   */\n      tag_271\n      jumpi\n        /* \"#utility.yul\":8967:8985   */\n      tag_272\n      tag_173\n      jump\t// in\n    tag_272:\n        /* \"#utility.yul\":8952:8987   */\n    tag_271:\n        /* \"#utility.yul\":9009:9010   */\n      dup3\n        /* \"#utility.yul\":9006:9007   */\n      dup3\n        /* \"#utility.yul\":9002:9011   */\n      div\n        /* \"#utility.yul\":8997:9011   */\n      swap1\n      pop\n        /* \"#utility.yul\":8832:9017   */\n      swap3\n      swap2\n      pop\n      pop\n      jump\t// out\n        /* \"#utility.yul\":9023:9264   */\n    tag_175:\n        /* \"#utility.yul\":9163:9197   */\n      0x56656e646f7220686173206e6f7420656e6f7567682066756e647320746f2061\n        /* \"#utility.yul\":9159:9160   */\n      0x00\n        /* \"#utility.yul\":9151:9157   */\n      dup3\n        /* \"#utility.yul\":9147:9161   */\n      add\n        /* \"#utility.yul\":9140:9198   */\n      mstore\n        /* \"#utility.yul\":9232:9256   */\n      0x6363657074207468652073656c6c207265717565737400000000000000000000\n        /* \"#utility.yul\":9227:9229   */\n      0x20\n        /* \"#utility.yul\":9219:9225   */\n      dup3\n        /* \"#utility.yul\":9215:9230   */\n      add\n        /* \"#utility.yul\":9208:9257   */\n      mstore\n        /* \"#utility.yul\":9023:9264   */\n      pop\n      jump\t// out\n        /* \"#utility.yul\":9270:9636   */\n    tag_176:\n        /* \"#utility.yul\":9412:9415   */\n      0x00\n        /* \"#utility.yul\":9433:9500   */\n      tag_275\n        /* \"#utility.yul\":9497:9499   */\n      0x36\n        /* \"#utility.yul\":9492:9495   */\n      dup4\n        /* \"#utility.yul\":9433:9500   */\n      tag_160\n      jump\t// in\n    tag_275:\n        /* \"#utility.yul\":9426:9500   */\n      swap2\n      pop\n        /* \"#utility.yul\":9509:9602   */\n      tag_276\n        /* \"#utility.yul\":9598:9601   */\n      dup3\n        /* \"#utility.yul\":9509:9602   */\n      tag_175\n      jump\t// in\n    tag_276:\n        /* \"#utility.yul\":9627:9629   */\n      0x40\n        /* \"#utility.yul\":9622:9625   */\n      dup3\n        /* \"#utility.yul\":9618:9630   */\n      add\n        /* \"#utility.yul\":9611:9630   */\n      swap1\n      pop\n        /* \"#utility.yul\":9270:9636   */\n      swap2\n      swap1\n      pop\n      jump\t// out\n        /* \"#utility.yul\":9642:10061   */\n    tag_76:\n        /* \"#utility.yul\":9808:9812   */\n      0x00\n        /* \"#utility.yul\":9846:9848   */\n      0x20\n        /* \"#utility.yul\":9835:9844   */\n      dup3\n        /* \"#utility.yul\":9831:9849   */\n      add\n        /* \"#utility.yul\":9823:9849   */\n      swap1\n      pop\n        /* \"#utility.yul\":9895:9904   */\n      dup2\n        /* \"#utility.yul\":9889:9893   */\n      dup2\n        /* \"#utility.yul\":9885:9905   */\n      sub\n        /* \"#utility.yul\":9881:9882   */\n      0x00\n        /* \"#utility.yul\":9870:9879   */\n      dup4\n        /* \"#utility.yul\":9866:9883   */\n      add\n        /* \"#utility.yul\":9859:9906   */\n      mstore\n        /* \"#utility.yul\":9923:10054   */\n      tag_278\n        /* \"#utility.yul\":10049:10053   */\n      dup2\n        /* \"#utility.yul\":9923:10054   */\n      tag_176\n      jump\t// in\n    tag_278:\n        /* \"#utility.yul\":9915:10054   */\n      swap1\n      pop\n        /* \"#utility.yul\":9642:10061   */\n      swap2\n      swap1\n      pop\n      jump\t// out\n        /* \"#utility.yul\":10067:10509   */\n    tag_78:\n        /* \"#utility.yul\":10216:10220   */\n      0x00\n        /* \"#utility.yul\":10254:10256   */\n      0x60\n        /* \"#utility.yul\":10243:10252   */\n      dup3\n        /* \"#utility.yul\":10239:10257   */\n      add\n        /* \"#utility.yul\":10231:10257   */\n      swap1\n      pop\n        /* \"#utility.yul\":10267:10338   */\n      tag_280\n        /* \"#utility.yul\":10335:10336   */\n      0x00\n        /* \"#utility.yul\":10324:10333   */\n      dup4\n        /* \"#utility.yul\":10320:10337   */\n      add\n        /* \"#utility.yul\":10311:10317   */\n      dup7\n        /* \"#utility.yul\":10267:10338   */\n      tag_156\n      jump\t// in\n    tag_280:\n        /* \"#utility.yul\":10348:10420   */\n      tag_281\n        /* \"#utility.yul\":10416:10418   */\n      0x20\n        /* \"#utility.yul\":10405:10414   */\n      dup4\n        /* \"#utility.yul\":10401:10419   */\n      add\n        /* \"#utility.yul\":10392:10398   */\n      dup6\n        /* \"#utility.yul\":10348:10420   */\n      tag_156\n      jump\t// in\n    tag_281:\n        /* \"#utility.yul\":10430:10502   */\n      tag_282\n        /* \"#utility.yul\":10498:10500   */\n      0x40\n        /* \"#utility.yul\":10487:10496   */\n      dup4\n        /* \"#utility.yul\":10483:10501   */\n      add\n        /* \"#utility.yul\":10474:10480   */\n      dup5\n        /* \"#utility.yul\":10430:10502   */\n      tag_157\n      jump\t// in\n    tag_282:\n        /* \"#utility.yul\":10067:10509   */\n      swap5\n      swap4\n      pop\n      pop\n      pop\n      pop\n      jump\t// out\n        /* \"#utility.yul\":10515:10605   */\n    tag_177:\n        /* \"#utility.yul\":10549:10556   */\n      0x00\n        /* \"#utility.yul\":10592:10597   */\n      dup2\n        /* \"#utility.yul\":10585:10598   */\n      iszero\n        /* \"#utility.yul\":10578:10599   */\n      iszero\n        /* \"#utility.yul\":10567:10599   */\n      swap1\n      pop\n        /* \"#utility.yul\":10515:10605   */\n      swap2\n      swap1\n      pop\n      jump\t// out\n        /* \"#utility.yul\":10611:10727   */\n    tag_178:\n        /* \"#utility.yul\":10681:10702   */\n      tag_285\n        /* \"#utility.yul\":10696:10701   */\n      dup2\n        /* \"#utility.yul\":10681:10702   */\n      tag_177\n      jump\t// in\n    tag_285:\n        /* \"#utility.yul\":10674:10679   */\n      dup2\n        /* \"#utility.yul\":10671:10703   */\n      eq\n        /* \"#utility.yul\":10661:10721   */\n      tag_286\n      jumpi\n        /* \"#utility.yul\":10717:10718   */\n      0x00\n        /* \"#utility.yul\":10714:10715   */\n      dup1\n        /* \"#utility.yul\":10707:10719   */\n      revert\n        /* \"#utility.yul\":10661:10721   */\n    tag_286:\n        /* \"#utility.yul\":10611:10727   */\n      pop\n      jump\t// out\n        /* \"#utility.yul\":10733:10870   */\n    tag_179:\n        /* \"#utility.yul\":10787:10792   */\n      0x00\n        /* \"#utility.yul\":10818:10824   */\n      dup2\n        /* \"#utility.yul\":10812:10825   */\n      mload\n        /* \"#utility.yul\":10803:10825   */\n      swap1\n      pop\n        /* \"#utility.yul\":10834:10864   */\n      tag_288\n        /* \"#utility.yul\":10858:10863   */\n      dup2\n        /* \"#utility.yul\":10834:10864   */\n      tag_178\n      jump\t// in\n    tag_288:\n        /* \"#utility.yul\":10733:10870   */\n      swap3\n      swap2\n      pop\n      pop\n      jump\t// out\n        /* \"#utility.yul\":10876:11221   */\n    tag_83:\n        /* \"#utility.yul\":10943:10949   */\n      0x00\n        /* \"#utility.yul\":10992:10994   */\n      0x20\n        /* \"#utility.yul\":10980:10989   */\n      dup3\n        /* \"#utility.yul\":10971:10978   */\n      dup5\n        /* \"#utility.yul\":10967:10990   */\n      sub\n        /* \"#utility.yul\":10963:10995   */\n      slt\n        /* \"#utility.yul\":10960:11079   */\n      iszero\n      tag_290\n      jumpi\n        /* \"#utility.yul\":10998:11077   */\n      tag_291\n      tag_149\n      jump\t// in\n    tag_291:\n        /* \"#utility.yul\":10960:11079   */\n    tag_290:\n        /* \"#utility.yul\":11118:11119   */\n      0x00\n        /* \"#utility.yul\":11143:11204   */\n      tag_292\n        /* \"#utility.yul\":11196:11203   */\n      dup5\n        /* \"#utility.yul\":11187:11193   */\n      dup3\n        /* \"#utility.yul\":11176:11185   */\n      dup6\n        /* \"#utility.yul\":11172:11194   */\n      add\n        /* \"#utility.yul\":11143:11204   */\n      tag_179\n      jump\t// in\n    tag_292:\n        /* \"#utility.yul\":11133:11204   */\n      swap2\n      pop\n        /* \"#utility.yul\":11089:11214   */\n      pop\n        /* \"#utility.yul\":10876:11221   */\n      swap3\n      swap2\n      pop\n      pop\n      jump\t// out\n        /* \"#utility.yul\":11227:11459   */\n    tag_180:\n        /* \"#utility.yul\":11367:11401   */\n      0x4661696c656420746f207472616e7366657220746f6b656e732066726f6d2075\n        /* \"#utility.yul\":11363:11364   */\n      0x00\n        /* \"#utility.yul\":11355:11361   */\n      dup3\n        /* \"#utility.yul\":11351:11365   */\n      add\n        /* \"#utility.yul\":11344:11402   */\n      mstore\n        /* \"#utility.yul\":11436:11451   */\n      0x73657220746f2076656e646f7200000000000000000000000000000000000000\n        /* \"#utility.yul\":11431:11433   */\n      0x20\n        /* \"#utility.yul\":11423:11429   */\n      dup3\n        /* \"#utility.yul\":11419:11434   */\n      add\n        /* \"#utility.yul\":11412:11452   */\n      mstore\n        /* \"#utility.yul\":11227:11459   */\n      pop\n      jump\t// out\n        /* \"#utility.yul\":11465:11831   */\n    tag_181:\n        /* \"#utility.yul\":11607:11610   */\n      0x00\n        /* \"#utility.yul\":11628:11695   */\n      tag_295\n        /* \"#utility.yul\":11692:11694   */\n      0x2d\n        /* \"#utility.yul\":11687:11690   */\n      dup4\n        /* \"#utility.yul\":11628:11695   */\n      tag_160\n      jump\t// in\n    tag_295:\n        /* \"#utility.yul\":11621:11695   */\n      swap2\n      pop\n        /* \"#utility.yul\":11704:11797   */\n      tag_296\n        /* \"#utility.yul\":11793:11796   */\n      dup3\n        /* \"#utility.yul\":11704:11797   */\n      tag_180\n      jump\t// in\n    tag_296:\n        /* \"#utility.yul\":11822:11824   */\n      0x40\n        /* \"#utility.yul\":11817:11820   */\n      dup3\n        /* \"#utility.yul\":11813:11825   */\n      add\n        /* \"#utility.yul\":11806:11825   */\n      swap1\n      pop\n        /* \"#utility.yul\":11465:11831   */\n      swap2\n      swap1\n      pop\n      jump\t// out\n        /* \"#utility.yul\":11837:12256   */\n    tag_86:\n        /* \"#utility.yul\":12003:12007   */\n      0x00\n        /* \"#utility.yul\":12041:12043   */\n      0x20\n        /* \"#utility.yul\":12030:12039   */\n      dup3\n        /* \"#utility.yul\":12026:12044   */\n      add\n        /* \"#utility.yul\":12018:12044   */\n      swap1\n      pop\n        /* \"#utility.yul\":12090:12099   */\n      dup2\n        /* \"#utility.yul\":12084:12088   */\n      dup2\n        /* \"#utility.yul\":12080:12100   */\n      sub\n        /* \"#utility.yul\":12076:12077   */\n      0x00\n        /* \"#utility.yul\":12065:12074   */\n      dup4\n        /* \"#utility.yul\":12061:12078   */\n      add\n        /* \"#utility.yul\":12054:12101   */\n      mstore\n        /* \"#utility.yul\":12118:12249   */\n      tag_298\n        /* \"#utility.yul\":12244:12248   */\n      dup2\n        /* \"#utility.yul\":12118:12249   */\n      tag_181\n      jump\t// in\n    tag_298:\n        /* \"#utility.yul\":12110:12249   */\n      swap1\n      pop\n        /* \"#utility.yul\":11837:12256   */\n      swap2\n      swap1\n      pop\n      jump\t// out\n        /* \"#utility.yul\":12262:12442   */\n    tag_182:\n        /* \"#utility.yul\":12402:12434   */\n      0x4661696c656420746f2073656e642045544820746f2074686520757365720000\n        /* \"#utility.yul\":12398:12399   */\n      0x00\n        /* \"#utility.yul\":12390:12396   */\n      dup3\n        /* \"#utility.yul\":12386:12400   */\n      add\n        /* \"#utility.yul\":12379:12435   */\n      mstore\n        /* \"#utility.yul\":12262:12442   */\n      pop\n      jump\t// out\n        /* \"#utility.yul\":12448:12814   */\n    tag_183:\n        /* \"#utility.yul\":12590:12593   */\n      0x00\n        /* \"#utility.yul\":12611:12678   */\n      tag_301\n        /* \"#utility.yul\":12675:12677   */\n      0x1e\n        /* \"#utility.yul\":12670:12673   */\n      dup4\n        /* \"#utility.yul\":12611:12678   */\n      tag_160\n      jump\t// in\n    tag_301:\n        /* \"#utility.yul\":12604:12678   */\n      swap2\n      pop\n        /* \"#utility.yul\":12687:12780   */\n      tag_302\n        /* \"#utility.yul\":12776:12779   */\n      dup3\n        /* \"#utility.yul\":12687:12780   */\n      tag_182\n      jump\t// in\n    tag_302:\n        /* \"#utility.yul\":12805:12807   */\n      0x20\n        /* \"#utility.yul\":12800:12803   */\n      dup3\n        /* \"#utility.yul\":12796:12808   */\n      add\n        /* \"#utility.yul\":12789:12808   */\n      swap1\n      pop\n        /* \"#utility.yul\":12448:12814   */\n      swap2\n      swap1\n      pop\n      jump\t// out\n        /* \"#utility.yul\":12820:13239   */\n    tag_93:\n        /* \"#utility.yul\":12986:12990   */\n      0x00\n        /* \"#utility.yul\":13024:13026   */\n      0x20\n        /* \"#utility.yul\":13013:13022   */\n      dup3\n        /* \"#utility.yul\":13009:13027   */\n      add\n        /* \"#utility.yul\":13001:13027   */\n      swap1\n      pop\n        /* \"#utility.yul\":13073:13082   */\n      dup2\n        /* \"#utility.yul\":13067:13071   */\n      dup2\n        /* \"#utility.yul\":13063:13083   */\n      sub\n        /* \"#utility.yul\":13059:13060   */\n      0x00\n        /* \"#utility.yul\":13048:13057   */\n      dup4\n        /* \"#utility.yul\":13044:13061   */\n      add\n        /* \"#utility.yul\":13037:13084   */\n      mstore\n        /* \"#utility.yul\":13101:13232   */\n      tag_304\n        /* \"#utility.yul\":13227:13231   */\n      dup2\n        /* \"#utility.yul\":13101:13232   */\n      tag_183\n      jump\t// in\n    tag_304:\n        /* \"#utility.yul\":13093:13232   */\n      swap1\n      pop\n        /* \"#utility.yul\":12820:13239   */\n      swap2\n      swap1\n      pop\n      jump\t// out\n        /* \"#utility.yul\":13245:13687   */\n    tag_95:\n        /* \"#utility.yul\":13394:13398   */\n      0x00\n        /* \"#utility.yul\":13432:13434   */\n      0x60\n        /* \"#utility.yul\":13421:13430   */\n      dup3\n        /* \"#utility.yul\":13417:13435   */\n      add\n        /* \"#utility.yul\":13409:13435   */\n      swap1\n      pop\n        /* \"#utility.yul\":13445:13516   */\n      tag_306\n        /* \"#utility.yul\":13513:13514   */\n      0x00\n        /* \"#utility.yul\":13502:13511   */\n      dup4\n        /* \"#utility.yul\":13498:13515   */\n      add\n        /* \"#utility.yul\":13489:13495   */\n      dup7\n        /* \"#utility.yul\":13445:13516   */\n      tag_156\n      jump\t// in\n    tag_306:\n        /* \"#utility.yul\":13526:13598   */\n      tag_307\n        /* \"#utility.yul\":13594:13596   */\n      0x20\n        /* \"#utility.yul\":13583:13592   */\n      dup4\n        /* \"#utility.yul\":13579:13597   */\n      add\n        /* \"#utility.yul\":13570:13576   */\n      dup6\n        /* \"#utility.yul\":13526:13598   */\n      tag_157\n      jump\t// in\n    tag_307:\n        /* \"#utility.yul\":13608:13680   */\n      tag_308\n        /* \"#utility.yul\":13676:13678   */\n      0x40\n        /* \"#utility.yul\":13665:13674   */\n      dup4\n        /* \"#utility.yul\":13661:13679   */\n      add\n        /* \"#utility.yul\":13652:13658   */\n      dup5\n        /* \"#utility.yul\":13608:13680   */\n      tag_157\n      jump\t// in\n    tag_308:\n        /* \"#utility.yul\":13245:13687   */\n      swap5\n      swap4\n      pop\n      pop\n      pop\n      pop\n      jump\t// out\n        /* \"#utility.yul\":13693:13870   */\n    tag_184:\n        /* \"#utility.yul\":13833:13862   */\n      0x53656e642045544820746f2062757920736f6d6520746f6b656e730000000000\n        /* \"#utility.yul\":13829:13830   */\n      0x00\n        /* \"#utility.yul\":13821:13827   */\n      dup3\n        /* \"#utility.yul\":13817:13831   */\n      add\n        /* \"#utility.yul\":13810:13863   */\n      mstore\n        /* \"#utility.yul\":13693:13870   */\n      pop\n      jump\t// out\n        /* \"#utility.yul\":13876:14242   */\n    tag_185:\n        /* \"#utility.yul\":14018:14021   */\n      0x00\n        /* \"#utility.yul\":14039:14106   */\n      tag_311\n        /* \"#utility.yul\":14103:14105   */\n      0x1b\n        /* \"#utility.yul\":14098:14101   */\n      dup4\n        /* \"#utility.yul\":14039:14106   */\n      tag_160\n      jump\t// in\n    tag_311:\n        /* \"#utility.yul\":14032:14106   */\n      swap2\n      pop\n        /* \"#utility.yul\":14115:14208   */\n      tag_312\n        /* \"#utility.yul\":14204:14207   */\n      dup3\n        /* \"#utility.yul\":14115:14208   */\n      tag_184\n      jump\t// in\n    tag_312:\n        /* \"#utility.yul\":14233:14235   */\n      0x20\n        /* \"#utility.yul\":14228:14231   */\n      dup3\n        /* \"#utility.yul\":14224:14236   */\n      add\n        /* \"#utility.yul\":14217:14236   */\n      swap1\n      pop\n        /* \"#utility.yul\":13876:14242   */\n      swap2\n      swap1\n      pop\n      jump\t// out\n        /* \"#utility.yul\":14248:14667   */\n    tag_106:\n        /* \"#utility.yul\":14414:14418   */\n      0x00\n        /* \"#utility.yul\":14452:14454   */\n      0x20\n        /* \"#utility.yul\":14441:14450   */\n      dup3\n        /* \"#utility.yul\":14437:14455   */\n      add\n        /* \"#utility.yul\":14429:14455   */\n      swap1\n      pop\n        /* \"#utility.yul\":14501:14510   */\n      dup2\n        /* \"#utility.yul\":14495:14499   */\n      dup2\n        /* \"#utility.yul\":14491:14511   */\n      sub\n        /* \"#utility.yul\":14487:14488   */\n      0x00\n        /* \"#utility.yul\":14476:14485   */\n      dup4\n        /* \"#utility.yul\":14472:14489   */\n      add\n        /* \"#utility.yul\":14465:14512   */\n      mstore\n        /* \"#utility.yul\":14529:14660   */\n      tag_314\n        /* \"#utility.yul\":14655:14659   */\n      dup2\n        /* \"#utility.yul\":14529:14660   */\n      tag_185\n      jump\t// in\n    tag_314:\n        /* \"#utility.yul\":14521:14660   */\n      swap1\n      pop\n        /* \"#utility.yul\":14248:14667   */\n      swap2\n      swap1\n      pop\n      jump\t// out\n        /* \"#utility.yul\":14673:15021   */\n    tag_108:\n        /* \"#utility.yul\":14713:14720   */\n      0x00\n        /* \"#utility.yul\":14736:14756   */\n      tag_316\n        /* \"#utility.yul\":14754:14755   */\n      dup3\n        /* \"#utility.yul\":14736:14756   */\n      tag_151\n      jump\t// in\n    tag_316:\n        /* \"#utility.yul\":14731:14756   */\n      swap2\n      pop\n        /* \"#utility.yul\":14770:14790   */\n      tag_317\n        /* \"#utility.yul\":14788:14789   */\n      dup4\n        /* \"#utility.yul\":14770:14790   */\n      tag_151\n      jump\t// in\n    tag_317:\n        /* \"#utility.yul\":14765:14790   */\n      swap3\n      pop\n        /* \"#utility.yul\":14958:14959   */\n      dup2\n        /* \"#utility.yul\":14890:14956   */\n      0xffffffffffffffffffffffffffffffffffffffffffffffffffffffffffffffff\n        /* \"#utility.yul\":14886:14960   */\n      div\n        /* \"#utility.yul\":14883:14884   */\n      dup4\n        /* \"#utility.yul\":14880:14961   */\n      gt\n        /* \"#utility.yul\":14875:14876   */\n      dup3\n        /* \"#utility.yul\":14868:14877   */\n      iszero\n        /* \"#utility.yul\":14861:14878   */\n      iszero\n        /* \"#utility.yul\":14857:14962   */\n      and\n        /* \"#utility.yul\":14854:14985   */\n      iszero\n      tag_318\n      jumpi\n        /* \"#utility.yul\":14965:14983   */\n      tag_319\n      tag_174\n      jump\t// in\n    tag_319:\n        /* \"#utility.yul\":14854:14985   */\n    tag_318:\n        /* \"#utility.yul\":15013:15014   */\n      dup3\n        /* \"#utility.yul\":15010:15011   */\n      dup3\n        /* \"#utility.yul\":15006:15015   */\n      mul\n        /* \"#utility.yul\":14995:15015   */\n      swap1\n      pop\n        /* \"#utility.yul\":14673:15021   */\n      swap3\n      swap2\n      pop\n      pop\n      jump\t// out\n        /* \"#utility.yul\":15027:15266   */\n    tag_186:\n        /* \"#utility.yul\":15167:15201   */\n      0x56656e646f7220636f6e747261637420686173206e6f7420656e6f7567682074\n        /* \"#utility.yul\":15163:15164   */\n      0x00\n        /* \"#utility.yul\":15155:15161   */\n      dup3\n        /* \"#utility.yul\":15151:15165   */\n      add\n        /* \"#utility.yul\":15144:15202   */\n      mstore\n        /* \"#utility.yul\":15236:15258   */\n      0x6f6b656e7320696e206974732062616c616e6365000000000000000000000000\n        /* \"#utility.yul\":15231:15233   */\n      0x20\n        /* \"#utility.yul\":15223:15229   */\n      dup3\n        /* \"#utility.yul\":15219:15234   */\n      add\n        /* \"#utility.yul\":15212:15259   */\n      mstore\n        /* \"#utility.yul\":15027:15266   */\n      pop\n      jump\t// out\n        /* \"#utility.yul\":15272:15638   */\n    tag_187:\n        /* \"#utility.yul\":15414:15417   */\n      0x00\n        /* \"#utility.yul\":15435:15502   */\n      tag_322\n        /* \"#utility.yul\":15499:15501   */\n      0x34\n        /* \"#utility.yul\":15494:15497   */\n      dup4\n        /* \"#utility.yul\":15435:15502   */\n      tag_160\n      jump\t// in\n    tag_322:\n        /* \"#utility.yul\":15428:15502   */\n      swap2\n      pop\n        /* \"#utility.yul\":15511:15604   */\n      tag_323\n        /* \"#utility.yul\":15600:15603   */\n      dup3\n        /* \"#utility.yul\":15511:15604   */\n      tag_186\n      jump\t// in\n    tag_323:\n        /* \"#utility.yul\":15629:15631   */\n      0x40\n        /* \"#utility.yul\":15624:15627   */\n      dup3\n        /* \"#utility.yul\":15620:15632   */\n      add\n        /* \"#utility.yul\":15613:15632   */\n      swap1\n      pop\n        /* \"#utility.yul\":15272:15638   */\n      swap2\n      swap1\n      pop\n      jump\t// out\n        /* \"#utility.yul\":15644:16063   */\n    tag_116:\n        /* \"#utility.yul\":15810:15814   */\n      0x00\n        /* \"#utility.yul\":15848:15850   */\n      0x20\n        /* \"#utility.yul\":15837:15846   */\n      dup3\n        /* \"#utility.yul\":15833:15851   */\n      add\n        /* \"#utility.yul\":15825:15851   */\n      swap1\n      pop\n        /* \"#utility.yul\":15897:15906   */\n      dup2\n        /* \"#utility.yul\":15891:15895   */\n      dup2\n        /* \"#utility.yul\":15887:15907   */\n      sub\n        /* \"#utility.yul\":15883:15884   */\n      0x00\n        /* \"#utility.yul\":15872:15881   */\n      dup4\n        /* \"#utility.yul\":15868:15885   */\n      add\n        /* \"#utility.yul\":15861:15908   */\n      mstore\n        /* \"#utility.yul\":15925:16056   */\n      tag_325\n        /* \"#utility.yul\":16051:16055   */\n      dup2\n        /* \"#utility.yul\":15925:16056   */\n      tag_187\n      jump\t// in\n    tag_325:\n        /* \"#utility.yul\":15917:16056   */\n      swap1\n      pop\n        /* \"#utility.yul\":15644:16063   */\n      swap2\n      swap1\n      pop\n      jump\t// out\n        /* \"#utility.yul\":16069:16401   */\n    tag_118:\n        /* \"#utility.yul\":16190:16194   */\n      0x00\n        /* \"#utility.yul\":16228:16230   */\n      0x40\n        /* \"#utility.yul\":16217:16226   */\n      dup3\n        /* \"#utility.yul\":16213:16231   */\n      add\n        /* \"#utility.yul\":16205:16231   */\n      swap1\n      pop\n        /* \"#utility.yul\":16241:16312   */\n      tag_327\n        /* \"#utility.yul\":16309:16310   */\n      0x00\n        /* \"#utility.yul\":16298:16307   */\n      dup4\n        /* \"#utility.yul\":16294:16311   */\n      add\n        /* \"#utility.yul\":16285:16291   */\n      dup6\n        /* \"#utility.yul\":16241:16312   */\n      tag_156\n      jump\t// in\n    tag_327:\n        /* \"#utility.yul\":16322:16394   */\n      tag_328\n        /* \"#utility.yul\":16390:16392   */\n      0x20\n        /* \"#utility.yul\":16379:16388   */\n      dup4\n        /* \"#utility.yul\":16375:16393   */\n      add\n        /* \"#utility.yul\":16366:16372   */\n      dup5\n        /* \"#utility.yul\":16322:16394   */\n      tag_157\n      jump\t// in\n    tag_328:\n        /* \"#utility.yul\":16069:16401   */\n      swap4\n      swap3\n      pop\n      pop\n      pop\n      jump\t// out\n        /* \"#utility.yul\":16407:16589   */\n    tag_188:\n        /* \"#utility.yul\":16547:16581   */\n      0x4661696c656420746f207472616e7366657220746f6b656e20746f2075736572\n        /* \"#utility.yul\":16543:16544   */\n      0x00\n        /* \"#utility.yul\":16535:16541   */\n      dup3\n        /* \"#utility.yul\":16531:16545   */\n      add\n        /* \"#utility.yul\":16524:16582   */\n      mstore\n        /* \"#utility.yul\":16407:16589   */\n      pop\n      jump\t// out\n        /* \"#utility.yul\":16595:16961   */\n    tag_189:\n        /* \"#utility.yul\":16737:16740   */\n      0x00\n        /* \"#utility.yul\":16758:16825   */\n      tag_331\n        /* \"#utility.yul\":16822:16824   */\n      0x20\n        /* \"#utility.yul\":16817:16820   */\n      dup4\n        /* \"#utility.yul\":16758:16825   */\n      tag_160\n      jump\t// in\n    tag_331:\n        /* \"#utility.yul\":16751:16825   */\n      swap2\n      pop\n        /* \"#utility.yul\":16834:16927   */\n      tag_332\n        /* \"#utility.yul\":16923:16926   */\n      dup3\n        /* \"#utility.yul\":16834:16927   */\n      tag_188\n      jump\t// in\n    tag_332:\n        /* \"#utility.yul\":16952:16954   */\n      0x20\n        /* \"#utility.yul\":16947:16950   */\n      dup3\n        /* \"#utility.yul\":16943:16955   */\n      add\n        /* \"#utility.yul\":16936:16955   */\n      swap1\n      pop\n        /* \"#utility.yul\":16595:16961   */\n      swap2\n      swap1\n      pop\n      jump\t// out\n        /* \"#utility.yul\":16967:17386   */\n    tag_125:\n        /* \"#utility.yul\":17133:17137   */\n      0x00\n        /* \"#utility.yul\":17171:17173   */\n      0x20\n        /* \"#utility.yul\":17160:17169   */\n      dup3\n        /* \"#utility.yul\":17156:17174   */\n      add\n        /* \"#utility.yul\":17148:17174   */\n      swap1\n      pop\n        /* \"#utility.yul\":17220:17229   */\n      dup2\n        /* \"#utility.yul\":17214:17218   */\n      dup2\n        /* \"#utility.yul\":17210:17230   */\n      sub\n        /* \"#utility.yul\":17206:17207   */\n      0x00\n        /* \"#utility.yul\":17195:17204   */\n      dup4\n        /* \"#utility.yul\":17191:17208   */\n      add\n        /* \"#utility.yul\":17184:17231   */\n      mstore\n        /* \"#utility.yul\":17248:17379   */\n      tag_334\n        /* \"#utility.yul\":17374:17378   */\n      dup2\n        /* \"#utility.yul\":17248:17379   */\n      tag_189\n      jump\t// in\n    tag_334:\n        /* \"#utility.yul\":17240:17379   */\n      swap1\n      pop\n        /* \"#utility.yul\":16967:17386   */\n      swap2\n      swap1\n      pop\n      jump\t// out\n        /* \"#utility.yul\":17392:17617   */\n    tag_190:\n        /* \"#utility.yul\":17532:17566   */\n      0x4f776e61626c653a206e6577206f776e657220697320746865207a65726f2061\n        /* \"#utility.yul\":17528:17529   */\n      0x00\n        /* \"#utility.yul\":17520:17526   */\n      dup3\n        /* \"#utility.yul\":17516:17530   */\n      add\n        /* \"#utility.yul\":17509:17567   */\n      mstore\n        /* \"#utility.yul\":17601:17609   */\n      0x6464726573730000000000000000000000000000000000000000000000000000\n        /* \"#utility.yul\":17596:17598   */\n      0x20\n        /* \"#utility.yul\":17588:17594   */\n      dup3\n        /* \"#utility.yul\":17584:17599   */\n      add\n        /* \"#utility.yul\":17577:17610   */\n      mstore\n        /* \"#utility.yul\":17392:17617   */\n      pop\n      jump\t// out\n        /* \"#utility.yul\":17623:17989   */\n    tag_191:\n        /* \"#utility.yul\":17765:17768   */\n      0x00\n        /* \"#utility.yul\":17786:17853   */\n      tag_337\n        /* \"#utility.yul\":17850:17852   */\n      0x26\n        /* \"#utility.yul\":17845:17848   */\n      dup4\n        /* \"#utility.yul\":17786:17853   */\n      tag_160\n      jump\t// in\n    tag_337:\n        /* \"#utility.yul\":17779:17853   */\n      swap2\n      pop\n        /* \"#utility.yul\":17862:17955   */\n      tag_338\n        /* \"#utility.yul\":17951:17954   */\n      dup3\n        /* \"#utility.yul\":17862:17955   */\n      tag_190\n      jump\t// in\n    tag_338:\n        /* \"#utility.yul\":17980:17982   */\n      0x40\n        /* \"#utility.yul\":17975:17978   */\n      dup3\n        /* \"#utility.yul\":17971:17983   */\n      add\n        /* \"#utility.yul\":17964:17983   */\n      swap1\n      pop\n        /* \"#utility.yul\":17623:17989   */\n      swap2\n      swap1\n      pop\n      jump\t// out\n        /* \"#utility.yul\":17995:18414   */\n    tag_132:\n        /* \"#utility.yul\":18161:18165   */\n      0x00\n        /* \"#utility.yul\":18199:18201   */\n      0x20\n        /* \"#utility.yul\":18188:18197   */\n      dup3\n        /* \"#utility.yul\":18184:18202   */\n      add\n        /* \"#utility.yul\":18176:18202   */\n      swap1\n      pop\n        /* \"#utility.yul\":18248:18257   */\n      dup2\n        /* \"#utility.yul\":18242:18246   */\n      dup2\n        /* \"#utility.yul\":18238:18258   */\n      sub\n        /* \"#utility.yul\":18234:18235   */\n      0x00\n        /* \"#utility.yul\":18223:18232   */\n      dup4\n        /* \"#utility.yul\":18219:18236   */\n      add\n        /* \"#utility.yul\":18212:18259   */\n      mstore\n        /* \"#utility.yul\":18276:18407   */\n      tag_340\n        /* \"#utility.yul\":18402:18406   */\n      dup2\n        /* \"#utility.yul\":18276:18407   */\n      tag_191\n      jump\t// in\n    tag_340:\n        /* \"#utility.yul\":18268:18407   */\n      swap1\n      pop\n        /* \"#utility.yul\":17995:18414   */\n      swap2\n      swap1\n      pop\n      jump\t// out\n        /* \"#utility.yul\":18420:18602   */\n    tag_192:\n        /* \"#utility.yul\":18560:18594   */\n      0x4f776e61626c653a2063616c6c6572206973206e6f7420746865206f776e6572\n        /* \"#utility.yul\":18556:18557   */\n      0x00\n        /* \"#utility.yul\":18548:18554   */\n      dup3\n        /* \"#utility.yul\":18544:18558   */\n      add\n        /* \"#utility.yul\":18537:18595   */\n      mstore\n        /* \"#utility.yul\":18420:18602   */\n      pop\n      jump\t// out\n        /* \"#utility.yul\":18608:18974   */\n    tag_193:\n        /* \"#utility.yul\":18750:18753   */\n      0x00\n        /* \"#utility.yul\":18771:18838   */\n      tag_343\n        /* \"#utility.yul\":18835:18837   */\n      0x20\n        /* \"#utility.yul\":18830:18833   */\n      dup4\n        /* \"#utility.yul\":18771:18838   */\n      tag_160\n      jump\t// in\n    tag_343:\n        /* \"#utility.yul\":18764:18838   */\n      swap2\n      pop\n        /* \"#utility.yul\":18847:18940   */\n      tag_344\n        /* \"#utility.yul\":18936:18939   */\n      dup3\n        /* \"#utility.yul\":18847:18940   */\n      tag_192\n      jump\t// in\n    tag_344:\n        /* \"#utility.yul\":18965:18967   */\n      0x20\n        /* \"#utility.yul\":18960:18963   */\n      dup3\n        /* \"#utility.yul\":18956:18968   */\n      add\n        /* \"#utility.yul\":18949:18968   */\n      swap1\n      pop\n        /* \"#utility.yul\":18608:18974   */\n      swap2\n      swap1\n      pop\n      jump\t// out\n        /* \"#utility.yul\":18980:19399   */\n    tag_140:\n        /* \"#utility.yul\":19146:19150   */\n      0x00\n        /* \"#utility.yul\":19184:19186   */\n      0x20\n        /* \"#utility.yul\":19173:19182   */\n      dup3\n        /* \"#utility.yul\":19169:19187   */\n      add\n        /* \"#utility.yul\":19161:19187   */\n      swap1\n      pop\n        /* \"#utility.yul\":19233:19242   */\n      dup2\n        /* \"#utility.yul\":19227:19231   */\n      dup2\n        /* \"#utility.yul\":19223:19243   */\n      sub\n        /* \"#utility.yul\":19219:19220   */\n      0x00\n        /* \"#utility.yul\":19208:19217   */\n      dup4\n        /* \"#utility.yul\":19204:19221   */\n      add\n        /* \"#utility.yul\":19197:19244   */\n      mstore\n        /* \"#utility.yul\":19261:19392   */\n      tag_346\n        /* \"#utility.yul\":19387:19391   */\n      dup2\n        /* \"#utility.yul\":19261:19392   */\n      tag_193\n      jump\t// in\n    tag_346:\n        /* \"#utility.yul\":19253:19392   */\n      swap1\n      pop\n        /* \"#utility.yul\":18980:19399   */\n      swap2\n      swap1\n      pop\n      jump\t// out\n\n    auxdata: 0xa264697066735822122030dcdddf90f208eb6132e9b7d2755e9e9a15ead67f2a48cd1f20814a4ad0c4a664736f6c63430008090033\n}\n",
				"bytecode": {
					"linkReferences": {},
					"object": "60806040523480156200001157600080fd5b50604051620018ef380380620018ef8339818101604052810190620000379190620002c1565b620000576200004b6200018b60201b60201c565b6200019360201b60201c565b81600160006101000a81548173ffffffffffffffffffffffffffffffffffffffff021916908373ffffffffffffffffffffffffffffffffffffffff16021790555080600260006101000a81548173ffffffffffffffffffffffffffffffffffffffff021916908373ffffffffffffffffffffffffffffffffffffffff160217905550600260009054906101000a900473ffffffffffffffffffffffffffffffffffffffff1673ffffffffffffffffffffffffffffffffffffffff166398d5fdca6040518163ffffffff1660e01b815260040160206040518083038186803b1580156200014257600080fd5b505afa15801562000157573d6000803e3d6000fd5b505050506040513d601f19601f820116820180604052508101906200017d919062000343565b600381905550505062000375565b600033905090565b60008060009054906101000a900473ffffffffffffffffffffffffffffffffffffffff169050816000806101000a81548173ffffffffffffffffffffffffffffffffffffffff021916908373ffffffffffffffffffffffffffffffffffffffff1602179055508173ffffffffffffffffffffffffffffffffffffffff168173ffffffffffffffffffffffffffffffffffffffff167f8be0079c531659141344cd1fd0a4f28419497f9722a3daafe3b4186f6b6457e060405160405180910390a35050565b600080fd5b600073ffffffffffffffffffffffffffffffffffffffff82169050919050565b600062000289826200025c565b9050919050565b6200029b816200027c565b8114620002a757600080fd5b50565b600081519050620002bb8162000290565b92915050565b60008060408385031215620002db57620002da62000257565b5b6000620002eb85828601620002aa565b9250506020620002fe85828601620002aa565b9150509250929050565b6000819050919050565b6200031d8162000308565b81146200032957600080fd5b50565b6000815190506200033d8162000312565b92915050565b6000602082840312156200035c576200035b62000257565b5b60006200036c848285016200032c565b91505092915050565b61156a80620003856000396000f3fe6080604052600436106100745760003560e01c80638da5cb5b1161004e5780638da5cb5b146100d7578063cbdd69b514610102578063d0febe4c1461012d578063f2fde38b1461014b5761007b565b80633ccfd60b146100805780636c11bcd314610097578063715018a6146100c05761007b565b3661007b57005b600080fd5b34801561008c57600080fd5b50610095610174565b005b3480156100a357600080fd5b506100be60048036038101906100b99190610b6a565b610274565b005b3480156100cc57600080fd5b506100d56105ee565b005b3480156100e357600080fd5b506100ec610602565b6040516100f99190610bd8565b60405180910390f35b34801561010e57600080fd5b5061011761062b565b6040516101249190610c02565b60405180910390f35b610135610631565b6040516101429190610c02565b60405180910390f35b34801561015757600080fd5b50610172600480360381019061016d9190610c49565b6108b9565b005b61017c61093d565b6000479050600081116101c4576040517f08c379a00000000000000000000000000000000000000000000000000000000081526004016101bb90610cf9565b60405180910390fd5b60003373ffffffffffffffffffffffffffffffffffffffff16476040516101ea90610d4a565b60006040518083038185875af1925050503d8060008114610227576040519150601f19603f3d011682016040523d82523d6000602084013e61022c565b606091505b5050905080610270576040517f08c379a000000000000000000000000000000000000000000000000000000000815260040161026790610dd1565b60405180910390fd5b5050565b61027c6109bb565b600081116102bf576040517f08c379a00000000000000000000000000000000000000000000000000000000081526004016102b690610e63565b60405180910390fd5b6000600160009054906101000a900473ffffffffffffffffffffffffffffffffffffffff1673ffffffffffffffffffffffffffffffffffffffff166370a08231336040518263ffffffff1660e01b815260040161031c9190610bd8565b60206040518083038186803b15801561033457600080fd5b505afa158015610348573d6000803e3d6000fd5b505050506040513d601f19601f8201168201806040525081019061036c9190610e98565b9050818110156103b1576040517f08c379a00000000000000000000000000000000000000000000000000000000081526004016103a890610f37565b60405180910390fd5b6000600354836103c19190610fb5565b905060004790508181101561040b576040517f08c379a000000000000000000000000000000000000000000000000000000000815260040161040290611058565b60405180910390fd5b6000600160009054906101000a900473ffffffffffffffffffffffffffffffffffffffff1673ffffffffffffffffffffffffffffffffffffffff166323b872dd3330886040518463ffffffff1660e01b815260040161046c93929190611078565b602060405180830381600087803b15801561048657600080fd5b505af115801561049a573d6000803e3d6000fd5b505050506040513d601f19601f820116820180604052508101906104be91906110e7565b905080610500576040517f08c379a00000000000000000000000000000000000000000000000000000000081526004016104f790611186565b60405180910390fd5b3373ffffffffffffffffffffffffffffffffffffffff168360405161052490610d4a565b60006040518083038185875af1925050503d8060008114610561576040519150601f19603f3d011682016040523d82523d6000602084013e610566565b606091505b505080915050806105ac576040517f08c379a00000000000000000000000000000000000000000000000000000000081526004016105a3906111f2565b60405180910390fd5b7fa24838acd4af5195a2396965dae5abf54e84e8c19f5698bb966ae64e29994ee53386856040516105df93929190611212565b60405180910390a15050505050565b6105f661093d565b6106006000610a63565b565b60008060009054906101000a900473ffffffffffffffffffffffffffffffffffffffff16905090565b60035481565b600061063b6109bb565b6000341161067e576040517f08c379a000000000000000000000000000000000000000000000000000000000815260040161067590611295565b60405180910390fd5b60006003543461068e91906112b5565b90506000600160009054906101000a900473ffffffffffffffffffffffffffffffffffffffff1673ffffffffffffffffffffffffffffffffffffffff166370a08231306040518263ffffffff1660e01b81526004016106ed9190610bd8565b60206040518083038186803b15801561070557600080fd5b505afa158015610719573d6000803e3d6000fd5b505050506040513d601f19601f8201168201806040525081019061073d9190610e98565b905081811015610782576040517f08c379a000000000000000000000000000000000000000000000000000000000815260040161077990611381565b60405180910390fd5b6000600160009054906101000a900473ffffffffffffffffffffffffffffffffffffffff1673ffffffffffffffffffffffffffffffffffffffff1663a9059cbb33856040518363ffffffff1660e01b81526004016107e19291906113a1565b602060405180830381600087803b1580156107fb57600080fd5b505af115801561080f573d6000803e3d6000fd5b505050506040513d601f19601f8201168201806040525081019061083391906110e7565b905080610875576040517f08c379a000000000000000000000000000000000000000000000000000000000815260040161086c90611416565b60405180910390fd5b7f0a37b72bb67eee30e09084cf386f8a17817c57f620c3ab95fb25d6a20356ec773334856040516108a893929190611212565b60405180910390a182935050505090565b6108c161093d565b600073ffffffffffffffffffffffffffffffffffffffff168173ffffffffffffffffffffffffffffffffffffffff161415610931576040517f08c379a0000000000000000000000000000000000000000000000000000000008152600401610928906114a8565b60405180910390fd5b61093a81610a63565b50565b610945610b27565b73ffffffffffffffffffffffffffffffffffffffff16610963610602565b73ffffffffffffffffffffffffffffffffffffffff16146109b9576040517f08c379a00000000000000000000000000000000000000000000000000000000081526004016109b090611514565b60405180910390fd5b565b600260009054906101000a900473ffffffffffffffffffffffffffffffffffffffff1673ffffffffffffffffffffffffffffffffffffffff166398d5fdca6040518163ffffffff1660e01b815260040160206040518083038186803b158015610a2357600080fd5b505afa158015610a37573d6000803e3d6000fd5b505050506040513d601f19601f82011682018060405250810190610a5b9190610e98565b600381905550565b60008060009054906101000a900473ffffffffffffffffffffffffffffffffffffffff169050816000806101000a81548173ffffffffffffffffffffffffffffffffffffffff021916908373ffffffffffffffffffffffffffffffffffffffff1602179055508173ffffffffffffffffffffffffffffffffffffffff168173ffffffffffffffffffffffffffffffffffffffff167f8be0079c531659141344cd1fd0a4f28419497f9722a3daafe3b4186f6b6457e060405160405180910390a35050565b600033905090565b600080fd5b6000819050919050565b610b4781610b34565b8114610b5257600080fd5b50565b600081359050610b6481610b3e565b92915050565b600060208284031215610b8057610b7f610b2f565b5b6000610b8e84828501610b55565b91505092915050565b600073ffffffffffffffffffffffffffffffffffffffff82169050919050565b6000610bc282610b97565b9050919050565b610bd281610bb7565b82525050565b6000602082019050610bed6000830184610bc9565b92915050565b610bfc81610b34565b82525050565b6000602082019050610c176000830184610bf3565b92915050565b610c2681610bb7565b8114610c3157600080fd5b50565b600081359050610c4381610c1d565b92915050565b600060208284031215610c5f57610c5e610b2f565b5b6000610c6d84828501610c34565b91505092915050565b600082825260208201905092915050565b7f4f776e657220686173206e6f742062616c616e636520746f207769746864726160008201527f7700000000000000000000000000000000000000000000000000000000000000602082015250565b6000610ce3602183610c76565b9150610cee82610c87565b604082019050919050565b60006020820190508181036000830152610d1281610cd6565b9050919050565b600081905092915050565b50565b6000610d34600083610d19565b9150610d3f82610d24565b600082019050919050565b6000610d5582610d27565b9150819050919050565b7f4661696c656420746f2073656e6420757365722062616c616e6365206261636b60008201527f20746f20746865206f776e657200000000000000000000000000000000000000602082015250565b6000610dbb602d83610c76565b9150610dc682610d5f565b604082019050919050565b60006020820190508181036000830152610dea81610dae565b9050919050565b7f5370656369667920616e20616d6f756e74206f6620746f6b656e20677265617460008201527f6572207468616e207a65726f0000000000000000000000000000000000000000602082015250565b6000610e4d602c83610c76565b9150610e5882610df1565b604082019050919050565b60006020820190508181036000830152610e7c81610e40565b9050919050565b600081519050610e9281610b3e565b92915050565b600060208284031215610eae57610ead610b2f565b5b6000610ebc84828501610e83565b91505092915050565b7f596f75722062616c616e6365206973206c6f776572207468616e20746865206160008201527f6d6f756e74206f6620746f6b656e7320796f752077616e7420746f2073656c6c602082015250565b6000610f21604083610c76565b9150610f2c82610ec5565b604082019050919050565b60006020820190508181036000830152610f5081610f14565b9050919050565b7f4e487b7100000000000000000000000000000000000000000000000000000000600052601260045260246000fd5b7f4e487b7100000000000000000000000000000000000000000000000000000000600052601160045260246000fd5b6000610fc082610b34565b9150610fcb83610b34565b925082610fdb57610fda610f57565b5b828204905092915050565b7f56656e646f7220686173206e6f7420656e6f7567682066756e647320746f206160008201527f6363657074207468652073656c6c207265717565737400000000000000000000602082015250565b6000611042603683610c76565b915061104d82610fe6565b604082019050919050565b6000602082019050818103600083015261107181611035565b9050919050565b600060608201905061108d6000830186610bc9565b61109a6020830185610bc9565b6110a76040830184610bf3565b949350505050565b60008115159050919050565b6110c4816110af565b81146110cf57600080fd5b50565b6000815190506110e1816110bb565b92915050565b6000602082840312156110fd576110fc610b2f565b5b600061110b848285016110d2565b91505092915050565b7f4661696c656420746f207472616e7366657220746f6b656e732066726f6d207560008201527f73657220746f2076656e646f7200000000000000000000000000000000000000602082015250565b6000611170602d83610c76565b915061117b82611114565b604082019050919050565b6000602082019050818103600083015261119f81611163565b9050919050565b7f4661696c656420746f2073656e642045544820746f2074686520757365720000600082015250565b60006111dc601e83610c76565b91506111e7826111a6565b602082019050919050565b6000602082019050818103600083015261120b816111cf565b9050919050565b60006060820190506112276000830186610bc9565b6112346020830185610bf3565b6112416040830184610bf3565b949350505050565b7f53656e642045544820746f2062757920736f6d6520746f6b656e730000000000600082015250565b600061127f601b83610c76565b915061128a82611249565b602082019050919050565b600060208201905081810360008301526112ae81611272565b9050919050565b60006112c082610b34565b91506112cb83610b34565b9250817fffffffffffffffffffffffffffffffffffffffffffffffffffffffffffffffff048311821515161561130457611303610f86565b5b828202905092915050565b7f56656e646f7220636f6e747261637420686173206e6f7420656e6f756768207460008201527f6f6b656e7320696e206974732062616c616e6365000000000000000000000000602082015250565b600061136b603483610c76565b91506113768261130f565b604082019050919050565b6000602082019050818103600083015261139a8161135e565b9050919050565b60006040820190506113b66000830185610bc9565b6113c36020830184610bf3565b9392505050565b7f4661696c656420746f207472616e7366657220746f6b656e20746f2075736572600082015250565b6000611400602083610c76565b915061140b826113ca565b602082019050919050565b6000602082019050818103600083015261142f816113f3565b9050919050565b7f4f776e61626c653a206e6577206f776e657220697320746865207a65726f206160008201527f6464726573730000000000000000000000000000000000000000000000000000602082015250565b6000611492602683610c76565b915061149d82611436565b604082019050919050565b600060208201905081810360008301526114c181611485565b9050919050565b7f4f776e61626c653a2063616c6c6572206973206e6f7420746865206f776e6572600082015250565b60006114fe602083610c76565b9150611509826114c8565b602082019050919050565b6000602082019050818103600083015261152d816114f1565b905091905056fea264697066735822122030dcdddf90f208eb6132e9b7d2755e9e9a15ead67f2a48cd1f20814a4ad0c4a664736f6c63430008090033",
					"opcodes": "PUSH1 0x80 PUSH1 0x40 MSTORE CALLVALUE DUP1 ISZERO PUSH3 0x11 JUMPI PUSH1 0x0 DUP1 REVERT JUMPDEST POP PUSH1 0x40 MLOAD PUSH3 0x18EF CODESIZE SUB DUP1 PUSH3 0x18EF DUP4 CODECOPY DUP2 DUP2 ADD PUSH1 0x40 MSTORE DUP2 ADD SWAP1 PUSH3 0x37 SWAP2 SWAP1 PUSH3 0x2C1 JUMP JUMPDEST PUSH3 0x57 PUSH3 0x4B PUSH3 0x18B PUSH1 0x20 SHL PUSH1 0x20 SHR JUMP JUMPDEST PUSH3 0x193 PUSH1 0x20 SHL PUSH1 0x20 SHR JUMP JUMPDEST DUP2 PUSH1 0x1 PUSH1 0x0 PUSH2 0x100 EXP DUP2 SLOAD DUP2 PUSH20 0xFFFFFFFFFFFFFFFFFFFFFFFFFFFFFFFFFFFFFFFF MUL NOT AND SWAP1 DUP4 PUSH20 0xFFFFFFFFFFFFFFFFFFFFFFFFFFFFFFFFFFFFFFFF AND MUL OR SWAP1 SSTORE POP DUP1 PUSH1 0x2 PUSH1 0x0 PUSH2 0x100 EXP DUP2 SLOAD DUP2 PUSH20 0xFFFFFFFFFFFFFFFFFFFFFFFFFFFFFFFFFFFFFFFF MUL NOT AND SWAP1 DUP4 PUSH20 0xFFFFFFFFFFFFFFFFFFFFFFFFFFFFFFFFFFFFFFFF AND MUL OR SWAP1 SSTORE POP PUSH1 0x2 PUSH1 0x0 SWAP1 SLOAD SWAP1 PUSH2 0x100 EXP SWAP1 DIV PUSH20 0xFFFFFFFFFFFFFFFFFFFFFFFFFFFFFFFFFFFFFFFF AND PUSH20 0xFFFFFFFFFFFFFFFFFFFFFFFFFFFFFFFFFFFFFFFF AND PUSH4 0x98D5FDCA PUSH1 0x40 MLOAD DUP2 PUSH4 0xFFFFFFFF AND PUSH1 0xE0 SHL DUP2 MSTORE PUSH1 0x4 ADD PUSH1 0x20 PUSH1 0x40 MLOAD DUP1 DUP4 SUB DUP2 DUP7 DUP1 EXTCODESIZE ISZERO DUP1 ISZERO PUSH3 0x142 JUMPI PUSH1 0x0 DUP1 REVERT JUMPDEST POP GAS STATICCALL ISZERO DUP1 ISZERO PUSH3 0x157 JUMPI RETURNDATASIZE PUSH1 0x0 DUP1 RETURNDATACOPY RETURNDATASIZE PUSH1 0x0 REVERT JUMPDEST POP POP POP POP PUSH1 0x40 MLOAD RETURNDATASIZE PUSH1 0x1F NOT PUSH1 0x1F DUP3 ADD AND DUP3 ADD DUP1 PUSH1 0x40 MSTORE POP DUP2 ADD SWAP1 PUSH3 0x17D SWAP2 SWAP1 PUSH3 0x343 JUMP JUMPDEST PUSH1 0x3 DUP2 SWAP1 SSTORE POP POP POP PUSH3 0x375 JUMP JUMPDEST PUSH1 0x0 CALLER SWAP1 POP SWAP1 JUMP JUMPDEST PUSH1 0x0 DUP1 PUSH1 0x0 SWAP1 SLOAD SWAP1 PUSH2 0x100 EXP SWAP1 DIV PUSH20 0xFFFFFFFFFFFFFFFFFFFFFFFFFFFFFFFFFFFFFFFF AND SWAP1 POP DUP2 PUSH1 0x0 DUP1 PUSH2 0x100 EXP DUP2 SLOAD DUP2 PUSH20 0xFFFFFFFFFFFFFFFFFFFFFFFFFFFFFFFFFFFFFFFF MUL NOT AND SWAP1 DUP4 PUSH20 0xFFFFFFFFFFFFFFFFFFFFFFFFFFFFFFFFFFFFFFFF AND MUL OR SWAP1 SSTORE POP DUP2 PUSH20 0xFFFFFFFFFFFFFFFFFFFFFFFFFFFFFFFFFFFFFFFF AND DUP2 PUSH20 0xFFFFFFFFFFFFFFFFFFFFFFFFFFFFFFFFFFFFFFFF AND PUSH32 0x8BE0079C531659141344CD1FD0A4F28419497F9722A3DAAFE3B4186F6B6457E0 PUSH1 0x40 MLOAD PUSH1 0x40 MLOAD DUP1 SWAP2 SUB SWAP1 LOG3 POP POP JUMP JUMPDEST PUSH1 0x0 DUP1 REVERT JUMPDEST PUSH1 0x0 PUSH20 0xFFFFFFFFFFFFFFFFFFFFFFFFFFFFFFFFFFFFFFFF DUP3 AND SWAP1 POP SWAP2 SWAP1 POP JUMP JUMPDEST PUSH1 0x0 PUSH3 0x289 DUP3 PUSH3 0x25C JUMP JUMPDEST SWAP1 POP SWAP2 SWAP1 POP JUMP JUMPDEST PUSH3 0x29B DUP2 PUSH3 0x27C JUMP JUMPDEST DUP2 EQ PUSH3 0x2A7 JUMPI PUSH1 0x0 DUP1 REVERT JUMPDEST POP JUMP JUMPDEST PUSH1 0x0 DUP2 MLOAD SWAP1 POP PUSH3 0x2BB DUP2 PUSH3 0x290 JUMP JUMPDEST SWAP3 SWAP2 POP POP JUMP JUMPDEST PUSH1 0x0 DUP1 PUSH1 0x40 DUP4 DUP6 SUB SLT ISZERO PUSH3 0x2DB JUMPI PUSH3 0x2DA PUSH3 0x257 JUMP JUMPDEST JUMPDEST PUSH1 0x0 PUSH3 0x2EB DUP6 DUP3 DUP7 ADD PUSH3 0x2AA JUMP JUMPDEST SWAP3 POP POP PUSH1 0x20 PUSH3 0x2FE DUP6 DUP3 DUP7 ADD PUSH3 0x2AA JUMP JUMPDEST SWAP2 POP POP SWAP3 POP SWAP3 SWAP1 POP JUMP JUMPDEST PUSH1 0x0 DUP2 SWAP1 POP SWAP2 SWAP1 POP JUMP JUMPDEST PUSH3 0x31D DUP2 PUSH3 0x308 JUMP JUMPDEST DUP2 EQ PUSH3 0x329 JUMPI PUSH1 0x0 DUP1 REVERT JUMPDEST POP JUMP JUMPDEST PUSH1 0x0 DUP2 MLOAD SWAP1 POP PUSH3 0x33D DUP2 PUSH3 0x312 JUMP JUMPDEST SWAP3 SWAP2 POP POP JUMP JUMPDEST PUSH1 0x0 PUSH1 0x20 DUP3 DUP5 SUB SLT ISZERO PUSH3 0x35C JUMPI PUSH3 0x35B PUSH3 0x257 JUMP JUMPDEST JUMPDEST PUSH1 0x0 PUSH3 0x36C DUP5 DUP3 DUP6 ADD PUSH3 0x32C JUMP JUMPDEST SWAP2 POP POP SWAP3 SWAP2 POP POP JUMP JUMPDEST PUSH2 0x156A DUP1 PUSH3 0x385 PUSH1 0x0 CODECOPY PUSH1 0x0 RETURN INVALID PUSH1 0x80 PUSH1 0x40 MSTORE PUSH1 0x4 CALLDATASIZE LT PUSH2 0x74 JUMPI PUSH1 0x0 CALLDATALOAD PUSH1 0xE0 SHR DUP1 PUSH4 0x8DA5CB5B GT PUSH2 0x4E JUMPI DUP1 PUSH4 0x8DA5CB5B EQ PUSH2 0xD7 JUMPI DUP1 PUSH4 0xCBDD69B5 EQ PUSH2 0x102 JUMPI DUP1 PUSH4 0xD0FEBE4C EQ PUSH2 0x12D JUMPI DUP1 PUSH4 0xF2FDE38B EQ PUSH2 0x14B JUMPI PUSH2 0x7B JUMP JUMPDEST DUP1 PUSH4 0x3CCFD60B EQ PUSH2 0x80 JUMPI DUP1 PUSH4 0x6C11BCD3 EQ PUSH2 0x97 JUMPI DUP1 PUSH4 0x715018A6 EQ PUSH2 0xC0 JUMPI PUSH2 0x7B JUMP JUMPDEST CALLDATASIZE PUSH2 0x7B JUMPI STOP JUMPDEST PUSH1 0x0 DUP1 REVERT JUMPDEST CALLVALUE DUP1 ISZERO PUSH2 0x8C JUMPI PUSH1 0x0 DUP1 REVERT JUMPDEST POP PUSH2 0x95 PUSH2 0x174 JUMP JUMPDEST STOP JUMPDEST CALLVALUE DUP1 ISZERO PUSH2 0xA3 JUMPI PUSH1 0x0 DUP1 REVERT JUMPDEST POP PUSH2 0xBE PUSH1 0x4 DUP1 CALLDATASIZE SUB DUP2 ADD SWAP1 PUSH2 0xB9 SWAP2 SWAP1 PUSH2 0xB6A JUMP JUMPDEST PUSH2 0x274 JUMP JUMPDEST STOP JUMPDEST CALLVALUE DUP1 ISZERO PUSH2 0xCC JUMPI PUSH1 0x0 DUP1 REVERT JUMPDEST POP PUSH2 0xD5 PUSH2 0x5EE JUMP JUMPDEST STOP JUMPDEST CALLVALUE DUP1 ISZERO PUSH2 0xE3 JUMPI PUSH1 0x0 DUP1 REVERT JUMPDEST POP PUSH2 0xEC PUSH2 0x602 JUMP JUMPDEST PUSH1 0x40 MLOAD PUSH2 0xF9 SWAP2 SWAP1 PUSH2 0xBD8 JUMP JUMPDEST PUSH1 0x40 MLOAD DUP1 SWAP2 SUB SWAP1 RETURN JUMPDEST CALLVALUE DUP1 ISZERO PUSH2 0x10E JUMPI PUSH1 0x0 DUP1 REVERT JUMPDEST POP PUSH2 0x117 PUSH2 0x62B JUMP JUMPDEST PUSH1 0x40 MLOAD PUSH2 0x124 SWAP2 SWAP1 PUSH2 0xC02 JUMP JUMPDEST PUSH1 0x40 MLOAD DUP1 SWAP2 SUB SWAP1 RETURN JUMPDEST PUSH2 0x135 PUSH2 0x631 JUMP JUMPDEST PUSH1 0x40 MLOAD PUSH2 0x142 SWAP2 SWAP1 PUSH2 0xC02 JUMP JUMPDEST PUSH1 0x40 MLOAD DUP1 SWAP2 SUB SWAP1 RETURN JUMPDEST CALLVALUE DUP1 ISZERO PUSH2 0x157 JUMPI PUSH1 0x0 DUP1 REVERT JUMPDEST POP PUSH2 0x172 PUSH1 0x4 DUP1 CALLDATASIZE SUB DUP2 ADD SWAP1 PUSH2 0x16D SWAP2 SWAP1 PUSH2 0xC49 JUMP JUMPDEST PUSH2 0x8B9 JUMP JUMPDEST STOP JUMPDEST PUSH2 0x17C PUSH2 0x93D JUMP JUMPDEST PUSH1 0x0 SELFBALANCE SWAP1 POP PUSH1 0x0 DUP2 GT PUSH2 0x1C4 JUMPI PUSH1 0x40 MLOAD PUSH32 0x8C379A000000000000000000000000000000000000000000000000000000000 DUP2 MSTORE PUSH1 0x4 ADD PUSH2 0x1BB SWAP1 PUSH2 0xCF9 JUMP JUMPDEST PUSH1 0x40 MLOAD DUP1 SWAP2 SUB SWAP1 REVERT JUMPDEST PUSH1 0x0 CALLER PUSH20 0xFFFFFFFFFFFFFFFFFFFFFFFFFFFFFFFFFFFFFFFF AND SELFBALANCE PUSH1 0x40 MLOAD PUSH2 0x1EA SWAP1 PUSH2 0xD4A JUMP JUMPDEST PUSH1 0x0 PUSH1 0x40 MLOAD DUP1 DUP4 SUB DUP2 DUP6 DUP8 GAS CALL SWAP3 POP POP POP RETURNDATASIZE DUP1 PUSH1 0x0 DUP2 EQ PUSH2 0x227 JUMPI PUSH1 0x40 MLOAD SWAP2 POP PUSH1 0x1F NOT PUSH1 0x3F RETURNDATASIZE ADD AND DUP3 ADD PUSH1 0x40 MSTORE RETURNDATASIZE DUP3 MSTORE RETURNDATASIZE PUSH1 0x0 PUSH1 0x20 DUP5 ADD RETURNDATACOPY PUSH2 0x22C JUMP JUMPDEST PUSH1 0x60 SWAP2 POP JUMPDEST POP POP SWAP1 POP DUP1 PUSH2 0x270 JUMPI PUSH1 0x40 MLOAD PUSH32 0x8C379A000000000000000000000000000000000000000000000000000000000 DUP2 MSTORE PUSH1 0x4 ADD PUSH2 0x267 SWAP1 PUSH2 0xDD1 JUMP JUMPDEST PUSH1 0x40 MLOAD DUP1 SWAP2 SUB SWAP1 REVERT JUMPDEST POP POP JUMP JUMPDEST PUSH2 0x27C PUSH2 0x9BB JUMP JUMPDEST PUSH1 0x0 DUP2 GT PUSH2 0x2BF JUMPI PUSH1 0x40 MLOAD PUSH32 0x8C379A000000000000000000000000000000000000000000000000000000000 DUP2 MSTORE PUSH1 0x4 ADD PUSH2 0x2B6 SWAP1 PUSH2 0xE63 JUMP JUMPDEST PUSH1 0x40 MLOAD DUP1 SWAP2 SUB SWAP1 REVERT JUMPDEST PUSH1 0x0 PUSH1 0x1 PUSH1 0x0 SWAP1 SLOAD SWAP1 PUSH2 0x100 EXP SWAP1 DIV PUSH20 0xFFFFFFFFFFFFFFFFFFFFFFFFFFFFFFFFFFFFFFFF AND PUSH20 0xFFFFFFFFFFFFFFFFFFFFFFFFFFFFFFFFFFFFFFFF AND PUSH4 0x70A08231 CALLER PUSH1 0x40 MLOAD DUP3 PUSH4 0xFFFFFFFF AND PUSH1 0xE0 SHL DUP2 MSTORE PUSH1 0x4 ADD PUSH2 0x31C SWAP2 SWAP1 PUSH2 0xBD8 JUMP JUMPDEST PUSH1 0x20 PUSH1 0x40 MLOAD DUP1 DUP4 SUB DUP2 DUP7 DUP1 EXTCODESIZE ISZERO DUP1 ISZERO PUSH2 0x334 JUMPI PUSH1 0x0 DUP1 REVERT JUMPDEST POP GAS STATICCALL ISZERO DUP1 ISZERO PUSH2 0x348 JUMPI RETURNDATASIZE PUSH1 0x0 DUP1 RETURNDATACOPY RETURNDATASIZE PUSH1 0x0 REVERT JUMPDEST POP POP POP POP PUSH1 0x40 MLOAD RETURNDATASIZE PUSH1 0x1F NOT PUSH1 0x1F DUP3 ADD AND DUP3 ADD DUP1 PUSH1 0x40 MSTORE POP DUP2 ADD SWAP1 PUSH2 0x36C SWAP2 SWAP1 PUSH2 0xE98 JUMP JUMPDEST SWAP1 POP DUP2 DUP2 LT ISZERO PUSH2 0x3B1 JUMPI PUSH1 0x40 MLOAD PUSH32 0x8C379A000000000000000000000000000000000000000000000000000000000 DUP2 MSTORE PUSH1 0x4 ADD PUSH2 0x3A8 SWAP1 PUSH2 0xF37 JUMP JUMPDEST PUSH1 0x40 MLOAD DUP1 SWAP2 SUB SWAP1 REVERT JUMPDEST PUSH1 0x0 PUSH1 0x3 SLOAD DUP4 PUSH2 0x3C1 SWAP2 SWAP1 PUSH2 0xFB5 JUMP JUMPDEST SWAP1 POP PUSH1 0x0 SELFBALANCE SWAP1 POP DUP2 DUP2 LT ISZERO PUSH2 0x40B JUMPI PUSH1 0x40 MLOAD PUSH32 0x8C379A000000000000000000000000000000000000000000000000000000000 DUP2 MSTORE PUSH1 0x4 ADD PUSH2 0x402 SWAP1 PUSH2 0x1058 JUMP JUMPDEST PUSH1 0x40 MLOAD DUP1 SWAP2 SUB SWAP1 REVERT JUMPDEST PUSH1 0x0 PUSH1 0x1 PUSH1 0x0 SWAP1 SLOAD SWAP1 PUSH2 0x100 EXP SWAP1 DIV PUSH20 0xFFFFFFFFFFFFFFFFFFFFFFFFFFFFFFFFFFFFFFFF AND PUSH20 0xFFFFFFFFFFFFFFFFFFFFFFFFFFFFFFFFFFFFFFFF AND PUSH4 0x23B872DD CALLER ADDRESS DUP9 PUSH1 0x40 MLOAD DUP5 PUSH4 0xFFFFFFFF AND PUSH1 0xE0 SHL DUP2 MSTORE PUSH1 0x4 ADD PUSH2 0x46C SWAP4 SWAP3 SWAP2 SWAP1 PUSH2 0x1078 JUMP JUMPDEST PUSH1 0x20 PUSH1 0x40 MLOAD DUP1 DUP4 SUB DUP2 PUSH1 0x0 DUP8 DUP1 EXTCODESIZE ISZERO DUP1 ISZERO PUSH2 0x486 JUMPI PUSH1 0x0 DUP1 REVERT JUMPDEST POP GAS CALL ISZERO DUP1 ISZERO PUSH2 0x49A JUMPI RETURNDATASIZE PUSH1 0x0 DUP1 RETURNDATACOPY RETURNDATASIZE PUSH1 0x0 REVERT JUMPDEST POP POP POP POP PUSH1 0x40 MLOAD RETURNDATASIZE PUSH1 0x1F NOT PUSH1 0x1F DUP3 ADD AND DUP3 ADD DUP1 PUSH1 0x40 MSTORE POP DUP2 ADD SWAP1 PUSH2 0x4BE SWAP2 SWAP1 PUSH2 0x10E7 JUMP JUMPDEST SWAP1 POP DUP1 PUSH2 0x500 JUMPI PUSH1 0x40 MLOAD PUSH32 0x8C379A000000000000000000000000000000000000000000000000000000000 DUP2 MSTORE PUSH1 0x4 ADD PUSH2 0x4F7 SWAP1 PUSH2 0x1186 JUMP JUMPDEST PUSH1 0x40 MLOAD DUP1 SWAP2 SUB SWAP1 REVERT JUMPDEST CALLER PUSH20 0xFFFFFFFFFFFFFFFFFFFFFFFFFFFFFFFFFFFFFFFF AND DUP4 PUSH1 0x40 MLOAD PUSH2 0x524 SWAP1 PUSH2 0xD4A JUMP JUMPDEST PUSH1 0x0 PUSH1 0x40 MLOAD DUP1 DUP4 SUB DUP2 DUP6 DUP8 GAS CALL SWAP3 POP POP POP RETURNDATASIZE DUP1 PUSH1 0x0 DUP2 EQ PUSH2 0x561 JUMPI PUSH1 0x40 MLOAD SWAP2 POP PUSH1 0x1F NOT PUSH1 0x3F RETURNDATASIZE ADD AND DUP3 ADD PUSH1 0x40 MSTORE RETURNDATASIZE DUP3 MSTORE RETURNDATASIZE PUSH1 0x0 PUSH1 0x20 DUP5 ADD RETURNDATACOPY PUSH2 0x566 JUMP JUMPDEST PUSH1 0x60 SWAP2 POP JUMPDEST POP POP DUP1 SWAP2 POP POP DUP1 PUSH2 0x5AC JUMPI PUSH1 0x40 MLOAD PUSH32 0x8C379A000000000000000000000000000000000000000000000000000000000 DUP2 MSTORE PUSH1 0x4 ADD PUSH2 0x5A3 SWAP1 PUSH2 0x11F2 JUMP JUMPDEST PUSH1 0x40 MLOAD DUP1 SWAP2 SUB SWAP1 REVERT JUMPDEST PUSH32 0xA24838ACD4AF5195A2396965DAE5ABF54E84E8C19F5698BB966AE64E29994EE5 CALLER DUP7 DUP6 PUSH1 0x40 MLOAD PUSH2 0x5DF SWAP4 SWAP3 SWAP2 SWAP1 PUSH2 0x1212 JUMP JUMPDEST PUSH1 0x40 MLOAD DUP1 SWAP2 SUB SWAP1 LOG1 POP POP POP POP POP JUMP JUMPDEST PUSH2 0x5F6 PUSH2 0x93D JUMP JUMPDEST PUSH2 0x600 PUSH1 0x0 PUSH2 0xA63 JUMP JUMPDEST JUMP JUMPDEST PUSH1 0x0 DUP1 PUSH1 0x0 SWAP1 SLOAD SWAP1 PUSH2 0x100 EXP SWAP1 DIV PUSH20 0xFFFFFFFFFFFFFFFFFFFFFFFFFFFFFFFFFFFFFFFF AND SWAP1 POP SWAP1 JUMP JUMPDEST PUSH1 0x3 SLOAD DUP2 JUMP JUMPDEST PUSH1 0x0 PUSH2 0x63B PUSH2 0x9BB JUMP JUMPDEST PUSH1 0x0 CALLVALUE GT PUSH2 0x67E JUMPI PUSH1 0x40 MLOAD PUSH32 0x8C379A000000000000000000000000000000000000000000000000000000000 DUP2 MSTORE PUSH1 0x4 ADD PUSH2 0x675 SWAP1 PUSH2 0x1295 JUMP JUMPDEST PUSH1 0x40 MLOAD DUP1 SWAP2 SUB SWAP1 REVERT JUMPDEST PUSH1 0x0 PUSH1 0x3 SLOAD CALLVALUE PUSH2 0x68E SWAP2 SWAP1 PUSH2 0x12B5 JUMP JUMPDEST SWAP1 POP PUSH1 0x0 PUSH1 0x1 PUSH1 0x0 SWAP1 SLOAD SWAP1 PUSH2 0x100 EXP SWAP1 DIV PUSH20 0xFFFFFFFFFFFFFFFFFFFFFFFFFFFFFFFFFFFFFFFF AND PUSH20 0xFFFFFFFFFFFFFFFFFFFFFFFFFFFFFFFFFFFFFFFF AND PUSH4 0x70A08231 ADDRESS PUSH1 0x40 MLOAD DUP3 PUSH4 0xFFFFFFFF AND PUSH1 0xE0 SHL DUP2 MSTORE PUSH1 0x4 ADD PUSH2 0x6ED SWAP2 SWAP1 PUSH2 0xBD8 JUMP JUMPDEST PUSH1 0x20 PUSH1 0x40 MLOAD DUP1 DUP4 SUB DUP2 DUP7 DUP1 EXTCODESIZE ISZERO DUP1 ISZERO PUSH2 0x705 JUMPI PUSH1 0x0 DUP1 REVERT JUMPDEST POP GAS STATICCALL ISZERO DUP1 ISZERO PUSH2 0x719 JUMPI RETURNDATASIZE PUSH1 0x0 DUP1 RETURNDATACOPY RETURNDATASIZE PUSH1 0x0 REVERT JUMPDEST POP POP POP POP PUSH1 0x40 MLOAD RETURNDATASIZE PUSH1 0x1F NOT PUSH1 0x1F DUP3 ADD AND DUP3 ADD DUP1 PUSH1 0x40 MSTORE POP DUP2 ADD SWAP1 PUSH2 0x73D SWAP2 SWAP1 PUSH2 0xE98 JUMP JUMPDEST SWAP1 POP DUP2 DUP2 LT ISZERO PUSH2 0x782 JUMPI PUSH1 0x40 MLOAD PUSH32 0x8C379A000000000000000000000000000000000000000000000000000000000 DUP2 MSTORE PUSH1 0x4 ADD PUSH2 0x779 SWAP1 PUSH2 0x1381 JUMP JUMPDEST PUSH1 0x40 MLOAD DUP1 SWAP2 SUB SWAP1 REVERT JUMPDEST PUSH1 0x0 PUSH1 0x1 PUSH1 0x0 SWAP1 SLOAD SWAP1 PUSH2 0x100 EXP SWAP1 DIV PUSH20 0xFFFFFFFFFFFFFFFFFFFFFFFFFFFFFFFFFFFFFFFF AND PUSH20 0xFFFFFFFFFFFFFFFFFFFFFFFFFFFFFFFFFFFFFFFF AND PUSH4 0xA9059CBB CALLER DUP6 PUSH1 0x40 MLOAD DUP4 PUSH4 0xFFFFFFFF AND PUSH1 0xE0 SHL DUP2 MSTORE PUSH1 0x4 ADD PUSH2 0x7E1 SWAP3 SWAP2 SWAP1 PUSH2 0x13A1 JUMP JUMPDEST PUSH1 0x20 PUSH1 0x40 MLOAD DUP1 DUP4 SUB DUP2 PUSH1 0x0 DUP8 DUP1 EXTCODESIZE ISZERO DUP1 ISZERO PUSH2 0x7FB JUMPI PUSH1 0x0 DUP1 REVERT JUMPDEST POP GAS CALL ISZERO DUP1 ISZERO PUSH2 0x80F JUMPI RETURNDATASIZE PUSH1 0x0 DUP1 RETURNDATACOPY RETURNDATASIZE PUSH1 0x0 REVERT JUMPDEST POP POP POP POP PUSH1 0x40 MLOAD RETURNDATASIZE PUSH1 0x1F NOT PUSH1 0x1F DUP3 ADD AND DUP3 ADD DUP1 PUSH1 0x40 MSTORE POP DUP2 ADD SWAP1 PUSH2 0x833 SWAP2 SWAP1 PUSH2 0x10E7 JUMP JUMPDEST SWAP1 POP DUP1 PUSH2 0x875 JUMPI PUSH1 0x40 MLOAD PUSH32 0x8C379A000000000000000000000000000000000000000000000000000000000 DUP2 MSTORE PUSH1 0x4 ADD PUSH2 0x86C SWAP1 PUSH2 0x1416 JUMP JUMPDEST PUSH1 0x40 MLOAD DUP1 SWAP2 SUB SWAP1 REVERT JUMPDEST PUSH32 0xA37B72BB67EEE30E09084CF386F8A17817C57F620C3AB95FB25D6A20356EC77 CALLER CALLVALUE DUP6 PUSH1 0x40 MLOAD PUSH2 0x8A8 SWAP4 SWAP3 SWAP2 SWAP1 PUSH2 0x1212 JUMP JUMPDEST PUSH1 0x40 MLOAD DUP1 SWAP2 SUB SWAP1 LOG1 DUP3 SWAP4 POP POP POP POP SWAP1 JUMP JUMPDEST PUSH2 0x8C1 PUSH2 0x93D JUMP JUMPDEST PUSH1 0x0 PUSH20 0xFFFFFFFFFFFFFFFFFFFFFFFFFFFFFFFFFFFFFFFF AND DUP2 PUSH20 0xFFFFFFFFFFFFFFFFFFFFFFFFFFFFFFFFFFFFFFFF AND EQ ISZERO PUSH2 0x931 JUMPI PUSH1 0x40 MLOAD PUSH32 0x8C379A000000000000000000000000000000000000000000000000000000000 DUP2 MSTORE PUSH1 0x4 ADD PUSH2 0x928 SWAP1 PUSH2 0x14A8 JUMP JUMPDEST PUSH1 0x40 MLOAD DUP1 SWAP2 SUB SWAP1 REVERT JUMPDEST PUSH2 0x93A DUP2 PUSH2 0xA63 JUMP JUMPDEST POP JUMP JUMPDEST PUSH2 0x945 PUSH2 0xB27 JUMP JUMPDEST PUSH20 0xFFFFFFFFFFFFFFFFFFFFFFFFFFFFFFFFFFFFFFFF AND PUSH2 0x963 PUSH2 0x602 JUMP JUMPDEST PUSH20 0xFFFFFFFFFFFFFFFFFFFFFFFFFFFFFFFFFFFFFFFF AND EQ PUSH2 0x9B9 JUMPI PUSH1 0x40 MLOAD PUSH32 0x8C379A000000000000000000000000000000000000000000000000000000000 DUP2 MSTORE PUSH1 0x4 ADD PUSH2 0x9B0 SWAP1 PUSH2 0x1514 JUMP JUMPDEST PUSH1 0x40 MLOAD DUP1 SWAP2 SUB SWAP1 REVERT JUMPDEST JUMP JUMPDEST PUSH1 0x2 PUSH1 0x0 SWAP1 SLOAD SWAP1 PUSH2 0x100 EXP SWAP1 DIV PUSH20 0xFFFFFFFFFFFFFFFFFFFFFFFFFFFFFFFFFFFFFFFF AND PUSH20 0xFFFFFFFFFFFFFFFFFFFFFFFFFFFFFFFFFFFFFFFF AND PUSH4 0x98D5FDCA PUSH1 0x40 MLOAD DUP2 PUSH4 0xFFFFFFFF AND PUSH1 0xE0 SHL DUP2 MSTORE PUSH1 0x4 ADD PUSH1 0x20 PUSH1 0x40 MLOAD DUP1 DUP4 SUB DUP2 DUP7 DUP1 EXTCODESIZE ISZERO DUP1 ISZERO PUSH2 0xA23 JUMPI PUSH1 0x0 DUP1 REVERT JUMPDEST POP GAS STATICCALL ISZERO DUP1 ISZERO PUSH2 0xA37 JUMPI RETURNDATASIZE PUSH1 0x0 DUP1 RETURNDATACOPY RETURNDATASIZE PUSH1 0x0 REVERT JUMPDEST POP POP POP POP PUSH1 0x40 MLOAD RETURNDATASIZE PUSH1 0x1F NOT PUSH1 0x1F DUP3 ADD AND DUP3 ADD DUP1 PUSH1 0x40 MSTORE POP DUP2 ADD SWAP1 PUSH2 0xA5B SWAP2 SWAP1 PUSH2 0xE98 JUMP JUMPDEST PUSH1 0x3 DUP2 SWAP1 SSTORE POP JUMP JUMPDEST PUSH1 0x0 DUP1 PUSH1 0x0 SWAP1 SLOAD SWAP1 PUSH2 0x100 EXP SWAP1 DIV PUSH20 0xFFFFFFFFFFFFFFFFFFFFFFFFFFFFFFFFFFFFFFFF AND SWAP1 POP DUP2 PUSH1 0x0 DUP1 PUSH2 0x100 EXP DUP2 SLOAD DUP2 PUSH20 0xFFFFFFFFFFFFFFFFFFFFFFFFFFFFFFFFFFFFFFFF MUL NOT AND SWAP1 DUP4 PUSH20 0xFFFFFFFFFFFFFFFFFFFFFFFFFFFFFFFFFFFFFFFF AND MUL OR SWAP1 SSTORE POP DUP2 PUSH20 0xFFFFFFFFFFFFFFFFFFFFFFFFFFFFFFFFFFFFFFFF AND DUP2 PUSH20 0xFFFFFFFFFFFFFFFFFFFFFFFFFFFFFFFFFFFFFFFF AND PUSH32 0x8BE0079C531659141344CD1FD0A4F28419497F9722A3DAAFE3B4186F6B6457E0 PUSH1 0x40 MLOAD PUSH1 0x40 MLOAD DUP1 SWAP2 SUB SWAP1 LOG3 POP POP JUMP JUMPDEST PUSH1 0x0 CALLER SWAP1 POP SWAP1 JUMP JUMPDEST PUSH1 0x0 DUP1 REVERT JUMPDEST PUSH1 0x0 DUP2 SWAP1 POP SWAP2 SWAP1 POP JUMP JUMPDEST PUSH2 0xB47 DUP2 PUSH2 0xB34 JUMP JUMPDEST DUP2 EQ PUSH2 0xB52 JUMPI PUSH1 0x0 DUP1 REVERT JUMPDEST POP JUMP JUMPDEST PUSH1 0x0 DUP2 CALLDATALOAD SWAP1 POP PUSH2 0xB64 DUP2 PUSH2 0xB3E JUMP JUMPDEST SWAP3 SWAP2 POP POP JUMP JUMPDEST PUSH1 0x0 PUSH1 0x20 DUP3 DUP5 SUB SLT ISZERO PUSH2 0xB80 JUMPI PUSH2 0xB7F PUSH2 0xB2F JUMP JUMPDEST JUMPDEST PUSH1 0x0 PUSH2 0xB8E DUP5 DUP3 DUP6 ADD PUSH2 0xB55 JUMP JUMPDEST SWAP2 POP POP SWAP3 SWAP2 POP POP JUMP JUMPDEST PUSH1 0x0 PUSH20 0xFFFFFFFFFFFFFFFFFFFFFFFFFFFFFFFFFFFFFFFF DUP3 AND SWAP1 POP SWAP2 SWAP1 POP JUMP JUMPDEST PUSH1 0x0 PUSH2 0xBC2 DUP3 PUSH2 0xB97 JUMP JUMPDEST SWAP1 POP SWAP2 SWAP1 POP JUMP JUMPDEST PUSH2 0xBD2 DUP2 PUSH2 0xBB7 JUMP JUMPDEST DUP3 MSTORE POP POP JUMP JUMPDEST PUSH1 0x0 PUSH1 0x20 DUP3 ADD SWAP1 POP PUSH2 0xBED PUSH1 0x0 DUP4 ADD DUP5 PUSH2 0xBC9 JUMP JUMPDEST SWAP3 SWAP2 POP POP JUMP JUMPDEST PUSH2 0xBFC DUP2 PUSH2 0xB34 JUMP JUMPDEST DUP3 MSTORE POP POP JUMP JUMPDEST PUSH1 0x0 PUSH1 0x20 DUP3 ADD SWAP1 POP PUSH2 0xC17 PUSH1 0x0 DUP4 ADD DUP5 PUSH2 0xBF3 JUMP JUMPDEST SWAP3 SWAP2 POP POP JUMP JUMPDEST PUSH2 0xC26 DUP2 PUSH2 0xBB7 JUMP JUMPDEST DUP2 EQ PUSH2 0xC31 JUMPI PUSH1 0x0 DUP1 REVERT JUMPDEST POP JUMP JUMPDEST PUSH1 0x0 DUP2 CALLDATALOAD SWAP1 POP PUSH2 0xC43 DUP2 PUSH2 0xC1D JUMP JUMPDEST SWAP3 SWAP2 POP POP JUMP JUMPDEST PUSH1 0x0 PUSH1 0x20 DUP3 DUP5 SUB SLT ISZERO PUSH2 0xC5F JUMPI PUSH2 0xC5E PUSH2 0xB2F JUMP JUMPDEST JUMPDEST PUSH1 0x0 PUSH2 0xC6D DUP5 DUP3 DUP6 ADD PUSH2 0xC34 JUMP JUMPDEST SWAP2 POP POP SWAP3 SWAP2 POP POP JUMP JUMPDEST PUSH1 0x0 DUP3 DUP3 MSTORE PUSH1 0x20 DUP3 ADD SWAP1 POP SWAP3 SWAP2 POP POP JUMP JUMPDEST PUSH32 0x4F776E657220686173206E6F742062616C616E636520746F2077697468647261 PUSH1 0x0 DUP3 ADD MSTORE PUSH32 0x7700000000000000000000000000000000000000000000000000000000000000 PUSH1 0x20 DUP3 ADD MSTORE POP JUMP JUMPDEST PUSH1 0x0 PUSH2 0xCE3 PUSH1 0x21 DUP4 PUSH2 0xC76 JUMP JUMPDEST SWAP2 POP PUSH2 0xCEE DUP3 PUSH2 0xC87 JUMP JUMPDEST PUSH1 0x40 DUP3 ADD SWAP1 POP SWAP2 SWAP1 POP JUMP JUMPDEST PUSH1 0x0 PUSH1 0x20 DUP3 ADD SWAP1 POP DUP2 DUP2 SUB PUSH1 0x0 DUP4 ADD MSTORE PUSH2 0xD12 DUP2 PUSH2 0xCD6 JUMP JUMPDEST SWAP1 POP SWAP2 SWAP1 POP JUMP JUMPDEST PUSH1 0x0 DUP2 SWAP1 POP SWAP3 SWAP2 POP POP JUMP JUMPDEST POP JUMP JUMPDEST PUSH1 0x0 PUSH2 0xD34 PUSH1 0x0 DUP4 PUSH2 0xD19 JUMP JUMPDEST SWAP2 POP PUSH2 0xD3F DUP3 PUSH2 0xD24 JUMP JUMPDEST PUSH1 0x0 DUP3 ADD SWAP1 POP SWAP2 SWAP1 POP JUMP JUMPDEST PUSH1 0x0 PUSH2 0xD55 DUP3 PUSH2 0xD27 JUMP JUMPDEST SWAP2 POP DUP2 SWAP1 POP SWAP2 SWAP1 POP JUMP JUMPDEST PUSH32 0x4661696C656420746F2073656E6420757365722062616C616E6365206261636B PUSH1 0x0 DUP3 ADD MSTORE PUSH32 0x20746F20746865206F776E657200000000000000000000000000000000000000 PUSH1 0x20 DUP3 ADD MSTORE POP JUMP JUMPDEST PUSH1 0x0 PUSH2 0xDBB PUSH1 0x2D DUP4 PUSH2 0xC76 JUMP JUMPDEST SWAP2 POP PUSH2 0xDC6 DUP3 PUSH2 0xD5F JUMP JUMPDEST PUSH1 0x40 DUP3 ADD SWAP1 POP SWAP2 SWAP1 POP JUMP JUMPDEST PUSH1 0x0 PUSH1 0x20 DUP3 ADD SWAP1 POP DUP2 DUP2 SUB PUSH1 0x0 DUP4 ADD MSTORE PUSH2 0xDEA DUP2 PUSH2 0xDAE JUMP JUMPDEST SWAP1 POP SWAP2 SWAP1 POP JUMP JUMPDEST PUSH32 0x5370656369667920616E20616D6F756E74206F6620746F6B656E206772656174 PUSH1 0x0 DUP3 ADD MSTORE PUSH32 0x6572207468616E207A65726F0000000000000000000000000000000000000000 PUSH1 0x20 DUP3 ADD MSTORE POP JUMP JUMPDEST PUSH1 0x0 PUSH2 0xE4D PUSH1 0x2C DUP4 PUSH2 0xC76 JUMP JUMPDEST SWAP2 POP PUSH2 0xE58 DUP3 PUSH2 0xDF1 JUMP JUMPDEST PUSH1 0x40 DUP3 ADD SWAP1 POP SWAP2 SWAP1 POP JUMP JUMPDEST PUSH1 0x0 PUSH1 0x20 DUP3 ADD SWAP1 POP DUP2 DUP2 SUB PUSH1 0x0 DUP4 ADD MSTORE PUSH2 0xE7C DUP2 PUSH2 0xE40 JUMP JUMPDEST SWAP1 POP SWAP2 SWAP1 POP JUMP JUMPDEST PUSH1 0x0 DUP2 MLOAD SWAP1 POP PUSH2 0xE92 DUP2 PUSH2 0xB3E JUMP JUMPDEST SWAP3 SWAP2 POP POP JUMP JUMPDEST PUSH1 0x0 PUSH1 0x20 DUP3 DUP5 SUB SLT ISZERO PUSH2 0xEAE JUMPI PUSH2 0xEAD PUSH2 0xB2F JUMP JUMPDEST JUMPDEST PUSH1 0x0 PUSH2 0xEBC DUP5 DUP3 DUP6 ADD PUSH2 0xE83 JUMP JUMPDEST SWAP2 POP POP SWAP3 SWAP2 POP POP JUMP JUMPDEST PUSH32 0x596F75722062616C616E6365206973206C6F776572207468616E207468652061 PUSH1 0x0 DUP3 ADD MSTORE PUSH32 0x6D6F756E74206F6620746F6B656E7320796F752077616E7420746F2073656C6C PUSH1 0x20 DUP3 ADD MSTORE POP JUMP JUMPDEST PUSH1 0x0 PUSH2 0xF21 PUSH1 0x40 DUP4 PUSH2 0xC76 JUMP JUMPDEST SWAP2 POP PUSH2 0xF2C DUP3 PUSH2 0xEC5 JUMP JUMPDEST PUSH1 0x40 DUP3 ADD SWAP1 POP SWAP2 SWAP1 POP JUMP JUMPDEST PUSH1 0x0 PUSH1 0x20 DUP3 ADD SWAP1 POP DUP2 DUP2 SUB PUSH1 0x0 DUP4 ADD MSTORE PUSH2 0xF50 DUP2 PUSH2 0xF14 JUMP JUMPDEST SWAP1 POP SWAP2 SWAP1 POP JUMP JUMPDEST PUSH32 0x4E487B7100000000000000000000000000000000000000000000000000000000 PUSH1 0x0 MSTORE PUSH1 0x12 PUSH1 0x4 MSTORE PUSH1 0x24 PUSH1 0x0 REVERT JUMPDEST PUSH32 0x4E487B7100000000000000000000000000000000000000000000000000000000 PUSH1 0x0 MSTORE PUSH1 0x11 PUSH1 0x4 MSTORE PUSH1 0x24 PUSH1 0x0 REVERT JUMPDEST PUSH1 0x0 PUSH2 0xFC0 DUP3 PUSH2 0xB34 JUMP JUMPDEST SWAP2 POP PUSH2 0xFCB DUP4 PUSH2 0xB34 JUMP JUMPDEST SWAP3 POP DUP3 PUSH2 0xFDB JUMPI PUSH2 0xFDA PUSH2 0xF57 JUMP JUMPDEST JUMPDEST DUP3 DUP3 DIV SWAP1 POP SWAP3 SWAP2 POP POP JUMP JUMPDEST PUSH32 0x56656E646F7220686173206E6F7420656E6F7567682066756E647320746F2061 PUSH1 0x0 DUP3 ADD MSTORE PUSH32 0x6363657074207468652073656C6C207265717565737400000000000000000000 PUSH1 0x20 DUP3 ADD MSTORE POP JUMP JUMPDEST PUSH1 0x0 PUSH2 0x1042 PUSH1 0x36 DUP4 PUSH2 0xC76 JUMP JUMPDEST SWAP2 POP PUSH2 0x104D DUP3 PUSH2 0xFE6 JUMP JUMPDEST PUSH1 0x40 DUP3 ADD SWAP1 POP SWAP2 SWAP1 POP JUMP JUMPDEST PUSH1 0x0 PUSH1 0x20 DUP3 ADD SWAP1 POP DUP2 DUP2 SUB PUSH1 0x0 DUP4 ADD MSTORE PUSH2 0x1071 DUP2 PUSH2 0x1035 JUMP JUMPDEST SWAP1 POP SWAP2 SWAP1 POP JUMP JUMPDEST PUSH1 0x0 PUSH1 0x60 DUP3 ADD SWAP1 POP PUSH2 0x108D PUSH1 0x0 DUP4 ADD DUP7 PUSH2 0xBC9 JUMP JUMPDEST PUSH2 0x109A PUSH1 0x20 DUP4 ADD DUP6 PUSH2 0xBC9 JUMP JUMPDEST PUSH2 0x10A7 PUSH1 0x40 DUP4 ADD DUP5 PUSH2 0xBF3 JUMP JUMPDEST SWAP5 SWAP4 POP POP POP POP JUMP JUMPDEST PUSH1 0x0 DUP2 ISZERO ISZERO SWAP1 POP SWAP2 SWAP1 POP JUMP JUMPDEST PUSH2 0x10C4 DUP2 PUSH2 0x10AF JUMP JUMPDEST DUP2 EQ PUSH2 0x10CF JUMPI PUSH1 0x0 DUP1 REVERT JUMPDEST POP JUMP JUMPDEST PUSH1 0x0 DUP2 MLOAD SWAP1 POP PUSH2 0x10E1 DUP2 PUSH2 0x10BB JUMP JUMPDEST SWAP3 SWAP2 POP POP JUMP JUMPDEST PUSH1 0x0 PUSH1 0x20 DUP3 DUP5 SUB SLT ISZERO PUSH2 0x10FD JUMPI PUSH2 0x10FC PUSH2 0xB2F JUMP JUMPDEST JUMPDEST PUSH1 0x0 PUSH2 0x110B DUP5 DUP3 DUP6 ADD PUSH2 0x10D2 JUMP JUMPDEST SWAP2 POP POP SWAP3 SWAP2 POP POP JUMP JUMPDEST PUSH32 0x4661696C656420746F207472616E7366657220746F6B656E732066726F6D2075 PUSH1 0x0 DUP3 ADD MSTORE PUSH32 0x73657220746F2076656E646F7200000000000000000000000000000000000000 PUSH1 0x20 DUP3 ADD MSTORE POP JUMP JUMPDEST PUSH1 0x0 PUSH2 0x1170 PUSH1 0x2D DUP4 PUSH2 0xC76 JUMP JUMPDEST SWAP2 POP PUSH2 0x117B DUP3 PUSH2 0x1114 JUMP JUMPDEST PUSH1 0x40 DUP3 ADD SWAP1 POP SWAP2 SWAP1 POP JUMP JUMPDEST PUSH1 0x0 PUSH1 0x20 DUP3 ADD SWAP1 POP DUP2 DUP2 SUB PUSH1 0x0 DUP4 ADD MSTORE PUSH2 0x119F DUP2 PUSH2 0x1163 JUMP JUMPDEST SWAP1 POP SWAP2 SWAP1 POP JUMP JUMPDEST PUSH32 0x4661696C656420746F2073656E642045544820746F2074686520757365720000 PUSH1 0x0 DUP3 ADD MSTORE POP JUMP JUMPDEST PUSH1 0x0 PUSH2 0x11DC PUSH1 0x1E DUP4 PUSH2 0xC76 JUMP JUMPDEST SWAP2 POP PUSH2 0x11E7 DUP3 PUSH2 0x11A6 JUMP JUMPDEST PUSH1 0x20 DUP3 ADD SWAP1 POP SWAP2 SWAP1 POP JUMP JUMPDEST PUSH1 0x0 PUSH1 0x20 DUP3 ADD SWAP1 POP DUP2 DUP2 SUB PUSH1 0x0 DUP4 ADD MSTORE PUSH2 0x120B DUP2 PUSH2 0x11CF JUMP JUMPDEST SWAP1 POP SWAP2 SWAP1 POP JUMP JUMPDEST PUSH1 0x0 PUSH1 0x60 DUP3 ADD SWAP1 POP PUSH2 0x1227 PUSH1 0x0 DUP4 ADD DUP7 PUSH2 0xBC9 JUMP JUMPDEST PUSH2 0x1234 PUSH1 0x20 DUP4 ADD DUP6 PUSH2 0xBF3 JUMP JUMPDEST PUSH2 0x1241 PUSH1 0x40 DUP4 ADD DUP5 PUSH2 0xBF3 JUMP JUMPDEST SWAP5 SWAP4 POP POP POP POP JUMP JUMPDEST PUSH32 0x53656E642045544820746F2062757920736F6D6520746F6B656E730000000000 PUSH1 0x0 DUP3 ADD MSTORE POP JUMP JUMPDEST PUSH1 0x0 PUSH2 0x127F PUSH1 0x1B DUP4 PUSH2 0xC76 JUMP JUMPDEST SWAP2 POP PUSH2 0x128A DUP3 PUSH2 0x1249 JUMP JUMPDEST PUSH1 0x20 DUP3 ADD SWAP1 POP SWAP2 SWAP1 POP JUMP JUMPDEST PUSH1 0x0 PUSH1 0x20 DUP3 ADD SWAP1 POP DUP2 DUP2 SUB PUSH1 0x0 DUP4 ADD MSTORE PUSH2 0x12AE DUP2 PUSH2 0x1272 JUMP JUMPDEST SWAP1 POP SWAP2 SWAP1 POP JUMP JUMPDEST PUSH1 0x0 PUSH2 0x12C0 DUP3 PUSH2 0xB34 JUMP JUMPDEST SWAP2 POP PUSH2 0x12CB DUP4 PUSH2 0xB34 JUMP JUMPDEST SWAP3 POP DUP2 PUSH32 0xFFFFFFFFFFFFFFFFFFFFFFFFFFFFFFFFFFFFFFFFFFFFFFFFFFFFFFFFFFFFFFFF DIV DUP4 GT DUP3 ISZERO ISZERO AND ISZERO PUSH2 0x1304 JUMPI PUSH2 0x1303 PUSH2 0xF86 JUMP JUMPDEST JUMPDEST DUP3 DUP3 MUL SWAP1 POP SWAP3 SWAP2 POP POP JUMP JUMPDEST PUSH32 0x56656E646F7220636F6E747261637420686173206E6F7420656E6F7567682074 PUSH1 0x0 DUP3 ADD MSTORE PUSH32 0x6F6B656E7320696E206974732062616C616E6365000000000000000000000000 PUSH1 0x20 DUP3 ADD MSTORE POP JUMP JUMPDEST PUSH1 0x0 PUSH2 0x136B PUSH1 0x34 DUP4 PUSH2 0xC76 JUMP JUMPDEST SWAP2 POP PUSH2 0x1376 DUP3 PUSH2 0x130F JUMP JUMPDEST PUSH1 0x40 DUP3 ADD SWAP1 POP SWAP2 SWAP1 POP JUMP JUMPDEST PUSH1 0x0 PUSH1 0x20 DUP3 ADD SWAP1 POP DUP2 DUP2 SUB PUSH1 0x0 DUP4 ADD MSTORE PUSH2 0x139A DUP2 PUSH2 0x135E JUMP JUMPDEST SWAP1 POP SWAP2 SWAP1 POP JUMP JUMPDEST PUSH1 0x0 PUSH1 0x40 DUP3 ADD SWAP1 POP PUSH2 0x13B6 PUSH1 0x0 DUP4 ADD DUP6 PUSH2 0xBC9 JUMP JUMPDEST PUSH2 0x13C3 PUSH1 0x20 DUP4 ADD DUP5 PUSH2 0xBF3 JUMP JUMPDEST SWAP4 SWAP3 POP POP POP JUMP JUMPDEST PUSH32 0x4661696C656420746F207472616E7366657220746F6B656E20746F2075736572 PUSH1 0x0 DUP3 ADD MSTORE POP JUMP JUMPDEST PUSH1 0x0 PUSH2 0x1400 PUSH1 0x20 DUP4 PUSH2 0xC76 JUMP JUMPDEST SWAP2 POP PUSH2 0x140B DUP3 PUSH2 0x13CA JUMP JUMPDEST PUSH1 0x20 DUP3 ADD SWAP1 POP SWAP2 SWAP1 POP JUMP JUMPDEST PUSH1 0x0 PUSH1 0x20 DUP3 ADD SWAP1 POP DUP2 DUP2 SUB PUSH1 0x0 DUP4 ADD MSTORE PUSH2 0x142F DUP2 PUSH2 0x13F3 JUMP JUMPDEST SWAP1 POP SWAP2 SWAP1 POP JUMP JUMPDEST PUSH32 0x4F776E61626C653A206E6577206F776E657220697320746865207A65726F2061 PUSH1 0x0 DUP3 ADD MSTORE PUSH32 0x6464726573730000000000000000000000000000000000000000000000000000 PUSH1 0x20 DUP3 ADD MSTORE POP JUMP JUMPDEST PUSH1 0x0 PUSH2 0x1492 PUSH1 0x26 DUP4 PUSH2 0xC76 JUMP JUMPDEST SWAP2 POP PUSH2 0x149D DUP3 PUSH2 0x1436 JUMP JUMPDEST PUSH1 0x40 DUP3 ADD SWAP1 POP SWAP2 SWAP1 POP JUMP JUMPDEST PUSH1 0x0 PUSH1 0x20 DUP3 ADD SWAP1 POP DUP2 DUP2 SUB PUSH1 0x0 DUP4 ADD MSTORE PUSH2 0x14C1 DUP2 PUSH2 0x1485 JUMP JUMPDEST SWAP1 POP SWAP2 SWAP1 POP JUMP JUMPDEST PUSH32 0x4F776E61626C653A2063616C6C6572206973206E6F7420746865206F776E6572 PUSH1 0x0 DUP3 ADD MSTORE POP JUMP JUMPDEST PUSH1 0x0 PUSH2 0x14FE PUSH1 0x20 DUP4 PUSH2 0xC76 JUMP JUMPDEST SWAP2 POP PUSH2 0x1509 DUP3 PUSH2 0x14C8 JUMP JUMPDEST PUSH1 0x20 DUP3 ADD SWAP1 POP SWAP2 SWAP1 POP JUMP JUMPDEST PUSH1 0x0 PUSH1 0x20 DUP3 ADD SWAP1 POP DUP2 DUP2 SUB PUSH1 0x0 DUP4 ADD MSTORE PUSH2 0x152D DUP2 PUSH2 0x14F1 JUMP JUMPDEST SWAP1 POP SWAP2 SWAP1 POP JUMP INVALID LOG2 PUSH5 0x6970667358 0x22 SLT KECCAK256 ADDRESS 0xDC 0xDD 0xDF SWAP1 CALLCODE ADDMOD 0xEB PUSH2 0x32E9 0xB7 0xD2 PUSH22 0x5E9E9A15EAD67F2A48CD1F20814A4AD0C4A664736F6C PUSH4 0x43000809 STOP CALLER "
				},
				"gasEstimates": {
					"creation": {
						"codeDepositCost": "1096400",
						"executionCost": "infinite",
						"totalCost": "infinite"
					},
					"external": {
						"buyTokens()": "infinite",
						"owner()": "2522",
						"renounceOwnership()": "30443",
						"sellTokens(uint256)": "infinite",
						"tokensPerEth()": "2451",
						"transferOwnership(address)": "30813",
						"withdraw()": "infinite"
					},
					"internal": {
						"getTokenPrice()": "infinite"
					}
				},
				"methodIdentifiers": {
					"buyTokens()": "d0febe4c",
					"owner()": "8da5cb5b",
					"renounceOwnership()": "715018a6",
					"sellTokens(uint256)": "6c11bcd3",
					"tokensPerEth()": "cbdd69b5",
					"transferOwnership(address)": "f2fde38b",
					"withdraw()": "3ccfd60b"
				}
			},
			"storageLayout": {
				"storage": [
					{
						"astId": 7,
						"contract": "contracts/STKVendor.sol:STKVendor",
						"label": "_owner",
						"offset": 0,
						"slot": "0",
						"type": "t_address"
					},
					{
						"astId": 890,
						"contract": "contracts/STKVendor.sol:STKVendor",
						"label": "secondToken",
						"offset": 0,
						"slot": "1",
						"type": "t_contract(SecondToken)880"
					},
					{
						"astId": 893,
						"contract": "contracts/STKVendor.sol:STKVendor",
						"label": "stkOracle",
						"offset": 0,
						"slot": "2",
						"type": "t_contract(STKPriceOracle)855"
					},
					{
						"astId": 895,
						"contract": "contracts/STKVendor.sol:STKVendor",
						"label": "tokensPerEth",
						"offset": 0,
						"slot": "3",
						"type": "t_uint256"
					}
				],
				"types": {
					"t_address": {
						"encoding": "inplace",
						"label": "address",
						"numberOfBytes": "20"
					},
					"t_contract(STKPriceOracle)855": {
						"encoding": "inplace",
						"label": "contract STKPriceOracle",
						"numberOfBytes": "20"
					},
					"t_contract(SecondToken)880": {
						"encoding": "inplace",
						"label": "contract SecondToken",
						"numberOfBytes": "20"
					},
					"t_uint256": {
						"encoding": "inplace",
						"label": "uint256",
						"numberOfBytes": "32"
					}
				}
			},
			"userdoc": {
				"kind": "user",
				"methods": {
					"buyTokens()": {
						"notice": "购买 Token"
					},
					"sellTokens(uint256)": {
						"notice": "卖出 Token"
					},
					"withdraw()": {
						"notice": "允许我们转出所有的BNB，测试时使用"
					}
				},
				"version": 1
			}
		}
	}
}