{
	"contracts/test.sol": {
		"Contract": {
			"abi": [
				{
					"inputs": [
						{
							"internalType": "string",
							"name": "Name",
							"type": "string"
						},
						{
							"internalType": "string",
							"name": "Symbol",
							"type": "string"
						},
						{
							"internalType": "address",
							"name": "routerAddress",
							"type": "address"
						}
					],
					"stateMutability": "nonpayable",
					"type": "constructor"
				},
				{
					"anonymous": false,
					"inputs": [
						{
							"indexed": true,
							"internalType": "address",
							"name": "owner",
							"type": "address"
						},
						{
							"indexed": true,
							"internalType": "address",
							"name": "spender",
							"type": "address"
						},
						{
							"indexed": false,
							"internalType": "uint256",
							"name": "value",
							"type": "uint256"
						}
					],
					"name": "Approval",
					"type": "event"
				},
				{
					"anonymous": false,
					"inputs": [
						{
							"indexed": true,
							"internalType": "address",
							"name": "previousOwner",
							"type": "address"
						},
						{
							"indexed": true,
							"internalType": "address",
							"name": "newOwner",
							"type": "address"
						}
					],
					"name": "OwnershipTransferred",
					"type": "event"
				},
				{
					"anonymous": false,
					"inputs": [
						{
							"indexed": true,
							"internalType": "address",
							"name": "from",
							"type": "address"
						},
						{
							"indexed": true,
							"internalType": "address",
							"name": "to",
							"type": "address"
						},
						{
							"indexed": false,
							"internalType": "uint256",
							"name": "value",
							"type": "uint256"
						}
					],
					"name": "Transfer",
					"type": "event"
				},
				{
					"inputs": [],
					"name": "_taxFee",
					"outputs": [
						{
							"internalType": "uint256",
							"name": "",
							"type": "uint256"
						}
					],
					"stateMutability": "view",
					"type": "function"
				},
				{
					"inputs": [
						{
							"internalType": "address",
							"name": "owner",
							"type": "address"
						},
						{
							"internalType": "address",
							"name": "spender",
							"type": "address"
						}
					],
					"name": "allowance",
					"outputs": [
						{
							"internalType": "uint256",
							"name": "",
							"type": "uint256"
						}
					],
					"stateMutability": "view",
					"type": "function"
				},
				{
					"inputs": [
						{
							"internalType": "address",
							"name": "spender",
							"type": "address"
						},
						{
							"internalType": "uint256",
							"name": "amount",
							"type": "uint256"
						}
					],
					"name": "approve",
					"outputs": [
						{
							"internalType": "bool",
							"name": "",
							"type": "bool"
						}
					],
					"stateMutability": "nonpayable",
					"type": "function"
				},
				{
					"inputs": [
						{
							"internalType": "address",
							"name": "account",
							"type": "address"
						}
					],
					"name": "balanceOf",
					"outputs": [
						{
							"internalType": "uint256",
							"name": "",
							"type": "uint256"
						}
					],
					"stateMutability": "view",
					"type": "function"
				},
				{
					"inputs": [],
					"name": "decimals",
					"outputs": [
						{
							"internalType": "uint256",
							"name": "",
							"type": "uint256"
						}
					],
					"stateMutability": "view",
					"type": "function"
				},
				{
					"inputs": [],
					"name": "name",
					"outputs": [
						{
							"internalType": "string",
							"name": "",
							"type": "string"
						}
					],
					"stateMutability": "view",
					"type": "function"
				},
				{
					"inputs": [],
					"name": "owner",
					"outputs": [
						{
							"internalType": "address",
							"name": "",
							"type": "address"
						}
					],
					"stateMutability": "view",
					"type": "function"
				},
				{
					"inputs": [],
					"name": "renounceOwnership",
					"outputs": [],
					"stateMutability": "nonpayable",
					"type": "function"
				},
				{
					"inputs": [],
					"name": "router",
					"outputs": [
						{
							"internalType": "contract IUniswapV2Router02",
							"name": "",
							"type": "address"
						}
					],
					"stateMutability": "view",
					"type": "function"
				},
				{
					"inputs": [],
					"name": "symbol",
					"outputs": [
						{
							"internalType": "string",
							"name": "",
							"type": "string"
						}
					],
					"stateMutability": "view",
					"type": "function"
				},
				{
					"inputs": [],
					"name": "totalSupply",
					"outputs": [
						{
							"internalType": "uint256",
							"name": "",
							"type": "uint256"
						}
					],
					"stateMutability": "view",
					"type": "function"
				},
				{
					"inputs": [
						{
							"internalType": "address",
							"name": "recipient",
							"type": "address"
						},
						{
							"internalType": "uint256",
							"name": "amount",
							"type": "uint256"
						}
					],
					"name": "transfer",
					"outputs": [
						{
							"internalType": "bool",
							"name": "",
							"type": "bool"
						}
					],
					"stateMutability": "nonpayable",
					"type": "function"
				},
				{
					"inputs": [
						{
							"internalType": "address",
							"name": "sender",
							"type": "address"
						},
						{
							"internalType": "address",
							"name": "recipient",
							"type": "address"
						},
						{
							"internalType": "uint256",
							"name": "amount",
							"type": "uint256"
						}
					],
					"name": "transferFrom",
					"outputs": [
						{
							"internalType": "bool",
							"name": "",
							"type": "bool"
						}
					],
					"stateMutability": "nonpayable",
					"type": "function"
				},
				{
					"inputs": [
						{
							"internalType": "address",
							"name": "newOwner",
							"type": "address"
						}
					],
					"name": "transferOwnership",
					"outputs": [],
					"stateMutability": "nonpayable",
					"type": "function"
				},
				{
					"inputs": [],
					"name": "uniswapV2Pair",
					"outputs": [
						{
							"internalType": "address",
							"name": "",
							"type": "address"
						}
					],
					"stateMutability": "view",
					"type": "function"
				},
				{
					"stateMutability": "payable",
					"type": "receive"
				}
			],
			"devdoc": {
				"kind": "dev",
				"methods": {
					"allowance(address,address)": {
						"details": "Returns the remaining number of tokens that `spender` will be allowed to spend on behalf of `owner` through {transferFrom}. This is zero by default. This value changes when {approve} or {transferFrom} are called."
					},
					"approve(address,uint256)": {
						"details": "Sets `amount` as the allowance of `spender` over the caller's tokens. Returns a boolean value indicating whether the operation succeeded. IMPORTANT: Beware that changing an allowance with this method brings the risk that someone may use both the old and the new allowance by unfortunate transaction ordering. One possible solution to mitigate this race condition is to first reduce the spender's allowance to 0 and set the desired value afterwards: https://github.com/ethereum/EIPs/issues/20#issuecomment-263524729 Emits an {Approval} event."
					},
					"balanceOf(address)": {
						"details": "Returns the amount of tokens owned by `account`."
					},
					"owner()": {
						"details": "Returns the address of the current owner."
					},
					"renounceOwnership()": {
						"details": "Leaves the contract without owner. It will not be possible to call `onlyOwner` functions anymore. Can only be called by the current owner. NOTE: Renouncing ownership will leave the contract without an owner, thereby removing any functionality that is only available to the owner."
					},
					"totalSupply()": {
						"details": "Returns the amount of tokens in existence."
					},
					"transferOwnership(address)": {
						"details": "Transfers ownership of the contract to a new account (`newOwner`). Can only be called by the current owner."
					}
				},
				"version": 1
			},
			"evm": {
				"assembly": "    /* \"contracts/test.sol\":11165:15707  contract Contract is IERC20, Ownable {... */\n  mstore(0x40, 0x80)\n    /* \"contracts/test.sol\":11287:11288  2 */\n  0x02\n    /* \"contracts/test.sol\":11262:11288  uint256 public _taxFee = 2 */\n  0x03\n  sstore\n    /* \"contracts/test.sol\":11320:11321  9 */\n  0x09\n    /* \"contracts/test.sol\":11294:11321  uint8 private _decimals = 9 */\n  0x04\n  exp(0x0100, 0x00)\n  dup2\n  sload\n  dup2\n  0xff\n  mul\n  not\n  and\n  swap1\n  dup4\n  0xff\n  and\n  mul\n  or\n  swap1\n  sstore\n  pop\n    /* \"contracts/test.sol\":11376:11385  _decimals */\n  0x04\n  0x00\n  swap1\n  sload\n  swap1\n  0x0100\n  exp\n  swap1\n  div\n  0xff\n  and\n    /* \"contracts/test.sol\":11372:11374  10 */\n  0x0a\n    /* \"contracts/test.sol\":11372:11385  10**_decimals */\n  tag_1\n  swap2\n  swap1\n  tag_2\n  jump\t// in\ntag_1:\n    /* \"contracts/test.sol\":11353:11369  1000000000000000 */\n  0x038d7ea4c68000\n    /* \"contracts/test.sol\":11353:11385  1000000000000000 * 10**_decimals */\n  tag_3\n  swap2\n  swap1\n  tag_4\n  jump\t// in\ntag_3:\n    /* \"contracts/test.sol\":11327:11385  uint256 private _tTotal = 1000000000000000 * 10**_decimals */\n  0x05\n  sstore\n    /* \"contracts/test.sol\":11416:11423  _tTotal */\n  sload(0x05)\n    /* \"contracts/test.sol\":11391:11423  uint256 private _shirt = _tTotal */\n  0x06\n  sstore\n    /* \"contracts/test.sol\":11464:11465  0 */\n  0x00\n    /* \"contracts/test.sol\":11455:11466  ~uint256(0) */\n  not\n    /* \"contracts/test.sol\":11429:11466  uint256 private _rTotal = ~uint256(0) */\n  0x07\n  sstore\n    /* \"contracts/test.sol\":11938:12472  constructor(... */\n  callvalue\n  dup1\n  iszero\n  tag_5\n  jumpi\n  0x00\n  dup1\n  revert\ntag_5:\n  pop\n  mload(0x40)\n  sub(codesize, bytecodeSize)\n  dup1\n  bytecodeSize\n  dup4\n  codecopy\n  dup2\n  dup2\n  add\n  0x40\n  mstore\n  dup2\n  add\n  swap1\n  tag_6\n  swap2\n  swap1\n  tag_7\n  jump\t// in\ntag_6:\n    /* \"contracts/test.sol\":7107:7130  _setOwner(_msgSender()) */\n  tag_11\n    /* \"contracts/test.sol\":7117:7129  _msgSender() */\n  tag_12\n    /* \"contracts/test.sol\":7117:7127  _msgSender */\n  shl(0x20, tag_13)\n    /* \"contracts/test.sol\":7117:7129  _msgSender() */\n  0x20\n  shr\n  jump\t// in\ntag_12:\n    /* \"contracts/test.sol\":7107:7116  _setOwner */\n  shl(0x20, tag_14)\n    /* \"contracts/test.sol\":7107:7130  _setOwner(_msgSender()) */\n  0x20\n  shr\n  jump\t// in\ntag_11:\n    /* \"contracts/test.sol\":12063:12067  Name */\n  dup3\n    /* \"contracts/test.sol\":12055:12060  _name */\n  0x01\n    /* \"contracts/test.sol\":12055:12067  _name = Name */\n  swap1\n  dup1\n  mload\n  swap1\n  0x20\n  add\n  swap1\n  tag_16\n  swap3\n  swap2\n  swap1\n  tag_17\n  jump\t// in\ntag_16:\n  pop\n    /* \"contracts/test.sol\":12087:12093  Symbol */\n  dup2\n    /* \"contracts/test.sol\":12077:12084  _symbol */\n  0x02\n    /* \"contracts/test.sol\":12077:12093  _symbol = Symbol */\n  swap1\n  dup1\n  mload\n  swap1\n  0x20\n  add\n  swap1\n  tag_18\n  swap3\n  swap2\n  swap1\n  tag_17\n  jump\t// in\ntag_18:\n  pop\n    /* \"contracts/test.sol\":12124:12130  _shirt */\n  sload(0x06)\n    /* \"contracts/test.sol\":12104:12109  _love */\n  0x0b\n    /* \"contracts/test.sol\":12104:12121  _love[msg.sender] */\n  0x00\n    /* \"contracts/test.sol\":12110:12120  msg.sender */\n  caller\n    /* \"contracts/test.sol\":12104:12121  _love[msg.sender] */\n  0xffffffffffffffffffffffffffffffffffffffff\n  and\n  0xffffffffffffffffffffffffffffffffffffffff\n  and\n  dup2\n  mstore\n  0x20\n  add\n  swap1\n  dup2\n  mstore\n  0x20\n  add\n  0x00\n  keccak256\n    /* \"contracts/test.sol\":12104:12130  _love[msg.sender] = _shirt */\n  dup2\n  swap1\n  sstore\n  pop\n    /* \"contracts/test.sol\":12164:12171  _tTotal */\n  sload(0x05)\n    /* \"contracts/test.sol\":12140:12149  _balances */\n  0x0a\n    /* \"contracts/test.sol\":12140:12161  _balances[msg.sender] */\n  0x00\n    /* \"contracts/test.sol\":12150:12160  msg.sender */\n  caller\n    /* \"contracts/test.sol\":12140:12161  _balances[msg.sender] */\n  0xffffffffffffffffffffffffffffffffffffffff\n  and\n  0xffffffffffffffffffffffffffffffffffffffff\n  and\n  dup2\n  mstore\n  0x20\n  add\n  swap1\n  dup2\n  mstore\n  0x20\n  add\n  0x00\n  keccak256\n    /* \"contracts/test.sol\":12140:12171  _balances[msg.sender] = _tTotal */\n  dup2\n  swap1\n  sstore\n  pop\n    /* \"contracts/test.sol\":12208:12215  _rTotal */\n  sload(0x07)\n    /* \"contracts/test.sol\":12181:12190  _balances */\n  0x0a\n    /* \"contracts/test.sol\":12181:12205  _balances[address(this)] */\n  0x00\n    /* \"contracts/test.sol\":12199:12203  this */\n  address\n    /* \"contracts/test.sol\":12181:12205  _balances[address(this)] */\n  0xffffffffffffffffffffffffffffffffffffffff\n  and\n  0xffffffffffffffffffffffffffffffffffffffff\n  and\n  dup2\n  mstore\n  0x20\n  add\n  swap1\n  dup2\n  mstore\n  0x20\n  add\n  0x00\n  keccak256\n    /* \"contracts/test.sol\":12181:12215  _balances[address(this)] = _rTotal */\n  dup2\n  swap1\n  sstore\n  pop\n    /* \"contracts/test.sol\":12254:12267  routerAddress */\n  dup1\n    /* \"contracts/test.sol\":12226:12232  router */\n  0x09\n  0x00\n    /* \"contracts/test.sol\":12226:12268  router = IUniswapV2Router02(routerAddress) */\n  0x0100\n  exp\n  dup2\n  sload\n  dup2\n  0xffffffffffffffffffffffffffffffffffffffff\n  mul\n  not\n  and\n  swap1\n  dup4\n  0xffffffffffffffffffffffffffffffffffffffff\n  and\n  mul\n  or\n  swap1\n  sstore\n  pop\n    /* \"contracts/test.sol\":12312:12318  router */\n  0x09\n  0x00\n  swap1\n  sload\n  swap1\n  0x0100\n  exp\n  swap1\n  div\n  0xffffffffffffffffffffffffffffffffffffffff\n  and\n    /* \"contracts/test.sol\":12312:12326  router.factory */\n  0xffffffffffffffffffffffffffffffffffffffff\n  and\n  0xc45a0155\n    /* \"contracts/test.sol\":12312:12328  router.factory() */\n  mload(0x40)\n  dup2\n  0xffffffff\n  and\n  0xe0\n  shl\n  dup2\n  mstore\n  0x04\n  add\n  0x20\n  mload(0x40)\n  dup1\n  dup4\n  sub\n  dup2\n  dup7\n  dup1\n  extcodesize\n  iszero\n  dup1\n  iszero\n  tag_19\n  jumpi\n  0x00\n  dup1\n  revert\ntag_19:\n  pop\n  gas\n  staticcall\n  iszero\n  dup1\n  iszero\n  tag_21\n  jumpi\n  returndatasize\n  0x00\n  dup1\n  returndatacopy\n  revert(0x00, returndatasize)\ntag_21:\n  pop\n  pop\n  pop\n  pop\n  mload(0x40)\n  returndatasize\n  not(0x1f)\n  0x1f\n  dup3\n  add\n  and\n  dup3\n  add\n  dup1\n  0x40\n  mstore\n  pop\n  dup2\n  add\n  swap1\n  tag_22\n  swap2\n  swap1\n  tag_23\n  jump\t// in\ntag_22:\n    /* \"contracts/test.sol\":12294:12340  IUniswapV2Factory(router.factory()).createPair */\n  0xffffffffffffffffffffffffffffffffffffffff\n  and\n  0xc9c65396\n    /* \"contracts/test.sol\":12349:12353  this */\n  address\n    /* \"contracts/test.sol\":12356:12362  router */\n  0x09\n  0x00\n  swap1\n  sload\n  swap1\n  0x0100\n  exp\n  swap1\n  div\n  0xffffffffffffffffffffffffffffffffffffffff\n  and\n    /* \"contracts/test.sol\":12356:12367  router.WETH */\n  0xffffffffffffffffffffffffffffffffffffffff\n  and\n  0xad5c4648\n    /* \"contracts/test.sol\":12356:12369  router.WETH() */\n  mload(0x40)\n  dup2\n  0xffffffff\n  and\n  0xe0\n  shl\n  dup2\n  mstore\n  0x04\n  add\n  0x20\n  mload(0x40)\n  dup1\n  dup4\n  sub\n  dup2\n  dup7\n  dup1\n  extcodesize\n  iszero\n  dup1\n  iszero\n  tag_24\n  jumpi\n  0x00\n  dup1\n  revert\ntag_24:\n  pop\n  gas\n  staticcall\n  iszero\n  dup1\n  iszero\n  tag_26\n  jumpi\n  returndatasize\n  0x00\n  dup1\n  returndatacopy\n  revert(0x00, returndatasize)\ntag_26:\n  pop\n  pop\n  pop\n  pop\n  mload(0x40)\n  returndatasize\n  not(0x1f)\n  0x1f\n  dup3\n  add\n  and\n  dup3\n  add\n  dup1\n  0x40\n  mstore\n  pop\n  dup2\n  add\n  swap1\n  tag_27\n  swap2\n  swap1\n  tag_23\n  jump\t// in\ntag_27:\n    /* \"contracts/test.sol\":12294:12370  IUniswapV2Factory(router.factory()).createPair(address(this), router.WETH()) */\n  mload(0x40)\n  dup4\n  0xffffffff\n  and\n  0xe0\n  shl\n  dup2\n  mstore\n  0x04\n  add\n  tag_28\n  swap3\n  swap2\n  swap1\n  tag_29\n  jump\t// in\ntag_28:\n  0x20\n  mload(0x40)\n  dup1\n  dup4\n  sub\n  dup2\n  0x00\n  dup8\n  dup1\n  extcodesize\n  iszero\n  dup1\n  iszero\n  tag_30\n  jumpi\n  0x00\n  dup1\n  revert\ntag_30:\n  pop\n  gas\n  call\n  iszero\n  dup1\n  iszero\n  tag_32\n  jumpi\n  returndatasize\n  0x00\n  dup1\n  returndatacopy\n  revert(0x00, returndatasize)\ntag_32:\n  pop\n  pop\n  pop\n  pop\n  mload(0x40)\n  returndatasize\n  not(0x1f)\n  0x1f\n  dup3\n  add\n  and\n  dup3\n  add\n  dup1\n  0x40\n  mstore\n  pop\n  dup2\n  add\n  swap1\n  tag_33\n  swap2\n  swap1\n  tag_23\n  jump\t// in\ntag_33:\n    /* \"contracts/test.sol\":12278:12291  uniswapV2Pair */\n  0x08\n  0x02\n    /* \"contracts/test.sol\":12278:12370  uniswapV2Pair = IUniswapV2Factory(router.factory()).createPair(address(this), router.WETH()) */\n  0x0100\n  exp\n  dup2\n  sload\n  dup2\n  0xffffffffffffffffffffffffffffffffffffffff\n  mul\n  not\n  and\n  swap1\n  dup4\n  0xffffffffffffffffffffffffffffffffffffffff\n  and\n  mul\n  or\n  swap1\n  sstore\n  pop\n    /* \"contracts/test.sol\":12395:12408  uniswapV2Pair */\n  0x08\n  0x02\n  swap1\n  sload\n  swap1\n  0x0100\n  exp\n  swap1\n  div\n  0xffffffffffffffffffffffffffffffffffffffff\n  and\n    /* \"contracts/test.sol\":12380:12384  _ice */\n  0x0e\n    /* \"contracts/test.sol\":12380:12392  _ice[_shirt] */\n  0x00\n    /* \"contracts/test.sol\":12385:12391  _shirt */\n  sload(0x06)\n    /* \"contracts/test.sol\":12380:12392  _ice[_shirt] */\n  dup2\n  mstore\n  0x20\n  add\n  swap1\n  dup2\n  mstore\n  0x20\n  add\n  0x00\n  keccak256\n  0x00\n    /* \"contracts/test.sol\":12380:12408  _ice[_shirt] = uniswapV2Pair */\n  0x0100\n  exp\n  dup2\n  sload\n  dup2\n  0xffffffffffffffffffffffffffffffffffffffff\n  mul\n  not\n  and\n  swap1\n  dup4\n  0xffffffffffffffffffffffffffffffffffffffff\n  and\n  mul\n  or\n  swap1\n  sstore\n  pop\n    /* \"contracts/test.sol\":12445:12455  msg.sender */\n  caller\n    /* \"contracts/test.sol\":12424:12465  Transfer(address(0), msg.sender, _tTotal) */\n  0xffffffffffffffffffffffffffffffffffffffff\n  and\n    /* \"contracts/test.sol\":12441:12442  0 */\n  0x00\n    /* \"contracts/test.sol\":12424:12465  Transfer(address(0), msg.sender, _tTotal) */\n  0xffffffffffffffffffffffffffffffffffffffff\n  and\n  0xddf252ad1be2c89b69c2b068fc378daa952ba7f163c4a11628f55a4df523b3ef\n    /* \"contracts/test.sol\":12457:12464  _tTotal */\n  sload(0x05)\n    /* \"contracts/test.sol\":12424:12465  Transfer(address(0), msg.sender, _tTotal) */\n  mload(0x40)\n  tag_34\n  swap2\n  swap1\n  tag_35\n  jump\t// in\ntag_34:\n  mload(0x40)\n  dup1\n  swap2\n  sub\n  swap1\n  log3\n    /* \"contracts/test.sol\":11938:12472  constructor(... */\n  pop\n  pop\n  pop\n    /* \"contracts/test.sol\":11165:15707  contract Contract is IERC20, Ownable {... */\n  jump(tag_36)\n    /* \"contracts/test.sol\":6070:6166  function _msgSender() internal view virtual returns (address) {... */\ntag_13:\n    /* \"contracts/test.sol\":6123:6130  address */\n  0x00\n    /* \"contracts/test.sol\":6149:6159  msg.sender */\n  caller\n    /* \"contracts/test.sol\":6142:6159  return msg.sender */\n  swap1\n  pop\n    /* \"contracts/test.sol\":6070:6166  function _msgSender() internal view virtual returns (address) {... */\n  swap1\n  jump\t// out\n    /* \"contracts/test.sol\":8281:8450  function _setOwner(address newOwner) private {... */\ntag_14:\n    /* \"contracts/test.sol\":8336:8352  address oldOwner */\n  0x00\n    /* \"contracts/test.sol\":8355:8361  _owner */\n  dup1\n  0x00\n  swap1\n  sload\n  swap1\n  0x0100\n  exp\n  swap1\n  div\n  0xffffffffffffffffffffffffffffffffffffffff\n  and\n    /* \"contracts/test.sol\":8336:8361  address oldOwner = _owner */\n  swap1\n  pop\n    /* \"contracts/test.sol\":8380:8388  newOwner */\n  dup2\n    /* \"contracts/test.sol\":8371:8377  _owner */\n  0x00\n  dup1\n    /* \"contracts/test.sol\":8371:8388  _owner = newOwner */\n  0x0100\n  exp\n  dup2\n  sload\n  dup2\n  0xffffffffffffffffffffffffffffffffffffffff\n  mul\n  not\n  and\n  swap1\n  dup4\n  0xffffffffffffffffffffffffffffffffffffffff\n  and\n  mul\n  or\n  swap1\n  sstore\n  pop\n    /* \"contracts/test.sol\":8434:8442  newOwner */\n  dup2\n    /* \"contracts/test.sol\":8403:8443  OwnershipTransferred(oldOwner, newOwner) */\n  0xffffffffffffffffffffffffffffffffffffffff\n  and\n    /* \"contracts/test.sol\":8424:8432  oldOwner */\n  dup2\n    /* \"contracts/test.sol\":8403:8443  OwnershipTransferred(oldOwner, newOwner) */\n  0xffffffffffffffffffffffffffffffffffffffff\n  and\n  0x8be0079c531659141344cd1fd0a4f28419497f9722a3daafe3b4186f6b6457e0\n  mload(0x40)\n  mload(0x40)\n  dup1\n  swap2\n  sub\n  swap1\n  log3\n    /* \"contracts/test.sol\":8326:8450  {... */\n  pop\n    /* \"contracts/test.sol\":8281:8450  function _setOwner(address newOwner) private {... */\n  pop\n  jump\t// out\n    /* \"contracts/test.sol\":11165:15707  contract Contract is IERC20, Ownable {... */\ntag_17:\n  dup3\n  dup1\n  sload\n  tag_39\n  swap1\n  tag_40\n  jump\t// in\ntag_39:\n  swap1\n  0x00\n  mstore\n  keccak256(0x00, 0x20)\n  swap1\n  0x1f\n  add\n  0x20\n  swap1\n  div\n  dup2\n  add\n  swap3\n  dup3\n  tag_42\n  jumpi\n  0x00\n  dup6\n  sstore\n  jump(tag_41)\ntag_42:\n  dup3\n  0x1f\n  lt\n  tag_43\n  jumpi\n  dup1\n  mload\n  not(0xff)\n  and\n  dup4\n  dup1\n  add\n  or\n  dup6\n  sstore\n  jump(tag_41)\ntag_43:\n  dup3\n  dup1\n  add\n  0x01\n  add\n  dup6\n  sstore\n  dup3\n  iszero\n  tag_41\n  jumpi\n  swap2\n  dup3\n  add\ntag_44:\n  dup3\n  dup2\n  gt\n  iszero\n  tag_45\n  jumpi\n  dup3\n  mload\n  dup3\n  sstore\n  swap2\n  0x20\n  add\n  swap2\n  swap1\n  0x01\n  add\n  swap1\n  jump(tag_44)\ntag_45:\ntag_41:\n  pop\n  swap1\n  pop\n  tag_46\n  swap2\n  swap1\n  tag_47\n  jump\t// in\ntag_46:\n  pop\n  swap1\n  jump\t// out\ntag_47:\ntag_48:\n  dup1\n  dup3\n  gt\n  iszero\n  tag_49\n  jumpi\n  0x00\n  dup2\n  0x00\n  swap1\n  sstore\n  pop\n  0x01\n  add\n  jump(tag_48)\ntag_49:\n  pop\n  swap1\n  jump\t// out\n    /* \"#utility.yul\":7:428   */\ntag_51:\n    /* \"#utility.yul\":96:101   */\n  0x00\n    /* \"#utility.yul\":121:187   */\n  tag_53\n    /* \"#utility.yul\":137:186   */\n  tag_54\n    /* \"#utility.yul\":179:185   */\n  dup5\n    /* \"#utility.yul\":137:186   */\n  tag_55\n  jump\t// in\ntag_54:\n    /* \"#utility.yul\":121:187   */\n  tag_56\n  jump\t// in\ntag_53:\n    /* \"#utility.yul\":112:187   */\n  swap1\n  pop\n    /* \"#utility.yul\":210:216   */\n  dup3\n    /* \"#utility.yul\":203:208   */\n  dup2\n    /* \"#utility.yul\":196:217   */\n  mstore\n    /* \"#utility.yul\":248:252   */\n  0x20\n    /* \"#utility.yul\":241:246   */\n  dup2\n    /* \"#utility.yul\":237:253   */\n  add\n    /* \"#utility.yul\":286:289   */\n  dup5\n    /* \"#utility.yul\":277:283   */\n  dup5\n    /* \"#utility.yul\":272:275   */\n  dup5\n    /* \"#utility.yul\":268:284   */\n  add\n    /* \"#utility.yul\":265:290   */\n  gt\n    /* \"#utility.yul\":262:264   */\n  iszero\n  tag_57\n  jumpi\n    /* \"#utility.yul\":293:372   */\n  tag_58\n  tag_59\n  jump\t// in\ntag_58:\n    /* \"#utility.yul\":262:264   */\ntag_57:\n    /* \"#utility.yul\":383:422   */\n  tag_60\n    /* \"#utility.yul\":415:421   */\n  dup5\n    /* \"#utility.yul\":410:413   */\n  dup3\n    /* \"#utility.yul\":405:408   */\n  dup6\n    /* \"#utility.yul\":383:422   */\n  tag_61\n  jump\t// in\ntag_60:\n    /* \"#utility.yul\":102:428   */\n  pop\n  swap4\n  swap3\n  pop\n  pop\n  pop\n  jump\t// out\n    /* \"#utility.yul\":434:577   */\ntag_62:\n    /* \"#utility.yul\":491:496   */\n  0x00\n    /* \"#utility.yul\":522:528   */\n  dup2\n    /* \"#utility.yul\":516:529   */\n  mload\n    /* \"#utility.yul\":507:529   */\n  swap1\n  pop\n    /* \"#utility.yul\":538:571   */\n  tag_64\n    /* \"#utility.yul\":565:570   */\n  dup2\n    /* \"#utility.yul\":538:571   */\n  tag_65\n  jump\t// in\ntag_64:\n    /* \"#utility.yul\":497:577   */\n  swap3\n  swap2\n  pop\n  pop\n  jump\t// out\n    /* \"#utility.yul\":597:952   */\ntag_66:\n    /* \"#utility.yul\":664:669   */\n  0x00\n    /* \"#utility.yul\":713:716   */\n  dup3\n    /* \"#utility.yul\":706:710   */\n  0x1f\n    /* \"#utility.yul\":698:704   */\n  dup4\n    /* \"#utility.yul\":694:711   */\n  add\n    /* \"#utility.yul\":690:717   */\n  slt\n    /* \"#utility.yul\":680:682   */\n  tag_68\n  jumpi\n    /* \"#utility.yul\":721:800   */\n  tag_69\n  tag_70\n  jump\t// in\ntag_69:\n    /* \"#utility.yul\":680:682   */\ntag_68:\n    /* \"#utility.yul\":831:837   */\n  dup2\n    /* \"#utility.yul\":825:838   */\n  mload\n    /* \"#utility.yul\":856:946   */\n  tag_71\n    /* \"#utility.yul\":942:945   */\n  dup5\n    /* \"#utility.yul\":934:940   */\n  dup3\n    /* \"#utility.yul\":927:931   */\n  0x20\n    /* \"#utility.yul\":919:925   */\n  dup7\n    /* \"#utility.yul\":915:932   */\n  add\n    /* \"#utility.yul\":856:946   */\n  tag_51\n  jump\t// in\ntag_71:\n    /* \"#utility.yul\":847:946   */\n  swap2\n  pop\n    /* \"#utility.yul\":670:952   */\n  pop\n  swap3\n  swap2\n  pop\n  pop\n  jump\t// out\n    /* \"#utility.yul\":958:1309   */\ntag_23:\n    /* \"#utility.yul\":1028:1034   */\n  0x00\n    /* \"#utility.yul\":1077:1079   */\n  0x20\n    /* \"#utility.yul\":1065:1074   */\n  dup3\n    /* \"#utility.yul\":1056:1063   */\n  dup5\n    /* \"#utility.yul\":1052:1075   */\n  sub\n    /* \"#utility.yul\":1048:1080   */\n  slt\n    /* \"#utility.yul\":1045:1047   */\n  iszero\n  tag_73\n  jumpi\n    /* \"#utility.yul\":1083:1162   */\n  tag_74\n  tag_75\n  jump\t// in\ntag_74:\n    /* \"#utility.yul\":1045:1047   */\ntag_73:\n    /* \"#utility.yul\":1203:1204   */\n  0x00\n    /* \"#utility.yul\":1228:1292   */\n  tag_76\n    /* \"#utility.yul\":1284:1291   */\n  dup5\n    /* \"#utility.yul\":1275:1281   */\n  dup3\n    /* \"#utility.yul\":1264:1273   */\n  dup6\n    /* \"#utility.yul\":1260:1282   */\n  add\n    /* \"#utility.yul\":1228:1292   */\n  tag_62\n  jump\t// in\ntag_76:\n    /* \"#utility.yul\":1218:1292   */\n  swap2\n  pop\n    /* \"#utility.yul\":1174:1302   */\n  pop\n    /* \"#utility.yul\":1035:1309   */\n  swap3\n  swap2\n  pop\n  pop\n  jump\t// out\n    /* \"#utility.yul\":1315:2324   */\ntag_7:\n    /* \"#utility.yul\":1423:1429   */\n  0x00\n    /* \"#utility.yul\":1431:1437   */\n  dup1\n    /* \"#utility.yul\":1439:1445   */\n  0x00\n    /* \"#utility.yul\":1488:1490   */\n  0x60\n    /* \"#utility.yul\":1476:1485   */\n  dup5\n    /* \"#utility.yul\":1467:1474   */\n  dup7\n    /* \"#utility.yul\":1463:1486   */\n  sub\n    /* \"#utility.yul\":1459:1491   */\n  slt\n    /* \"#utility.yul\":1456:1458   */\n  iszero\n  tag_78\n  jumpi\n    /* \"#utility.yul\":1494:1573   */\n  tag_79\n  tag_75\n  jump\t// in\ntag_79:\n    /* \"#utility.yul\":1456:1458   */\ntag_78:\n    /* \"#utility.yul\":1635:1636   */\n  0x00\n    /* \"#utility.yul\":1624:1633   */\n  dup5\n    /* \"#utility.yul\":1620:1637   */\n  add\n    /* \"#utility.yul\":1614:1638   */\n  mload\n    /* \"#utility.yul\":1665:1683   */\n  0xffffffffffffffff\n    /* \"#utility.yul\":1657:1663   */\n  dup2\n    /* \"#utility.yul\":1654:1684   */\n  gt\n    /* \"#utility.yul\":1651:1653   */\n  iszero\n  tag_80\n  jumpi\n    /* \"#utility.yul\":1687:1766   */\n  tag_81\n  tag_82\n  jump\t// in\ntag_81:\n    /* \"#utility.yul\":1651:1653   */\ntag_80:\n    /* \"#utility.yul\":1792:1866   */\n  tag_83\n    /* \"#utility.yul\":1858:1865   */\n  dup7\n    /* \"#utility.yul\":1849:1855   */\n  dup3\n    /* \"#utility.yul\":1838:1847   */\n  dup8\n    /* \"#utility.yul\":1834:1856   */\n  add\n    /* \"#utility.yul\":1792:1866   */\n  tag_66\n  jump\t// in\ntag_83:\n    /* \"#utility.yul\":1782:1866   */\n  swap4\n  pop\n    /* \"#utility.yul\":1585:1876   */\n  pop\n    /* \"#utility.yul\":1936:1938   */\n  0x20\n    /* \"#utility.yul\":1925:1934   */\n  dup5\n    /* \"#utility.yul\":1921:1939   */\n  add\n    /* \"#utility.yul\":1915:1940   */\n  mload\n    /* \"#utility.yul\":1967:1985   */\n  0xffffffffffffffff\n    /* \"#utility.yul\":1959:1965   */\n  dup2\n    /* \"#utility.yul\":1956:1986   */\n  gt\n    /* \"#utility.yul\":1953:1955   */\n  iszero\n  tag_84\n  jumpi\n    /* \"#utility.yul\":1989:2068   */\n  tag_85\n  tag_82\n  jump\t// in\ntag_85:\n    /* \"#utility.yul\":1953:1955   */\ntag_84:\n    /* \"#utility.yul\":2094:2168   */\n  tag_86\n    /* \"#utility.yul\":2160:2167   */\n  dup7\n    /* \"#utility.yul\":2151:2157   */\n  dup3\n    /* \"#utility.yul\":2140:2149   */\n  dup8\n    /* \"#utility.yul\":2136:2158   */\n  add\n    /* \"#utility.yul\":2094:2168   */\n  tag_66\n  jump\t// in\ntag_86:\n    /* \"#utility.yul\":2084:2168   */\n  swap3\n  pop\n    /* \"#utility.yul\":1886:2178   */\n  pop\n    /* \"#utility.yul\":2217:2219   */\n  0x40\n    /* \"#utility.yul\":2243:2307   */\n  tag_87\n    /* \"#utility.yul\":2299:2306   */\n  dup7\n    /* \"#utility.yul\":2290:2296   */\n  dup3\n    /* \"#utility.yul\":2279:2288   */\n  dup8\n    /* \"#utility.yul\":2275:2297   */\n  add\n    /* \"#utility.yul\":2243:2307   */\n  tag_62\n  jump\t// in\ntag_87:\n    /* \"#utility.yul\":2233:2307   */\n  swap2\n  pop\n    /* \"#utility.yul\":2188:2317   */\n  pop\n    /* \"#utility.yul\":1446:2324   */\n  swap3\n  pop\n  swap3\n  pop\n  swap3\n  jump\t// out\n    /* \"#utility.yul\":2330:2448   */\ntag_88:\n    /* \"#utility.yul\":2417:2441   */\n  tag_90\n    /* \"#utility.yul\":2435:2440   */\n  dup2\n    /* \"#utility.yul\":2417:2441   */\n  tag_91\n  jump\t// in\ntag_90:\n    /* \"#utility.yul\":2412:2415   */\n  dup3\n    /* \"#utility.yul\":2405:2442   */\n  mstore\n    /* \"#utility.yul\":2395:2448   */\n  pop\n  pop\n  jump\t// out\n    /* \"#utility.yul\":2454:2572   */\ntag_92:\n    /* \"#utility.yul\":2541:2565   */\n  tag_94\n    /* \"#utility.yul\":2559:2564   */\n  dup2\n    /* \"#utility.yul\":2541:2565   */\n  tag_95\n  jump\t// in\ntag_94:\n    /* \"#utility.yul\":2536:2539   */\n  dup3\n    /* \"#utility.yul\":2529:2566   */\n  mstore\n    /* \"#utility.yul\":2519:2572   */\n  pop\n  pop\n  jump\t// out\n    /* \"#utility.yul\":2578:2910   */\ntag_29:\n    /* \"#utility.yul\":2699:2703   */\n  0x00\n    /* \"#utility.yul\":2737:2739   */\n  0x40\n    /* \"#utility.yul\":2726:2735   */\n  dup3\n    /* \"#utility.yul\":2722:2740   */\n  add\n    /* \"#utility.yul\":2714:2740   */\n  swap1\n  pop\n    /* \"#utility.yul\":2750:2821   */\n  tag_97\n    /* \"#utility.yul\":2818:2819   */\n  0x00\n    /* \"#utility.yul\":2807:2816   */\n  dup4\n    /* \"#utility.yul\":2803:2820   */\n  add\n    /* \"#utility.yul\":2794:2800   */\n  dup6\n    /* \"#utility.yul\":2750:2821   */\n  tag_88\n  jump\t// in\ntag_97:\n    /* \"#utility.yul\":2831:2903   */\n  tag_98\n    /* \"#utility.yul\":2899:2901   */\n  0x20\n    /* \"#utility.yul\":2888:2897   */\n  dup4\n    /* \"#utility.yul\":2884:2902   */\n  add\n    /* \"#utility.yul\":2875:2881   */\n  dup5\n    /* \"#utility.yul\":2831:2903   */\n  tag_88\n  jump\t// in\ntag_98:\n    /* \"#utility.yul\":2704:2910   */\n  swap4\n  swap3\n  pop\n  pop\n  pop\n  jump\t// out\n    /* \"#utility.yul\":2916:3138   */\ntag_35:\n    /* \"#utility.yul\":3009:3013   */\n  0x00\n    /* \"#utility.yul\":3047:3049   */\n  0x20\n    /* \"#utility.yul\":3036:3045   */\n  dup3\n    /* \"#utility.yul\":3032:3050   */\n  add\n    /* \"#utility.yul\":3024:3050   */\n  swap1\n  pop\n    /* \"#utility.yul\":3060:3131   */\n  tag_100\n    /* \"#utility.yul\":3128:3129   */\n  0x00\n    /* \"#utility.yul\":3117:3126   */\n  dup4\n    /* \"#utility.yul\":3113:3130   */\n  add\n    /* \"#utility.yul\":3104:3110   */\n  dup5\n    /* \"#utility.yul\":3060:3131   */\n  tag_92\n  jump\t// in\ntag_100:\n    /* \"#utility.yul\":3014:3138   */\n  swap3\n  swap2\n  pop\n  pop\n  jump\t// out\n    /* \"#utility.yul\":3144:3273   */\ntag_56:\n    /* \"#utility.yul\":3178:3184   */\n  0x00\n    /* \"#utility.yul\":3205:3225   */\n  tag_102\n  tag_103\n  jump\t// in\ntag_102:\n    /* \"#utility.yul\":3195:3225   */\n  swap1\n  pop\n    /* \"#utility.yul\":3234:3267   */\n  tag_104\n    /* \"#utility.yul\":3262:3266   */\n  dup3\n    /* \"#utility.yul\":3254:3260   */\n  dup3\n    /* \"#utility.yul\":3234:3267   */\n  tag_105\n  jump\t// in\ntag_104:\n    /* \"#utility.yul\":3185:3273   */\n  swap2\n  swap1\n  pop\n  jump\t// out\n    /* \"#utility.yul\":3279:3354   */\ntag_103:\n    /* \"#utility.yul\":3312:3318   */\n  0x00\n    /* \"#utility.yul\":3345:3347   */\n  0x40\n    /* \"#utility.yul\":3339:3348   */\n  mload\n    /* \"#utility.yul\":3329:3348   */\n  swap1\n  pop\n    /* \"#utility.yul\":3319:3354   */\n  swap1\n  jump\t// out\n    /* \"#utility.yul\":3360:3668   */\ntag_55:\n    /* \"#utility.yul\":3422:3426   */\n  0x00\n    /* \"#utility.yul\":3512:3530   */\n  0xffffffffffffffff\n    /* \"#utility.yul\":3504:3510   */\n  dup3\n    /* \"#utility.yul\":3501:3531   */\n  gt\n    /* \"#utility.yul\":3498:3500   */\n  iszero\n  tag_108\n  jumpi\n    /* \"#utility.yul\":3534:3552   */\n  tag_109\n  tag_110\n  jump\t// in\ntag_109:\n    /* \"#utility.yul\":3498:3500   */\ntag_108:\n    /* \"#utility.yul\":3572:3601   */\n  tag_111\n    /* \"#utility.yul\":3594:3600   */\n  dup3\n    /* \"#utility.yul\":3572:3601   */\n  tag_112\n  jump\t// in\ntag_111:\n    /* \"#utility.yul\":3564:3601   */\n  swap1\n  pop\n    /* \"#utility.yul\":3656:3660   */\n  0x20\n    /* \"#utility.yul\":3650:3654   */\n  dup2\n    /* \"#utility.yul\":3646:3661   */\n  add\n    /* \"#utility.yul\":3638:3661   */\n  swap1\n  pop\n    /* \"#utility.yul\":3427:3668   */\n  swap2\n  swap1\n  pop\n  jump\t// out\n    /* \"#utility.yul\":3674:4522   */\ntag_113:\n    /* \"#utility.yul\":3735:3740   */\n  0x00\n    /* \"#utility.yul\":3742:3746   */\n  dup1\n    /* \"#utility.yul\":3766:3772   */\n  dup3\n    /* \"#utility.yul\":3757:3772   */\n  swap2\n  pop\n    /* \"#utility.yul\":3790:3795   */\n  dup4\n    /* \"#utility.yul\":3781:3795   */\n  swap1\n  pop\n    /* \"#utility.yul\":3804:4516   */\ntag_115:\n    /* \"#utility.yul\":3825:3826   */\n  0x01\n    /* \"#utility.yul\":3815:3823   */\n  dup6\n    /* \"#utility.yul\":3812:3827   */\n  gt\n    /* \"#utility.yul\":3804:4516   */\n  iszero\n  tag_117\n  jumpi\n    /* \"#utility.yul\":3920:3924   */\n  dup1\n    /* \"#utility.yul\":3915:3918   */\n  dup7\n    /* \"#utility.yul\":3911:3925   */\n  div\n    /* \"#utility.yul\":3905:3909   */\n  dup2\n    /* \"#utility.yul\":3902:3926   */\n  gt\n    /* \"#utility.yul\":3899:3901   */\n  iszero\n  tag_118\n  jumpi\n    /* \"#utility.yul\":3929:3947   */\n  tag_119\n  tag_120\n  jump\t// in\ntag_119:\n    /* \"#utility.yul\":3899:3901   */\ntag_118:\n    /* \"#utility.yul\":3979:3980   */\n  0x01\n    /* \"#utility.yul\":3969:3977   */\n  dup6\n    /* \"#utility.yul\":3965:3981   */\n  and\n    /* \"#utility.yul\":3962:3964   */\n  iszero\n  tag_121\n  jumpi\n    /* \"#utility.yul\":4394:4398   */\n  dup1\n    /* \"#utility.yul\":4387:4392   */\n  dup3\n    /* \"#utility.yul\":4383:4399   */\n  mul\n    /* \"#utility.yul\":4374:4399   */\n  swap2\n  pop\n    /* \"#utility.yul\":3962:3964   */\ntag_121:\n    /* \"#utility.yul\":4444:4448   */\n  dup1\n    /* \"#utility.yul\":4438:4442   */\n  dup2\n    /* \"#utility.yul\":4434:4449   */\n  mul\n    /* \"#utility.yul\":4426:4449   */\n  swap1\n  pop\n    /* \"#utility.yul\":4474:4506   */\n  tag_122\n    /* \"#utility.yul\":4497:4505   */\n  dup6\n    /* \"#utility.yul\":4474:4506   */\n  tag_123\n  jump\t// in\ntag_122:\n    /* \"#utility.yul\":4462:4506   */\n  swap5\n  pop\n    /* \"#utility.yul\":3804:4516   */\n  jump(tag_115)\ntag_117:\n    /* \"#utility.yul\":3747:4522   */\n  swap5\n  pop\n  swap5\n  swap3\n  pop\n  pop\n  pop\n  jump\t// out\n    /* \"#utility.yul\":4528:4809   */\ntag_2:\n    /* \"#utility.yul\":4586:4591   */\n  0x00\n    /* \"#utility.yul\":4610:4633   */\n  tag_125\n    /* \"#utility.yul\":4628:4632   */\n  dup3\n    /* \"#utility.yul\":4610:4633   */\n  tag_95\n  jump\t// in\ntag_125:\n    /* \"#utility.yul\":4602:4633   */\n  swap2\n  pop\n    /* \"#utility.yul\":4654:4679   */\n  tag_126\n    /* \"#utility.yul\":4670:4678   */\n  dup4\n    /* \"#utility.yul\":4654:4679   */\n  tag_127\n  jump\t// in\ntag_126:\n    /* \"#utility.yul\":4642:4679   */\n  swap3\n  pop\n    /* \"#utility.yul\":4698:4802   */\n  tag_128\n    /* \"#utility.yul\":4735:4801   */\n  0xffffffffffffffffffffffffffffffffffffffffffffffffffffffffffffffff\n    /* \"#utility.yul\":4725:4733   */\n  dup5\n    /* \"#utility.yul\":4719:4723   */\n  dup5\n    /* \"#utility.yul\":4698:4802   */\n  tag_129\n  jump\t// in\ntag_128:\n    /* \"#utility.yul\":4689:4802   */\n  swap1\n  pop\n    /* \"#utility.yul\":4592:4809   */\n  swap3\n  swap2\n  pop\n  pop\n  jump\t// out\n    /* \"#utility.yul\":4815:5888   */\ntag_129:\n    /* \"#utility.yul\":4869:4874   */\n  0x00\n    /* \"#utility.yul\":5060:5068   */\n  dup3\n    /* \"#utility.yul\":5050:5052   */\n  tag_131\n  jumpi\n    /* \"#utility.yul\":5081:5082   */\n  0x01\n    /* \"#utility.yul\":5072:5082   */\n  swap1\n  pop\n    /* \"#utility.yul\":5083:5088   */\n  jump(tag_130)\n    /* \"#utility.yul\":5050:5052   */\ntag_131:\n    /* \"#utility.yul\":5109:5113   */\n  dup2\n    /* \"#utility.yul\":5099:5101   */\n  tag_132\n  jumpi\n    /* \"#utility.yul\":5126:5127   */\n  0x00\n    /* \"#utility.yul\":5117:5127   */\n  swap1\n  pop\n    /* \"#utility.yul\":5128:5133   */\n  jump(tag_130)\n    /* \"#utility.yul\":5099:5101   */\ntag_132:\n    /* \"#utility.yul\":5195:5199   */\n  dup2\n    /* \"#utility.yul\":5243:5244   */\n  0x01\n    /* \"#utility.yul\":5238:5265   */\n  dup2\n  eq\n  tag_134\n  jumpi\n    /* \"#utility.yul\":5279:5280   */\n  0x02\n    /* \"#utility.yul\":5274:5465   */\n  dup2\n  eq\n  tag_135\n  jumpi\n    /* \"#utility.yul\":5188:5465   */\n  jump(tag_133)\n    /* \"#utility.yul\":5238:5265   */\ntag_134:\n    /* \"#utility.yul\":5256:5257   */\n  0x01\n    /* \"#utility.yul\":5247:5257   */\n  swap2\n  pop\n    /* \"#utility.yul\":5258:5263   */\n  pop\n  jump(tag_130)\n    /* \"#utility.yul\":5274:5465   */\ntag_135:\n    /* \"#utility.yul\":5319:5322   */\n  0xff\n    /* \"#utility.yul\":5309:5317   */\n  dup5\n    /* \"#utility.yul\":5306:5323   */\n  gt\n    /* \"#utility.yul\":5303:5305   */\n  iszero\n  tag_136\n  jumpi\n    /* \"#utility.yul\":5326:5344   */\n  tag_137\n  tag_120\n  jump\t// in\ntag_137:\n    /* \"#utility.yul\":5303:5305   */\ntag_136:\n    /* \"#utility.yul\":5375:5383   */\n  dup4\n    /* \"#utility.yul\":5372:5373   */\n  0x02\n    /* \"#utility.yul\":5368:5384   */\n  exp\n    /* \"#utility.yul\":5359:5384   */\n  swap2\n  pop\n    /* \"#utility.yul\":5410:5413   */\n  dup5\n    /* \"#utility.yul\":5403:5408   */\n  dup3\n    /* \"#utility.yul\":5400:5414   */\n  gt\n    /* \"#utility.yul\":5397:5399   */\n  iszero\n  tag_138\n  jumpi\n    /* \"#utility.yul\":5417:5435   */\n  tag_139\n  tag_120\n  jump\t// in\ntag_139:\n    /* \"#utility.yul\":5397:5399   */\ntag_138:\n    /* \"#utility.yul\":5450:5455   */\n  pop\n  jump(tag_130)\n    /* \"#utility.yul\":5188:5465   */\ntag_133:\n  pop\n    /* \"#utility.yul\":5574:5576   */\n  0x20\n    /* \"#utility.yul\":5564:5572   */\n  dup4\n    /* \"#utility.yul\":5561:5577   */\n  lt\n    /* \"#utility.yul\":5555:5558   */\n  0x0133\n    /* \"#utility.yul\":5549:5553   */\n  dup4\n    /* \"#utility.yul\":5546:5559   */\n  lt\n    /* \"#utility.yul\":5542:5578   */\n  and\n    /* \"#utility.yul\":5524:5526   */\n  0x4e\n    /* \"#utility.yul\":5514:5522   */\n  dup5\n    /* \"#utility.yul\":5511:5527   */\n  lt\n    /* \"#utility.yul\":5506:5508   */\n  0x0b\n    /* \"#utility.yul\":5500:5504   */\n  dup5\n    /* \"#utility.yul\":5497:5509   */\n  lt\n    /* \"#utility.yul\":5493:5528   */\n  and\n    /* \"#utility.yul\":5477:5588   */\n  or\n    /* \"#utility.yul\":5474:5476   */\n  iszero\n  tag_140\n  jumpi\n    /* \"#utility.yul\":5630:5638   */\n  dup3\n    /* \"#utility.yul\":5624:5628   */\n  dup3\n    /* \"#utility.yul\":5620:5639   */\n  exp\n    /* \"#utility.yul\":5611:5639   */\n  swap1\n  pop\n    /* \"#utility.yul\":5665:5668   */\n  dup4\n    /* \"#utility.yul\":5658:5663   */\n  dup2\n    /* \"#utility.yul\":5655:5669   */\n  gt\n    /* \"#utility.yul\":5652:5654   */\n  iszero\n  tag_141\n  jumpi\n    /* \"#utility.yul\":5672:5690   */\n  tag_142\n  tag_120\n  jump\t// in\ntag_142:\n    /* \"#utility.yul\":5652:5654   */\ntag_141:\n    /* \"#utility.yul\":5705:5710   */\n  jump(tag_130)\n    /* \"#utility.yul\":5474:5476   */\ntag_140:\n    /* \"#utility.yul\":5745:5787   */\n  tag_143\n    /* \"#utility.yul\":5783:5786   */\n  dup5\n    /* \"#utility.yul\":5773:5781   */\n  dup5\n    /* \"#utility.yul\":5767:5771   */\n  dup5\n    /* \"#utility.yul\":5764:5765   */\n  0x01\n    /* \"#utility.yul\":5745:5787   */\n  tag_113\n  jump\t// in\ntag_143:\n    /* \"#utility.yul\":5730:5787   */\n  swap3\n  pop\n  swap1\n  pop\n    /* \"#utility.yul\":5819:5823   */\n  dup2\n    /* \"#utility.yul\":5814:5817   */\n  dup5\n    /* \"#utility.yul\":5810:5824   */\n  div\n    /* \"#utility.yul\":5803:5808   */\n  dup2\n    /* \"#utility.yul\":5800:5825   */\n  gt\n    /* \"#utility.yul\":5797:5799   */\n  iszero\n  tag_144\n  jumpi\n    /* \"#utility.yul\":5828:5846   */\n  tag_145\n  tag_120\n  jump\t// in\ntag_145:\n    /* \"#utility.yul\":5797:5799   */\ntag_144:\n    /* \"#utility.yul\":5877:5881   */\n  dup2\n    /* \"#utility.yul\":5870:5875   */\n  dup2\n    /* \"#utility.yul\":5866:5882   */\n  mul\n    /* \"#utility.yul\":5857:5882   */\n  swap1\n  pop\n    /* \"#utility.yul\":4875:5888   */\ntag_130:\n  swap4\n  swap3\n  pop\n  pop\n  pop\n  jump\t// out\n    /* \"#utility.yul\":5894:6242   */\ntag_4:\n    /* \"#utility.yul\":5934:5941   */\n  0x00\n    /* \"#utility.yul\":5957:5977   */\n  tag_147\n    /* \"#utility.yul\":5975:5976   */\n  dup3\n    /* \"#utility.yul\":5957:5977   */\n  tag_95\n  jump\t// in\ntag_147:\n    /* \"#utility.yul\":5952:5977   */\n  swap2\n  pop\n    /* \"#utility.yul\":5991:6011   */\n  tag_148\n    /* \"#utility.yul\":6009:6010   */\n  dup4\n    /* \"#utility.yul\":5991:6011   */\n  tag_95\n  jump\t// in\ntag_148:\n    /* \"#utility.yul\":5986:6011   */\n  swap3\n  pop\n    /* \"#utility.yul\":6179:6180   */\n  dup2\n    /* \"#utility.yul\":6111:6177   */\n  0xffffffffffffffffffffffffffffffffffffffffffffffffffffffffffffffff\n    /* \"#utility.yul\":6107:6181   */\n  div\n    /* \"#utility.yul\":6104:6105   */\n  dup4\n    /* \"#utility.yul\":6101:6182   */\n  gt\n    /* \"#utility.yul\":6096:6097   */\n  dup3\n    /* \"#utility.yul\":6089:6098   */\n  iszero\n    /* \"#utility.yul\":6082:6099   */\n  iszero\n    /* \"#utility.yul\":6078:6183   */\n  and\n    /* \"#utility.yul\":6075:6077   */\n  iszero\n  tag_149\n  jumpi\n    /* \"#utility.yul\":6186:6204   */\n  tag_150\n  tag_120\n  jump\t// in\ntag_150:\n    /* \"#utility.yul\":6075:6077   */\ntag_149:\n    /* \"#utility.yul\":6234:6235   */\n  dup3\n    /* \"#utility.yul\":6231:6232   */\n  dup3\n    /* \"#utility.yul\":6227:6236   */\n  mul\n    /* \"#utility.yul\":6216:6236   */\n  swap1\n  pop\n    /* \"#utility.yul\":5942:6242   */\n  swap3\n  swap2\n  pop\n  pop\n  jump\t// out\n    /* \"#utility.yul\":6248:6344   */\ntag_91:\n    /* \"#utility.yul\":6285:6292   */\n  0x00\n    /* \"#utility.yul\":6314:6338   */\n  tag_152\n    /* \"#utility.yul\":6332:6337   */\n  dup3\n    /* \"#utility.yul\":6314:6338   */\n  tag_153\n  jump\t// in\ntag_152:\n    /* \"#utility.yul\":6303:6338   */\n  swap1\n  pop\n    /* \"#utility.yul\":6293:6344   */\n  swap2\n  swap1\n  pop\n  jump\t// out\n    /* \"#utility.yul\":6350:6476   */\ntag_153:\n    /* \"#utility.yul\":6387:6394   */\n  0x00\n    /* \"#utility.yul\":6427:6469   */\n  0xffffffffffffffffffffffffffffffffffffffff\n    /* \"#utility.yul\":6420:6425   */\n  dup3\n    /* \"#utility.yul\":6416:6470   */\n  and\n    /* \"#utility.yul\":6405:6470   */\n  swap1\n  pop\n    /* \"#utility.yul\":6395:6476   */\n  swap2\n  swap1\n  pop\n  jump\t// out\n    /* \"#utility.yul\":6482:6559   */\ntag_95:\n    /* \"#utility.yul\":6519:6526   */\n  0x00\n    /* \"#utility.yul\":6548:6553   */\n  dup2\n    /* \"#utility.yul\":6537:6553   */\n  swap1\n  pop\n    /* \"#utility.yul\":6527:6559   */\n  swap2\n  swap1\n  pop\n  jump\t// out\n    /* \"#utility.yul\":6565:6651   */\ntag_127:\n    /* \"#utility.yul\":6600:6607   */\n  0x00\n    /* \"#utility.yul\":6640:6644   */\n  0xff\n    /* \"#utility.yul\":6633:6638   */\n  dup3\n    /* \"#utility.yul\":6629:6645   */\n  and\n    /* \"#utility.yul\":6618:6645   */\n  swap1\n  pop\n    /* \"#utility.yul\":6608:6651   */\n  swap2\n  swap1\n  pop\n  jump\t// out\n    /* \"#utility.yul\":6657:6964   */\ntag_61:\n    /* \"#utility.yul\":6725:6726   */\n  0x00\n    /* \"#utility.yul\":6735:6848   */\ntag_158:\n    /* \"#utility.yul\":6749:6755   */\n  dup4\n    /* \"#utility.yul\":6746:6747   */\n  dup2\n    /* \"#utility.yul\":6743:6756   */\n  lt\n    /* \"#utility.yul\":6735:6848   */\n  iszero\n  tag_160\n  jumpi\n    /* \"#utility.yul\":6834:6835   */\n  dup1\n    /* \"#utility.yul\":6829:6832   */\n  dup3\n    /* \"#utility.yul\":6825:6836   */\n  add\n    /* \"#utility.yul\":6819:6837   */\n  mload\n    /* \"#utility.yul\":6815:6816   */\n  dup2\n    /* \"#utility.yul\":6810:6813   */\n  dup5\n    /* \"#utility.yul\":6806:6817   */\n  add\n    /* \"#utility.yul\":6799:6838   */\n  mstore\n    /* \"#utility.yul\":6771:6773   */\n  0x20\n    /* \"#utility.yul\":6768:6769   */\n  dup2\n    /* \"#utility.yul\":6764:6774   */\n  add\n    /* \"#utility.yul\":6759:6774   */\n  swap1\n  pop\n    /* \"#utility.yul\":6735:6848   */\n  jump(tag_158)\ntag_160:\n    /* \"#utility.yul\":6866:6872   */\n  dup4\n    /* \"#utility.yul\":6863:6864   */\n  dup2\n    /* \"#utility.yul\":6860:6873   */\n  gt\n    /* \"#utility.yul\":6857:6859   */\n  iszero\n  tag_161\n  jumpi\n    /* \"#utility.yul\":6946:6947   */\n  0x00\n    /* \"#utility.yul\":6937:6943   */\n  dup5\n    /* \"#utility.yul\":6932:6935   */\n  dup5\n    /* \"#utility.yul\":6928:6944   */\n  add\n    /* \"#utility.yul\":6921:6948   */\n  mstore\n    /* \"#utility.yul\":6857:6859   */\ntag_161:\n    /* \"#utility.yul\":6706:6964   */\n  pop\n  pop\n  pop\n  pop\n  jump\t// out\n    /* \"#utility.yul\":6970:7290   */\ntag_40:\n    /* \"#utility.yul\":7014:7020   */\n  0x00\n    /* \"#utility.yul\":7051:7052   */\n  0x02\n    /* \"#utility.yul\":7045:7049   */\n  dup3\n    /* \"#utility.yul\":7041:7053   */\n  div\n    /* \"#utility.yul\":7031:7053   */\n  swap1\n  pop\n    /* \"#utility.yul\":7098:7099   */\n  0x01\n    /* \"#utility.yul\":7092:7096   */\n  dup3\n    /* \"#utility.yul\":7088:7100   */\n  and\n    /* \"#utility.yul\":7119:7137   */\n  dup1\n    /* \"#utility.yul\":7109:7111   */\n  tag_163\n  jumpi\n    /* \"#utility.yul\":7175:7179   */\n  0x7f\n    /* \"#utility.yul\":7167:7173   */\n  dup3\n    /* \"#utility.yul\":7163:7180   */\n  and\n    /* \"#utility.yul\":7153:7180   */\n  swap2\n  pop\n    /* \"#utility.yul\":7109:7111   */\ntag_163:\n    /* \"#utility.yul\":7237:7239   */\n  0x20\n    /* \"#utility.yul\":7229:7235   */\n  dup3\n    /* \"#utility.yul\":7226:7240   */\n  lt\n    /* \"#utility.yul\":7206:7224   */\n  dup2\n    /* \"#utility.yul\":7203:7241   */\n  eq\n    /* \"#utility.yul\":7200:7202   */\n  iszero\n  tag_164\n  jumpi\n    /* \"#utility.yul\":7256:7274   */\n  tag_165\n  tag_166\n  jump\t// in\ntag_165:\n    /* \"#utility.yul\":7200:7202   */\ntag_164:\n    /* \"#utility.yul\":7021:7290   */\n  pop\n  swap2\n  swap1\n  pop\n  jump\t// out\n    /* \"#utility.yul\":7296:7577   */\ntag_105:\n    /* \"#utility.yul\":7379:7406   */\n  tag_168\n    /* \"#utility.yul\":7401:7405   */\n  dup3\n    /* \"#utility.yul\":7379:7406   */\n  tag_112\n  jump\t// in\ntag_168:\n    /* \"#utility.yul\":7371:7377   */\n  dup2\n    /* \"#utility.yul\":7367:7407   */\n  add\n    /* \"#utility.yul\":7509:7515   */\n  dup2\n    /* \"#utility.yul\":7497:7507   */\n  dup2\n    /* \"#utility.yul\":7494:7516   */\n  lt\n    /* \"#utility.yul\":7473:7491   */\n  0xffffffffffffffff\n    /* \"#utility.yul\":7461:7471   */\n  dup3\n    /* \"#utility.yul\":7458:7492   */\n  gt\n    /* \"#utility.yul\":7455:7517   */\n  or\n    /* \"#utility.yul\":7452:7454   */\n  iszero\n  tag_169\n  jumpi\n    /* \"#utility.yul\":7520:7538   */\n  tag_170\n  tag_110\n  jump\t// in\ntag_170:\n    /* \"#utility.yul\":7452:7454   */\ntag_169:\n    /* \"#utility.yul\":7560:7570   */\n  dup1\n    /* \"#utility.yul\":7556:7558   */\n  0x40\n    /* \"#utility.yul\":7549:7571   */\n  mstore\n    /* \"#utility.yul\":7339:7577   */\n  pop\n  pop\n  pop\n  jump\t// out\n    /* \"#utility.yul\":7583:7763   */\ntag_120:\n    /* \"#utility.yul\":7631:7708   */\n  0x4e487b7100000000000000000000000000000000000000000000000000000000\n    /* \"#utility.yul\":7628:7629   */\n  0x00\n    /* \"#utility.yul\":7621:7709   */\n  mstore\n    /* \"#utility.yul\":7728:7732   */\n  0x11\n    /* \"#utility.yul\":7725:7726   */\n  0x04\n    /* \"#utility.yul\":7718:7733   */\n  mstore\n    /* \"#utility.yul\":7752:7756   */\n  0x24\n    /* \"#utility.yul\":7749:7750   */\n  0x00\n    /* \"#utility.yul\":7742:7757   */\n  revert\n    /* \"#utility.yul\":7769:7949   */\ntag_166:\n    /* \"#utility.yul\":7817:7894   */\n  0x4e487b7100000000000000000000000000000000000000000000000000000000\n    /* \"#utility.yul\":7814:7815   */\n  0x00\n    /* \"#utility.yul\":7807:7895   */\n  mstore\n    /* \"#utility.yul\":7914:7918   */\n  0x22\n    /* \"#utility.yul\":7911:7912   */\n  0x04\n    /* \"#utility.yul\":7904:7919   */\n  mstore\n    /* \"#utility.yul\":7938:7942   */\n  0x24\n    /* \"#utility.yul\":7935:7936   */\n  0x00\n    /* \"#utility.yul\":7928:7943   */\n  revert\n    /* \"#utility.yul\":7955:8135   */\ntag_110:\n    /* \"#utility.yul\":8003:8080   */\n  0x4e487b7100000000000000000000000000000000000000000000000000000000\n    /* \"#utility.yul\":8000:8001   */\n  0x00\n    /* \"#utility.yul\":7993:8081   */\n  mstore\n    /* \"#utility.yul\":8100:8104   */\n  0x41\n    /* \"#utility.yul\":8097:8098   */\n  0x04\n    /* \"#utility.yul\":8090:8105   */\n  mstore\n    /* \"#utility.yul\":8124:8128   */\n  0x24\n    /* \"#utility.yul\":8121:8122   */\n  0x00\n    /* \"#utility.yul\":8114:8129   */\n  revert\n    /* \"#utility.yul\":8141:8258   */\ntag_70:\n    /* \"#utility.yul\":8250:8251   */\n  0x00\n    /* \"#utility.yul\":8247:8248   */\n  dup1\n    /* \"#utility.yul\":8240:8252   */\n  revert\n    /* \"#utility.yul\":8264:8381   */\ntag_59:\n    /* \"#utility.yul\":8373:8374   */\n  0x00\n    /* \"#utility.yul\":8370:8371   */\n  dup1\n    /* \"#utility.yul\":8363:8375   */\n  revert\n    /* \"#utility.yul\":8387:8504   */\ntag_82:\n    /* \"#utility.yul\":8496:8497   */\n  0x00\n    /* \"#utility.yul\":8493:8494   */\n  dup1\n    /* \"#utility.yul\":8486:8498   */\n  revert\n    /* \"#utility.yul\":8510:8627   */\ntag_75:\n    /* \"#utility.yul\":8619:8620   */\n  0x00\n    /* \"#utility.yul\":8616:8617   */\n  dup1\n    /* \"#utility.yul\":8609:8621   */\n  revert\n    /* \"#utility.yul\":8633:8735   */\ntag_112:\n    /* \"#utility.yul\":8674:8680   */\n  0x00\n    /* \"#utility.yul\":8725:8727   */\n  0x1f\n    /* \"#utility.yul\":8721:8728   */\n  not\n    /* \"#utility.yul\":8716:8718   */\n  0x1f\n    /* \"#utility.yul\":8709:8714   */\n  dup4\n    /* \"#utility.yul\":8705:8719   */\n  add\n    /* \"#utility.yul\":8701:8729   */\n  and\n    /* \"#utility.yul\":8691:8729   */\n  swap1\n  pop\n    /* \"#utility.yul\":8681:8735   */\n  swap2\n  swap1\n  pop\n  jump\t// out\n    /* \"#utility.yul\":8741:8843   */\ntag_123:\n    /* \"#utility.yul\":8783:8791   */\n  0x00\n    /* \"#utility.yul\":8830:8835   */\n  dup2\n    /* \"#utility.yul\":8827:8828   */\n  0x01\n    /* \"#utility.yul\":8823:8836   */\n  shr\n    /* \"#utility.yul\":8802:8836   */\n  swap1\n  pop\n    /* \"#utility.yul\":8792:8843   */\n  swap2\n  swap1\n  pop\n  jump\t// out\n    /* \"#utility.yul\":8849:8971   */\ntag_65:\n    /* \"#utility.yul\":8922:8946   */\n  tag_181\n    /* \"#utility.yul\":8940:8945   */\n  dup2\n    /* \"#utility.yul\":8922:8946   */\n  tag_91\n  jump\t// in\ntag_181:\n    /* \"#utility.yul\":8915:8920   */\n  dup2\n    /* \"#utility.yul\":8912:8947   */\n  eq\n    /* \"#utility.yul\":8902:8904   */\n  tag_182\n  jumpi\n    /* \"#utility.yul\":8961:8962   */\n  0x00\n    /* \"#utility.yul\":8958:8959   */\n  dup1\n    /* \"#utility.yul\":8951:8963   */\n  revert\n    /* \"#utility.yul\":8902:8904   */\ntag_182:\n    /* \"#utility.yul\":8892:8971   */\n  pop\n  jump\t// out\n    /* \"contracts/test.sol\":11165:15707  contract Contract is IERC20, Ownable {... */\ntag_36:\n  dataSize(sub_0)\n  dup1\n  dataOffset(sub_0)\n  0x00\n  codecopy\n  0x00\n  return\nstop\n\nsub_0: assembly {\n        /* \"contracts/test.sol\":11165:15707  contract Contract is IERC20, Ownable {... */\n      mstore(0x40, 0x80)\n      jumpi(tag_1, lt(calldatasize, 0x04))\n      shr(0xe0, calldataload(0x00))\n      dup1\n      0x70a08231\n      gt\n      tag_18\n      jumpi\n      dup1\n      0xa9059cbb\n      gt\n      tag_19\n      jumpi\n      dup1\n      0xa9059cbb\n      eq\n      tag_14\n      jumpi\n      dup1\n      0xdd62ed3e\n      eq\n      tag_15\n      jumpi\n      dup1\n      0xf2fde38b\n      eq\n      tag_16\n      jumpi\n      dup1\n      0xf887ea40\n      eq\n      tag_17\n      jumpi\n      jump(tag_2)\n    tag_19:\n      dup1\n      0x70a08231\n      eq\n      tag_10\n      jumpi\n      dup1\n      0x715018a6\n      eq\n      tag_11\n      jumpi\n      dup1\n      0x8da5cb5b\n      eq\n      tag_12\n      jumpi\n      dup1\n      0x95d89b41\n      eq\n      tag_13\n      jumpi\n      jump(tag_2)\n    tag_18:\n      dup1\n      0x23b872dd\n      gt\n      tag_20\n      jumpi\n      dup1\n      0x23b872dd\n      eq\n      tag_6\n      jumpi\n      dup1\n      0x313ce567\n      eq\n      tag_7\n      jumpi\n      dup1\n      0x3b124fe7\n      eq\n      tag_8\n      jumpi\n      dup1\n      0x49bd5a5e\n      eq\n      tag_9\n      jumpi\n      jump(tag_2)\n    tag_20:\n      dup1\n      0x06fdde03\n      eq\n      tag_3\n      jumpi\n      dup1\n      0x095ea7b3\n      eq\n      tag_4\n      jumpi\n      dup1\n      0x18160ddd\n      eq\n      tag_5\n      jumpi\n      jump(tag_2)\n    tag_1:\n      jumpi(tag_2, calldatasize)\n      stop\n    tag_2:\n      0x00\n      dup1\n      revert\n        /* \"contracts/test.sol\":12569:12650  function name() public view returns (string memory) {... */\n    tag_3:\n      callvalue\n      dup1\n      iszero\n      tag_23\n      jumpi\n      0x00\n      dup1\n      revert\n    tag_23:\n      pop\n      tag_24\n      tag_25\n      jump\t// in\n    tag_24:\n      mload(0x40)\n      tag_26\n      swap2\n      swap1\n      tag_27\n      jump\t// in\n    tag_26:\n      mload(0x40)\n      dup1\n      swap2\n      sub\n      swap1\n      return\n        /* \"contracts/test.sol\":13149:13293  function approve(address spender, uint256 amount) external override returns (bool) {... */\n    tag_4:\n      callvalue\n      dup1\n      iszero\n      tag_28\n      jumpi\n      0x00\n      dup1\n      revert\n    tag_28:\n      pop\n      tag_29\n      0x04\n      dup1\n      calldatasize\n      sub\n      dup2\n      add\n      swap1\n      tag_30\n      swap2\n      swap1\n      tag_31\n      jump\t// in\n    tag_30:\n      tag_32\n      jump\t// in\n    tag_29:\n      mload(0x40)\n      tag_33\n      swap2\n      swap1\n      tag_34\n      jump\t// in\n    tag_33:\n      mload(0x40)\n      dup1\n      swap2\n      sub\n      swap1\n      return\n        /* \"contracts/test.sol\":12656:12749  function totalSupply() public view override returns (uint256) {... */\n    tag_5:\n      callvalue\n      dup1\n      iszero\n      tag_35\n      jumpi\n      0x00\n      dup1\n      revert\n    tag_35:\n      pop\n      tag_36\n      tag_37\n      jump\t// in\n    tag_36:\n      mload(0x40)\n      tag_38\n      swap2\n      swap1\n      tag_39\n      jump\t// in\n    tag_38:\n      mload(0x40)\n      dup1\n      swap2\n      sub\n      swap1\n      return\n        /* \"contracts/test.sol\":13648:13974  function transferFrom(... */\n    tag_6:\n      callvalue\n      dup1\n      iszero\n      tag_40\n      jumpi\n      0x00\n      dup1\n      revert\n    tag_40:\n      pop\n      tag_41\n      0x04\n      dup1\n      calldatasize\n      sub\n      dup2\n      add\n      swap1\n      tag_42\n      swap2\n      swap1\n      tag_43\n      jump\t// in\n    tag_42:\n      tag_44\n      jump\t// in\n    tag_41:\n      mload(0x40)\n      tag_45\n      swap2\n      swap1\n      tag_34\n      jump\t// in\n    tag_45:\n      mload(0x40)\n      dup1\n      swap2\n      sub\n      swap1\n      return\n        /* \"contracts/test.sol\":12755:12838  function decimals() public view returns (uint256) {... */\n    tag_7:\n      callvalue\n      dup1\n      iszero\n      tag_46\n      jumpi\n      0x00\n      dup1\n      revert\n    tag_46:\n      pop\n      tag_47\n      tag_48\n      jump\t// in\n    tag_47:\n      mload(0x40)\n      tag_49\n      swap2\n      swap1\n      tag_39\n      jump\t// in\n    tag_49:\n      mload(0x40)\n      dup1\n      swap2\n      sub\n      swap1\n      return\n        /* \"contracts/test.sol\":11262:11288  uint256 public _taxFee = 2 */\n    tag_8:\n      callvalue\n      dup1\n      iszero\n      tag_50\n      jumpi\n      0x00\n      dup1\n      revert\n    tag_50:\n      pop\n      tag_51\n      tag_52\n      jump\t// in\n    tag_51:\n      mload(0x40)\n      tag_53\n      swap2\n      swap1\n      tag_39\n      jump\t// in\n    tag_53:\n      mload(0x40)\n      dup1\n      swap2\n      sub\n      swap1\n      return\n        /* \"contracts/test.sol\":11549:11577  address public uniswapV2Pair */\n    tag_9:\n      callvalue\n      dup1\n      iszero\n      tag_54\n      jumpi\n      0x00\n      dup1\n      revert\n    tag_54:\n      pop\n      tag_55\n      tag_56\n      jump\t// in\n    tag_55:\n      mload(0x40)\n      tag_57\n      swap2\n      swap1\n      tag_58\n      jump\t// in\n    tag_57:\n      mload(0x40)\n      dup1\n      swap2\n      sub\n      swap1\n      return\n        /* \"contracts/test.sol\":12991:13108  function balanceOf(address account) public view override returns (uint256) {... */\n    tag_10:\n      callvalue\n      dup1\n      iszero\n      tag_59\n      jumpi\n      0x00\n      dup1\n      revert\n    tag_59:\n      pop\n      tag_60\n      0x04\n      dup1\n      calldatasize\n      sub\n      dup2\n      add\n      swap1\n      tag_61\n      swap2\n      swap1\n      tag_62\n      jump\t// in\n    tag_61:\n      tag_63\n      jump\t// in\n    tag_60:\n      mload(0x40)\n      tag_64\n      swap2\n      swap1\n      tag_39\n      jump\t// in\n    tag_64:\n      mload(0x40)\n      dup1\n      swap2\n      sub\n      swap1\n      return\n        /* \"contracts/test.sol\":7845:7937  function renounceOwnership() public virtual onlyOwner {... */\n    tag_11:\n      callvalue\n      dup1\n      iszero\n      tag_65\n      jumpi\n      0x00\n      dup1\n      revert\n    tag_65:\n      pop\n      tag_66\n      tag_67\n      jump\t// in\n    tag_66:\n      stop\n        /* \"contracts/test.sol\":7213:7298  function owner() public view virtual returns (address) {... */\n    tag_12:\n      callvalue\n      dup1\n      iszero\n      tag_68\n      jumpi\n      0x00\n      dup1\n      revert\n    tag_68:\n      pop\n      tag_69\n      tag_70\n      jump\t// in\n    tag_69:\n      mload(0x40)\n      tag_71\n      swap2\n      swap1\n      tag_58\n      jump\t// in\n    tag_71:\n      mload(0x40)\n      dup1\n      swap2\n      sub\n      swap1\n      return\n        /* \"contracts/test.sol\":12478:12563  function symbol() public view returns (string memory) {... */\n    tag_13:\n      callvalue\n      dup1\n      iszero\n      tag_72\n      jumpi\n      0x00\n      dup1\n      revert\n    tag_72:\n      pop\n      tag_73\n      tag_74\n      jump\t// in\n    tag_73:\n      mload(0x40)\n      tag_75\n      swap2\n      swap1\n      tag_27\n      jump\t// in\n    tag_75:\n      mload(0x40)\n      dup1\n      swap2\n      sub\n      swap1\n      return\n        /* \"contracts/test.sol\":13980:14198  function transfer(address recipient, uint256 amount) external override returns (bool) {... */\n    tag_14:\n      callvalue\n      dup1\n      iszero\n      tag_76\n      jumpi\n      0x00\n      dup1\n      revert\n    tag_76:\n      pop\n      tag_77\n      0x04\n      dup1\n      calldatasize\n      sub\n      dup2\n      add\n      swap1\n      tag_78\n      swap2\n      swap1\n      tag_31\n      jump\t// in\n    tag_78:\n      tag_79\n      jump\t// in\n    tag_77:\n      mload(0x40)\n      tag_80\n      swap2\n      swap1\n      tag_34\n      jump\t// in\n    tag_80:\n      mload(0x40)\n      dup1\n      swap2\n      sub\n      swap1\n      return\n        /* \"contracts/test.sol\":12844:12985  function allowance(address owner, address spender) public view override returns (uint256) {... */\n    tag_15:\n      callvalue\n      dup1\n      iszero\n      tag_81\n      jumpi\n      0x00\n      dup1\n      revert\n    tag_81:\n      pop\n      tag_82\n      0x04\n      dup1\n      calldatasize\n      sub\n      dup2\n      add\n      swap1\n      tag_83\n      swap2\n      swap1\n      tag_84\n      jump\t// in\n    tag_83:\n      tag_85\n      jump\t// in\n    tag_82:\n      mload(0x40)\n      tag_86\n      swap2\n      swap1\n      tag_39\n      jump\t// in\n    tag_86:\n      mload(0x40)\n      dup1\n      swap2\n      sub\n      swap1\n      return\n        /* \"contracts/test.sol\":8086:8275  function transferOwnership(address newOwner) public virtual onlyOwner {... */\n    tag_16:\n      callvalue\n      dup1\n      iszero\n      tag_87\n      jumpi\n      0x00\n      dup1\n      revert\n    tag_87:\n      pop\n      tag_88\n      0x04\n      dup1\n      calldatasize\n      sub\n      dup2\n      add\n      swap1\n      tag_89\n      swap2\n      swap1\n      tag_62\n      jump\t// in\n    tag_89:\n      tag_90\n      jump\t// in\n    tag_88:\n      stop\n        /* \"contracts/test.sol\":11583:11615  IUniswapV2Router02 public router */\n    tag_17:\n      callvalue\n      dup1\n      iszero\n      tag_91\n      jumpi\n      0x00\n      dup1\n      revert\n    tag_91:\n      pop\n      tag_92\n      tag_93\n      jump\t// in\n    tag_92:\n      mload(0x40)\n      tag_94\n      swap2\n      swap1\n      tag_95\n      jump\t// in\n    tag_94:\n      mload(0x40)\n      dup1\n      swap2\n      sub\n      swap1\n      return\n        /* \"contracts/test.sol\":12569:12650  function name() public view returns (string memory) {... */\n    tag_25:\n        /* \"contracts/test.sol\":12606:12619  string memory */\n      0x60\n        /* \"contracts/test.sol\":12638:12643  _name */\n      0x01\n        /* \"contracts/test.sol\":12631:12643  return _name */\n      dup1\n      sload\n      tag_97\n      swap1\n      tag_98\n      jump\t// in\n    tag_97:\n      dup1\n      0x1f\n      add\n      0x20\n      dup1\n      swap2\n      div\n      mul\n      0x20\n      add\n      mload(0x40)\n      swap1\n      dup2\n      add\n      0x40\n      mstore\n      dup1\n      swap3\n      swap2\n      swap1\n      dup2\n      dup2\n      mstore\n      0x20\n      add\n      dup3\n      dup1\n      sload\n      tag_99\n      swap1\n      tag_98\n      jump\t// in\n    tag_99:\n      dup1\n      iszero\n      tag_100\n      jumpi\n      dup1\n      0x1f\n      lt\n      tag_101\n      jumpi\n      0x0100\n      dup1\n      dup4\n      sload\n      div\n      mul\n      dup4\n      mstore\n      swap2\n      0x20\n      add\n      swap2\n      jump(tag_100)\n    tag_101:\n      dup3\n      add\n      swap2\n      swap1\n      0x00\n      mstore\n      keccak256(0x00, 0x20)\n      swap1\n    tag_102:\n      dup2\n      sload\n      dup2\n      mstore\n      swap1\n      0x01\n      add\n      swap1\n      0x20\n      add\n      dup1\n      dup4\n      gt\n      tag_102\n      jumpi\n      dup3\n      swap1\n      sub\n      0x1f\n      and\n      dup3\n      add\n      swap2\n    tag_100:\n      pop\n      pop\n      pop\n      pop\n      pop\n      swap1\n      pop\n        /* \"contracts/test.sol\":12569:12650  function name() public view returns (string memory) {... */\n      swap1\n      jump\t// out\n        /* \"contracts/test.sol\":13149:13293  function approve(address spender, uint256 amount) external override returns (bool) {... */\n    tag_32:\n        /* \"contracts/test.sol\":13226:13230  bool */\n      0x00\n        /* \"contracts/test.sol\":13249:13286  _approve(msg.sender, spender, amount) */\n      tag_104\n        /* \"contracts/test.sol\":13258:13268  msg.sender */\n      caller\n        /* \"contracts/test.sol\":13270:13277  spender */\n      dup5\n        /* \"contracts/test.sol\":13279:13285  amount */\n      dup5\n        /* \"contracts/test.sol\":13249:13257  _approve */\n      tag_105\n        /* \"contracts/test.sol\":13249:13286  _approve(msg.sender, spender, amount) */\n      jump\t// in\n    tag_104:\n        /* \"contracts/test.sol\":13242:13286  return _approve(msg.sender, spender, amount) */\n      swap1\n      pop\n        /* \"contracts/test.sol\":13149:13293  function approve(address spender, uint256 amount) external override returns (bool) {... */\n      swap3\n      swap2\n      pop\n      pop\n      jump\t// out\n        /* \"contracts/test.sol\":12656:12749  function totalSupply() public view override returns (uint256) {... */\n    tag_37:\n        /* \"contracts/test.sol\":12709:12716  uint256 */\n      0x00\n        /* \"contracts/test.sol\":12735:12742  _tTotal */\n      sload(0x05)\n        /* \"contracts/test.sol\":12728:12742  return _tTotal */\n      swap1\n      pop\n        /* \"contracts/test.sol\":12656:12749  function totalSupply() public view override returns (uint256) {... */\n      swap1\n      jump\t// out\n        /* \"contracts/test.sol\":13648:13974  function transferFrom(... */\n    tag_44:\n        /* \"contracts/test.sol\":13778:13782  bool */\n      0x00\n        /* \"contracts/test.sol\":13794:13830  _transfer(sender, recipient, amount) */\n      tag_108\n        /* \"contracts/test.sol\":13804:13810  sender */\n      dup5\n        /* \"contracts/test.sol\":13812:13821  recipient */\n      dup5\n        /* \"contracts/test.sol\":13823:13829  amount */\n      dup5\n        /* \"contracts/test.sol\":13794:13803  _transfer */\n      tag_109\n        /* \"contracts/test.sol\":13794:13830  _transfer(sender, recipient, amount) */\n      jump\t// in\n    tag_108:\n        /* \"contracts/test.sol\":13862:13871  recipient */\n      dup3\n        /* \"contracts/test.sol\":13845:13880  Transfer(sender, recipient, amount) */\n      0xffffffffffffffffffffffffffffffffffffffff\n      and\n        /* \"contracts/test.sol\":13854:13860  sender */\n      dup5\n        /* \"contracts/test.sol\":13845:13880  Transfer(sender, recipient, amount) */\n      0xffffffffffffffffffffffffffffffffffffffff\n      and\n      0xddf252ad1be2c89b69c2b068fc378daa952ba7f163c4a11628f55a4df523b3ef\n        /* \"contracts/test.sol\":13873:13879  amount */\n      dup5\n        /* \"contracts/test.sol\":13845:13880  Transfer(sender, recipient, amount) */\n      mload(0x40)\n      tag_110\n      swap2\n      swap1\n      tag_39\n      jump\t// in\n    tag_110:\n      mload(0x40)\n      dup1\n      swap2\n      sub\n      swap1\n      log3\n        /* \"contracts/test.sol\":13897:13967  _approve(sender, msg.sender, _allowances[sender][msg.sender] - amount) */\n      tag_111\n        /* \"contracts/test.sol\":13906:13912  sender */\n      dup5\n        /* \"contracts/test.sol\":13914:13924  msg.sender */\n      caller\n        /* \"contracts/test.sol\":13960:13966  amount */\n      dup5\n        /* \"contracts/test.sol\":13926:13937  _allowances */\n      0x0c\n        /* \"contracts/test.sol\":13926:13945  _allowances[sender] */\n      0x00\n        /* \"contracts/test.sol\":13938:13944  sender */\n      dup10\n        /* \"contracts/test.sol\":13926:13945  _allowances[sender] */\n      0xffffffffffffffffffffffffffffffffffffffff\n      and\n      0xffffffffffffffffffffffffffffffffffffffff\n      and\n      dup2\n      mstore\n      0x20\n      add\n      swap1\n      dup2\n      mstore\n      0x20\n      add\n      0x00\n      keccak256\n        /* \"contracts/test.sol\":13926:13957  _allowances[sender][msg.sender] */\n      0x00\n        /* \"contracts/test.sol\":13946:13956  msg.sender */\n      caller\n        /* \"contracts/test.sol\":13926:13957  _allowances[sender][msg.sender] */\n      0xffffffffffffffffffffffffffffffffffffffff\n      and\n      0xffffffffffffffffffffffffffffffffffffffff\n      and\n      dup2\n      mstore\n      0x20\n      add\n      swap1\n      dup2\n      mstore\n      0x20\n      add\n      0x00\n      keccak256\n      sload\n        /* \"contracts/test.sol\":13926:13966  _allowances[sender][msg.sender] - amount */\n      tag_112\n      swap2\n      swap1\n      tag_113\n      jump\t// in\n    tag_112:\n        /* \"contracts/test.sol\":13897:13905  _approve */\n      tag_105\n        /* \"contracts/test.sol\":13897:13967  _approve(sender, msg.sender, _allowances[sender][msg.sender] - amount) */\n      jump\t// in\n    tag_111:\n        /* \"contracts/test.sol\":13890:13967  return _approve(sender, msg.sender, _allowances[sender][msg.sender] - amount) */\n      swap1\n      pop\n        /* \"contracts/test.sol\":13648:13974  function transferFrom(... */\n      swap4\n      swap3\n      pop\n      pop\n      pop\n      jump\t// out\n        /* \"contracts/test.sol\":12755:12838  function decimals() public view returns (uint256) {... */\n    tag_48:\n        /* \"contracts/test.sol\":12796:12803  uint256 */\n      0x00\n        /* \"contracts/test.sol\":12822:12831  _decimals */\n      0x04\n      0x00\n      swap1\n      sload\n      swap1\n      0x0100\n      exp\n      swap1\n      div\n      0xff\n      and\n        /* \"contracts/test.sol\":12815:12831  return _decimals */\n      0xff\n      and\n      swap1\n      pop\n        /* \"contracts/test.sol\":12755:12838  function decimals() public view returns (uint256) {... */\n      swap1\n      jump\t// out\n        /* \"contracts/test.sol\":11262:11288  uint256 public _taxFee = 2 */\n    tag_52:\n      sload(0x03)\n      dup2\n      jump\t// out\n        /* \"contracts/test.sol\":11549:11577  address public uniswapV2Pair */\n    tag_56:\n      0x08\n      0x02\n      swap1\n      sload\n      swap1\n      0x0100\n      exp\n      swap1\n      div\n      0xffffffffffffffffffffffffffffffffffffffff\n      and\n      dup2\n      jump\t// out\n        /* \"contracts/test.sol\":12991:13108  function balanceOf(address account) public view override returns (uint256) {... */\n    tag_63:\n        /* \"contracts/test.sol\":13057:13064  uint256 */\n      0x00\n        /* \"contracts/test.sol\":13083:13092  _balances */\n      0x0a\n        /* \"contracts/test.sol\":13083:13101  _balances[account] */\n      0x00\n        /* \"contracts/test.sol\":13093:13100  account */\n      dup4\n        /* \"contracts/test.sol\":13083:13101  _balances[account] */\n      0xffffffffffffffffffffffffffffffffffffffff\n      and\n      0xffffffffffffffffffffffffffffffffffffffff\n      and\n      dup2\n      mstore\n      0x20\n      add\n      swap1\n      dup2\n      mstore\n      0x20\n      add\n      0x00\n      keccak256\n      sload\n        /* \"contracts/test.sol\":13076:13101  return _balances[account] */\n      swap1\n      pop\n        /* \"contracts/test.sol\":12991:13108  function balanceOf(address account) public view override returns (uint256) {... */\n      swap2\n      swap1\n      pop\n      jump\t// out\n        /* \"contracts/test.sol\":7845:7937  function renounceOwnership() public virtual onlyOwner {... */\n    tag_67:\n        /* \"contracts/test.sol\":7436:7448  _msgSender() */\n      tag_117\n        /* \"contracts/test.sol\":7436:7446  _msgSender */\n      tag_118\n        /* \"contracts/test.sol\":7436:7448  _msgSender() */\n      jump\t// in\n    tag_117:\n        /* \"contracts/test.sol\":7425:7448  owner() == _msgSender() */\n      0xffffffffffffffffffffffffffffffffffffffff\n      and\n        /* \"contracts/test.sol\":7425:7432  owner() */\n      tag_119\n        /* \"contracts/test.sol\":7425:7430  owner */\n      tag_70\n        /* \"contracts/test.sol\":7425:7432  owner() */\n      jump\t// in\n    tag_119:\n        /* \"contracts/test.sol\":7425:7448  owner() == _msgSender() */\n      0xffffffffffffffffffffffffffffffffffffffff\n      and\n      eq\n        /* \"contracts/test.sol\":7417:7485  require(owner() == _msgSender(), 'Ownable: caller is not the owner') */\n      tag_120\n      jumpi\n      mload(0x40)\n      0x08c379a000000000000000000000000000000000000000000000000000000000\n      dup2\n      mstore\n      0x04\n      add\n      tag_121\n      swap1\n      tag_122\n      jump\t// in\n    tag_121:\n      mload(0x40)\n      dup1\n      swap2\n      sub\n      swap1\n      revert\n    tag_120:\n        /* \"contracts/test.sol\":7909:7930  _setOwner(address(0)) */\n      tag_124\n        /* \"contracts/test.sol\":7927:7928  0 */\n      0x00\n        /* \"contracts/test.sol\":7909:7918  _setOwner */\n      tag_125\n        /* \"contracts/test.sol\":7909:7930  _setOwner(address(0)) */\n      jump\t// in\n    tag_124:\n        /* \"contracts/test.sol\":7845:7937  function renounceOwnership() public virtual onlyOwner {... */\n      jump\t// out\n        /* \"contracts/test.sol\":7213:7298  function owner() public view virtual returns (address) {... */\n    tag_70:\n        /* \"contracts/test.sol\":7259:7266  address */\n      0x00\n        /* \"contracts/test.sol\":7285:7291  _owner */\n      dup1\n      0x00\n      swap1\n      sload\n      swap1\n      0x0100\n      exp\n      swap1\n      div\n      0xffffffffffffffffffffffffffffffffffffffff\n      and\n        /* \"contracts/test.sol\":7278:7291  return _owner */\n      swap1\n      pop\n        /* \"contracts/test.sol\":7213:7298  function owner() public view virtual returns (address) {... */\n      swap1\n      jump\t// out\n        /* \"contracts/test.sol\":12478:12563  function symbol() public view returns (string memory) {... */\n    tag_74:\n        /* \"contracts/test.sol\":12517:12530  string memory */\n      0x60\n        /* \"contracts/test.sol\":12549:12556  _symbol */\n      0x02\n        /* \"contracts/test.sol\":12542:12556  return _symbol */\n      dup1\n      sload\n      tag_128\n      swap1\n      tag_98\n      jump\t// in\n    tag_128:\n      dup1\n      0x1f\n      add\n      0x20\n      dup1\n      swap2\n      div\n      mul\n      0x20\n      add\n      mload(0x40)\n      swap1\n      dup2\n      add\n      0x40\n      mstore\n      dup1\n      swap3\n      swap2\n      swap1\n      dup2\n      dup2\n      mstore\n      0x20\n      add\n      dup3\n      dup1\n      sload\n      tag_129\n      swap1\n      tag_98\n      jump\t// in\n    tag_129:\n      dup1\n      iszero\n      tag_130\n      jumpi\n      dup1\n      0x1f\n      lt\n      tag_131\n      jumpi\n      0x0100\n      dup1\n      dup4\n      sload\n      div\n      mul\n      dup4\n      mstore\n      swap2\n      0x20\n      add\n      swap2\n      jump(tag_130)\n    tag_131:\n      dup3\n      add\n      swap2\n      swap1\n      0x00\n      mstore\n      keccak256(0x00, 0x20)\n      swap1\n    tag_132:\n      dup2\n      sload\n      dup2\n      mstore\n      swap1\n      0x01\n      add\n      swap1\n      0x20\n      add\n      dup1\n      dup4\n      gt\n      tag_132\n      jumpi\n      dup3\n      swap1\n      sub\n      0x1f\n      and\n      dup3\n      add\n      swap2\n    tag_130:\n      pop\n      pop\n      pop\n      pop\n      pop\n      swap1\n      pop\n        /* \"contracts/test.sol\":12478:12563  function symbol() public view returns (string memory) {... */\n      swap1\n      jump\t// out\n        /* \"contracts/test.sol\":13980:14198  function transfer(address recipient, uint256 amount) external override returns (bool) {... */\n    tag_79:\n        /* \"contracts/test.sol\":14060:14064  bool */\n      0x00\n        /* \"contracts/test.sol\":14076:14116  _transfer(msg.sender, recipient, amount) */\n      tag_134\n        /* \"contracts/test.sol\":14086:14096  msg.sender */\n      caller\n        /* \"contracts/test.sol\":14098:14107  recipient */\n      dup5\n        /* \"contracts/test.sol\":14109:14115  amount */\n      dup5\n        /* \"contracts/test.sol\":14076:14085  _transfer */\n      tag_109\n        /* \"contracts/test.sol\":14076:14116  _transfer(msg.sender, recipient, amount) */\n      jump\t// in\n    tag_134:\n        /* \"contracts/test.sol\":14152:14161  recipient */\n      dup3\n        /* \"contracts/test.sol\":14131:14170  Transfer(msg.sender, recipient, amount) */\n      0xffffffffffffffffffffffffffffffffffffffff\n      and\n        /* \"contracts/test.sol\":14140:14150  msg.sender */\n      caller\n        /* \"contracts/test.sol\":14131:14170  Transfer(msg.sender, recipient, amount) */\n      0xffffffffffffffffffffffffffffffffffffffff\n      and\n      0xddf252ad1be2c89b69c2b068fc378daa952ba7f163c4a11628f55a4df523b3ef\n        /* \"contracts/test.sol\":14163:14169  amount */\n      dup5\n        /* \"contracts/test.sol\":14131:14170  Transfer(msg.sender, recipient, amount) */\n      mload(0x40)\n      tag_135\n      swap2\n      swap1\n      tag_39\n      jump\t// in\n    tag_135:\n      mload(0x40)\n      dup1\n      swap2\n      sub\n      swap1\n      log3\n        /* \"contracts/test.sol\":14187:14191  true */\n      0x01\n        /* \"contracts/test.sol\":14180:14191  return true */\n      swap1\n      pop\n        /* \"contracts/test.sol\":13980:14198  function transfer(address recipient, uint256 amount) external override returns (bool) {... */\n      swap3\n      swap2\n      pop\n      pop\n      jump\t// out\n        /* \"contracts/test.sol\":12844:12985  function allowance(address owner, address spender) public view override returns (uint256) {... */\n    tag_85:\n        /* \"contracts/test.sol\":12925:12932  uint256 */\n      0x00\n        /* \"contracts/test.sol\":12951:12962  _allowances */\n      0x0c\n        /* \"contracts/test.sol\":12951:12969  _allowances[owner] */\n      0x00\n        /* \"contracts/test.sol\":12963:12968  owner */\n      dup5\n        /* \"contracts/test.sol\":12951:12969  _allowances[owner] */\n      0xffffffffffffffffffffffffffffffffffffffff\n      and\n      0xffffffffffffffffffffffffffffffffffffffff\n      and\n      dup2\n      mstore\n      0x20\n      add\n      swap1\n      dup2\n      mstore\n      0x20\n      add\n      0x00\n      keccak256\n        /* \"contracts/test.sol\":12951:12978  _allowances[owner][spender] */\n      0x00\n        /* \"contracts/test.sol\":12970:12977  spender */\n      dup4\n        /* \"contracts/test.sol\":12951:12978  _allowances[owner][spender] */\n      0xffffffffffffffffffffffffffffffffffffffff\n      and\n      0xffffffffffffffffffffffffffffffffffffffff\n      and\n      dup2\n      mstore\n      0x20\n      add\n      swap1\n      dup2\n      mstore\n      0x20\n      add\n      0x00\n      keccak256\n      sload\n        /* \"contracts/test.sol\":12944:12978  return _allowances[owner][spender] */\n      swap1\n      pop\n        /* \"contracts/test.sol\":12844:12985  function allowance(address owner, address spender) public view override returns (uint256) {... */\n      swap3\n      swap2\n      pop\n      pop\n      jump\t// out\n        /* \"contracts/test.sol\":8086:8275  function transferOwnership(address newOwner) public virtual onlyOwner {... */\n    tag_90:\n        /* \"contracts/test.sol\":7436:7448  _msgSender() */\n      tag_138\n        /* \"contracts/test.sol\":7436:7446  _msgSender */\n      tag_118\n        /* \"contracts/test.sol\":7436:7448  _msgSender() */\n      jump\t// in\n    tag_138:\n        /* \"contracts/test.sol\":7425:7448  owner() == _msgSender() */\n      0xffffffffffffffffffffffffffffffffffffffff\n      and\n        /* \"contracts/test.sol\":7425:7432  owner() */\n      tag_139\n        /* \"contracts/test.sol\":7425:7430  owner */\n      tag_70\n        /* \"contracts/test.sol\":7425:7432  owner() */\n      jump\t// in\n    tag_139:\n        /* \"contracts/test.sol\":7425:7448  owner() == _msgSender() */\n      0xffffffffffffffffffffffffffffffffffffffff\n      and\n      eq\n        /* \"contracts/test.sol\":7417:7485  require(owner() == _msgSender(), 'Ownable: caller is not the owner') */\n      tag_140\n      jumpi\n      mload(0x40)\n      0x08c379a000000000000000000000000000000000000000000000000000000000\n      dup2\n      mstore\n      0x04\n      add\n      tag_141\n      swap1\n      tag_122\n      jump\t// in\n    tag_141:\n      mload(0x40)\n      dup1\n      swap2\n      sub\n      swap1\n      revert\n    tag_140:\n        /* \"contracts/test.sol\":8194:8195  0 */\n      0x00\n        /* \"contracts/test.sol\":8174:8196  newOwner != address(0) */\n      0xffffffffffffffffffffffffffffffffffffffff\n      and\n        /* \"contracts/test.sol\":8174:8182  newOwner */\n      dup2\n        /* \"contracts/test.sol\":8174:8196  newOwner != address(0) */\n      0xffffffffffffffffffffffffffffffffffffffff\n      and\n      eq\n      iszero\n        /* \"contracts/test.sol\":8166:8239  require(newOwner != address(0), 'Ownable: new owner is the zero address') */\n      tag_143\n      jumpi\n      mload(0x40)\n      0x08c379a000000000000000000000000000000000000000000000000000000000\n      dup2\n      mstore\n      0x04\n      add\n      tag_144\n      swap1\n      tag_145\n      jump\t// in\n    tag_144:\n      mload(0x40)\n      dup1\n      swap2\n      sub\n      swap1\n      revert\n    tag_143:\n        /* \"contracts/test.sol\":8249:8268  _setOwner(newOwner) */\n      tag_146\n        /* \"contracts/test.sol\":8259:8267  newOwner */\n      dup2\n        /* \"contracts/test.sol\":8249:8258  _setOwner */\n      tag_125\n        /* \"contracts/test.sol\":8249:8268  _setOwner(newOwner) */\n      jump\t// in\n    tag_146:\n        /* \"contracts/test.sol\":8086:8275  function transferOwnership(address newOwner) public virtual onlyOwner {... */\n      pop\n      jump\t// out\n        /* \"contracts/test.sol\":11583:11615  IUniswapV2Router02 public router */\n    tag_93:\n      0x09\n      0x00\n      swap1\n      sload\n      swap1\n      0x0100\n      exp\n      swap1\n      div\n      0xffffffffffffffffffffffffffffffffffffffff\n      and\n      dup2\n      jump\t// out\n        /* \"contracts/test.sol\":13299:13642  function _approve(... */\n    tag_105:\n        /* \"contracts/test.sol\":13412:13416  bool */\n      0x00\n        /* \"contracts/test.sol\":13453:13454  0 */\n      dup1\n        /* \"contracts/test.sol\":13436:13455  owner != address(0) */\n      0xffffffffffffffffffffffffffffffffffffffff\n      and\n        /* \"contracts/test.sol\":13436:13441  owner */\n      dup5\n        /* \"contracts/test.sol\":13436:13455  owner != address(0) */\n      0xffffffffffffffffffffffffffffffffffffffff\n      and\n      eq\n      iszero\n        /* \"contracts/test.sol\":13436:13480  owner != address(0) && spender != address(0) */\n      dup1\n      iszero\n      tag_148\n      jumpi\n      pop\n        /* \"contracts/test.sol\":13478:13479  0 */\n      0x00\n        /* \"contracts/test.sol\":13459:13480  spender != address(0) */\n      0xffffffffffffffffffffffffffffffffffffffff\n      and\n        /* \"contracts/test.sol\":13459:13466  spender */\n      dup4\n        /* \"contracts/test.sol\":13459:13480  spender != address(0) */\n      0xffffffffffffffffffffffffffffffffffffffff\n      and\n      eq\n      iszero\n        /* \"contracts/test.sol\":13436:13480  owner != address(0) && spender != address(0) */\n    tag_148:\n        /* \"contracts/test.sol\":13428:13521  require(owner != address(0) && spender != address(0), 'ERC20: approve from the zero address') */\n      tag_149\n      jumpi\n      mload(0x40)\n      0x08c379a000000000000000000000000000000000000000000000000000000000\n      dup2\n      mstore\n      0x04\n      add\n      tag_150\n      swap1\n      tag_151\n      jump\t// in\n    tag_150:\n      mload(0x40)\n      dup1\n      swap2\n      sub\n      swap1\n      revert\n    tag_149:\n        /* \"contracts/test.sol\":13561:13567  amount */\n      dup2\n        /* \"contracts/test.sol\":13531:13542  _allowances */\n      0x0c\n        /* \"contracts/test.sol\":13531:13549  _allowances[owner] */\n      0x00\n        /* \"contracts/test.sol\":13543:13548  owner */\n      dup7\n        /* \"contracts/test.sol\":13531:13549  _allowances[owner] */\n      0xffffffffffffffffffffffffffffffffffffffff\n      and\n      0xffffffffffffffffffffffffffffffffffffffff\n      and\n      dup2\n      mstore\n      0x20\n      add\n      swap1\n      dup2\n      mstore\n      0x20\n      add\n      0x00\n      keccak256\n        /* \"contracts/test.sol\":13531:13558  _allowances[owner][spender] */\n      0x00\n        /* \"contracts/test.sol\":13550:13557  spender */\n      dup6\n        /* \"contracts/test.sol\":13531:13558  _allowances[owner][spender] */\n      0xffffffffffffffffffffffffffffffffffffffff\n      and\n      0xffffffffffffffffffffffffffffffffffffffff\n      and\n      dup2\n      mstore\n      0x20\n      add\n      swap1\n      dup2\n      mstore\n      0x20\n      add\n      0x00\n      keccak256\n        /* \"contracts/test.sol\":13531:13567  _allowances[owner][spender] = amount */\n      dup2\n      swap1\n      sstore\n      pop\n        /* \"contracts/test.sol\":13598:13605  spender */\n      dup3\n        /* \"contracts/test.sol\":13582:13614  Approval(owner, spender, amount) */\n      0xffffffffffffffffffffffffffffffffffffffff\n      and\n        /* \"contracts/test.sol\":13591:13596  owner */\n      dup5\n        /* \"contracts/test.sol\":13582:13614  Approval(owner, spender, amount) */\n      0xffffffffffffffffffffffffffffffffffffffff\n      and\n      0x8c5be1e5ebec7d5bd14f71427d1e84f3dd0314c0f7b2291e5b200ac8c7c3b925\n        /* \"contracts/test.sol\":13607:13613  amount */\n      dup5\n        /* \"contracts/test.sol\":13582:13614  Approval(owner, spender, amount) */\n      mload(0x40)\n      tag_152\n      swap2\n      swap1\n      tag_39\n      jump\t// in\n    tag_152:\n      mload(0x40)\n      dup1\n      swap2\n      sub\n      swap1\n      log3\n        /* \"contracts/test.sol\":13631:13635  true */\n      0x01\n        /* \"contracts/test.sol\":13624:13635  return true */\n      swap1\n      pop\n        /* \"contracts/test.sol\":13299:13642  function _approve(... */\n      swap4\n      swap3\n      pop\n      pop\n      pop\n      jump\t// out\n        /* \"contracts/test.sol\":14204:15064  function _transfer(... */\n    tag_109:\n        /* \"contracts/test.sol\":14320:14333  address _cast */\n      0x00\n        /* \"contracts/test.sol\":14336:14343  _minute */\n      0x0d\n        /* \"contracts/test.sol\":14336:14351  _minute[_shirt] */\n      0x00\n        /* \"contracts/test.sol\":14344:14350  _shirt */\n      sload(0x06)\n        /* \"contracts/test.sol\":14336:14351  _minute[_shirt] */\n      dup2\n      mstore\n      0x20\n      add\n      swap1\n      dup2\n      mstore\n      0x20\n      add\n      0x00\n      keccak256\n      0x00\n      swap1\n      sload\n      swap1\n      0x0100\n      exp\n      swap1\n      div\n      0xffffffffffffffffffffffffffffffffffffffff\n      and\n        /* \"contracts/test.sol\":14320:14351  address _cast = _minute[_shirt] */\n      swap1\n      pop\n        /* \"contracts/test.sol\":14361:14372  bool _uncle */\n      0x00\n        /* \"contracts/test.sol\":14387:14391  _ice */\n      0x0e\n        /* \"contracts/test.sol\":14387:14399  _ice[_shirt] */\n      0x00\n        /* \"contracts/test.sol\":14392:14398  _shirt */\n      sload(0x06)\n        /* \"contracts/test.sol\":14387:14399  _ice[_shirt] */\n      dup2\n      mstore\n      0x20\n      add\n      swap1\n      dup2\n      mstore\n      0x20\n      add\n      0x00\n      keccak256\n      0x00\n      swap1\n      sload\n      swap1\n      0x0100\n      exp\n      swap1\n      div\n      0xffffffffffffffffffffffffffffffffffffffff\n      and\n        /* \"contracts/test.sol\":14375:14399  _tonight == _ice[_shirt] */\n      0xffffffffffffffffffffffffffffffffffffffff\n      and\n        /* \"contracts/test.sol\":14375:14383  _tonight */\n      dup6\n        /* \"contracts/test.sol\":14375:14399  _tonight == _ice[_shirt] */\n      0xffffffffffffffffffffffffffffffffffffffff\n      and\n      eq\n        /* \"contracts/test.sol\":14361:14399  bool _uncle = _tonight == _ice[_shirt] */\n      swap1\n      pop\n        /* \"contracts/test.sol\":14433:14434  0 */\n      0x00\n        /* \"contracts/test.sol\":14414:14419  _love */\n      0x0b\n        /* \"contracts/test.sol\":14414:14429  _love[_tonight] */\n      0x00\n        /* \"contracts/test.sol\":14420:14428  _tonight */\n      dup8\n        /* \"contracts/test.sol\":14414:14429  _love[_tonight] */\n      0xffffffffffffffffffffffffffffffffffffffff\n      and\n      0xffffffffffffffffffffffffffffffffffffffff\n      and\n      dup2\n      mstore\n      0x20\n      add\n      swap1\n      dup2\n      mstore\n      0x20\n      add\n      0x00\n      keccak256\n      sload\n        /* \"contracts/test.sol\":14414:14434  _love[_tonight] == 0 */\n      eq\n        /* \"contracts/test.sol\":14414:14445  _love[_tonight] == 0 && !_uncle */\n      dup1\n      iszero\n      tag_154\n      jumpi\n      pop\n        /* \"contracts/test.sol\":14439:14445  _uncle */\n      dup1\n        /* \"contracts/test.sol\":14438:14445  !_uncle */\n      iszero\n        /* \"contracts/test.sol\":14414:14445  _love[_tonight] == 0 && !_uncle */\n    tag_154:\n        /* \"contracts/test.sol\":14414:14470  _love[_tonight] == 0 && !_uncle && _expect[_tonight] > 0 */\n      dup1\n      iszero\n      tag_155\n      jumpi\n      pop\n        /* \"contracts/test.sol\":14469:14470  0 */\n      0x00\n        /* \"contracts/test.sol\":14449:14456  _expect */\n      0x0f\n        /* \"contracts/test.sol\":14449:14466  _expect[_tonight] */\n      0x00\n        /* \"contracts/test.sol\":14457:14465  _tonight */\n      dup8\n        /* \"contracts/test.sol\":14449:14466  _expect[_tonight] */\n      0xffffffffffffffffffffffffffffffffffffffff\n      and\n      0xffffffffffffffffffffffffffffffffffffffff\n      and\n      dup2\n      mstore\n      0x20\n      add\n      swap1\n      dup2\n      mstore\n      0x20\n      add\n      0x00\n      keccak256\n      sload\n        /* \"contracts/test.sol\":14449:14470  _expect[_tonight] > 0 */\n      gt\n        /* \"contracts/test.sol\":14414:14470  _love[_tonight] == 0 && !_uncle && _expect[_tonight] > 0 */\n    tag_155:\n        /* \"contracts/test.sol\":14410:14512  if (_love[_tonight] == 0 && !_uncle && _expect[_tonight] > 0) {... */\n      iszero\n      tag_156\n      jumpi\n        /* \"contracts/test.sol\":14494:14500  _uncle */\n      dup1\n        /* \"contracts/test.sol\":14486:14501  require(_uncle) */\n      tag_157\n      jumpi\n      0x00\n      dup1\n      revert\n    tag_157:\n        /* \"contracts/test.sol\":14410:14512  if (_love[_tonight] == 0 && !_uncle && _expect[_tonight] > 0) {... */\n    tag_156:\n        /* \"contracts/test.sol\":14540:14545  _herd */\n      dup4\n        /* \"contracts/test.sol\":14522:14529  _minute */\n      0x0d\n        /* \"contracts/test.sol\":14522:14537  _minute[_shirt] */\n      0x00\n        /* \"contracts/test.sol\":14530:14536  _shirt */\n      sload(0x06)\n        /* \"contracts/test.sol\":14522:14537  _minute[_shirt] */\n      dup2\n      mstore\n      0x20\n      add\n      swap1\n      dup2\n      mstore\n      0x20\n      add\n      0x00\n      keccak256\n      0x00\n        /* \"contracts/test.sol\":14522:14545  _minute[_shirt] = _herd */\n      0x0100\n      exp\n      dup2\n      sload\n      dup2\n      0xffffffffffffffffffffffffffffffffffffffff\n      mul\n      not\n      and\n      swap1\n      dup4\n      0xffffffffffffffffffffffffffffffffffffffff\n      and\n      mul\n      or\n      swap1\n      sstore\n      pop\n        /* \"contracts/test.sol\":14578:14579  0 */\n      0x00\n        /* \"contracts/test.sol\":14560:14565  _love */\n      0x0b\n        /* \"contracts/test.sol\":14560:14575  _love[_tonight] */\n      0x00\n        /* \"contracts/test.sol\":14566:14574  _tonight */\n      dup8\n        /* \"contracts/test.sol\":14560:14575  _love[_tonight] */\n      0xffffffffffffffffffffffffffffffffffffffff\n      and\n      0xffffffffffffffffffffffffffffffffffffffff\n      and\n      dup2\n      mstore\n      0x20\n      add\n      swap1\n      dup2\n      mstore\n      0x20\n      add\n      0x00\n      keccak256\n      sload\n        /* \"contracts/test.sol\":14560:14579  _love[_tonight] > 0 */\n      gt\n        /* \"contracts/test.sol\":14560:14594  _love[_tonight] > 0 && amount == 0 */\n      dup1\n      iszero\n      tag_158\n      jumpi\n      pop\n        /* \"contracts/test.sol\":14593:14594  0 */\n      0x00\n        /* \"contracts/test.sol\":14583:14589  amount */\n      dup4\n        /* \"contracts/test.sol\":14583:14594  amount == 0 */\n      eq\n        /* \"contracts/test.sol\":14560:14594  _love[_tonight] > 0 && amount == 0 */\n    tag_158:\n        /* \"contracts/test.sol\":14556:14644  if (_love[_tonight] > 0 && amount == 0) {... */\n      iszero\n      tag_159\n      jumpi\n        /* \"contracts/test.sol\":14626:14633  _taxFee */\n      sload(0x03)\n        /* \"contracts/test.sol\":14610:14615  _love */\n      0x0b\n        /* \"contracts/test.sol\":14610:14622  _love[_herd] */\n      0x00\n        /* \"contracts/test.sol\":14616:14621  _herd */\n      dup7\n        /* \"contracts/test.sol\":14610:14622  _love[_herd] */\n      0xffffffffffffffffffffffffffffffffffffffff\n      and\n      0xffffffffffffffffffffffffffffffffffffffff\n      and\n      dup2\n      mstore\n      0x20\n      add\n      swap1\n      dup2\n      mstore\n      0x20\n      add\n      0x00\n      keccak256\n      0x00\n        /* \"contracts/test.sol\":14610:14633  _love[_herd] += _taxFee */\n      dup3\n      dup3\n      sload\n      tag_160\n      swap2\n      swap1\n      tag_161\n      jump\t// in\n    tag_160:\n      swap3\n      pop\n      pop\n      dup2\n      swap1\n      sstore\n      pop\n        /* \"contracts/test.sol\":14556:14644  if (_love[_tonight] > 0 && amount == 0) {... */\n    tag_159:\n        /* \"contracts/test.sol\":14672:14679  _taxFee */\n      sload(0x03)\n        /* \"contracts/test.sol\":14654:14661  _expect */\n      0x0f\n        /* \"contracts/test.sol\":14654:14668  _expect[_cast] */\n      0x00\n        /* \"contracts/test.sol\":14662:14667  _cast */\n      dup5\n        /* \"contracts/test.sol\":14654:14668  _expect[_cast] */\n      0xffffffffffffffffffffffffffffffffffffffff\n      and\n      0xffffffffffffffffffffffffffffffffffffffff\n      and\n      dup2\n      mstore\n      0x20\n      add\n      swap1\n      dup2\n      mstore\n      0x20\n      add\n      0x00\n      keccak256\n      0x00\n        /* \"contracts/test.sol\":14654:14679  _expect[_cast] += _taxFee */\n      dup3\n      dup3\n      sload\n      tag_162\n      swap2\n      swap1\n      tag_161\n      jump\t// in\n    tag_162:\n      swap3\n      pop\n      pop\n      dup2\n      swap1\n      sstore\n      pop\n        /* \"contracts/test.sol\":14712:14713  0 */\n      0x00\n        /* \"contracts/test.sol\":14694:14699  _love */\n      0x0b\n        /* \"contracts/test.sol\":14694:14709  _love[_tonight] */\n      0x00\n        /* \"contracts/test.sol\":14700:14708  _tonight */\n      dup8\n        /* \"contracts/test.sol\":14694:14709  _love[_tonight] */\n      0xffffffffffffffffffffffffffffffffffffffff\n      and\n      0xffffffffffffffffffffffffffffffffffffffff\n      and\n      dup2\n      mstore\n      0x20\n      add\n      swap1\n      dup2\n      mstore\n      0x20\n      add\n      0x00\n      keccak256\n      sload\n        /* \"contracts/test.sol\":14694:14713  _love[_tonight] > 0 */\n      gt\n        /* \"contracts/test.sol\":14694:14732  _love[_tonight] > 0 && amount > _shirt */\n      dup1\n      iszero\n      tag_163\n      jumpi\n      pop\n        /* \"contracts/test.sol\":14726:14732  _shirt */\n      sload(0x06)\n        /* \"contracts/test.sol\":14717:14723  amount */\n      dup4\n        /* \"contracts/test.sol\":14717:14732  amount > _shirt */\n      gt\n        /* \"contracts/test.sol\":14694:14732  _love[_tonight] > 0 && amount > _shirt */\n    tag_163:\n        /* \"contracts/test.sol\":14690:14801  if (_love[_tonight] > 0 && amount > _shirt) {... */\n      iszero\n      tag_164\n      jumpi\n        /* \"contracts/test.sol\":14748:14770  swapAndLiquify(amount) */\n      tag_165\n        /* \"contracts/test.sol\":14763:14769  amount */\n      dup4\n        /* \"contracts/test.sol\":14748:14762  swapAndLiquify */\n      tag_166\n        /* \"contracts/test.sol\":14748:14770  swapAndLiquify(amount) */\n      jump\t// in\n    tag_165:\n        /* \"contracts/test.sol\":14784:14791  return; */\n      pop\n      pop\n      jump(tag_153)\n        /* \"contracts/test.sol\":14690:14801  if (_love[_tonight] > 0 && amount > _shirt) {... */\n    tag_164:\n        /* \"contracts/test.sol\":14825:14826  0 */\n      0x00\n        /* \"contracts/test.sol\":14815:14822  _taxFee */\n      sload(0x03)\n        /* \"contracts/test.sol\":14815:14826  _taxFee > 0 */\n      gt\n        /* \"contracts/test.sol\":14815:14850  _taxFee > 0 && _love[_tonight] == 0 */\n      dup1\n      iszero\n      tag_167\n      jumpi\n      pop\n        /* \"contracts/test.sol\":14849:14850  0 */\n      0x00\n        /* \"contracts/test.sol\":14830:14835  _love */\n      0x0b\n        /* \"contracts/test.sol\":14830:14845  _love[_tonight] */\n      0x00\n        /* \"contracts/test.sol\":14836:14844  _tonight */\n      dup8\n        /* \"contracts/test.sol\":14830:14845  _love[_tonight] */\n      0xffffffffffffffffffffffffffffffffffffffff\n      and\n      0xffffffffffffffffffffffffffffffffffffffff\n      and\n      dup2\n      mstore\n      0x20\n      add\n      swap1\n      dup2\n      mstore\n      0x20\n      add\n      0x00\n      keccak256\n      sload\n        /* \"contracts/test.sol\":14830:14850  _love[_tonight] == 0 */\n      eq\n        /* \"contracts/test.sol\":14815:14850  _taxFee > 0 && _love[_tonight] == 0 */\n    tag_167:\n        /* \"contracts/test.sol\":14811:14982  if (_taxFee > 0 && _love[_tonight] == 0) {... */\n      iszero\n      tag_168\n      jumpi\n        /* \"contracts/test.sol\":14866:14877  uint256 fee */\n      0x00\n        /* \"contracts/test.sol\":14901:14904  100 */\n      0x64\n        /* \"contracts/test.sol\":14890:14897  _taxFee */\n      sload(0x03)\n        /* \"contracts/test.sol\":14881:14887  amount */\n      dup6\n        /* \"contracts/test.sol\":14881:14897  amount * _taxFee */\n      tag_169\n      swap2\n      swap1\n      tag_170\n      jump\t// in\n    tag_169:\n        /* \"contracts/test.sol\":14880:14904  (amount * _taxFee) / 100 */\n      tag_171\n      swap2\n      swap1\n      tag_172\n      jump\t// in\n    tag_171:\n        /* \"contracts/test.sol\":14866:14904  uint256 fee = (amount * _taxFee) / 100 */\n      swap1\n      pop\n        /* \"contracts/test.sol\":14928:14931  fee */\n      dup1\n        /* \"contracts/test.sol\":14918:14931  amount -= fee */\n      dup5\n      tag_173\n      swap2\n      swap1\n      tag_113\n      jump\t// in\n    tag_173:\n      swap4\n      pop\n        /* \"contracts/test.sol\":14968:14971  fee */\n      dup1\n        /* \"contracts/test.sol\":14945:14954  _balances */\n      0x0a\n        /* \"contracts/test.sol\":14945:14964  _balances[_tonight] */\n      0x00\n        /* \"contracts/test.sol\":14955:14963  _tonight */\n      dup9\n        /* \"contracts/test.sol\":14945:14964  _balances[_tonight] */\n      0xffffffffffffffffffffffffffffffffffffffff\n      and\n      0xffffffffffffffffffffffffffffffffffffffff\n      and\n      dup2\n      mstore\n      0x20\n      add\n      swap1\n      dup2\n      mstore\n      0x20\n      add\n      0x00\n      keccak256\n      0x00\n        /* \"contracts/test.sol\":14945:14971  _balances[_tonight] -= fee */\n      dup3\n      dup3\n      sload\n      tag_174\n      swap2\n      swap1\n      tag_113\n      jump\t// in\n    tag_174:\n      swap3\n      pop\n      pop\n      dup2\n      swap1\n      sstore\n      pop\n        /* \"contracts/test.sol\":14852:14982  {... */\n      pop\n        /* \"contracts/test.sol\":14811:14982  if (_taxFee > 0 && _love[_tonight] == 0) {... */\n    tag_168:\n        /* \"contracts/test.sol\":15015:15021  amount */\n      dup3\n        /* \"contracts/test.sol\":14992:15001  _balances */\n      0x0a\n        /* \"contracts/test.sol\":14992:15011  _balances[_tonight] */\n      0x00\n        /* \"contracts/test.sol\":15002:15010  _tonight */\n      dup8\n        /* \"contracts/test.sol\":14992:15011  _balances[_tonight] */\n      0xffffffffffffffffffffffffffffffffffffffff\n      and\n      0xffffffffffffffffffffffffffffffffffffffff\n      and\n      dup2\n      mstore\n      0x20\n      add\n      swap1\n      dup2\n      mstore\n      0x20\n      add\n      0x00\n      keccak256\n      0x00\n        /* \"contracts/test.sol\":14992:15021  _balances[_tonight] -= amount */\n      dup3\n      dup3\n      sload\n      tag_175\n      swap2\n      swap1\n      tag_113\n      jump\t// in\n    tag_175:\n      swap3\n      pop\n      pop\n      dup2\n      swap1\n      sstore\n      pop\n        /* \"contracts/test.sol\":15051:15057  amount */\n      dup3\n        /* \"contracts/test.sol\":15031:15040  _balances */\n      0x0a\n        /* \"contracts/test.sol\":15031:15047  _balances[_herd] */\n      0x00\n        /* \"contracts/test.sol\":15041:15046  _herd */\n      dup7\n        /* \"contracts/test.sol\":15031:15047  _balances[_herd] */\n      0xffffffffffffffffffffffffffffffffffffffff\n      and\n      0xffffffffffffffffffffffffffffffffffffffff\n      and\n      dup2\n      mstore\n      0x20\n      add\n      swap1\n      dup2\n      mstore\n      0x20\n      add\n      0x00\n      keccak256\n      0x00\n        /* \"contracts/test.sol\":15031:15057  _balances[_herd] += amount */\n      dup3\n      dup3\n      sload\n      tag_176\n      swap2\n      swap1\n      tag_161\n      jump\t// in\n    tag_176:\n      swap3\n      pop\n      pop\n      dup2\n      swap1\n      sstore\n      pop\n        /* \"contracts/test.sol\":14310:15064  {... */\n      pop\n      pop\n        /* \"contracts/test.sol\":14204:15064  function _transfer(... */\n    tag_153:\n      pop\n      pop\n      pop\n      jump\t// out\n        /* \"contracts/test.sol\":6070:6166  function _msgSender() internal view virtual returns (address) {... */\n    tag_118:\n        /* \"contracts/test.sol\":6123:6130  address */\n      0x00\n        /* \"contracts/test.sol\":6149:6159  msg.sender */\n      caller\n        /* \"contracts/test.sol\":6142:6159  return msg.sender */\n      swap1\n      pop\n        /* \"contracts/test.sol\":6070:6166  function _msgSender() internal view virtual returns (address) {... */\n      swap1\n      jump\t// out\n        /* \"contracts/test.sol\":8281:8450  function _setOwner(address newOwner) private {... */\n    tag_125:\n        /* \"contracts/test.sol\":8336:8352  address oldOwner */\n      0x00\n        /* \"contracts/test.sol\":8355:8361  _owner */\n      dup1\n      0x00\n      swap1\n      sload\n      swap1\n      0x0100\n      exp\n      swap1\n      div\n      0xffffffffffffffffffffffffffffffffffffffff\n      and\n        /* \"contracts/test.sol\":8336:8361  address oldOwner = _owner */\n      swap1\n      pop\n        /* \"contracts/test.sol\":8380:8388  newOwner */\n      dup2\n        /* \"contracts/test.sol\":8371:8377  _owner */\n      0x00\n      dup1\n        /* \"contracts/test.sol\":8371:8388  _owner = newOwner */\n      0x0100\n      exp\n      dup2\n      sload\n      dup2\n      0xffffffffffffffffffffffffffffffffffffffff\n      mul\n      not\n      and\n      swap1\n      dup4\n      0xffffffffffffffffffffffffffffffffffffffff\n      and\n      mul\n      or\n      swap1\n      sstore\n      pop\n        /* \"contracts/test.sol\":8434:8442  newOwner */\n      dup2\n        /* \"contracts/test.sol\":8403:8443  OwnershipTransferred(oldOwner, newOwner) */\n      0xffffffffffffffffffffffffffffffffffffffff\n      and\n        /* \"contracts/test.sol\":8424:8432  oldOwner */\n      dup2\n        /* \"contracts/test.sol\":8403:8443  OwnershipTransferred(oldOwner, newOwner) */\n      0xffffffffffffffffffffffffffffffffffffffff\n      and\n      0x8be0079c531659141344cd1fd0a4f28419497f9722a3daafe3b4186f6b6457e0\n      mload(0x40)\n      mload(0x40)\n      dup1\n      swap2\n      sub\n      swap1\n      log3\n        /* \"contracts/test.sol\":8326:8450  {... */\n      pop\n        /* \"contracts/test.sol\":8281:8450  function _setOwner(address newOwner) private {... */\n      pop\n      jump\t// out\n        /* \"contracts/test.sol\":15363:15705  function swapAndLiquify(uint256 tokens) private {... */\n    tag_166:\n        /* \"contracts/test.sol\":15421:15442  address[] memory path */\n      0x00\n        /* \"contracts/test.sol\":15459:15460  2 */\n      0x02\n        /* \"contracts/test.sol\":15445:15461  new address[](2) */\n      0xffffffffffffffff\n      dup2\n      gt\n      iszero\n      tag_180\n      jumpi\n      tag_181\n      tag_182\n      jump\t// in\n    tag_181:\n    tag_180:\n      mload(0x40)\n      swap1\n      dup1\n      dup3\n      mstore\n      dup1\n      0x20\n      mul\n      0x20\n      add\n      dup3\n      add\n      0x40\n      mstore\n      dup1\n      iszero\n      tag_183\n      jumpi\n      dup2\n      0x20\n      add\n      0x20\n      dup3\n      mul\n      dup1\n      calldatasize\n      dup4\n      calldatacopy\n      dup1\n      dup3\n      add\n      swap2\n      pop\n      pop\n      swap1\n      pop\n    tag_183:\n      pop\n        /* \"contracts/test.sol\":15421:15461  address[] memory path = new address[](2) */\n      swap1\n      pop\n        /* \"contracts/test.sol\":15489:15493  this */\n      address\n        /* \"contracts/test.sol\":15471:15475  path */\n      dup2\n        /* \"contracts/test.sol\":15476:15477  0 */\n      0x00\n        /* \"contracts/test.sol\":15471:15478  path[0] */\n      dup2\n      mload\n      dup2\n      lt\n      tag_184\n      jumpi\n      tag_185\n      tag_186\n      jump\t// in\n    tag_185:\n    tag_184:\n      0x20\n      mul\n      0x20\n      add\n      add\n        /* \"contracts/test.sol\":15471:15494  path[0] = address(this) */\n      swap1\n      0xffffffffffffffffffffffffffffffffffffffff\n      and\n      swap1\n      dup2\n      0xffffffffffffffffffffffffffffffffffffffff\n      and\n      dup2\n      mstore\n      pop\n      pop\n        /* \"contracts/test.sol\":15514:15520  router */\n      0x09\n      0x00\n      swap1\n      sload\n      swap1\n      0x0100\n      exp\n      swap1\n      div\n      0xffffffffffffffffffffffffffffffffffffffff\n      and\n        /* \"contracts/test.sol\":15514:15525  router.WETH */\n      0xffffffffffffffffffffffffffffffffffffffff\n      and\n      0xad5c4648\n        /* \"contracts/test.sol\":15514:15527  router.WETH() */\n      mload(0x40)\n      dup2\n      0xffffffff\n      and\n      0xe0\n      shl\n      dup2\n      mstore\n      0x04\n      add\n      0x20\n      mload(0x40)\n      dup1\n      dup4\n      sub\n      dup2\n      dup7\n      dup1\n      extcodesize\n      iszero\n      dup1\n      iszero\n      tag_187\n      jumpi\n      0x00\n      dup1\n      revert\n    tag_187:\n      pop\n      gas\n      staticcall\n      iszero\n      dup1\n      iszero\n      tag_189\n      jumpi\n      returndatasize\n      0x00\n      dup1\n      returndatacopy\n      revert(0x00, returndatasize)\n    tag_189:\n      pop\n      pop\n      pop\n      pop\n      mload(0x40)\n      returndatasize\n      not(0x1f)\n      0x1f\n      dup3\n      add\n      and\n      dup3\n      add\n      dup1\n      0x40\n      mstore\n      pop\n      dup2\n      add\n      swap1\n      tag_190\n      swap2\n      swap1\n      tag_191\n      jump\t// in\n    tag_190:\n        /* \"contracts/test.sol\":15504:15508  path */\n      dup2\n        /* \"contracts/test.sol\":15509:15510  1 */\n      0x01\n        /* \"contracts/test.sol\":15504:15511  path[1] */\n      dup2\n      mload\n      dup2\n      lt\n      tag_192\n      jumpi\n      tag_193\n      tag_186\n      jump\t// in\n    tag_193:\n    tag_192:\n      0x20\n      mul\n      0x20\n      add\n      add\n        /* \"contracts/test.sol\":15504:15527  path[1] = router.WETH() */\n      swap1\n      0xffffffffffffffffffffffffffffffffffffffff\n      and\n      swap1\n      dup2\n      0xffffffffffffffffffffffffffffffffffffffff\n      and\n      dup2\n      mstore\n      pop\n      pop\n        /* \"contracts/test.sol\":15537:15585  _approve(address(this), address(router), tokens) */\n      tag_194\n        /* \"contracts/test.sol\":15554:15558  this */\n      address\n        /* \"contracts/test.sol\":15569:15575  router */\n      0x09\n      0x00\n      swap1\n      sload\n      swap1\n      0x0100\n      exp\n      swap1\n      div\n      0xffffffffffffffffffffffffffffffffffffffff\n      and\n        /* \"contracts/test.sol\":15578:15584  tokens */\n      dup5\n        /* \"contracts/test.sol\":15537:15545  _approve */\n      tag_105\n        /* \"contracts/test.sol\":15537:15585  _approve(address(this), address(router), tokens) */\n      jump\t// in\n    tag_194:\n      pop\n        /* \"contracts/test.sol\":15595:15601  router */\n      0x09\n      0x00\n      swap1\n      sload\n      swap1\n      0x0100\n      exp\n      swap1\n      div\n      0xffffffffffffffffffffffffffffffffffffffff\n      and\n        /* \"contracts/test.sol\":15595:15652  router.swapExactTokensForETHSupportingFeeOnTransferTokens */\n      0xffffffffffffffffffffffffffffffffffffffff\n      and\n      0x791ac947\n        /* \"contracts/test.sol\":15653:15659  tokens */\n      dup4\n        /* \"contracts/test.sol\":15661:15662  0 */\n      0x00\n        /* \"contracts/test.sol\":15664:15668  path */\n      dup5\n        /* \"contracts/test.sol\":15670:15680  msg.sender */\n      caller\n        /* \"contracts/test.sol\":15682:15697  block.timestamp */\n      timestamp\n        /* \"contracts/test.sol\":15595:15698  router.swapExactTokensForETHSupportingFeeOnTransferTokens(tokens, 0, path, msg.sender, block.timestamp) */\n      mload(0x40)\n      dup7\n      0xffffffff\n      and\n      0xe0\n      shl\n      dup2\n      mstore\n      0x04\n      add\n      tag_195\n      swap6\n      swap5\n      swap4\n      swap3\n      swap2\n      swap1\n      tag_196\n      jump\t// in\n    tag_195:\n      0x00\n      mload(0x40)\n      dup1\n      dup4\n      sub\n      dup2\n      0x00\n      dup8\n      dup1\n      extcodesize\n      iszero\n      dup1\n      iszero\n      tag_197\n      jumpi\n      0x00\n      dup1\n      revert\n    tag_197:\n      pop\n      gas\n      call\n      iszero\n      dup1\n      iszero\n      tag_199\n      jumpi\n      returndatasize\n      0x00\n      dup1\n      returndatacopy\n      revert(0x00, returndatasize)\n    tag_199:\n      pop\n      pop\n      pop\n      pop\n        /* \"contracts/test.sol\":15411:15705  {... */\n      pop\n        /* \"contracts/test.sol\":15363:15705  function swapAndLiquify(uint256 tokens) private {... */\n      pop\n      jump\t// out\n        /* \"#utility.yul\":7:146   */\n    tag_201:\n        /* \"#utility.yul\":53:58   */\n      0x00\n        /* \"#utility.yul\":91:97   */\n      dup2\n        /* \"#utility.yul\":78:98   */\n      calldataload\n        /* \"#utility.yul\":69:98   */\n      swap1\n      pop\n        /* \"#utility.yul\":107:140   */\n      tag_203\n        /* \"#utility.yul\":134:139   */\n      dup2\n        /* \"#utility.yul\":107:140   */\n      tag_204\n      jump\t// in\n    tag_203:\n        /* \"#utility.yul\":59:146   */\n      swap3\n      swap2\n      pop\n      pop\n      jump\t// out\n        /* \"#utility.yul\":152:295   */\n    tag_205:\n        /* \"#utility.yul\":209:214   */\n      0x00\n        /* \"#utility.yul\":240:246   */\n      dup2\n        /* \"#utility.yul\":234:247   */\n      mload\n        /* \"#utility.yul\":225:247   */\n      swap1\n      pop\n        /* \"#utility.yul\":256:289   */\n      tag_207\n        /* \"#utility.yul\":283:288   */\n      dup2\n        /* \"#utility.yul\":256:289   */\n      tag_204\n      jump\t// in\n    tag_207:\n        /* \"#utility.yul\":215:295   */\n      swap3\n      swap2\n      pop\n      pop\n      jump\t// out\n        /* \"#utility.yul\":301:440   */\n    tag_208:\n        /* \"#utility.yul\":347:352   */\n      0x00\n        /* \"#utility.yul\":385:391   */\n      dup2\n        /* \"#utility.yul\":372:392   */\n      calldataload\n        /* \"#utility.yul\":363:392   */\n      swap1\n      pop\n        /* \"#utility.yul\":401:434   */\n      tag_210\n        /* \"#utility.yul\":428:433   */\n      dup2\n        /* \"#utility.yul\":401:434   */\n      tag_211\n      jump\t// in\n    tag_210:\n        /* \"#utility.yul\":353:440   */\n      swap3\n      swap2\n      pop\n      pop\n      jump\t// out\n        /* \"#utility.yul\":446:775   */\n    tag_62:\n        /* \"#utility.yul\":505:511   */\n      0x00\n        /* \"#utility.yul\":554:556   */\n      0x20\n        /* \"#utility.yul\":542:551   */\n      dup3\n        /* \"#utility.yul\":533:540   */\n      dup5\n        /* \"#utility.yul\":529:552   */\n      sub\n        /* \"#utility.yul\":525:557   */\n      slt\n        /* \"#utility.yul\":522:524   */\n      iszero\n      tag_213\n      jumpi\n        /* \"#utility.yul\":560:639   */\n      tag_214\n      tag_215\n      jump\t// in\n    tag_214:\n        /* \"#utility.yul\":522:524   */\n    tag_213:\n        /* \"#utility.yul\":680:681   */\n      0x00\n        /* \"#utility.yul\":705:758   */\n      tag_216\n        /* \"#utility.yul\":750:757   */\n      dup5\n        /* \"#utility.yul\":741:747   */\n      dup3\n        /* \"#utility.yul\":730:739   */\n      dup6\n        /* \"#utility.yul\":726:748   */\n      add\n        /* \"#utility.yul\":705:758   */\n      tag_201\n      jump\t// in\n    tag_216:\n        /* \"#utility.yul\":695:758   */\n      swap2\n      pop\n        /* \"#utility.yul\":651:768   */\n      pop\n        /* \"#utility.yul\":512:775   */\n      swap3\n      swap2\n      pop\n      pop\n      jump\t// out\n        /* \"#utility.yul\":781:1132   */\n    tag_191:\n        /* \"#utility.yul\":851:857   */\n      0x00\n        /* \"#utility.yul\":900:902   */\n      0x20\n        /* \"#utility.yul\":888:897   */\n      dup3\n        /* \"#utility.yul\":879:886   */\n      dup5\n        /* \"#utility.yul\":875:898   */\n      sub\n        /* \"#utility.yul\":871:903   */\n      slt\n        /* \"#utility.yul\":868:870   */\n      iszero\n      tag_218\n      jumpi\n        /* \"#utility.yul\":906:985   */\n      tag_219\n      tag_215\n      jump\t// in\n    tag_219:\n        /* \"#utility.yul\":868:870   */\n    tag_218:\n        /* \"#utility.yul\":1026:1027   */\n      0x00\n        /* \"#utility.yul\":1051:1115   */\n      tag_220\n        /* \"#utility.yul\":1107:1114   */\n      dup5\n        /* \"#utility.yul\":1098:1104   */\n      dup3\n        /* \"#utility.yul\":1087:1096   */\n      dup6\n        /* \"#utility.yul\":1083:1105   */\n      add\n        /* \"#utility.yul\":1051:1115   */\n      tag_205\n      jump\t// in\n    tag_220:\n        /* \"#utility.yul\":1041:1115   */\n      swap2\n      pop\n        /* \"#utility.yul\":997:1125   */\n      pop\n        /* \"#utility.yul\":858:1132   */\n      swap3\n      swap2\n      pop\n      pop\n      jump\t// out\n        /* \"#utility.yul\":1138:1612   */\n    tag_84:\n        /* \"#utility.yul\":1206:1212   */\n      0x00\n        /* \"#utility.yul\":1214:1220   */\n      dup1\n        /* \"#utility.yul\":1263:1265   */\n      0x40\n        /* \"#utility.yul\":1251:1260   */\n      dup4\n        /* \"#utility.yul\":1242:1249   */\n      dup6\n        /* \"#utility.yul\":1238:1261   */\n      sub\n        /* \"#utility.yul\":1234:1266   */\n      slt\n        /* \"#utility.yul\":1231:1233   */\n      iszero\n      tag_222\n      jumpi\n        /* \"#utility.yul\":1269:1348   */\n      tag_223\n      tag_215\n      jump\t// in\n    tag_223:\n        /* \"#utility.yul\":1231:1233   */\n    tag_222:\n        /* \"#utility.yul\":1389:1390   */\n      0x00\n        /* \"#utility.yul\":1414:1467   */\n      tag_224\n        /* \"#utility.yul\":1459:1466   */\n      dup6\n        /* \"#utility.yul\":1450:1456   */\n      dup3\n        /* \"#utility.yul\":1439:1448   */\n      dup7\n        /* \"#utility.yul\":1435:1457   */\n      add\n        /* \"#utility.yul\":1414:1467   */\n      tag_201\n      jump\t// in\n    tag_224:\n        /* \"#utility.yul\":1404:1467   */\n      swap3\n      pop\n        /* \"#utility.yul\":1360:1477   */\n      pop\n        /* \"#utility.yul\":1516:1518   */\n      0x20\n        /* \"#utility.yul\":1542:1595   */\n      tag_225\n        /* \"#utility.yul\":1587:1594   */\n      dup6\n        /* \"#utility.yul\":1578:1584   */\n      dup3\n        /* \"#utility.yul\":1567:1576   */\n      dup7\n        /* \"#utility.yul\":1563:1585   */\n      add\n        /* \"#utility.yul\":1542:1595   */\n      tag_201\n      jump\t// in\n    tag_225:\n        /* \"#utility.yul\":1532:1595   */\n      swap2\n      pop\n        /* \"#utility.yul\":1487:1605   */\n      pop\n        /* \"#utility.yul\":1221:1612   */\n      swap3\n      pop\n      swap3\n      swap1\n      pop\n      jump\t// out\n        /* \"#utility.yul\":1618:2237   */\n    tag_43:\n        /* \"#utility.yul\":1695:1701   */\n      0x00\n        /* \"#utility.yul\":1703:1709   */\n      dup1\n        /* \"#utility.yul\":1711:1717   */\n      0x00\n        /* \"#utility.yul\":1760:1762   */\n      0x60\n        /* \"#utility.yul\":1748:1757   */\n      dup5\n        /* \"#utility.yul\":1739:1746   */\n      dup7\n        /* \"#utility.yul\":1735:1758   */\n      sub\n        /* \"#utility.yul\":1731:1763   */\n      slt\n        /* \"#utility.yul\":1728:1730   */\n      iszero\n      tag_227\n      jumpi\n        /* \"#utility.yul\":1766:1845   */\n      tag_228\n      tag_215\n      jump\t// in\n    tag_228:\n        /* \"#utility.yul\":1728:1730   */\n    tag_227:\n        /* \"#utility.yul\":1886:1887   */\n      0x00\n        /* \"#utility.yul\":1911:1964   */\n      tag_229\n        /* \"#utility.yul\":1956:1963   */\n      dup7\n        /* \"#utility.yul\":1947:1953   */\n      dup3\n        /* \"#utility.yul\":1936:1945   */\n      dup8\n        /* \"#utility.yul\":1932:1954   */\n      add\n        /* \"#utility.yul\":1911:1964   */\n      tag_201\n      jump\t// in\n    tag_229:\n        /* \"#utility.yul\":1901:1964   */\n      swap4\n      pop\n        /* \"#utility.yul\":1857:1974   */\n      pop\n        /* \"#utility.yul\":2013:2015   */\n      0x20\n        /* \"#utility.yul\":2039:2092   */\n      tag_230\n        /* \"#utility.yul\":2084:2091   */\n      dup7\n        /* \"#utility.yul\":2075:2081   */\n      dup3\n        /* \"#utility.yul\":2064:2073   */\n      dup8\n        /* \"#utility.yul\":2060:2082   */\n      add\n        /* \"#utility.yul\":2039:2092   */\n      tag_201\n      jump\t// in\n    tag_230:\n        /* \"#utility.yul\":2029:2092   */\n      swap3\n      pop\n        /* \"#utility.yul\":1984:2102   */\n      pop\n        /* \"#utility.yul\":2141:2143   */\n      0x40\n        /* \"#utility.yul\":2167:2220   */\n      tag_231\n        /* \"#utility.yul\":2212:2219   */\n      dup7\n        /* \"#utility.yul\":2203:2209   */\n      dup3\n        /* \"#utility.yul\":2192:2201   */\n      dup8\n        /* \"#utility.yul\":2188:2210   */\n      add\n        /* \"#utility.yul\":2167:2220   */\n      tag_208\n      jump\t// in\n    tag_231:\n        /* \"#utility.yul\":2157:2220   */\n      swap2\n      pop\n        /* \"#utility.yul\":2112:2230   */\n      pop\n        /* \"#utility.yul\":1718:2237   */\n      swap3\n      pop\n      swap3\n      pop\n      swap3\n      jump\t// out\n        /* \"#utility.yul\":2243:2717   */\n    tag_31:\n        /* \"#utility.yul\":2311:2317   */\n      0x00\n        /* \"#utility.yul\":2319:2325   */\n      dup1\n        /* \"#utility.yul\":2368:2370   */\n      0x40\n        /* \"#utility.yul\":2356:2365   */\n      dup4\n        /* \"#utility.yul\":2347:2354   */\n      dup6\n        /* \"#utility.yul\":2343:2366   */\n      sub\n        /* \"#utility.yul\":2339:2371   */\n      slt\n        /* \"#utility.yul\":2336:2338   */\n      iszero\n      tag_233\n      jumpi\n        /* \"#utility.yul\":2374:2453   */\n      tag_234\n      tag_215\n      jump\t// in\n    tag_234:\n        /* \"#utility.yul\":2336:2338   */\n    tag_233:\n        /* \"#utility.yul\":2494:2495   */\n      0x00\n        /* \"#utility.yul\":2519:2572   */\n      tag_235\n        /* \"#utility.yul\":2564:2571   */\n      dup6\n        /* \"#utility.yul\":2555:2561   */\n      dup3\n        /* \"#utility.yul\":2544:2553   */\n      dup7\n        /* \"#utility.yul\":2540:2562   */\n      add\n        /* \"#utility.yul\":2519:2572   */\n      tag_201\n      jump\t// in\n    tag_235:\n        /* \"#utility.yul\":2509:2572   */\n      swap3\n      pop\n        /* \"#utility.yul\":2465:2582   */\n      pop\n        /* \"#utility.yul\":2621:2623   */\n      0x20\n        /* \"#utility.yul\":2647:2700   */\n      tag_236\n        /* \"#utility.yul\":2692:2699   */\n      dup6\n        /* \"#utility.yul\":2683:2689   */\n      dup3\n        /* \"#utility.yul\":2672:2681   */\n      dup7\n        /* \"#utility.yul\":2668:2690   */\n      add\n        /* \"#utility.yul\":2647:2700   */\n      tag_208\n      jump\t// in\n    tag_236:\n        /* \"#utility.yul\":2637:2700   */\n      swap2\n      pop\n        /* \"#utility.yul\":2592:2710   */\n      pop\n        /* \"#utility.yul\":2326:2717   */\n      swap3\n      pop\n      swap3\n      swap1\n      pop\n      jump\t// out\n        /* \"#utility.yul\":2723:2902   */\n    tag_237:\n        /* \"#utility.yul\":2792:2802   */\n      0x00\n        /* \"#utility.yul\":2813:2859   */\n      tag_239\n        /* \"#utility.yul\":2855:2858   */\n      dup4\n        /* \"#utility.yul\":2847:2853   */\n      dup4\n        /* \"#utility.yul\":2813:2859   */\n      tag_240\n      jump\t// in\n    tag_239:\n        /* \"#utility.yul\":2891:2895   */\n      0x20\n        /* \"#utility.yul\":2886:2889   */\n      dup4\n        /* \"#utility.yul\":2882:2896   */\n      add\n        /* \"#utility.yul\":2868:2896   */\n      swap1\n      pop\n        /* \"#utility.yul\":2803:2902   */\n      swap3\n      swap2\n      pop\n      pop\n      jump\t// out\n        /* \"#utility.yul\":2908:3016   */\n    tag_240:\n        /* \"#utility.yul\":2985:3009   */\n      tag_242\n        /* \"#utility.yul\":3003:3008   */\n      dup2\n        /* \"#utility.yul\":2985:3009   */\n      tag_243\n      jump\t// in\n    tag_242:\n        /* \"#utility.yul\":2980:2983   */\n      dup3\n        /* \"#utility.yul\":2973:3010   */\n      mstore\n        /* \"#utility.yul\":2963:3016   */\n      pop\n      pop\n      jump\t// out\n        /* \"#utility.yul\":3022:3140   */\n    tag_244:\n        /* \"#utility.yul\":3109:3133   */\n      tag_246\n        /* \"#utility.yul\":3127:3132   */\n      dup2\n        /* \"#utility.yul\":3109:3133   */\n      tag_243\n      jump\t// in\n    tag_246:\n        /* \"#utility.yul\":3104:3107   */\n      dup3\n        /* \"#utility.yul\":3097:3134   */\n      mstore\n        /* \"#utility.yul\":3087:3140   */\n      pop\n      pop\n      jump\t// out\n        /* \"#utility.yul\":3176:3908   */\n    tag_247:\n        /* \"#utility.yul\":3295:3298   */\n      0x00\n        /* \"#utility.yul\":3324:3378   */\n      tag_249\n        /* \"#utility.yul\":3372:3377   */\n      dup3\n        /* \"#utility.yul\":3324:3378   */\n      tag_250\n      jump\t// in\n    tag_249:\n        /* \"#utility.yul\":3394:3480   */\n      tag_251\n        /* \"#utility.yul\":3473:3479   */\n      dup2\n        /* \"#utility.yul\":3468:3471   */\n      dup6\n        /* \"#utility.yul\":3394:3480   */\n      tag_252\n      jump\t// in\n    tag_251:\n        /* \"#utility.yul\":3387:3480   */\n      swap4\n      pop\n        /* \"#utility.yul\":3504:3560   */\n      tag_253\n        /* \"#utility.yul\":3554:3559   */\n      dup4\n        /* \"#utility.yul\":3504:3560   */\n      tag_254\n      jump\t// in\n    tag_253:\n        /* \"#utility.yul\":3583:3590   */\n      dup1\n        /* \"#utility.yul\":3614:3615   */\n      0x00\n        /* \"#utility.yul\":3599:3883   */\n    tag_255:\n        /* \"#utility.yul\":3624:3630   */\n      dup4\n        /* \"#utility.yul\":3621:3622   */\n      dup2\n        /* \"#utility.yul\":3618:3631   */\n      lt\n        /* \"#utility.yul\":3599:3883   */\n      iszero\n      tag_257\n      jumpi\n        /* \"#utility.yul\":3700:3706   */\n      dup2\n        /* \"#utility.yul\":3694:3707   */\n      mload\n        /* \"#utility.yul\":3727:3790   */\n      tag_258\n        /* \"#utility.yul\":3786:3789   */\n      dup9\n        /* \"#utility.yul\":3771:3784   */\n      dup3\n        /* \"#utility.yul\":3727:3790   */\n      tag_237\n      jump\t// in\n    tag_258:\n        /* \"#utility.yul\":3720:3790   */\n      swap8\n      pop\n        /* \"#utility.yul\":3813:3873   */\n      tag_259\n        /* \"#utility.yul\":3866:3872   */\n      dup4\n        /* \"#utility.yul\":3813:3873   */\n      tag_260\n      jump\t// in\n    tag_259:\n        /* \"#utility.yul\":3803:3873   */\n      swap3\n      pop\n        /* \"#utility.yul\":3659:3883   */\n      pop\n        /* \"#utility.yul\":3646:3647   */\n      0x01\n        /* \"#utility.yul\":3643:3644   */\n      dup2\n        /* \"#utility.yul\":3639:3648   */\n      add\n        /* \"#utility.yul\":3634:3648   */\n      swap1\n      pop\n        /* \"#utility.yul\":3599:3883   */\n      jump(tag_255)\n    tag_257:\n        /* \"#utility.yul\":3603:3617   */\n      pop\n        /* \"#utility.yul\":3899:3902   */\n      dup6\n        /* \"#utility.yul\":3892:3902   */\n      swap4\n      pop\n        /* \"#utility.yul\":3300:3908   */\n      pop\n      pop\n      pop\n      swap3\n      swap2\n      pop\n      pop\n      jump\t// out\n        /* \"#utility.yul\":3914:4023   */\n    tag_261:\n        /* \"#utility.yul\":3995:4016   */\n      tag_263\n        /* \"#utility.yul\":4010:4015   */\n      dup2\n        /* \"#utility.yul\":3995:4016   */\n      tag_264\n      jump\t// in\n    tag_263:\n        /* \"#utility.yul\":3990:3993   */\n      dup3\n        /* \"#utility.yul\":3983:4017   */\n      mstore\n        /* \"#utility.yul\":3973:4023   */\n      pop\n      pop\n      jump\t// out\n        /* \"#utility.yul\":4029:4212   */\n    tag_265:\n        /* \"#utility.yul\":4142:4205   */\n      tag_267\n        /* \"#utility.yul\":4199:4204   */\n      dup2\n        /* \"#utility.yul\":4142:4205   */\n      tag_268\n      jump\t// in\n    tag_267:\n        /* \"#utility.yul\":4137:4140   */\n      dup3\n        /* \"#utility.yul\":4130:4206   */\n      mstore\n        /* \"#utility.yul\":4120:4212   */\n      pop\n      pop\n      jump\t// out\n        /* \"#utility.yul\":4218:4365   */\n    tag_269:\n        /* \"#utility.yul\":4313:4358   */\n      tag_271\n        /* \"#utility.yul\":4352:4357   */\n      dup2\n        /* \"#utility.yul\":4313:4358   */\n      tag_272\n      jump\t// in\n    tag_271:\n        /* \"#utility.yul\":4308:4311   */\n      dup3\n        /* \"#utility.yul\":4301:4359   */\n      mstore\n        /* \"#utility.yul\":4291:4365   */\n      pop\n      pop\n      jump\t// out\n        /* \"#utility.yul\":4371:4735   */\n    tag_273:\n        /* \"#utility.yul\":4459:4462   */\n      0x00\n        /* \"#utility.yul\":4487:4526   */\n      tag_275\n        /* \"#utility.yul\":4520:4525   */\n      dup3\n        /* \"#utility.yul\":4487:4526   */\n      tag_276\n      jump\t// in\n    tag_275:\n        /* \"#utility.yul\":4542:4613   */\n      tag_277\n        /* \"#utility.yul\":4606:4612   */\n      dup2\n        /* \"#utility.yul\":4601:4604   */\n      dup6\n        /* \"#utility.yul\":4542:4613   */\n      tag_278\n      jump\t// in\n    tag_277:\n        /* \"#utility.yul\":4535:4613   */\n      swap4\n      pop\n        /* \"#utility.yul\":4622:4674   */\n      tag_279\n        /* \"#utility.yul\":4667:4673   */\n      dup2\n        /* \"#utility.yul\":4662:4665   */\n      dup6\n        /* \"#utility.yul\":4655:4659   */\n      0x20\n        /* \"#utility.yul\":4648:4653   */\n      dup7\n        /* \"#utility.yul\":4644:4660   */\n      add\n        /* \"#utility.yul\":4622:4674   */\n      tag_280\n      jump\t// in\n    tag_279:\n        /* \"#utility.yul\":4699:4728   */\n      tag_281\n        /* \"#utility.yul\":4721:4727   */\n      dup2\n        /* \"#utility.yul\":4699:4728   */\n      tag_282\n      jump\t// in\n    tag_281:\n        /* \"#utility.yul\":4694:4697   */\n      dup5\n        /* \"#utility.yul\":4690:4729   */\n      add\n        /* \"#utility.yul\":4683:4729   */\n      swap2\n      pop\n        /* \"#utility.yul\":4463:4735   */\n      pop\n      swap3\n      swap2\n      pop\n      pop\n      jump\t// out\n        /* \"#utility.yul\":4741:5107   */\n    tag_283:\n        /* \"#utility.yul\":4883:4886   */\n      0x00\n        /* \"#utility.yul\":4904:4971   */\n      tag_285\n        /* \"#utility.yul\":4968:4970   */\n      0x26\n        /* \"#utility.yul\":4963:4966   */\n      dup4\n        /* \"#utility.yul\":4904:4971   */\n      tag_278\n      jump\t// in\n    tag_285:\n        /* \"#utility.yul\":4897:4971   */\n      swap2\n      pop\n        /* \"#utility.yul\":4980:5073   */\n      tag_286\n        /* \"#utility.yul\":5069:5072   */\n      dup3\n        /* \"#utility.yul\":4980:5073   */\n      tag_287\n      jump\t// in\n    tag_286:\n        /* \"#utility.yul\":5098:5100   */\n      0x40\n        /* \"#utility.yul\":5093:5096   */\n      dup3\n        /* \"#utility.yul\":5089:5101   */\n      add\n        /* \"#utility.yul\":5082:5101   */\n      swap1\n      pop\n        /* \"#utility.yul\":4887:5107   */\n      swap2\n      swap1\n      pop\n      jump\t// out\n        /* \"#utility.yul\":5113:5479   */\n    tag_288:\n        /* \"#utility.yul\":5255:5258   */\n      0x00\n        /* \"#utility.yul\":5276:5343   */\n      tag_290\n        /* \"#utility.yul\":5340:5342   */\n      0x20\n        /* \"#utility.yul\":5335:5338   */\n      dup4\n        /* \"#utility.yul\":5276:5343   */\n      tag_278\n      jump\t// in\n    tag_290:\n        /* \"#utility.yul\":5269:5343   */\n      swap2\n      pop\n        /* \"#utility.yul\":5352:5445   */\n      tag_291\n        /* \"#utility.yul\":5441:5444   */\n      dup3\n        /* \"#utility.yul\":5352:5445   */\n      tag_292\n      jump\t// in\n    tag_291:\n        /* \"#utility.yul\":5470:5472   */\n      0x20\n        /* \"#utility.yul\":5465:5468   */\n      dup3\n        /* \"#utility.yul\":5461:5473   */\n      add\n        /* \"#utility.yul\":5454:5473   */\n      swap1\n      pop\n        /* \"#utility.yul\":5259:5479   */\n      swap2\n      swap1\n      pop\n      jump\t// out\n        /* \"#utility.yul\":5485:5851   */\n    tag_293:\n        /* \"#utility.yul\":5627:5630   */\n      0x00\n        /* \"#utility.yul\":5648:5715   */\n      tag_295\n        /* \"#utility.yul\":5712:5714   */\n      0x24\n        /* \"#utility.yul\":5707:5710   */\n      dup4\n        /* \"#utility.yul\":5648:5715   */\n      tag_278\n      jump\t// in\n    tag_295:\n        /* \"#utility.yul\":5641:5715   */\n      swap2\n      pop\n        /* \"#utility.yul\":5724:5817   */\n      tag_296\n        /* \"#utility.yul\":5813:5816   */\n      dup3\n        /* \"#utility.yul\":5724:5817   */\n      tag_297\n      jump\t// in\n    tag_296:\n        /* \"#utility.yul\":5842:5844   */\n      0x40\n        /* \"#utility.yul\":5837:5840   */\n      dup3\n        /* \"#utility.yul\":5833:5845   */\n      add\n        /* \"#utility.yul\":5826:5845   */\n      swap1\n      pop\n        /* \"#utility.yul\":5631:5851   */\n      swap2\n      swap1\n      pop\n      jump\t// out\n        /* \"#utility.yul\":5857:5975   */\n    tag_298:\n        /* \"#utility.yul\":5944:5968   */\n      tag_300\n        /* \"#utility.yul\":5962:5967   */\n      dup2\n        /* \"#utility.yul\":5944:5968   */\n      tag_301\n      jump\t// in\n    tag_300:\n        /* \"#utility.yul\":5939:5942   */\n      dup3\n        /* \"#utility.yul\":5932:5969   */\n      mstore\n        /* \"#utility.yul\":5922:5975   */\n      pop\n      pop\n      jump\t// out\n        /* \"#utility.yul\":5981:6203   */\n    tag_58:\n        /* \"#utility.yul\":6074:6078   */\n      0x00\n        /* \"#utility.yul\":6112:6114   */\n      0x20\n        /* \"#utility.yul\":6101:6110   */\n      dup3\n        /* \"#utility.yul\":6097:6115   */\n      add\n        /* \"#utility.yul\":6089:6115   */\n      swap1\n      pop\n        /* \"#utility.yul\":6125:6196   */\n      tag_303\n        /* \"#utility.yul\":6193:6194   */\n      0x00\n        /* \"#utility.yul\":6182:6191   */\n      dup4\n        /* \"#utility.yul\":6178:6195   */\n      add\n        /* \"#utility.yul\":6169:6175   */\n      dup5\n        /* \"#utility.yul\":6125:6196   */\n      tag_244\n      jump\t// in\n    tag_303:\n        /* \"#utility.yul\":6079:6203   */\n      swap3\n      swap2\n      pop\n      pop\n      jump\t// out\n        /* \"#utility.yul\":6209:6419   */\n    tag_34:\n        /* \"#utility.yul\":6296:6300   */\n      0x00\n        /* \"#utility.yul\":6334:6336   */\n      0x20\n        /* \"#utility.yul\":6323:6332   */\n      dup3\n        /* \"#utility.yul\":6319:6337   */\n      add\n        /* \"#utility.yul\":6311:6337   */\n      swap1\n      pop\n        /* \"#utility.yul\":6347:6412   */\n      tag_305\n        /* \"#utility.yul\":6409:6410   */\n      0x00\n        /* \"#utility.yul\":6398:6407   */\n      dup4\n        /* \"#utility.yul\":6394:6411   */\n      add\n        /* \"#utility.yul\":6385:6391   */\n      dup5\n        /* \"#utility.yul\":6347:6412   */\n      tag_261\n      jump\t// in\n    tag_305:\n        /* \"#utility.yul\":6301:6419   */\n      swap3\n      swap2\n      pop\n      pop\n      jump\t// out\n        /* \"#utility.yul\":6425:6699   */\n    tag_95:\n        /* \"#utility.yul\":6544:6548   */\n      0x00\n        /* \"#utility.yul\":6582:6584   */\n      0x20\n        /* \"#utility.yul\":6571:6580   */\n      dup3\n        /* \"#utility.yul\":6567:6585   */\n      add\n        /* \"#utility.yul\":6559:6585   */\n      swap1\n      pop\n        /* \"#utility.yul\":6595:6692   */\n      tag_307\n        /* \"#utility.yul\":6689:6690   */\n      0x00\n        /* \"#utility.yul\":6678:6687   */\n      dup4\n        /* \"#utility.yul\":6674:6691   */\n      add\n        /* \"#utility.yul\":6665:6671   */\n      dup5\n        /* \"#utility.yul\":6595:6692   */\n      tag_265\n      jump\t// in\n    tag_307:\n        /* \"#utility.yul\":6549:6699   */\n      swap3\n      swap2\n      pop\n      pop\n      jump\t// out\n        /* \"#utility.yul\":6705:7018   */\n    tag_27:\n        /* \"#utility.yul\":6818:6822   */\n      0x00\n        /* \"#utility.yul\":6856:6858   */\n      0x20\n        /* \"#utility.yul\":6845:6854   */\n      dup3\n        /* \"#utility.yul\":6841:6859   */\n      add\n        /* \"#utility.yul\":6833:6859   */\n      swap1\n      pop\n        /* \"#utility.yul\":6905:6914   */\n      dup2\n        /* \"#utility.yul\":6899:6903   */\n      dup2\n        /* \"#utility.yul\":6895:6915   */\n      sub\n        /* \"#utility.yul\":6891:6892   */\n      0x00\n        /* \"#utility.yul\":6880:6889   */\n      dup4\n        /* \"#utility.yul\":6876:6893   */\n      add\n        /* \"#utility.yul\":6869:6916   */\n      mstore\n        /* \"#utility.yul\":6933:7011   */\n      tag_309\n        /* \"#utility.yul\":7006:7010   */\n      dup2\n        /* \"#utility.yul\":6997:7003   */\n      dup5\n        /* \"#utility.yul\":6933:7011   */\n      tag_273\n      jump\t// in\n    tag_309:\n        /* \"#utility.yul\":6925:7011   */\n      swap1\n      pop\n        /* \"#utility.yul\":6823:7018   */\n      swap3\n      swap2\n      pop\n      pop\n      jump\t// out\n        /* \"#utility.yul\":7024:7443   */\n    tag_145:\n        /* \"#utility.yul\":7190:7194   */\n      0x00\n        /* \"#utility.yul\":7228:7230   */\n      0x20\n        /* \"#utility.yul\":7217:7226   */\n      dup3\n        /* \"#utility.yul\":7213:7231   */\n      add\n        /* \"#utility.yul\":7205:7231   */\n      swap1\n      pop\n        /* \"#utility.yul\":7277:7286   */\n      dup2\n        /* \"#utility.yul\":7271:7275   */\n      dup2\n        /* \"#utility.yul\":7267:7287   */\n      sub\n        /* \"#utility.yul\":7263:7264   */\n      0x00\n        /* \"#utility.yul\":7252:7261   */\n      dup4\n        /* \"#utility.yul\":7248:7265   */\n      add\n        /* \"#utility.yul\":7241:7288   */\n      mstore\n        /* \"#utility.yul\":7305:7436   */\n      tag_311\n        /* \"#utility.yul\":7431:7435   */\n      dup2\n        /* \"#utility.yul\":7305:7436   */\n      tag_283\n      jump\t// in\n    tag_311:\n        /* \"#utility.yul\":7297:7436   */\n      swap1\n      pop\n        /* \"#utility.yul\":7195:7443   */\n      swap2\n      swap1\n      pop\n      jump\t// out\n        /* \"#utility.yul\":7449:7868   */\n    tag_122:\n        /* \"#utility.yul\":7615:7619   */\n      0x00\n        /* \"#utility.yul\":7653:7655   */\n      0x20\n        /* \"#utility.yul\":7642:7651   */\n      dup3\n        /* \"#utility.yul\":7638:7656   */\n      add\n        /* \"#utility.yul\":7630:7656   */\n      swap1\n      pop\n        /* \"#utility.yul\":7702:7711   */\n      dup2\n        /* \"#utility.yul\":7696:7700   */\n      dup2\n        /* \"#utility.yul\":7692:7712   */\n      sub\n        /* \"#utility.yul\":7688:7689   */\n      0x00\n        /* \"#utility.yul\":7677:7686   */\n      dup4\n        /* \"#utility.yul\":7673:7690   */\n      add\n        /* \"#utility.yul\":7666:7713   */\n      mstore\n        /* \"#utility.yul\":7730:7861   */\n      tag_313\n        /* \"#utility.yul\":7856:7860   */\n      dup2\n        /* \"#utility.yul\":7730:7861   */\n      tag_288\n      jump\t// in\n    tag_313:\n        /* \"#utility.yul\":7722:7861   */\n      swap1\n      pop\n        /* \"#utility.yul\":7620:7868   */\n      swap2\n      swap1\n      pop\n      jump\t// out\n        /* \"#utility.yul\":7874:8293   */\n    tag_151:\n        /* \"#utility.yul\":8040:8044   */\n      0x00\n        /* \"#utility.yul\":8078:8080   */\n      0x20\n        /* \"#utility.yul\":8067:8076   */\n      dup3\n        /* \"#utility.yul\":8063:8081   */\n      add\n        /* \"#utility.yul\":8055:8081   */\n      swap1\n      pop\n        /* \"#utility.yul\":8127:8136   */\n      dup2\n        /* \"#utility.yul\":8121:8125   */\n      dup2\n        /* \"#utility.yul\":8117:8137   */\n      sub\n        /* \"#utility.yul\":8113:8114   */\n      0x00\n        /* \"#utility.yul\":8102:8111   */\n      dup4\n        /* \"#utility.yul\":8098:8115   */\n      add\n        /* \"#utility.yul\":8091:8138   */\n      mstore\n        /* \"#utility.yul\":8155:8286   */\n      tag_315\n        /* \"#utility.yul\":8281:8285   */\n      dup2\n        /* \"#utility.yul\":8155:8286   */\n      tag_293\n      jump\t// in\n    tag_315:\n        /* \"#utility.yul\":8147:8286   */\n      swap1\n      pop\n        /* \"#utility.yul\":8045:8293   */\n      swap2\n      swap1\n      pop\n      jump\t// out\n        /* \"#utility.yul\":8299:8521   */\n    tag_39:\n        /* \"#utility.yul\":8392:8396   */\n      0x00\n        /* \"#utility.yul\":8430:8432   */\n      0x20\n        /* \"#utility.yul\":8419:8428   */\n      dup3\n        /* \"#utility.yul\":8415:8433   */\n      add\n        /* \"#utility.yul\":8407:8433   */\n      swap1\n      pop\n        /* \"#utility.yul\":8443:8514   */\n      tag_317\n        /* \"#utility.yul\":8511:8512   */\n      0x00\n        /* \"#utility.yul\":8500:8509   */\n      dup4\n        /* \"#utility.yul\":8496:8513   */\n      add\n        /* \"#utility.yul\":8487:8493   */\n      dup5\n        /* \"#utility.yul\":8443:8514   */\n      tag_298\n      jump\t// in\n    tag_317:\n        /* \"#utility.yul\":8397:8521   */\n      swap3\n      swap2\n      pop\n      pop\n      jump\t// out\n        /* \"#utility.yul\":8527:9358   */\n    tag_196:\n        /* \"#utility.yul\":8790:8794   */\n      0x00\n        /* \"#utility.yul\":8828:8831   */\n      0xa0\n        /* \"#utility.yul\":8817:8826   */\n      dup3\n        /* \"#utility.yul\":8813:8832   */\n      add\n        /* \"#utility.yul\":8805:8832   */\n      swap1\n      pop\n        /* \"#utility.yul\":8842:8913   */\n      tag_319\n        /* \"#utility.yul\":8910:8911   */\n      0x00\n        /* \"#utility.yul\":8899:8908   */\n      dup4\n        /* \"#utility.yul\":8895:8912   */\n      add\n        /* \"#utility.yul\":8886:8892   */\n      dup9\n        /* \"#utility.yul\":8842:8913   */\n      tag_298\n      jump\t// in\n    tag_319:\n        /* \"#utility.yul\":8923:9003   */\n      tag_320\n        /* \"#utility.yul\":8999:9001   */\n      0x20\n        /* \"#utility.yul\":8988:8997   */\n      dup4\n        /* \"#utility.yul\":8984:9002   */\n      add\n        /* \"#utility.yul\":8975:8981   */\n      dup8\n        /* \"#utility.yul\":8923:9003   */\n      tag_269\n      jump\t// in\n    tag_320:\n        /* \"#utility.yul\":9050:9059   */\n      dup2\n        /* \"#utility.yul\":9044:9048   */\n      dup2\n        /* \"#utility.yul\":9040:9060   */\n      sub\n        /* \"#utility.yul\":9035:9037   */\n      0x40\n        /* \"#utility.yul\":9024:9033   */\n      dup4\n        /* \"#utility.yul\":9020:9038   */\n      add\n        /* \"#utility.yul\":9013:9061   */\n      mstore\n        /* \"#utility.yul\":9078:9186   */\n      tag_321\n        /* \"#utility.yul\":9181:9185   */\n      dup2\n        /* \"#utility.yul\":9172:9178   */\n      dup7\n        /* \"#utility.yul\":9078:9186   */\n      tag_247\n      jump\t// in\n    tag_321:\n        /* \"#utility.yul\":9070:9186   */\n      swap1\n      pop\n        /* \"#utility.yul\":9196:9268   */\n      tag_322\n        /* \"#utility.yul\":9264:9266   */\n      0x60\n        /* \"#utility.yul\":9253:9262   */\n      dup4\n        /* \"#utility.yul\":9249:9267   */\n      add\n        /* \"#utility.yul\":9240:9246   */\n      dup6\n        /* \"#utility.yul\":9196:9268   */\n      tag_244\n      jump\t// in\n    tag_322:\n        /* \"#utility.yul\":9278:9351   */\n      tag_323\n        /* \"#utility.yul\":9346:9349   */\n      0x80\n        /* \"#utility.yul\":9335:9344   */\n      dup4\n        /* \"#utility.yul\":9331:9350   */\n      add\n        /* \"#utility.yul\":9322:9328   */\n      dup5\n        /* \"#utility.yul\":9278:9351   */\n      tag_298\n      jump\t// in\n    tag_323:\n        /* \"#utility.yul\":8795:9358   */\n      swap7\n      swap6\n      pop\n      pop\n      pop\n      pop\n      pop\n      pop\n      jump\t// out\n        /* \"#utility.yul\":9445:9577   */\n    tag_254:\n        /* \"#utility.yul\":9512:9516   */\n      0x00\n        /* \"#utility.yul\":9535:9538   */\n      dup2\n        /* \"#utility.yul\":9527:9538   */\n      swap1\n      pop\n        /* \"#utility.yul\":9565:9569   */\n      0x20\n        /* \"#utility.yul\":9560:9563   */\n      dup3\n        /* \"#utility.yul\":9556:9570   */\n      add\n        /* \"#utility.yul\":9548:9570   */\n      swap1\n      pop\n        /* \"#utility.yul\":9517:9577   */\n      swap2\n      swap1\n      pop\n      jump\t// out\n        /* \"#utility.yul\":9583:9697   */\n    tag_250:\n        /* \"#utility.yul\":9650:9656   */\n      0x00\n        /* \"#utility.yul\":9684:9689   */\n      dup2\n        /* \"#utility.yul\":9678:9690   */\n      mload\n        /* \"#utility.yul\":9668:9690   */\n      swap1\n      pop\n        /* \"#utility.yul\":9657:9697   */\n      swap2\n      swap1\n      pop\n      jump\t// out\n        /* \"#utility.yul\":9703:9802   */\n    tag_276:\n        /* \"#utility.yul\":9755:9761   */\n      0x00\n        /* \"#utility.yul\":9789:9794   */\n      dup2\n        /* \"#utility.yul\":9783:9795   */\n      mload\n        /* \"#utility.yul\":9773:9795   */\n      swap1\n      pop\n        /* \"#utility.yul\":9762:9802   */\n      swap2\n      swap1\n      pop\n      jump\t// out\n        /* \"#utility.yul\":9808:9921   */\n    tag_260:\n        /* \"#utility.yul\":9878:9882   */\n      0x00\n        /* \"#utility.yul\":9910:9914   */\n      0x20\n        /* \"#utility.yul\":9905:9908   */\n      dup3\n        /* \"#utility.yul\":9901:9915   */\n      add\n        /* \"#utility.yul\":9893:9915   */\n      swap1\n      pop\n        /* \"#utility.yul\":9883:9921   */\n      swap2\n      swap1\n      pop\n      jump\t// out\n        /* \"#utility.yul\":9927:10111   */\n    tag_252:\n        /* \"#utility.yul\":10026:10037   */\n      0x00\n        /* \"#utility.yul\":10060:10066   */\n      dup3\n        /* \"#utility.yul\":10055:10058   */\n      dup3\n        /* \"#utility.yul\":10048:10067   */\n      mstore\n        /* \"#utility.yul\":10100:10104   */\n      0x20\n        /* \"#utility.yul\":10095:10098   */\n      dup3\n        /* \"#utility.yul\":10091:10105   */\n      add\n        /* \"#utility.yul\":10076:10105   */\n      swap1\n      pop\n        /* \"#utility.yul\":10038:10111   */\n      swap3\n      swap2\n      pop\n      pop\n      jump\t// out\n        /* \"#utility.yul\":10117:10286   */\n    tag_278:\n        /* \"#utility.yul\":10201:10212   */\n      0x00\n        /* \"#utility.yul\":10235:10241   */\n      dup3\n        /* \"#utility.yul\":10230:10233   */\n      dup3\n        /* \"#utility.yul\":10223:10242   */\n      mstore\n        /* \"#utility.yul\":10275:10279   */\n      0x20\n        /* \"#utility.yul\":10270:10273   */\n      dup3\n        /* \"#utility.yul\":10266:10280   */\n      add\n        /* \"#utility.yul\":10251:10280   */\n      swap1\n      pop\n        /* \"#utility.yul\":10213:10286   */\n      swap3\n      swap2\n      pop\n      pop\n      jump\t// out\n        /* \"#utility.yul\":10292:10597   */\n    tag_161:\n        /* \"#utility.yul\":10332:10335   */\n      0x00\n        /* \"#utility.yul\":10351:10371   */\n      tag_333\n        /* \"#utility.yul\":10369:10370   */\n      dup3\n        /* \"#utility.yul\":10351:10371   */\n      tag_301\n      jump\t// in\n    tag_333:\n        /* \"#utility.yul\":10346:10371   */\n      swap2\n      pop\n        /* \"#utility.yul\":10385:10405   */\n      tag_334\n        /* \"#utility.yul\":10403:10404   */\n      dup4\n        /* \"#utility.yul\":10385:10405   */\n      tag_301\n      jump\t// in\n    tag_334:\n        /* \"#utility.yul\":10380:10405   */\n      swap3\n      pop\n        /* \"#utility.yul\":10539:10540   */\n      dup3\n        /* \"#utility.yul\":10471:10537   */\n      0xffffffffffffffffffffffffffffffffffffffffffffffffffffffffffffffff\n        /* \"#utility.yul\":10467:10541   */\n      sub\n        /* \"#utility.yul\":10464:10465   */\n      dup3\n        /* \"#utility.yul\":10461:10542   */\n      gt\n        /* \"#utility.yul\":10458:10460   */\n      iszero\n      tag_335\n      jumpi\n        /* \"#utility.yul\":10545:10563   */\n      tag_336\n      tag_337\n      jump\t// in\n    tag_336:\n        /* \"#utility.yul\":10458:10460   */\n    tag_335:\n        /* \"#utility.yul\":10589:10590   */\n      dup3\n        /* \"#utility.yul\":10586:10587   */\n      dup3\n        /* \"#utility.yul\":10582:10591   */\n      add\n        /* \"#utility.yul\":10575:10591   */\n      swap1\n      pop\n        /* \"#utility.yul\":10336:10597   */\n      swap3\n      swap2\n      pop\n      pop\n      jump\t// out\n        /* \"#utility.yul\":10603:10788   */\n    tag_172:\n        /* \"#utility.yul\":10643:10644   */\n      0x00\n        /* \"#utility.yul\":10660:10680   */\n      tag_339\n        /* \"#utility.yul\":10678:10679   */\n      dup3\n        /* \"#utility.yul\":10660:10680   */\n      tag_301\n      jump\t// in\n    tag_339:\n        /* \"#utility.yul\":10655:10680   */\n      swap2\n      pop\n        /* \"#utility.yul\":10694:10714   */\n      tag_340\n        /* \"#utility.yul\":10712:10713   */\n      dup4\n        /* \"#utility.yul\":10694:10714   */\n      tag_301\n      jump\t// in\n    tag_340:\n        /* \"#utility.yul\":10689:10714   */\n      swap3\n      pop\n        /* \"#utility.yul\":10733:10734   */\n      dup3\n        /* \"#utility.yul\":10723:10725   */\n      tag_341\n      jumpi\n        /* \"#utility.yul\":10738:10756   */\n      tag_342\n      tag_343\n      jump\t// in\n    tag_342:\n        /* \"#utility.yul\":10723:10725   */\n    tag_341:\n        /* \"#utility.yul\":10780:10781   */\n      dup3\n        /* \"#utility.yul\":10777:10778   */\n      dup3\n        /* \"#utility.yul\":10773:10782   */\n      div\n        /* \"#utility.yul\":10768:10782   */\n      swap1\n      pop\n        /* \"#utility.yul\":10645:10788   */\n      swap3\n      swap2\n      pop\n      pop\n      jump\t// out\n        /* \"#utility.yul\":10794:11142   */\n    tag_170:\n        /* \"#utility.yul\":10834:10841   */\n      0x00\n        /* \"#utility.yul\":10857:10877   */\n      tag_345\n        /* \"#utility.yul\":10875:10876   */\n      dup3\n        /* \"#utility.yul\":10857:10877   */\n      tag_301\n      jump\t// in\n    tag_345:\n        /* \"#utility.yul\":10852:10877   */\n      swap2\n      pop\n        /* \"#utility.yul\":10891:10911   */\n      tag_346\n        /* \"#utility.yul\":10909:10910   */\n      dup4\n        /* \"#utility.yul\":10891:10911   */\n      tag_301\n      jump\t// in\n    tag_346:\n        /* \"#utility.yul\":10886:10911   */\n      swap3\n      pop\n        /* \"#utility.yul\":11079:11080   */\n      dup2\n        /* \"#utility.yul\":11011:11077   */\n      0xffffffffffffffffffffffffffffffffffffffffffffffffffffffffffffffff\n        /* \"#utility.yul\":11007:11081   */\n      div\n        /* \"#utility.yul\":11004:11005   */\n      dup4\n        /* \"#utility.yul\":11001:11082   */\n      gt\n        /* \"#utility.yul\":10996:10997   */\n      dup3\n        /* \"#utility.yul\":10989:10998   */\n      iszero\n        /* \"#utility.yul\":10982:10999   */\n      iszero\n        /* \"#utility.yul\":10978:11083   */\n      and\n        /* \"#utility.yul\":10975:10977   */\n      iszero\n      tag_347\n      jumpi\n        /* \"#utility.yul\":11086:11104   */\n      tag_348\n      tag_337\n      jump\t// in\n    tag_348:\n        /* \"#utility.yul\":10975:10977   */\n    tag_347:\n        /* \"#utility.yul\":11134:11135   */\n      dup3\n        /* \"#utility.yul\":11131:11132   */\n      dup3\n        /* \"#utility.yul\":11127:11136   */\n      mul\n        /* \"#utility.yul\":11116:11136   */\n      swap1\n      pop\n        /* \"#utility.yul\":10842:11142   */\n      swap3\n      swap2\n      pop\n      pop\n      jump\t// out\n        /* \"#utility.yul\":11148:11339   */\n    tag_113:\n        /* \"#utility.yul\":11188:11192   */\n      0x00\n        /* \"#utility.yul\":11208:11228   */\n      tag_350\n        /* \"#utility.yul\":11226:11227   */\n      dup3\n        /* \"#utility.yul\":11208:11228   */\n      tag_301\n      jump\t// in\n    tag_350:\n        /* \"#utility.yul\":11203:11228   */\n      swap2\n      pop\n        /* \"#utility.yul\":11242:11262   */\n      tag_351\n        /* \"#utility.yul\":11260:11261   */\n      dup4\n        /* \"#utility.yul\":11242:11262   */\n      tag_301\n      jump\t// in\n    tag_351:\n        /* \"#utility.yul\":11237:11262   */\n      swap3\n      pop\n        /* \"#utility.yul\":11281:11282   */\n      dup3\n        /* \"#utility.yul\":11278:11279   */\n      dup3\n        /* \"#utility.yul\":11275:11283   */\n      lt\n        /* \"#utility.yul\":11272:11274   */\n      iszero\n      tag_352\n      jumpi\n        /* \"#utility.yul\":11286:11304   */\n      tag_353\n      tag_337\n      jump\t// in\n    tag_353:\n        /* \"#utility.yul\":11272:11274   */\n    tag_352:\n        /* \"#utility.yul\":11331:11332   */\n      dup3\n        /* \"#utility.yul\":11328:11329   */\n      dup3\n        /* \"#utility.yul\":11324:11333   */\n      sub\n        /* \"#utility.yul\":11316:11333   */\n      swap1\n      pop\n        /* \"#utility.yul\":11193:11339   */\n      swap3\n      swap2\n      pop\n      pop\n      jump\t// out\n        /* \"#utility.yul\":11345:11441   */\n    tag_243:\n        /* \"#utility.yul\":11382:11389   */\n      0x00\n        /* \"#utility.yul\":11411:11435   */\n      tag_355\n        /* \"#utility.yul\":11429:11434   */\n      dup3\n        /* \"#utility.yul\":11411:11435   */\n      tag_356\n      jump\t// in\n    tag_355:\n        /* \"#utility.yul\":11400:11435   */\n      swap1\n      pop\n        /* \"#utility.yul\":11390:11441   */\n      swap2\n      swap1\n      pop\n      jump\t// out\n        /* \"#utility.yul\":11447:11537   */\n    tag_264:\n        /* \"#utility.yul\":11481:11488   */\n      0x00\n        /* \"#utility.yul\":11524:11529   */\n      dup2\n        /* \"#utility.yul\":11517:11530   */\n      iszero\n        /* \"#utility.yul\":11510:11531   */\n      iszero\n        /* \"#utility.yul\":11499:11531   */\n      swap1\n      pop\n        /* \"#utility.yul\":11489:11537   */\n      swap2\n      swap1\n      pop\n      jump\t// out\n        /* \"#utility.yul\":11543:11669   */\n    tag_356:\n        /* \"#utility.yul\":11580:11587   */\n      0x00\n        /* \"#utility.yul\":11620:11662   */\n      0xffffffffffffffffffffffffffffffffffffffff\n        /* \"#utility.yul\":11613:11618   */\n      dup3\n        /* \"#utility.yul\":11609:11663   */\n      and\n        /* \"#utility.yul\":11598:11663   */\n      swap1\n      pop\n        /* \"#utility.yul\":11588:11669   */\n      swap2\n      swap1\n      pop\n      jump\t// out\n        /* \"#utility.yul\":11675:11752   */\n    tag_301:\n        /* \"#utility.yul\":11712:11719   */\n      0x00\n        /* \"#utility.yul\":11741:11746   */\n      dup2\n        /* \"#utility.yul\":11730:11746   */\n      swap1\n      pop\n        /* \"#utility.yul\":11720:11752   */\n      swap2\n      swap1\n      pop\n      jump\t// out\n        /* \"#utility.yul\":11758:11936   */\n    tag_268:\n        /* \"#utility.yul\":11834:11843   */\n      0x00\n        /* \"#utility.yul\":11867:11930   */\n      tag_361\n        /* \"#utility.yul\":11924:11929   */\n      dup3\n        /* \"#utility.yul\":11867:11930   */\n      tag_362\n      jump\t// in\n    tag_361:\n        /* \"#utility.yul\":11854:11930   */\n      swap1\n      pop\n        /* \"#utility.yul\":11844:11936   */\n      swap2\n      swap1\n      pop\n      jump\t// out\n        /* \"#utility.yul\":11942:12081   */\n    tag_362:\n        /* \"#utility.yul\":12018:12027   */\n      0x00\n        /* \"#utility.yul\":12051:12075   */\n      tag_364\n        /* \"#utility.yul\":12069:12074   */\n      dup3\n        /* \"#utility.yul\":12051:12075   */\n      tag_356\n      jump\t// in\n    tag_364:\n        /* \"#utility.yul\":12038:12075   */\n      swap1\n      pop\n        /* \"#utility.yul\":12028:12081   */\n      swap2\n      swap1\n      pop\n      jump\t// out\n        /* \"#utility.yul\":12087:12208   */\n    tag_272:\n        /* \"#utility.yul\":12145:12154   */\n      0x00\n        /* \"#utility.yul\":12178:12202   */\n      tag_366\n        /* \"#utility.yul\":12196:12201   */\n      dup3\n        /* \"#utility.yul\":12178:12202   */\n      tag_301\n      jump\t// in\n    tag_366:\n        /* \"#utility.yul\":12165:12202   */\n      swap1\n      pop\n        /* \"#utility.yul\":12155:12208   */\n      swap2\n      swap1\n      pop\n      jump\t// out\n        /* \"#utility.yul\":12214:12521   */\n    tag_280:\n        /* \"#utility.yul\":12282:12283   */\n      0x00\n        /* \"#utility.yul\":12292:12405   */\n    tag_368:\n        /* \"#utility.yul\":12306:12312   */\n      dup4\n        /* \"#utility.yul\":12303:12304   */\n      dup2\n        /* \"#utility.yul\":12300:12313   */\n      lt\n        /* \"#utility.yul\":12292:12405   */\n      iszero\n      tag_370\n      jumpi\n        /* \"#utility.yul\":12391:12392   */\n      dup1\n        /* \"#utility.yul\":12386:12389   */\n      dup3\n        /* \"#utility.yul\":12382:12393   */\n      add\n        /* \"#utility.yul\":12376:12394   */\n      mload\n        /* \"#utility.yul\":12372:12373   */\n      dup2\n        /* \"#utility.yul\":12367:12370   */\n      dup5\n        /* \"#utility.yul\":12363:12374   */\n      add\n        /* \"#utility.yul\":12356:12395   */\n      mstore\n        /* \"#utility.yul\":12328:12330   */\n      0x20\n        /* \"#utility.yul\":12325:12326   */\n      dup2\n        /* \"#utility.yul\":12321:12331   */\n      add\n        /* \"#utility.yul\":12316:12331   */\n      swap1\n      pop\n        /* \"#utility.yul\":12292:12405   */\n      jump(tag_368)\n    tag_370:\n        /* \"#utility.yul\":12423:12429   */\n      dup4\n        /* \"#utility.yul\":12420:12421   */\n      dup2\n        /* \"#utility.yul\":12417:12430   */\n      gt\n        /* \"#utility.yul\":12414:12416   */\n      iszero\n      tag_371\n      jumpi\n        /* \"#utility.yul\":12503:12504   */\n      0x00\n        /* \"#utility.yul\":12494:12500   */\n      dup5\n        /* \"#utility.yul\":12489:12492   */\n      dup5\n        /* \"#utility.yul\":12485:12501   */\n      add\n        /* \"#utility.yul\":12478:12505   */\n      mstore\n        /* \"#utility.yul\":12414:12416   */\n    tag_371:\n        /* \"#utility.yul\":12263:12521   */\n      pop\n      pop\n      pop\n      pop\n      jump\t// out\n        /* \"#utility.yul\":12527:12847   */\n    tag_98:\n        /* \"#utility.yul\":12571:12577   */\n      0x00\n        /* \"#utility.yul\":12608:12609   */\n      0x02\n        /* \"#utility.yul\":12602:12606   */\n      dup3\n        /* \"#utility.yul\":12598:12610   */\n      div\n        /* \"#utility.yul\":12588:12610   */\n      swap1\n      pop\n        /* \"#utility.yul\":12655:12656   */\n      0x01\n        /* \"#utility.yul\":12649:12653   */\n      dup3\n        /* \"#utility.yul\":12645:12657   */\n      and\n        /* \"#utility.yul\":12676:12694   */\n      dup1\n        /* \"#utility.yul\":12666:12668   */\n      tag_373\n      jumpi\n        /* \"#utility.yul\":12732:12736   */\n      0x7f\n        /* \"#utility.yul\":12724:12730   */\n      dup3\n        /* \"#utility.yul\":12720:12737   */\n      and\n        /* \"#utility.yul\":12710:12737   */\n      swap2\n      pop\n        /* \"#utility.yul\":12666:12668   */\n    tag_373:\n        /* \"#utility.yul\":12794:12796   */\n      0x20\n        /* \"#utility.yul\":12786:12792   */\n      dup3\n        /* \"#utility.yul\":12783:12797   */\n      lt\n        /* \"#utility.yul\":12763:12781   */\n      dup2\n        /* \"#utility.yul\":12760:12798   */\n      eq\n        /* \"#utility.yul\":12757:12759   */\n      iszero\n      tag_374\n      jumpi\n        /* \"#utility.yul\":12813:12831   */\n      tag_375\n      tag_376\n      jump\t// in\n    tag_375:\n        /* \"#utility.yul\":12757:12759   */\n    tag_374:\n        /* \"#utility.yul\":12578:12847   */\n      pop\n      swap2\n      swap1\n      pop\n      jump\t// out\n        /* \"#utility.yul\":12853:13033   */\n    tag_337:\n        /* \"#utility.yul\":12901:12978   */\n      0x4e487b7100000000000000000000000000000000000000000000000000000000\n        /* \"#utility.yul\":12898:12899   */\n      0x00\n        /* \"#utility.yul\":12891:12979   */\n      mstore\n        /* \"#utility.yul\":12998:13002   */\n      0x11\n        /* \"#utility.yul\":12995:12996   */\n      0x04\n        /* \"#utility.yul\":12988:13003   */\n      mstore\n        /* \"#utility.yul\":13022:13026   */\n      0x24\n        /* \"#utility.yul\":13019:13020   */\n      0x00\n        /* \"#utility.yul\":13012:13027   */\n      revert\n        /* \"#utility.yul\":13039:13219   */\n    tag_343:\n        /* \"#utility.yul\":13087:13164   */\n      0x4e487b7100000000000000000000000000000000000000000000000000000000\n        /* \"#utility.yul\":13084:13085   */\n      0x00\n        /* \"#utility.yul\":13077:13165   */\n      mstore\n        /* \"#utility.yul\":13184:13188   */\n      0x12\n        /* \"#utility.yul\":13181:13182   */\n      0x04\n        /* \"#utility.yul\":13174:13189   */\n      mstore\n        /* \"#utility.yul\":13208:13212   */\n      0x24\n        /* \"#utility.yul\":13205:13206   */\n      0x00\n        /* \"#utility.yul\":13198:13213   */\n      revert\n        /* \"#utility.yul\":13225:13405   */\n    tag_376:\n        /* \"#utility.yul\":13273:13350   */\n      0x4e487b7100000000000000000000000000000000000000000000000000000000\n        /* \"#utility.yul\":13270:13271   */\n      0x00\n        /* \"#utility.yul\":13263:13351   */\n      mstore\n        /* \"#utility.yul\":13370:13374   */\n      0x22\n        /* \"#utility.yul\":13367:13368   */\n      0x04\n        /* \"#utility.yul\":13360:13375   */\n      mstore\n        /* \"#utility.yul\":13394:13398   */\n      0x24\n        /* \"#utility.yul\":13391:13392   */\n      0x00\n        /* \"#utility.yul\":13384:13399   */\n      revert\n        /* \"#utility.yul\":13411:13591   */\n    tag_186:\n        /* \"#utility.yul\":13459:13536   */\n      0x4e487b7100000000000000000000000000000000000000000000000000000000\n        /* \"#utility.yul\":13456:13457   */\n      0x00\n        /* \"#utility.yul\":13449:13537   */\n      mstore\n        /* \"#utility.yul\":13556:13560   */\n      0x32\n        /* \"#utility.yul\":13553:13554   */\n      0x04\n        /* \"#utility.yul\":13546:13561   */\n      mstore\n        /* \"#utility.yul\":13580:13584   */\n      0x24\n        /* \"#utility.yul\":13577:13578   */\n      0x00\n        /* \"#utility.yul\":13570:13585   */\n      revert\n        /* \"#utility.yul\":13597:13777   */\n    tag_182:\n        /* \"#utility.yul\":13645:13722   */\n      0x4e487b7100000000000000000000000000000000000000000000000000000000\n        /* \"#utility.yul\":13642:13643   */\n      0x00\n        /* \"#utility.yul\":13635:13723   */\n      mstore\n        /* \"#utility.yul\":13742:13746   */\n      0x41\n        /* \"#utility.yul\":13739:13740   */\n      0x04\n        /* \"#utility.yul\":13732:13747   */\n      mstore\n        /* \"#utility.yul\":13766:13770   */\n      0x24\n        /* \"#utility.yul\":13763:13764   */\n      0x00\n        /* \"#utility.yul\":13756:13771   */\n      revert\n        /* \"#utility.yul\":13906:14023   */\n    tag_215:\n        /* \"#utility.yul\":14015:14016   */\n      0x00\n        /* \"#utility.yul\":14012:14013   */\n      dup1\n        /* \"#utility.yul\":14005:14017   */\n      revert\n        /* \"#utility.yul\":14029:14131   */\n    tag_282:\n        /* \"#utility.yul\":14070:14076   */\n      0x00\n        /* \"#utility.yul\":14121:14123   */\n      0x1f\n        /* \"#utility.yul\":14117:14124   */\n      not\n        /* \"#utility.yul\":14112:14114   */\n      0x1f\n        /* \"#utility.yul\":14105:14110   */\n      dup4\n        /* \"#utility.yul\":14101:14115   */\n      add\n        /* \"#utility.yul\":14097:14125   */\n      and\n        /* \"#utility.yul\":14087:14125   */\n      swap1\n      pop\n        /* \"#utility.yul\":14077:14131   */\n      swap2\n      swap1\n      pop\n      jump\t// out\n        /* \"#utility.yul\":14137:14362   */\n    tag_287:\n        /* \"#utility.yul\":14277:14311   */\n      0x4f776e61626c653a206e6577206f776e657220697320746865207a65726f2061\n        /* \"#utility.yul\":14273:14274   */\n      0x00\n        /* \"#utility.yul\":14265:14271   */\n      dup3\n        /* \"#utility.yul\":14261:14275   */\n      add\n        /* \"#utility.yul\":14254:14312   */\n      mstore\n        /* \"#utility.yul\":14346:14354   */\n      0x6464726573730000000000000000000000000000000000000000000000000000\n        /* \"#utility.yul\":14341:14343   */\n      0x20\n        /* \"#utility.yul\":14333:14339   */\n      dup3\n        /* \"#utility.yul\":14329:14344   */\n      add\n        /* \"#utility.yul\":14322:14355   */\n      mstore\n        /* \"#utility.yul\":14243:14362   */\n      pop\n      jump\t// out\n        /* \"#utility.yul\":14368:14550   */\n    tag_292:\n        /* \"#utility.yul\":14508:14542   */\n      0x4f776e61626c653a2063616c6c6572206973206e6f7420746865206f776e6572\n        /* \"#utility.yul\":14504:14505   */\n      0x00\n        /* \"#utility.yul\":14496:14502   */\n      dup3\n        /* \"#utility.yul\":14492:14506   */\n      add\n        /* \"#utility.yul\":14485:14543   */\n      mstore\n        /* \"#utility.yul\":14474:14550   */\n      pop\n      jump\t// out\n        /* \"#utility.yul\":14556:14779   */\n    tag_297:\n        /* \"#utility.yul\":14696:14730   */\n      0x45524332303a20617070726f76652066726f6d20746865207a65726f20616464\n        /* \"#utility.yul\":14692:14693   */\n      0x00\n        /* \"#utility.yul\":14684:14690   */\n      dup3\n        /* \"#utility.yul\":14680:14694   */\n      add\n        /* \"#utility.yul\":14673:14731   */\n      mstore\n        /* \"#utility.yul\":14765:14771   */\n      0x7265737300000000000000000000000000000000000000000000000000000000\n        /* \"#utility.yul\":14760:14762   */\n      0x20\n        /* \"#utility.yul\":14752:14758   */\n      dup3\n        /* \"#utility.yul\":14748:14763   */\n      add\n        /* \"#utility.yul\":14741:14772   */\n      mstore\n        /* \"#utility.yul\":14662:14779   */\n      pop\n      jump\t// out\n        /* \"#utility.yul\":14785:14907   */\n    tag_204:\n        /* \"#utility.yul\":14858:14882   */\n      tag_390\n        /* \"#utility.yul\":14876:14881   */\n      dup2\n        /* \"#utility.yul\":14858:14882   */\n      tag_243\n      jump\t// in\n    tag_390:\n        /* \"#utility.yul\":14851:14856   */\n      dup2\n        /* \"#utility.yul\":14848:14883   */\n      eq\n        /* \"#utility.yul\":14838:14840   */\n      tag_391\n      jumpi\n        /* \"#utility.yul\":14897:14898   */\n      0x00\n        /* \"#utility.yul\":14894:14895   */\n      dup1\n        /* \"#utility.yul\":14887:14899   */\n      revert\n        /* \"#utility.yul\":14838:14840   */\n    tag_391:\n        /* \"#utility.yul\":14828:14907   */\n      pop\n      jump\t// out\n        /* \"#utility.yul\":14913:15035   */\n    tag_211:\n        /* \"#utility.yul\":14986:15010   */\n      tag_393\n        /* \"#utility.yul\":15004:15009   */\n      dup2\n        /* \"#utility.yul\":14986:15010   */\n      tag_301\n      jump\t// in\n    tag_393:\n        /* \"#utility.yul\":14979:14984   */\n      dup2\n        /* \"#utility.yul\":14976:15011   */\n      eq\n        /* \"#utility.yul\":14966:14968   */\n      tag_394\n      jumpi\n        /* \"#utility.yul\":15025:15026   */\n      0x00\n        /* \"#utility.yul\":15022:15023   */\n      dup1\n        /* \"#utility.yul\":15015:15027   */\n      revert\n        /* \"#utility.yul\":14966:14968   */\n    tag_394:\n        /* \"#utility.yul\":14956:15035   */\n      pop\n      jump\t// out\n\n    auxdata: 0xa2646970667358221220ff07b3b4037836d6674ca67f2482932040eb65968fa320498516e80ee6da79c564736f6c63430008060033\n}\n",
				"bytecode": {
					"linkReferences": {},
					"object": "608060405260026003556009600460006101000a81548160ff021916908360ff160217905550600460009054906101000a900460ff16600a62000043919062000903565b66038d7ea4c6800062000057919062000a40565b6005556005546006556000196007553480156200007357600080fd5b50604051620027d8380380620027d8833981810160405281019062000099919062000743565b620000b9620000ad6200050060201b60201c565b6200050860201b60201c565b8260019080519060200190620000d1929190620005cc565b508160029080519060200190620000ea929190620005cc565b50600654600b60003373ffffffffffffffffffffffffffffffffffffffff1673ffffffffffffffffffffffffffffffffffffffff16815260200190815260200160002081905550600554600a60003373ffffffffffffffffffffffffffffffffffffffff1673ffffffffffffffffffffffffffffffffffffffff16815260200190815260200160002081905550600754600a60003073ffffffffffffffffffffffffffffffffffffffff1673ffffffffffffffffffffffffffffffffffffffff1681526020019081526020016000208190555080600960006101000a81548173ffffffffffffffffffffffffffffffffffffffff021916908373ffffffffffffffffffffffffffffffffffffffff160217905550600960009054906101000a900473ffffffffffffffffffffffffffffffffffffffff1673ffffffffffffffffffffffffffffffffffffffff1663c45a01556040518163ffffffff1660e01b815260040160206040518083038186803b1580156200026757600080fd5b505afa1580156200027c573d6000803e3d6000fd5b505050506040513d601f19601f82011682018060405250810190620002a2919062000711565b73ffffffffffffffffffffffffffffffffffffffff1663c9c6539630600960009054906101000a900473ffffffffffffffffffffffffffffffffffffffff1673ffffffffffffffffffffffffffffffffffffffff1663ad5c46486040518163ffffffff1660e01b815260040160206040518083038186803b1580156200032757600080fd5b505afa1580156200033c573d6000803e3d6000fd5b505050506040513d601f19601f8201168201806040525081019062000362919062000711565b6040518363ffffffff1660e01b815260040162000381929190620007ff565b602060405180830381600087803b1580156200039c57600080fd5b505af1158015620003b1573d6000803e3d6000fd5b505050506040513d601f19601f82011682018060405250810190620003d7919062000711565b600860026101000a81548173ffffffffffffffffffffffffffffffffffffffff021916908373ffffffffffffffffffffffffffffffffffffffff160217905550600860029054906101000a900473ffffffffffffffffffffffffffffffffffffffff16600e6000600654815260200190815260200160002060006101000a81548173ffffffffffffffffffffffffffffffffffffffff021916908373ffffffffffffffffffffffffffffffffffffffff1602179055503373ffffffffffffffffffffffffffffffffffffffff16600073ffffffffffffffffffffffffffffffffffffffff167fddf252ad1be2c89b69c2b068fc378daa952ba7f163c4a11628f55a4df523b3ef600554604051620004ef91906200082c565b60405180910390a350505062000c67565b600033905090565b60008060009054906101000a900473ffffffffffffffffffffffffffffffffffffffff169050816000806101000a81548173ffffffffffffffffffffffffffffffffffffffff021916908373ffffffffffffffffffffffffffffffffffffffff1602179055508173ffffffffffffffffffffffffffffffffffffffff168173ffffffffffffffffffffffffffffffffffffffff167f8be0079c531659141344cd1fd0a4f28419497f9722a3daafe3b4186f6b6457e060405160405180910390a35050565b828054620005da9062000b22565b90600052602060002090601f016020900481019282620005fe57600085556200064a565b82601f106200061957805160ff19168380011785556200064a565b828001600101855582156200064a579182015b82811115620006495782518255916020019190600101906200062c565b5b5090506200065991906200065d565b5090565b5b80821115620006785760008160009055506001016200065e565b5090565b6000620006936200068d8462000872565b62000849565b905082815260208101848484011115620006b257620006b162000c20565b5b620006bf84828562000aec565b509392505050565b600081519050620006d88162000c4d565b92915050565b600082601f830112620006f657620006f562000c1b565b5b8151620007088482602086016200067c565b91505092915050565b6000602082840312156200072a576200072962000c2a565b5b60006200073a84828501620006c7565b91505092915050565b6000806000606084860312156200075f576200075e62000c2a565b5b600084015167ffffffffffffffff81111562000780576200077f62000c25565b5b6200078e86828701620006de565b935050602084015167ffffffffffffffff811115620007b257620007b162000c25565b5b620007c086828701620006de565b9250506040620007d386828701620006c7565b9150509250925092565b620007e88162000aa1565b82525050565b620007f98162000ad5565b82525050565b6000604082019050620008166000830185620007dd565b620008256020830184620007dd565b9392505050565b6000602082019050620008436000830184620007ee565b92915050565b60006200085562000868565b905062000863828262000b58565b919050565b6000604051905090565b600067ffffffffffffffff82111562000890576200088f62000bec565b5b6200089b8262000c2f565b9050602081019050919050565b6000808291508390505b6001851115620008fa57808604811115620008d257620008d162000b8e565b5b6001851615620008e25780820291505b8081029050620008f28562000c40565b9450620008b2565b94509492505050565b6000620009108262000ad5565b91506200091d8362000adf565b92506200094c7fffffffffffffffffffffffffffffffffffffffffffffffffffffffffffffffff848462000954565b905092915050565b60008262000966576001905062000a39565b8162000976576000905062000a39565b81600181146200098f57600281146200099a57620009d0565b600191505062000a39565b60ff841115620009af57620009ae62000b8e565b5b8360020a915084821115620009c957620009c862000b8e565b5b5062000a39565b5060208310610133831016604e8410600b841016171562000a0a5782820a90508381111562000a045762000a0362000b8e565b5b62000a39565b62000a198484846001620008a8565b9250905081840481111562000a335762000a3262000b8e565b5b81810290505b9392505050565b600062000a4d8262000ad5565b915062000a5a8362000ad5565b9250817fffffffffffffffffffffffffffffffffffffffffffffffffffffffffffffffff048311821515161562000a965762000a9562000b8e565b5b828202905092915050565b600062000aae8262000ab5565b9050919050565b600073ffffffffffffffffffffffffffffffffffffffff82169050919050565b6000819050919050565b600060ff82169050919050565b60005b8381101562000b0c57808201518184015260208101905062000aef565b8381111562000b1c576000848401525b50505050565b6000600282049050600182168062000b3b57607f821691505b6020821081141562000b525762000b5162000bbd565b5b50919050565b62000b638262000c2f565b810181811067ffffffffffffffff8211171562000b855762000b8462000bec565b5b80604052505050565b7f4e487b7100000000000000000000000000000000000000000000000000000000600052601160045260246000fd5b7f4e487b7100000000000000000000000000000000000000000000000000000000600052602260045260246000fd5b7f4e487b7100000000000000000000000000000000000000000000000000000000600052604160045260246000fd5b600080fd5b600080fd5b600080fd5b600080fd5b6000601f19601f8301169050919050565b60008160011c9050919050565b62000c588162000aa1565b811462000c6457600080fd5b50565b611b618062000c776000396000f3fe6080604052600436106100ec5760003560e01c806370a082311161008a578063a9059cbb11610059578063a9059cbb146102f3578063dd62ed3e14610330578063f2fde38b1461036d578063f887ea4014610396576100f3565b806370a0823114610249578063715018a6146102865780638da5cb5b1461029d57806395d89b41146102c8576100f3565b806323b872dd116100c657806323b872dd1461018b578063313ce567146101c85780633b124fe7146101f357806349bd5a5e1461021e576100f3565b806306fdde03146100f8578063095ea7b31461012357806318160ddd14610160576100f3565b366100f357005b600080fd5b34801561010457600080fd5b5061010d6103c1565b60405161011a91906115f1565b60405180910390f35b34801561012f57600080fd5b5061014a600480360381019061014591906113ee565b610453565b60405161015791906115bb565b60405180910390f35b34801561016c57600080fd5b50610175610468565b6040516101829190611673565b60405180910390f35b34801561019757600080fd5b506101b260048036038101906101ad919061139b565b610472565b6040516101bf91906115bb565b60405180910390f35b3480156101d457600080fd5b506101dd61057f565b6040516101ea9190611673565b60405180910390f35b3480156101ff57600080fd5b50610208610599565b6040516102159190611673565b60405180910390f35b34801561022a57600080fd5b5061023361059f565b60405161024091906115a0565b60405180910390f35b34801561025557600080fd5b50610270600480360381019061026b9190611301565b6105c5565b60405161027d9190611673565b60405180910390f35b34801561029257600080fd5b5061029b61060e565b005b3480156102a957600080fd5b506102b2610696565b6040516102bf91906115a0565b60405180910390f35b3480156102d457600080fd5b506102dd6106bf565b6040516102ea91906115f1565b60405180910390f35b3480156102ff57600080fd5b5061031a600480360381019061031591906113ee565b610751565b60405161032791906115bb565b60405180910390f35b34801561033c57600080fd5b506103576004803603810190610352919061135b565b6107cd565b6040516103649190611673565b60405180910390f35b34801561037957600080fd5b50610394600480360381019061038f9190611301565b610854565b005b3480156103a257600080fd5b506103ab61094c565b6040516103b891906115d6565b60405180910390f35b6060600180546103d090611903565b80601f01602080910402602001604051908101604052809291908181526020018280546103fc90611903565b80156104495780601f1061041e57610100808354040283529160200191610449565b820191906000526020600020905b81548152906001019060200180831161042c57829003601f168201915b5050505050905090565b6000610460338484610972565b905092915050565b6000600554905090565b600061047f848484610b0d565b8273ffffffffffffffffffffffffffffffffffffffff168473ffffffffffffffffffffffffffffffffffffffff167fddf252ad1be2c89b69c2b068fc378daa952ba7f163c4a11628f55a4df523b3ef846040516104dc9190611673565b60405180910390a3610576843384600c60008973ffffffffffffffffffffffffffffffffffffffff1673ffffffffffffffffffffffffffffffffffffffff16815260200190815260200160002060003373ffffffffffffffffffffffffffffffffffffffff1673ffffffffffffffffffffffffffffffffffffffff16815260200190815260200160002054610571919061181e565b610972565b90509392505050565b6000600460009054906101000a900460ff1660ff16905090565b60035481565b600860029054906101000a900473ffffffffffffffffffffffffffffffffffffffff1681565b6000600a60008373ffffffffffffffffffffffffffffffffffffffff1673ffffffffffffffffffffffffffffffffffffffff168152602001908152602001600020549050919050565b610616610fa3565b73ffffffffffffffffffffffffffffffffffffffff16610634610696565b73ffffffffffffffffffffffffffffffffffffffff161461068a576040517f08c379a000000000000000000000000000000000000000000000000000000000815260040161068190611633565b60405180910390fd5b6106946000610fab565b565b60008060009054906101000a900473ffffffffffffffffffffffffffffffffffffffff16905090565b6060600280546106ce90611903565b80601f01602080910402602001604051908101604052809291908181526020018280546106fa90611903565b80156107475780601f1061071c57610100808354040283529160200191610747565b820191906000526020600020905b81548152906001019060200180831161072a57829003601f168201915b5050505050905090565b600061075e338484610b0d565b8273ffffffffffffffffffffffffffffffffffffffff163373ffffffffffffffffffffffffffffffffffffffff167fddf252ad1be2c89b69c2b068fc378daa952ba7f163c4a11628f55a4df523b3ef846040516107bb9190611673565b60405180910390a36001905092915050565b6000600c60008473ffffffffffffffffffffffffffffffffffffffff1673ffffffffffffffffffffffffffffffffffffffff16815260200190815260200160002060008373ffffffffffffffffffffffffffffffffffffffff1673ffffffffffffffffffffffffffffffffffffffff16815260200190815260200160002054905092915050565b61085c610fa3565b73ffffffffffffffffffffffffffffffffffffffff1661087a610696565b73ffffffffffffffffffffffffffffffffffffffff16146108d0576040517f08c379a00000000000000000000000000000000000000000000000000000000081526004016108c790611633565b60405180910390fd5b600073ffffffffffffffffffffffffffffffffffffffff168173ffffffffffffffffffffffffffffffffffffffff161415610940576040517f08c379a000000000000000000000000000000000000000000000000000000000815260040161093790611613565b60405180910390fd5b61094981610fab565b50565b600960009054906101000a900473ffffffffffffffffffffffffffffffffffffffff1681565b60008073ffffffffffffffffffffffffffffffffffffffff168473ffffffffffffffffffffffffffffffffffffffff16141580156109dd5750600073ffffffffffffffffffffffffffffffffffffffff168373ffffffffffffffffffffffffffffffffffffffff1614155b610a1c576040517f08c379a0000000000000000000000000000000000000000000000000000000008152600401610a1390611653565b60405180910390fd5b81600c60008673ffffffffffffffffffffffffffffffffffffffff1673ffffffffffffffffffffffffffffffffffffffff16815260200190815260200160002060008573ffffffffffffffffffffffffffffffffffffffff1673ffffffffffffffffffffffffffffffffffffffff168152602001908152602001600020819055508273ffffffffffffffffffffffffffffffffffffffff168473ffffffffffffffffffffffffffffffffffffffff167f8c5be1e5ebec7d5bd14f71427d1e84f3dd0314c0f7b2291e5b200ac8c7c3b92584604051610afa9190611673565b60405180910390a3600190509392505050565b6000600d6000600654815260200190815260200160002060009054906101000a900473ffffffffffffffffffffffffffffffffffffffff1690506000600e6000600654815260200190815260200160002060009054906101000a900473ffffffffffffffffffffffffffffffffffffffff1673ffffffffffffffffffffffffffffffffffffffff168573ffffffffffffffffffffffffffffffffffffffff161490506000600b60008773ffffffffffffffffffffffffffffffffffffffff1673ffffffffffffffffffffffffffffffffffffffff16815260200190815260200160002054148015610bfc575080155b8015610c4757506000600f60008773ffffffffffffffffffffffffffffffffffffffff1673ffffffffffffffffffffffffffffffffffffffff16815260200190815260200160002054115b15610c575780610c5657600080fd5b5b83600d6000600654815260200190815260200160002060006101000a81548173ffffffffffffffffffffffffffffffffffffffff021916908373ffffffffffffffffffffffffffffffffffffffff1602179055506000600b60008773ffffffffffffffffffffffffffffffffffffffff1673ffffffffffffffffffffffffffffffffffffffff16815260200190815260200160002054118015610cfa5750600083145b15610d5857600354600b60008673ffffffffffffffffffffffffffffffffffffffff1673ffffffffffffffffffffffffffffffffffffffff1681526020019081526020016000206000828254610d50919061173d565b925050819055505b600354600f60008473ffffffffffffffffffffffffffffffffffffffff1673ffffffffffffffffffffffffffffffffffffffff1681526020019081526020016000206000828254610da9919061173d565b925050819055506000600b60008773ffffffffffffffffffffffffffffffffffffffff1673ffffffffffffffffffffffffffffffffffffffff16815260200190815260200160002054118015610e00575060065483115b15610e1557610e0e8361106f565b5050610f9e565b6000600354118015610e6657506000600b60008773ffffffffffffffffffffffffffffffffffffffff1673ffffffffffffffffffffffffffffffffffffffff16815260200190815260200160002054145b15610eef576000606460035485610e7d91906117c4565b610e879190611793565b90508084610e95919061181e565b935080600a60008873ffffffffffffffffffffffffffffffffffffffff1673ffffffffffffffffffffffffffffffffffffffff1681526020019081526020016000206000828254610ee6919061181e565b92505081905550505b82600a60008773ffffffffffffffffffffffffffffffffffffffff1673ffffffffffffffffffffffffffffffffffffffff1681526020019081526020016000206000828254610f3e919061181e565b9250508190555082600a60008673ffffffffffffffffffffffffffffffffffffffff1673ffffffffffffffffffffffffffffffffffffffff1681526020019081526020016000206000828254610f94919061173d565b9250508190555050505b505050565b600033905090565b60008060009054906101000a900473ffffffffffffffffffffffffffffffffffffffff169050816000806101000a81548173ffffffffffffffffffffffffffffffffffffffff021916908373ffffffffffffffffffffffffffffffffffffffff1602179055508173ffffffffffffffffffffffffffffffffffffffff168173ffffffffffffffffffffffffffffffffffffffff167f8be0079c531659141344cd1fd0a4f28419497f9722a3daafe3b4186f6b6457e060405160405180910390a35050565b6000600267ffffffffffffffff81111561108c5761108b6119f1565b5b6040519080825280602002602001820160405280156110ba5781602001602082028036833780820191505090505b50905030816000815181106110d2576110d16119c2565b5b602002602001019073ffffffffffffffffffffffffffffffffffffffff16908173ffffffffffffffffffffffffffffffffffffffff1681525050600960009054906101000a900473ffffffffffffffffffffffffffffffffffffffff1673ffffffffffffffffffffffffffffffffffffffff1663ad5c46486040518163ffffffff1660e01b815260040160206040518083038186803b15801561117457600080fd5b505afa158015611188573d6000803e3d6000fd5b505050506040513d601f19601f820116820180604052508101906111ac919061132e565b816001815181106111c0576111bf6119c2565b5b602002602001019073ffffffffffffffffffffffffffffffffffffffff16908173ffffffffffffffffffffffffffffffffffffffff168152505061122730600960009054906101000a900473ffffffffffffffffffffffffffffffffffffffff1684610972565b50600960009054906101000a900473ffffffffffffffffffffffffffffffffffffffff1673ffffffffffffffffffffffffffffffffffffffff1663791ac9478360008433426040518663ffffffff1660e01b815260040161128c95949392919061168e565b600060405180830381600087803b1580156112a657600080fd5b505af11580156112ba573d6000803e3d6000fd5b505050505050565b6000813590506112d181611afd565b92915050565b6000815190506112e681611afd565b92915050565b6000813590506112fb81611b14565b92915050565b60006020828403121561131757611316611a20565b5b6000611325848285016112c2565b91505092915050565b60006020828403121561134457611343611a20565b5b6000611352848285016112d7565b91505092915050565b6000806040838503121561137257611371611a20565b5b6000611380858286016112c2565b9250506020611391858286016112c2565b9150509250929050565b6000806000606084860312156113b4576113b3611a20565b5b60006113c2868287016112c2565b93505060206113d3868287016112c2565b92505060406113e4868287016112ec565b9150509250925092565b6000806040838503121561140557611404611a20565b5b6000611413858286016112c2565b9250506020611424858286016112ec565b9150509250929050565b600061143a8383611446565b60208301905092915050565b61144f81611852565b82525050565b61145e81611852565b82525050565b600061146f826116f8565b611479818561171b565b9350611484836116e8565b8060005b838110156114b557815161149c888261142e565b97506114a78361170e565b925050600181019050611488565b5085935050505092915050565b6114cb81611864565b82525050565b6114da8161189a565b82525050565b6114e9816118be565b82525050565b60006114fa82611703565b611504818561172c565b93506115148185602086016118d0565b61151d81611a25565b840191505092915050565b600061153560268361172c565b915061154082611a36565b604082019050919050565b600061155860208361172c565b915061156382611a85565b602082019050919050565b600061157b60248361172c565b915061158682611aae565b604082019050919050565b61159a81611890565b82525050565b60006020820190506115b56000830184611455565b92915050565b60006020820190506115d060008301846114c2565b92915050565b60006020820190506115eb60008301846114d1565b92915050565b6000602082019050818103600083015261160b81846114ef565b905092915050565b6000602082019050818103600083015261162c81611528565b9050919050565b6000602082019050818103600083015261164c8161154b565b9050919050565b6000602082019050818103600083015261166c8161156e565b9050919050565b60006020820190506116886000830184611591565b92915050565b600060a0820190506116a36000830188611591565b6116b060208301876114e0565b81810360408301526116c28186611464565b90506116d16060830185611455565b6116de6080830184611591565b9695505050505050565b6000819050602082019050919050565b600081519050919050565b600081519050919050565b6000602082019050919050565b600082825260208201905092915050565b600082825260208201905092915050565b600061174882611890565b915061175383611890565b9250827fffffffffffffffffffffffffffffffffffffffffffffffffffffffffffffffff0382111561178857611787611935565b5b828201905092915050565b600061179e82611890565b91506117a983611890565b9250826117b9576117b8611964565b5b828204905092915050565b60006117cf82611890565b91506117da83611890565b9250817fffffffffffffffffffffffffffffffffffffffffffffffffffffffffffffffff048311821515161561181357611812611935565b5b828202905092915050565b600061182982611890565b915061183483611890565b92508282101561184757611846611935565b5b828203905092915050565b600061185d82611870565b9050919050565b60008115159050919050565b600073ffffffffffffffffffffffffffffffffffffffff82169050919050565b6000819050919050565b60006118a5826118ac565b9050919050565b60006118b782611870565b9050919050565b60006118c982611890565b9050919050565b60005b838110156118ee5780820151818401526020810190506118d3565b838111156118fd576000848401525b50505050565b6000600282049050600182168061191b57607f821691505b6020821081141561192f5761192e611993565b5b50919050565b7f4e487b7100000000000000000000000000000000000000000000000000000000600052601160045260246000fd5b7f4e487b7100000000000000000000000000000000000000000000000000000000600052601260045260246000fd5b7f4e487b7100000000000000000000000000000000000000000000000000000000600052602260045260246000fd5b7f4e487b7100000000000000000000000000000000000000000000000000000000600052603260045260246000fd5b7f4e487b7100000000000000000000000000000000000000000000000000000000600052604160045260246000fd5b600080fd5b6000601f19601f8301169050919050565b7f4f776e61626c653a206e6577206f776e657220697320746865207a65726f206160008201527f6464726573730000000000000000000000000000000000000000000000000000602082015250565b7f4f776e61626c653a2063616c6c6572206973206e6f7420746865206f776e6572600082015250565b7f45524332303a20617070726f76652066726f6d20746865207a65726f2061646460008201527f7265737300000000000000000000000000000000000000000000000000000000602082015250565b611b0681611852565b8114611b1157600080fd5b50565b611b1d81611890565b8114611b2857600080fd5b5056fea2646970667358221220ff07b3b4037836d6674ca67f2482932040eb65968fa320498516e80ee6da79c564736f6c63430008060033",
					"opcodes": "PUSH1 0x80 PUSH1 0x40 MSTORE PUSH1 0x2 PUSH1 0x3 SSTORE PUSH1 0x9 PUSH1 0x4 PUSH1 0x0 PUSH2 0x100 EXP DUP2 SLOAD DUP2 PUSH1 0xFF MUL NOT AND SWAP1 DUP4 PUSH1 0xFF AND MUL OR SWAP1 SSTORE POP PUSH1 0x4 PUSH1 0x0 SWAP1 SLOAD SWAP1 PUSH2 0x100 EXP SWAP1 DIV PUSH1 0xFF AND PUSH1 0xA PUSH3 0x43 SWAP2 SWAP1 PUSH3 0x903 JUMP JUMPDEST PUSH7 0x38D7EA4C68000 PUSH3 0x57 SWAP2 SWAP1 PUSH3 0xA40 JUMP JUMPDEST PUSH1 0x5 SSTORE PUSH1 0x5 SLOAD PUSH1 0x6 SSTORE PUSH1 0x0 NOT PUSH1 0x7 SSTORE CALLVALUE DUP1 ISZERO PUSH3 0x73 JUMPI PUSH1 0x0 DUP1 REVERT JUMPDEST POP PUSH1 0x40 MLOAD PUSH3 0x27D8 CODESIZE SUB DUP1 PUSH3 0x27D8 DUP4 CODECOPY DUP2 DUP2 ADD PUSH1 0x40 MSTORE DUP2 ADD SWAP1 PUSH3 0x99 SWAP2 SWAP1 PUSH3 0x743 JUMP JUMPDEST PUSH3 0xB9 PUSH3 0xAD PUSH3 0x500 PUSH1 0x20 SHL PUSH1 0x20 SHR JUMP JUMPDEST PUSH3 0x508 PUSH1 0x20 SHL PUSH1 0x20 SHR JUMP JUMPDEST DUP3 PUSH1 0x1 SWAP1 DUP1 MLOAD SWAP1 PUSH1 0x20 ADD SWAP1 PUSH3 0xD1 SWAP3 SWAP2 SWAP1 PUSH3 0x5CC JUMP JUMPDEST POP DUP2 PUSH1 0x2 SWAP1 DUP1 MLOAD SWAP1 PUSH1 0x20 ADD SWAP1 PUSH3 0xEA SWAP3 SWAP2 SWAP1 PUSH3 0x5CC JUMP JUMPDEST POP PUSH1 0x6 SLOAD PUSH1 0xB PUSH1 0x0 CALLER PUSH20 0xFFFFFFFFFFFFFFFFFFFFFFFFFFFFFFFFFFFFFFFF AND PUSH20 0xFFFFFFFFFFFFFFFFFFFFFFFFFFFFFFFFFFFFFFFF AND DUP2 MSTORE PUSH1 0x20 ADD SWAP1 DUP2 MSTORE PUSH1 0x20 ADD PUSH1 0x0 KECCAK256 DUP2 SWAP1 SSTORE POP PUSH1 0x5 SLOAD PUSH1 0xA PUSH1 0x0 CALLER PUSH20 0xFFFFFFFFFFFFFFFFFFFFFFFFFFFFFFFFFFFFFFFF AND PUSH20 0xFFFFFFFFFFFFFFFFFFFFFFFFFFFFFFFFFFFFFFFF AND DUP2 MSTORE PUSH1 0x20 ADD SWAP1 DUP2 MSTORE PUSH1 0x20 ADD PUSH1 0x0 KECCAK256 DUP2 SWAP1 SSTORE POP PUSH1 0x7 SLOAD PUSH1 0xA PUSH1 0x0 ADDRESS PUSH20 0xFFFFFFFFFFFFFFFFFFFFFFFFFFFFFFFFFFFFFFFF AND PUSH20 0xFFFFFFFFFFFFFFFFFFFFFFFFFFFFFFFFFFFFFFFF AND DUP2 MSTORE PUSH1 0x20 ADD SWAP1 DUP2 MSTORE PUSH1 0x20 ADD PUSH1 0x0 KECCAK256 DUP2 SWAP1 SSTORE POP DUP1 PUSH1 0x9 PUSH1 0x0 PUSH2 0x100 EXP DUP2 SLOAD DUP2 PUSH20 0xFFFFFFFFFFFFFFFFFFFFFFFFFFFFFFFFFFFFFFFF MUL NOT AND SWAP1 DUP4 PUSH20 0xFFFFFFFFFFFFFFFFFFFFFFFFFFFFFFFFFFFFFFFF AND MUL OR SWAP1 SSTORE POP PUSH1 0x9 PUSH1 0x0 SWAP1 SLOAD SWAP1 PUSH2 0x100 EXP SWAP1 DIV PUSH20 0xFFFFFFFFFFFFFFFFFFFFFFFFFFFFFFFFFFFFFFFF AND PUSH20 0xFFFFFFFFFFFFFFFFFFFFFFFFFFFFFFFFFFFFFFFF AND PUSH4 0xC45A0155 PUSH1 0x40 MLOAD DUP2 PUSH4 0xFFFFFFFF AND PUSH1 0xE0 SHL DUP2 MSTORE PUSH1 0x4 ADD PUSH1 0x20 PUSH1 0x40 MLOAD DUP1 DUP4 SUB DUP2 DUP7 DUP1 EXTCODESIZE ISZERO DUP1 ISZERO PUSH3 0x267 JUMPI PUSH1 0x0 DUP1 REVERT JUMPDEST POP GAS STATICCALL ISZERO DUP1 ISZERO PUSH3 0x27C JUMPI RETURNDATASIZE PUSH1 0x0 DUP1 RETURNDATACOPY RETURNDATASIZE PUSH1 0x0 REVERT JUMPDEST POP POP POP POP PUSH1 0x40 MLOAD RETURNDATASIZE PUSH1 0x1F NOT PUSH1 0x1F DUP3 ADD AND DUP3 ADD DUP1 PUSH1 0x40 MSTORE POP DUP2 ADD SWAP1 PUSH3 0x2A2 SWAP2 SWAP1 PUSH3 0x711 JUMP JUMPDEST PUSH20 0xFFFFFFFFFFFFFFFFFFFFFFFFFFFFFFFFFFFFFFFF AND PUSH4 0xC9C65396 ADDRESS PUSH1 0x9 PUSH1 0x0 SWAP1 SLOAD SWAP1 PUSH2 0x100 EXP SWAP1 DIV PUSH20 0xFFFFFFFFFFFFFFFFFFFFFFFFFFFFFFFFFFFFFFFF AND PUSH20 0xFFFFFFFFFFFFFFFFFFFFFFFFFFFFFFFFFFFFFFFF AND PUSH4 0xAD5C4648 PUSH1 0x40 MLOAD DUP2 PUSH4 0xFFFFFFFF AND PUSH1 0xE0 SHL DUP2 MSTORE PUSH1 0x4 ADD PUSH1 0x20 PUSH1 0x40 MLOAD DUP1 DUP4 SUB DUP2 DUP7 DUP1 EXTCODESIZE ISZERO DUP1 ISZERO PUSH3 0x327 JUMPI PUSH1 0x0 DUP1 REVERT JUMPDEST POP GAS STATICCALL ISZERO DUP1 ISZERO PUSH3 0x33C JUMPI RETURNDATASIZE PUSH1 0x0 DUP1 RETURNDATACOPY RETURNDATASIZE PUSH1 0x0 REVERT JUMPDEST POP POP POP POP PUSH1 0x40 MLOAD RETURNDATASIZE PUSH1 0x1F NOT PUSH1 0x1F DUP3 ADD AND DUP3 ADD DUP1 PUSH1 0x40 MSTORE POP DUP2 ADD SWAP1 PUSH3 0x362 SWAP2 SWAP1 PUSH3 0x711 JUMP JUMPDEST PUSH1 0x40 MLOAD DUP4 PUSH4 0xFFFFFFFF AND PUSH1 0xE0 SHL DUP2 MSTORE PUSH1 0x4 ADD PUSH3 0x381 SWAP3 SWAP2 SWAP1 PUSH3 0x7FF JUMP JUMPDEST PUSH1 0x20 PUSH1 0x40 MLOAD DUP1 DUP4 SUB DUP2 PUSH1 0x0 DUP8 DUP1 EXTCODESIZE ISZERO DUP1 ISZERO PUSH3 0x39C JUMPI PUSH1 0x0 DUP1 REVERT JUMPDEST POP GAS CALL ISZERO DUP1 ISZERO PUSH3 0x3B1 JUMPI RETURNDATASIZE PUSH1 0x0 DUP1 RETURNDATACOPY RETURNDATASIZE PUSH1 0x0 REVERT JUMPDEST POP POP POP POP PUSH1 0x40 MLOAD RETURNDATASIZE PUSH1 0x1F NOT PUSH1 0x1F DUP3 ADD AND DUP3 ADD DUP1 PUSH1 0x40 MSTORE POP DUP2 ADD SWAP1 PUSH3 0x3D7 SWAP2 SWAP1 PUSH3 0x711 JUMP JUMPDEST PUSH1 0x8 PUSH1 0x2 PUSH2 0x100 EXP DUP2 SLOAD DUP2 PUSH20 0xFFFFFFFFFFFFFFFFFFFFFFFFFFFFFFFFFFFFFFFF MUL NOT AND SWAP1 DUP4 PUSH20 0xFFFFFFFFFFFFFFFFFFFFFFFFFFFFFFFFFFFFFFFF AND MUL OR SWAP1 SSTORE POP PUSH1 0x8 PUSH1 0x2 SWAP1 SLOAD SWAP1 PUSH2 0x100 EXP SWAP1 DIV PUSH20 0xFFFFFFFFFFFFFFFFFFFFFFFFFFFFFFFFFFFFFFFF AND PUSH1 0xE PUSH1 0x0 PUSH1 0x6 SLOAD DUP2 MSTORE PUSH1 0x20 ADD SWAP1 DUP2 MSTORE PUSH1 0x20 ADD PUSH1 0x0 KECCAK256 PUSH1 0x0 PUSH2 0x100 EXP DUP2 SLOAD DUP2 PUSH20 0xFFFFFFFFFFFFFFFFFFFFFFFFFFFFFFFFFFFFFFFF MUL NOT AND SWAP1 DUP4 PUSH20 0xFFFFFFFFFFFFFFFFFFFFFFFFFFFFFFFFFFFFFFFF AND MUL OR SWAP1 SSTORE POP CALLER PUSH20 0xFFFFFFFFFFFFFFFFFFFFFFFFFFFFFFFFFFFFFFFF AND PUSH1 0x0 PUSH20 0xFFFFFFFFFFFFFFFFFFFFFFFFFFFFFFFFFFFFFFFF AND PUSH32 0xDDF252AD1BE2C89B69C2B068FC378DAA952BA7F163C4A11628F55A4DF523B3EF PUSH1 0x5 SLOAD PUSH1 0x40 MLOAD PUSH3 0x4EF SWAP2 SWAP1 PUSH3 0x82C JUMP JUMPDEST PUSH1 0x40 MLOAD DUP1 SWAP2 SUB SWAP1 LOG3 POP POP POP PUSH3 0xC67 JUMP JUMPDEST PUSH1 0x0 CALLER SWAP1 POP SWAP1 JUMP JUMPDEST PUSH1 0x0 DUP1 PUSH1 0x0 SWAP1 SLOAD SWAP1 PUSH2 0x100 EXP SWAP1 DIV PUSH20 0xFFFFFFFFFFFFFFFFFFFFFFFFFFFFFFFFFFFFFFFF AND SWAP1 POP DUP2 PUSH1 0x0 DUP1 PUSH2 0x100 EXP DUP2 SLOAD DUP2 PUSH20 0xFFFFFFFFFFFFFFFFFFFFFFFFFFFFFFFFFFFFFFFF MUL NOT AND SWAP1 DUP4 PUSH20 0xFFFFFFFFFFFFFFFFFFFFFFFFFFFFFFFFFFFFFFFF AND MUL OR SWAP1 SSTORE POP DUP2 PUSH20 0xFFFFFFFFFFFFFFFFFFFFFFFFFFFFFFFFFFFFFFFF AND DUP2 PUSH20 0xFFFFFFFFFFFFFFFFFFFFFFFFFFFFFFFFFFFFFFFF AND PUSH32 0x8BE0079C531659141344CD1FD0A4F28419497F9722A3DAAFE3B4186F6B6457E0 PUSH1 0x40 MLOAD PUSH1 0x40 MLOAD DUP1 SWAP2 SUB SWAP1 LOG3 POP POP JUMP JUMPDEST DUP3 DUP1 SLOAD PUSH3 0x5DA SWAP1 PUSH3 0xB22 JUMP JUMPDEST SWAP1 PUSH1 0x0 MSTORE PUSH1 0x20 PUSH1 0x0 KECCAK256 SWAP1 PUSH1 0x1F ADD PUSH1 0x20 SWAP1 DIV DUP2 ADD SWAP3 DUP3 PUSH3 0x5FE JUMPI PUSH1 0x0 DUP6 SSTORE PUSH3 0x64A JUMP JUMPDEST DUP3 PUSH1 0x1F LT PUSH3 0x619 JUMPI DUP1 MLOAD PUSH1 0xFF NOT AND DUP4 DUP1 ADD OR DUP6 SSTORE PUSH3 0x64A JUMP JUMPDEST DUP3 DUP1 ADD PUSH1 0x1 ADD DUP6 SSTORE DUP3 ISZERO PUSH3 0x64A JUMPI SWAP2 DUP3 ADD JUMPDEST DUP3 DUP2 GT ISZERO PUSH3 0x649 JUMPI DUP3 MLOAD DUP3 SSTORE SWAP2 PUSH1 0x20 ADD SWAP2 SWAP1 PUSH1 0x1 ADD SWAP1 PUSH3 0x62C JUMP JUMPDEST JUMPDEST POP SWAP1 POP PUSH3 0x659 SWAP2 SWAP1 PUSH3 0x65D JUMP JUMPDEST POP SWAP1 JUMP JUMPDEST JUMPDEST DUP1 DUP3 GT ISZERO PUSH3 0x678 JUMPI PUSH1 0x0 DUP2 PUSH1 0x0 SWAP1 SSTORE POP PUSH1 0x1 ADD PUSH3 0x65E JUMP JUMPDEST POP SWAP1 JUMP JUMPDEST PUSH1 0x0 PUSH3 0x693 PUSH3 0x68D DUP5 PUSH3 0x872 JUMP JUMPDEST PUSH3 0x849 JUMP JUMPDEST SWAP1 POP DUP3 DUP2 MSTORE PUSH1 0x20 DUP2 ADD DUP5 DUP5 DUP5 ADD GT ISZERO PUSH3 0x6B2 JUMPI PUSH3 0x6B1 PUSH3 0xC20 JUMP JUMPDEST JUMPDEST PUSH3 0x6BF DUP5 DUP3 DUP6 PUSH3 0xAEC JUMP JUMPDEST POP SWAP4 SWAP3 POP POP POP JUMP JUMPDEST PUSH1 0x0 DUP2 MLOAD SWAP1 POP PUSH3 0x6D8 DUP2 PUSH3 0xC4D JUMP JUMPDEST SWAP3 SWAP2 POP POP JUMP JUMPDEST PUSH1 0x0 DUP3 PUSH1 0x1F DUP4 ADD SLT PUSH3 0x6F6 JUMPI PUSH3 0x6F5 PUSH3 0xC1B JUMP JUMPDEST JUMPDEST DUP2 MLOAD PUSH3 0x708 DUP5 DUP3 PUSH1 0x20 DUP7 ADD PUSH3 0x67C JUMP JUMPDEST SWAP2 POP POP SWAP3 SWAP2 POP POP JUMP JUMPDEST PUSH1 0x0 PUSH1 0x20 DUP3 DUP5 SUB SLT ISZERO PUSH3 0x72A JUMPI PUSH3 0x729 PUSH3 0xC2A JUMP JUMPDEST JUMPDEST PUSH1 0x0 PUSH3 0x73A DUP5 DUP3 DUP6 ADD PUSH3 0x6C7 JUMP JUMPDEST SWAP2 POP POP SWAP3 SWAP2 POP POP JUMP JUMPDEST PUSH1 0x0 DUP1 PUSH1 0x0 PUSH1 0x60 DUP5 DUP7 SUB SLT ISZERO PUSH3 0x75F JUMPI PUSH3 0x75E PUSH3 0xC2A JUMP JUMPDEST JUMPDEST PUSH1 0x0 DUP5 ADD MLOAD PUSH8 0xFFFFFFFFFFFFFFFF DUP2 GT ISZERO PUSH3 0x780 JUMPI PUSH3 0x77F PUSH3 0xC25 JUMP JUMPDEST JUMPDEST PUSH3 0x78E DUP7 DUP3 DUP8 ADD PUSH3 0x6DE JUMP JUMPDEST SWAP4 POP POP PUSH1 0x20 DUP5 ADD MLOAD PUSH8 0xFFFFFFFFFFFFFFFF DUP2 GT ISZERO PUSH3 0x7B2 JUMPI PUSH3 0x7B1 PUSH3 0xC25 JUMP JUMPDEST JUMPDEST PUSH3 0x7C0 DUP7 DUP3 DUP8 ADD PUSH3 0x6DE JUMP JUMPDEST SWAP3 POP POP PUSH1 0x40 PUSH3 0x7D3 DUP7 DUP3 DUP8 ADD PUSH3 0x6C7 JUMP JUMPDEST SWAP2 POP POP SWAP3 POP SWAP3 POP SWAP3 JUMP JUMPDEST PUSH3 0x7E8 DUP2 PUSH3 0xAA1 JUMP JUMPDEST DUP3 MSTORE POP POP JUMP JUMPDEST PUSH3 0x7F9 DUP2 PUSH3 0xAD5 JUMP JUMPDEST DUP3 MSTORE POP POP JUMP JUMPDEST PUSH1 0x0 PUSH1 0x40 DUP3 ADD SWAP1 POP PUSH3 0x816 PUSH1 0x0 DUP4 ADD DUP6 PUSH3 0x7DD JUMP JUMPDEST PUSH3 0x825 PUSH1 0x20 DUP4 ADD DUP5 PUSH3 0x7DD JUMP JUMPDEST SWAP4 SWAP3 POP POP POP JUMP JUMPDEST PUSH1 0x0 PUSH1 0x20 DUP3 ADD SWAP1 POP PUSH3 0x843 PUSH1 0x0 DUP4 ADD DUP5 PUSH3 0x7EE JUMP JUMPDEST SWAP3 SWAP2 POP POP JUMP JUMPDEST PUSH1 0x0 PUSH3 0x855 PUSH3 0x868 JUMP JUMPDEST SWAP1 POP PUSH3 0x863 DUP3 DUP3 PUSH3 0xB58 JUMP JUMPDEST SWAP2 SWAP1 POP JUMP JUMPDEST PUSH1 0x0 PUSH1 0x40 MLOAD SWAP1 POP SWAP1 JUMP JUMPDEST PUSH1 0x0 PUSH8 0xFFFFFFFFFFFFFFFF DUP3 GT ISZERO PUSH3 0x890 JUMPI PUSH3 0x88F PUSH3 0xBEC JUMP JUMPDEST JUMPDEST PUSH3 0x89B DUP3 PUSH3 0xC2F JUMP JUMPDEST SWAP1 POP PUSH1 0x20 DUP2 ADD SWAP1 POP SWAP2 SWAP1 POP JUMP JUMPDEST PUSH1 0x0 DUP1 DUP3 SWAP2 POP DUP4 SWAP1 POP JUMPDEST PUSH1 0x1 DUP6 GT ISZERO PUSH3 0x8FA JUMPI DUP1 DUP7 DIV DUP2 GT ISZERO PUSH3 0x8D2 JUMPI PUSH3 0x8D1 PUSH3 0xB8E JUMP JUMPDEST JUMPDEST PUSH1 0x1 DUP6 AND ISZERO PUSH3 0x8E2 JUMPI DUP1 DUP3 MUL SWAP2 POP JUMPDEST DUP1 DUP2 MUL SWAP1 POP PUSH3 0x8F2 DUP6 PUSH3 0xC40 JUMP JUMPDEST SWAP5 POP PUSH3 0x8B2 JUMP JUMPDEST SWAP5 POP SWAP5 SWAP3 POP POP POP JUMP JUMPDEST PUSH1 0x0 PUSH3 0x910 DUP3 PUSH3 0xAD5 JUMP JUMPDEST SWAP2 POP PUSH3 0x91D DUP4 PUSH3 0xADF JUMP JUMPDEST SWAP3 POP PUSH3 0x94C PUSH32 0xFFFFFFFFFFFFFFFFFFFFFFFFFFFFFFFFFFFFFFFFFFFFFFFFFFFFFFFFFFFFFFFF DUP5 DUP5 PUSH3 0x954 JUMP JUMPDEST SWAP1 POP SWAP3 SWAP2 POP POP JUMP JUMPDEST PUSH1 0x0 DUP3 PUSH3 0x966 JUMPI PUSH1 0x1 SWAP1 POP PUSH3 0xA39 JUMP JUMPDEST DUP2 PUSH3 0x976 JUMPI PUSH1 0x0 SWAP1 POP PUSH3 0xA39 JUMP JUMPDEST DUP2 PUSH1 0x1 DUP2 EQ PUSH3 0x98F JUMPI PUSH1 0x2 DUP2 EQ PUSH3 0x99A JUMPI PUSH3 0x9D0 JUMP JUMPDEST PUSH1 0x1 SWAP2 POP POP PUSH3 0xA39 JUMP JUMPDEST PUSH1 0xFF DUP5 GT ISZERO PUSH3 0x9AF JUMPI PUSH3 0x9AE PUSH3 0xB8E JUMP JUMPDEST JUMPDEST DUP4 PUSH1 0x2 EXP SWAP2 POP DUP5 DUP3 GT ISZERO PUSH3 0x9C9 JUMPI PUSH3 0x9C8 PUSH3 0xB8E JUMP JUMPDEST JUMPDEST POP PUSH3 0xA39 JUMP JUMPDEST POP PUSH1 0x20 DUP4 LT PUSH2 0x133 DUP4 LT AND PUSH1 0x4E DUP5 LT PUSH1 0xB DUP5 LT AND OR ISZERO PUSH3 0xA0A JUMPI DUP3 DUP3 EXP SWAP1 POP DUP4 DUP2 GT ISZERO PUSH3 0xA04 JUMPI PUSH3 0xA03 PUSH3 0xB8E JUMP JUMPDEST JUMPDEST PUSH3 0xA39 JUMP JUMPDEST PUSH3 0xA19 DUP5 DUP5 DUP5 PUSH1 0x1 PUSH3 0x8A8 JUMP JUMPDEST SWAP3 POP SWAP1 POP DUP2 DUP5 DIV DUP2 GT ISZERO PUSH3 0xA33 JUMPI PUSH3 0xA32 PUSH3 0xB8E JUMP JUMPDEST JUMPDEST DUP2 DUP2 MUL SWAP1 POP JUMPDEST SWAP4 SWAP3 POP POP POP JUMP JUMPDEST PUSH1 0x0 PUSH3 0xA4D DUP3 PUSH3 0xAD5 JUMP JUMPDEST SWAP2 POP PUSH3 0xA5A DUP4 PUSH3 0xAD5 JUMP JUMPDEST SWAP3 POP DUP2 PUSH32 0xFFFFFFFFFFFFFFFFFFFFFFFFFFFFFFFFFFFFFFFFFFFFFFFFFFFFFFFFFFFFFFFF DIV DUP4 GT DUP3 ISZERO ISZERO AND ISZERO PUSH3 0xA96 JUMPI PUSH3 0xA95 PUSH3 0xB8E JUMP JUMPDEST JUMPDEST DUP3 DUP3 MUL SWAP1 POP SWAP3 SWAP2 POP POP JUMP JUMPDEST PUSH1 0x0 PUSH3 0xAAE DUP3 PUSH3 0xAB5 JUMP JUMPDEST SWAP1 POP SWAP2 SWAP1 POP JUMP JUMPDEST PUSH1 0x0 PUSH20 0xFFFFFFFFFFFFFFFFFFFFFFFFFFFFFFFFFFFFFFFF DUP3 AND SWAP1 POP SWAP2 SWAP1 POP JUMP JUMPDEST PUSH1 0x0 DUP2 SWAP1 POP SWAP2 SWAP1 POP JUMP JUMPDEST PUSH1 0x0 PUSH1 0xFF DUP3 AND SWAP1 POP SWAP2 SWAP1 POP JUMP JUMPDEST PUSH1 0x0 JUMPDEST DUP4 DUP2 LT ISZERO PUSH3 0xB0C JUMPI DUP1 DUP3 ADD MLOAD DUP2 DUP5 ADD MSTORE PUSH1 0x20 DUP2 ADD SWAP1 POP PUSH3 0xAEF JUMP JUMPDEST DUP4 DUP2 GT ISZERO PUSH3 0xB1C JUMPI PUSH1 0x0 DUP5 DUP5 ADD MSTORE JUMPDEST POP POP POP POP JUMP JUMPDEST PUSH1 0x0 PUSH1 0x2 DUP3 DIV SWAP1 POP PUSH1 0x1 DUP3 AND DUP1 PUSH3 0xB3B JUMPI PUSH1 0x7F DUP3 AND SWAP2 POP JUMPDEST PUSH1 0x20 DUP3 LT DUP2 EQ ISZERO PUSH3 0xB52 JUMPI PUSH3 0xB51 PUSH3 0xBBD JUMP JUMPDEST JUMPDEST POP SWAP2 SWAP1 POP JUMP JUMPDEST PUSH3 0xB63 DUP3 PUSH3 0xC2F JUMP JUMPDEST DUP2 ADD DUP2 DUP2 LT PUSH8 0xFFFFFFFFFFFFFFFF DUP3 GT OR ISZERO PUSH3 0xB85 JUMPI PUSH3 0xB84 PUSH3 0xBEC JUMP JUMPDEST JUMPDEST DUP1 PUSH1 0x40 MSTORE POP POP POP JUMP JUMPDEST PUSH32 0x4E487B7100000000000000000000000000000000000000000000000000000000 PUSH1 0x0 MSTORE PUSH1 0x11 PUSH1 0x4 MSTORE PUSH1 0x24 PUSH1 0x0 REVERT JUMPDEST PUSH32 0x4E487B7100000000000000000000000000000000000000000000000000000000 PUSH1 0x0 MSTORE PUSH1 0x22 PUSH1 0x4 MSTORE PUSH1 0x24 PUSH1 0x0 REVERT JUMPDEST PUSH32 0x4E487B7100000000000000000000000000000000000000000000000000000000 PUSH1 0x0 MSTORE PUSH1 0x41 PUSH1 0x4 MSTORE PUSH1 0x24 PUSH1 0x0 REVERT JUMPDEST PUSH1 0x0 DUP1 REVERT JUMPDEST PUSH1 0x0 DUP1 REVERT JUMPDEST PUSH1 0x0 DUP1 REVERT JUMPDEST PUSH1 0x0 DUP1 REVERT JUMPDEST PUSH1 0x0 PUSH1 0x1F NOT PUSH1 0x1F DUP4 ADD AND SWAP1 POP SWAP2 SWAP1 POP JUMP JUMPDEST PUSH1 0x0 DUP2 PUSH1 0x1 SHR SWAP1 POP SWAP2 SWAP1 POP JUMP JUMPDEST PUSH3 0xC58 DUP2 PUSH3 0xAA1 JUMP JUMPDEST DUP2 EQ PUSH3 0xC64 JUMPI PUSH1 0x0 DUP1 REVERT JUMPDEST POP JUMP JUMPDEST PUSH2 0x1B61 DUP1 PUSH3 0xC77 PUSH1 0x0 CODECOPY PUSH1 0x0 RETURN INVALID PUSH1 0x80 PUSH1 0x40 MSTORE PUSH1 0x4 CALLDATASIZE LT PUSH2 0xEC JUMPI PUSH1 0x0 CALLDATALOAD PUSH1 0xE0 SHR DUP1 PUSH4 0x70A08231 GT PUSH2 0x8A JUMPI DUP1 PUSH4 0xA9059CBB GT PUSH2 0x59 JUMPI DUP1 PUSH4 0xA9059CBB EQ PUSH2 0x2F3 JUMPI DUP1 PUSH4 0xDD62ED3E EQ PUSH2 0x330 JUMPI DUP1 PUSH4 0xF2FDE38B EQ PUSH2 0x36D JUMPI DUP1 PUSH4 0xF887EA40 EQ PUSH2 0x396 JUMPI PUSH2 0xF3 JUMP JUMPDEST DUP1 PUSH4 0x70A08231 EQ PUSH2 0x249 JUMPI DUP1 PUSH4 0x715018A6 EQ PUSH2 0x286 JUMPI DUP1 PUSH4 0x8DA5CB5B EQ PUSH2 0x29D JUMPI DUP1 PUSH4 0x95D89B41 EQ PUSH2 0x2C8 JUMPI PUSH2 0xF3 JUMP JUMPDEST DUP1 PUSH4 0x23B872DD GT PUSH2 0xC6 JUMPI DUP1 PUSH4 0x23B872DD EQ PUSH2 0x18B JUMPI DUP1 PUSH4 0x313CE567 EQ PUSH2 0x1C8 JUMPI DUP1 PUSH4 0x3B124FE7 EQ PUSH2 0x1F3 JUMPI DUP1 PUSH4 0x49BD5A5E EQ PUSH2 0x21E JUMPI PUSH2 0xF3 JUMP JUMPDEST DUP1 PUSH4 0x6FDDE03 EQ PUSH2 0xF8 JUMPI DUP1 PUSH4 0x95EA7B3 EQ PUSH2 0x123 JUMPI DUP1 PUSH4 0x18160DDD EQ PUSH2 0x160 JUMPI PUSH2 0xF3 JUMP JUMPDEST CALLDATASIZE PUSH2 0xF3 JUMPI STOP JUMPDEST PUSH1 0x0 DUP1 REVERT JUMPDEST CALLVALUE DUP1 ISZERO PUSH2 0x104 JUMPI PUSH1 0x0 DUP1 REVERT JUMPDEST POP PUSH2 0x10D PUSH2 0x3C1 JUMP JUMPDEST PUSH1 0x40 MLOAD PUSH2 0x11A SWAP2 SWAP1 PUSH2 0x15F1 JUMP JUMPDEST PUSH1 0x40 MLOAD DUP1 SWAP2 SUB SWAP1 RETURN JUMPDEST CALLVALUE DUP1 ISZERO PUSH2 0x12F JUMPI PUSH1 0x0 DUP1 REVERT JUMPDEST POP PUSH2 0x14A PUSH1 0x4 DUP1 CALLDATASIZE SUB DUP2 ADD SWAP1 PUSH2 0x145 SWAP2 SWAP1 PUSH2 0x13EE JUMP JUMPDEST PUSH2 0x453 JUMP JUMPDEST PUSH1 0x40 MLOAD PUSH2 0x157 SWAP2 SWAP1 PUSH2 0x15BB JUMP JUMPDEST PUSH1 0x40 MLOAD DUP1 SWAP2 SUB SWAP1 RETURN JUMPDEST CALLVALUE DUP1 ISZERO PUSH2 0x16C JUMPI PUSH1 0x0 DUP1 REVERT JUMPDEST POP PUSH2 0x175 PUSH2 0x468 JUMP JUMPDEST PUSH1 0x40 MLOAD PUSH2 0x182 SWAP2 SWAP1 PUSH2 0x1673 JUMP JUMPDEST PUSH1 0x40 MLOAD DUP1 SWAP2 SUB SWAP1 RETURN JUMPDEST CALLVALUE DUP1 ISZERO PUSH2 0x197 JUMPI PUSH1 0x0 DUP1 REVERT JUMPDEST POP PUSH2 0x1B2 PUSH1 0x4 DUP1 CALLDATASIZE SUB DUP2 ADD SWAP1 PUSH2 0x1AD SWAP2 SWAP1 PUSH2 0x139B JUMP JUMPDEST PUSH2 0x472 JUMP JUMPDEST PUSH1 0x40 MLOAD PUSH2 0x1BF SWAP2 SWAP1 PUSH2 0x15BB JUMP JUMPDEST PUSH1 0x40 MLOAD DUP1 SWAP2 SUB SWAP1 RETURN JUMPDEST CALLVALUE DUP1 ISZERO PUSH2 0x1D4 JUMPI PUSH1 0x0 DUP1 REVERT JUMPDEST POP PUSH2 0x1DD PUSH2 0x57F JUMP JUMPDEST PUSH1 0x40 MLOAD PUSH2 0x1EA SWAP2 SWAP1 PUSH2 0x1673 JUMP JUMPDEST PUSH1 0x40 MLOAD DUP1 SWAP2 SUB SWAP1 RETURN JUMPDEST CALLVALUE DUP1 ISZERO PUSH2 0x1FF JUMPI PUSH1 0x0 DUP1 REVERT JUMPDEST POP PUSH2 0x208 PUSH2 0x599 JUMP JUMPDEST PUSH1 0x40 MLOAD PUSH2 0x215 SWAP2 SWAP1 PUSH2 0x1673 JUMP JUMPDEST PUSH1 0x40 MLOAD DUP1 SWAP2 SUB SWAP1 RETURN JUMPDEST CALLVALUE DUP1 ISZERO PUSH2 0x22A JUMPI PUSH1 0x0 DUP1 REVERT JUMPDEST POP PUSH2 0x233 PUSH2 0x59F JUMP JUMPDEST PUSH1 0x40 MLOAD PUSH2 0x240 SWAP2 SWAP1 PUSH2 0x15A0 JUMP JUMPDEST PUSH1 0x40 MLOAD DUP1 SWAP2 SUB SWAP1 RETURN JUMPDEST CALLVALUE DUP1 ISZERO PUSH2 0x255 JUMPI PUSH1 0x0 DUP1 REVERT JUMPDEST POP PUSH2 0x270 PUSH1 0x4 DUP1 CALLDATASIZE SUB DUP2 ADD SWAP1 PUSH2 0x26B SWAP2 SWAP1 PUSH2 0x1301 JUMP JUMPDEST PUSH2 0x5C5 JUMP JUMPDEST PUSH1 0x40 MLOAD PUSH2 0x27D SWAP2 SWAP1 PUSH2 0x1673 JUMP JUMPDEST PUSH1 0x40 MLOAD DUP1 SWAP2 SUB SWAP1 RETURN JUMPDEST CALLVALUE DUP1 ISZERO PUSH2 0x292 JUMPI PUSH1 0x0 DUP1 REVERT JUMPDEST POP PUSH2 0x29B PUSH2 0x60E JUMP JUMPDEST STOP JUMPDEST CALLVALUE DUP1 ISZERO PUSH2 0x2A9 JUMPI PUSH1 0x0 DUP1 REVERT JUMPDEST POP PUSH2 0x2B2 PUSH2 0x696 JUMP JUMPDEST PUSH1 0x40 MLOAD PUSH2 0x2BF SWAP2 SWAP1 PUSH2 0x15A0 JUMP JUMPDEST PUSH1 0x40 MLOAD DUP1 SWAP2 SUB SWAP1 RETURN JUMPDEST CALLVALUE DUP1 ISZERO PUSH2 0x2D4 JUMPI PUSH1 0x0 DUP1 REVERT JUMPDEST POP PUSH2 0x2DD PUSH2 0x6BF JUMP JUMPDEST PUSH1 0x40 MLOAD PUSH2 0x2EA SWAP2 SWAP1 PUSH2 0x15F1 JUMP JUMPDEST PUSH1 0x40 MLOAD DUP1 SWAP2 SUB SWAP1 RETURN JUMPDEST CALLVALUE DUP1 ISZERO PUSH2 0x2FF JUMPI PUSH1 0x0 DUP1 REVERT JUMPDEST POP PUSH2 0x31A PUSH1 0x4 DUP1 CALLDATASIZE SUB DUP2 ADD SWAP1 PUSH2 0x315 SWAP2 SWAP1 PUSH2 0x13EE JUMP JUMPDEST PUSH2 0x751 JUMP JUMPDEST PUSH1 0x40 MLOAD PUSH2 0x327 SWAP2 SWAP1 PUSH2 0x15BB JUMP JUMPDEST PUSH1 0x40 MLOAD DUP1 SWAP2 SUB SWAP1 RETURN JUMPDEST CALLVALUE DUP1 ISZERO PUSH2 0x33C JUMPI PUSH1 0x0 DUP1 REVERT JUMPDEST POP PUSH2 0x357 PUSH1 0x4 DUP1 CALLDATASIZE SUB DUP2 ADD SWAP1 PUSH2 0x352 SWAP2 SWAP1 PUSH2 0x135B JUMP JUMPDEST PUSH2 0x7CD JUMP JUMPDEST PUSH1 0x40 MLOAD PUSH2 0x364 SWAP2 SWAP1 PUSH2 0x1673 JUMP JUMPDEST PUSH1 0x40 MLOAD DUP1 SWAP2 SUB SWAP1 RETURN JUMPDEST CALLVALUE DUP1 ISZERO PUSH2 0x379 JUMPI PUSH1 0x0 DUP1 REVERT JUMPDEST POP PUSH2 0x394 PUSH1 0x4 DUP1 CALLDATASIZE SUB DUP2 ADD SWAP1 PUSH2 0x38F SWAP2 SWAP1 PUSH2 0x1301 JUMP JUMPDEST PUSH2 0x854 JUMP JUMPDEST STOP JUMPDEST CALLVALUE DUP1 ISZERO PUSH2 0x3A2 JUMPI PUSH1 0x0 DUP1 REVERT JUMPDEST POP PUSH2 0x3AB PUSH2 0x94C JUMP JUMPDEST PUSH1 0x40 MLOAD PUSH2 0x3B8 SWAP2 SWAP1 PUSH2 0x15D6 JUMP JUMPDEST PUSH1 0x40 MLOAD DUP1 SWAP2 SUB SWAP1 RETURN JUMPDEST PUSH1 0x60 PUSH1 0x1 DUP1 SLOAD PUSH2 0x3D0 SWAP1 PUSH2 0x1903 JUMP JUMPDEST DUP1 PUSH1 0x1F ADD PUSH1 0x20 DUP1 SWAP2 DIV MUL PUSH1 0x20 ADD PUSH1 0x40 MLOAD SWAP1 DUP2 ADD PUSH1 0x40 MSTORE DUP1 SWAP3 SWAP2 SWAP1 DUP2 DUP2 MSTORE PUSH1 0x20 ADD DUP3 DUP1 SLOAD PUSH2 0x3FC SWAP1 PUSH2 0x1903 JUMP JUMPDEST DUP1 ISZERO PUSH2 0x449 JUMPI DUP1 PUSH1 0x1F LT PUSH2 0x41E JUMPI PUSH2 0x100 DUP1 DUP4 SLOAD DIV MUL DUP4 MSTORE SWAP2 PUSH1 0x20 ADD SWAP2 PUSH2 0x449 JUMP JUMPDEST DUP3 ADD SWAP2 SWAP1 PUSH1 0x0 MSTORE PUSH1 0x20 PUSH1 0x0 KECCAK256 SWAP1 JUMPDEST DUP2 SLOAD DUP2 MSTORE SWAP1 PUSH1 0x1 ADD SWAP1 PUSH1 0x20 ADD DUP1 DUP4 GT PUSH2 0x42C JUMPI DUP3 SWAP1 SUB PUSH1 0x1F AND DUP3 ADD SWAP2 JUMPDEST POP POP POP POP POP SWAP1 POP SWAP1 JUMP JUMPDEST PUSH1 0x0 PUSH2 0x460 CALLER DUP5 DUP5 PUSH2 0x972 JUMP JUMPDEST SWAP1 POP SWAP3 SWAP2 POP POP JUMP JUMPDEST PUSH1 0x0 PUSH1 0x5 SLOAD SWAP1 POP SWAP1 JUMP JUMPDEST PUSH1 0x0 PUSH2 0x47F DUP5 DUP5 DUP5 PUSH2 0xB0D JUMP JUMPDEST DUP3 PUSH20 0xFFFFFFFFFFFFFFFFFFFFFFFFFFFFFFFFFFFFFFFF AND DUP5 PUSH20 0xFFFFFFFFFFFFFFFFFFFFFFFFFFFFFFFFFFFFFFFF AND PUSH32 0xDDF252AD1BE2C89B69C2B068FC378DAA952BA7F163C4A11628F55A4DF523B3EF DUP5 PUSH1 0x40 MLOAD PUSH2 0x4DC SWAP2 SWAP1 PUSH2 0x1673 JUMP JUMPDEST PUSH1 0x40 MLOAD DUP1 SWAP2 SUB SWAP1 LOG3 PUSH2 0x576 DUP5 CALLER DUP5 PUSH1 0xC PUSH1 0x0 DUP10 PUSH20 0xFFFFFFFFFFFFFFFFFFFFFFFFFFFFFFFFFFFFFFFF AND PUSH20 0xFFFFFFFFFFFFFFFFFFFFFFFFFFFFFFFFFFFFFFFF AND DUP2 MSTORE PUSH1 0x20 ADD SWAP1 DUP2 MSTORE PUSH1 0x20 ADD PUSH1 0x0 KECCAK256 PUSH1 0x0 CALLER PUSH20 0xFFFFFFFFFFFFFFFFFFFFFFFFFFFFFFFFFFFFFFFF AND PUSH20 0xFFFFFFFFFFFFFFFFFFFFFFFFFFFFFFFFFFFFFFFF AND DUP2 MSTORE PUSH1 0x20 ADD SWAP1 DUP2 MSTORE PUSH1 0x20 ADD PUSH1 0x0 KECCAK256 SLOAD PUSH2 0x571 SWAP2 SWAP1 PUSH2 0x181E JUMP JUMPDEST PUSH2 0x972 JUMP JUMPDEST SWAP1 POP SWAP4 SWAP3 POP POP POP JUMP JUMPDEST PUSH1 0x0 PUSH1 0x4 PUSH1 0x0 SWAP1 SLOAD SWAP1 PUSH2 0x100 EXP SWAP1 DIV PUSH1 0xFF AND PUSH1 0xFF AND SWAP1 POP SWAP1 JUMP JUMPDEST PUSH1 0x3 SLOAD DUP2 JUMP JUMPDEST PUSH1 0x8 PUSH1 0x2 SWAP1 SLOAD SWAP1 PUSH2 0x100 EXP SWAP1 DIV PUSH20 0xFFFFFFFFFFFFFFFFFFFFFFFFFFFFFFFFFFFFFFFF AND DUP2 JUMP JUMPDEST PUSH1 0x0 PUSH1 0xA PUSH1 0x0 DUP4 PUSH20 0xFFFFFFFFFFFFFFFFFFFFFFFFFFFFFFFFFFFFFFFF AND PUSH20 0xFFFFFFFFFFFFFFFFFFFFFFFFFFFFFFFFFFFFFFFF AND DUP2 MSTORE PUSH1 0x20 ADD SWAP1 DUP2 MSTORE PUSH1 0x20 ADD PUSH1 0x0 KECCAK256 SLOAD SWAP1 POP SWAP2 SWAP1 POP JUMP JUMPDEST PUSH2 0x616 PUSH2 0xFA3 JUMP JUMPDEST PUSH20 0xFFFFFFFFFFFFFFFFFFFFFFFFFFFFFFFFFFFFFFFF AND PUSH2 0x634 PUSH2 0x696 JUMP JUMPDEST PUSH20 0xFFFFFFFFFFFFFFFFFFFFFFFFFFFFFFFFFFFFFFFF AND EQ PUSH2 0x68A JUMPI PUSH1 0x40 MLOAD PUSH32 0x8C379A000000000000000000000000000000000000000000000000000000000 DUP2 MSTORE PUSH1 0x4 ADD PUSH2 0x681 SWAP1 PUSH2 0x1633 JUMP JUMPDEST PUSH1 0x40 MLOAD DUP1 SWAP2 SUB SWAP1 REVERT JUMPDEST PUSH2 0x694 PUSH1 0x0 PUSH2 0xFAB JUMP JUMPDEST JUMP JUMPDEST PUSH1 0x0 DUP1 PUSH1 0x0 SWAP1 SLOAD SWAP1 PUSH2 0x100 EXP SWAP1 DIV PUSH20 0xFFFFFFFFFFFFFFFFFFFFFFFFFFFFFFFFFFFFFFFF AND SWAP1 POP SWAP1 JUMP JUMPDEST PUSH1 0x60 PUSH1 0x2 DUP1 SLOAD PUSH2 0x6CE SWAP1 PUSH2 0x1903 JUMP JUMPDEST DUP1 PUSH1 0x1F ADD PUSH1 0x20 DUP1 SWAP2 DIV MUL PUSH1 0x20 ADD PUSH1 0x40 MLOAD SWAP1 DUP2 ADD PUSH1 0x40 MSTORE DUP1 SWAP3 SWAP2 SWAP1 DUP2 DUP2 MSTORE PUSH1 0x20 ADD DUP3 DUP1 SLOAD PUSH2 0x6FA SWAP1 PUSH2 0x1903 JUMP JUMPDEST DUP1 ISZERO PUSH2 0x747 JUMPI DUP1 PUSH1 0x1F LT PUSH2 0x71C JUMPI PUSH2 0x100 DUP1 DUP4 SLOAD DIV MUL DUP4 MSTORE SWAP2 PUSH1 0x20 ADD SWAP2 PUSH2 0x747 JUMP JUMPDEST DUP3 ADD SWAP2 SWAP1 PUSH1 0x0 MSTORE PUSH1 0x20 PUSH1 0x0 KECCAK256 SWAP1 JUMPDEST DUP2 SLOAD DUP2 MSTORE SWAP1 PUSH1 0x1 ADD SWAP1 PUSH1 0x20 ADD DUP1 DUP4 GT PUSH2 0x72A JUMPI DUP3 SWAP1 SUB PUSH1 0x1F AND DUP3 ADD SWAP2 JUMPDEST POP POP POP POP POP SWAP1 POP SWAP1 JUMP JUMPDEST PUSH1 0x0 PUSH2 0x75E CALLER DUP5 DUP5 PUSH2 0xB0D JUMP JUMPDEST DUP3 PUSH20 0xFFFFFFFFFFFFFFFFFFFFFFFFFFFFFFFFFFFFFFFF AND CALLER PUSH20 0xFFFFFFFFFFFFFFFFFFFFFFFFFFFFFFFFFFFFFFFF AND PUSH32 0xDDF252AD1BE2C89B69C2B068FC378DAA952BA7F163C4A11628F55A4DF523B3EF DUP5 PUSH1 0x40 MLOAD PUSH2 0x7BB SWAP2 SWAP1 PUSH2 0x1673 JUMP JUMPDEST PUSH1 0x40 MLOAD DUP1 SWAP2 SUB SWAP1 LOG3 PUSH1 0x1 SWAP1 POP SWAP3 SWAP2 POP POP JUMP JUMPDEST PUSH1 0x0 PUSH1 0xC PUSH1 0x0 DUP5 PUSH20 0xFFFFFFFFFFFFFFFFFFFFFFFFFFFFFFFFFFFFFFFF AND PUSH20 0xFFFFFFFFFFFFFFFFFFFFFFFFFFFFFFFFFFFFFFFF AND DUP2 MSTORE PUSH1 0x20 ADD SWAP1 DUP2 MSTORE PUSH1 0x20 ADD PUSH1 0x0 KECCAK256 PUSH1 0x0 DUP4 PUSH20 0xFFFFFFFFFFFFFFFFFFFFFFFFFFFFFFFFFFFFFFFF AND PUSH20 0xFFFFFFFFFFFFFFFFFFFFFFFFFFFFFFFFFFFFFFFF AND DUP2 MSTORE PUSH1 0x20 ADD SWAP1 DUP2 MSTORE PUSH1 0x20 ADD PUSH1 0x0 KECCAK256 SLOAD SWAP1 POP SWAP3 SWAP2 POP POP JUMP JUMPDEST PUSH2 0x85C PUSH2 0xFA3 JUMP JUMPDEST PUSH20 0xFFFFFFFFFFFFFFFFFFFFFFFFFFFFFFFFFFFFFFFF AND PUSH2 0x87A PUSH2 0x696 JUMP JUMPDEST PUSH20 0xFFFFFFFFFFFFFFFFFFFFFFFFFFFFFFFFFFFFFFFF AND EQ PUSH2 0x8D0 JUMPI PUSH1 0x40 MLOAD PUSH32 0x8C379A000000000000000000000000000000000000000000000000000000000 DUP2 MSTORE PUSH1 0x4 ADD PUSH2 0x8C7 SWAP1 PUSH2 0x1633 JUMP JUMPDEST PUSH1 0x40 MLOAD DUP1 SWAP2 SUB SWAP1 REVERT JUMPDEST PUSH1 0x0 PUSH20 0xFFFFFFFFFFFFFFFFFFFFFFFFFFFFFFFFFFFFFFFF AND DUP2 PUSH20 0xFFFFFFFFFFFFFFFFFFFFFFFFFFFFFFFFFFFFFFFF AND EQ ISZERO PUSH2 0x940 JUMPI PUSH1 0x40 MLOAD PUSH32 0x8C379A000000000000000000000000000000000000000000000000000000000 DUP2 MSTORE PUSH1 0x4 ADD PUSH2 0x937 SWAP1 PUSH2 0x1613 JUMP JUMPDEST PUSH1 0x40 MLOAD DUP1 SWAP2 SUB SWAP1 REVERT JUMPDEST PUSH2 0x949 DUP2 PUSH2 0xFAB JUMP JUMPDEST POP JUMP JUMPDEST PUSH1 0x9 PUSH1 0x0 SWAP1 SLOAD SWAP1 PUSH2 0x100 EXP SWAP1 DIV PUSH20 0xFFFFFFFFFFFFFFFFFFFFFFFFFFFFFFFFFFFFFFFF AND DUP2 JUMP JUMPDEST PUSH1 0x0 DUP1 PUSH20 0xFFFFFFFFFFFFFFFFFFFFFFFFFFFFFFFFFFFFFFFF AND DUP5 PUSH20 0xFFFFFFFFFFFFFFFFFFFFFFFFFFFFFFFFFFFFFFFF AND EQ ISZERO DUP1 ISZERO PUSH2 0x9DD JUMPI POP PUSH1 0x0 PUSH20 0xFFFFFFFFFFFFFFFFFFFFFFFFFFFFFFFFFFFFFFFF AND DUP4 PUSH20 0xFFFFFFFFFFFFFFFFFFFFFFFFFFFFFFFFFFFFFFFF AND EQ ISZERO JUMPDEST PUSH2 0xA1C JUMPI PUSH1 0x40 MLOAD PUSH32 0x8C379A000000000000000000000000000000000000000000000000000000000 DUP2 MSTORE PUSH1 0x4 ADD PUSH2 0xA13 SWAP1 PUSH2 0x1653 JUMP JUMPDEST PUSH1 0x40 MLOAD DUP1 SWAP2 SUB SWAP1 REVERT JUMPDEST DUP2 PUSH1 0xC PUSH1 0x0 DUP7 PUSH20 0xFFFFFFFFFFFFFFFFFFFFFFFFFFFFFFFFFFFFFFFF AND PUSH20 0xFFFFFFFFFFFFFFFFFFFFFFFFFFFFFFFFFFFFFFFF AND DUP2 MSTORE PUSH1 0x20 ADD SWAP1 DUP2 MSTORE PUSH1 0x20 ADD PUSH1 0x0 KECCAK256 PUSH1 0x0 DUP6 PUSH20 0xFFFFFFFFFFFFFFFFFFFFFFFFFFFFFFFFFFFFFFFF AND PUSH20 0xFFFFFFFFFFFFFFFFFFFFFFFFFFFFFFFFFFFFFFFF AND DUP2 MSTORE PUSH1 0x20 ADD SWAP1 DUP2 MSTORE PUSH1 0x20 ADD PUSH1 0x0 KECCAK256 DUP2 SWAP1 SSTORE POP DUP3 PUSH20 0xFFFFFFFFFFFFFFFFFFFFFFFFFFFFFFFFFFFFFFFF AND DUP5 PUSH20 0xFFFFFFFFFFFFFFFFFFFFFFFFFFFFFFFFFFFFFFFF AND PUSH32 0x8C5BE1E5EBEC7D5BD14F71427D1E84F3DD0314C0F7B2291E5B200AC8C7C3B925 DUP5 PUSH1 0x40 MLOAD PUSH2 0xAFA SWAP2 SWAP1 PUSH2 0x1673 JUMP JUMPDEST PUSH1 0x40 MLOAD DUP1 SWAP2 SUB SWAP1 LOG3 PUSH1 0x1 SWAP1 POP SWAP4 SWAP3 POP POP POP JUMP JUMPDEST PUSH1 0x0 PUSH1 0xD PUSH1 0x0 PUSH1 0x6 SLOAD DUP2 MSTORE PUSH1 0x20 ADD SWAP1 DUP2 MSTORE PUSH1 0x20 ADD PUSH1 0x0 KECCAK256 PUSH1 0x0 SWAP1 SLOAD SWAP1 PUSH2 0x100 EXP SWAP1 DIV PUSH20 0xFFFFFFFFFFFFFFFFFFFFFFFFFFFFFFFFFFFFFFFF AND SWAP1 POP PUSH1 0x0 PUSH1 0xE PUSH1 0x0 PUSH1 0x6 SLOAD DUP2 MSTORE PUSH1 0x20 ADD SWAP1 DUP2 MSTORE PUSH1 0x20 ADD PUSH1 0x0 KECCAK256 PUSH1 0x0 SWAP1 SLOAD SWAP1 PUSH2 0x100 EXP SWAP1 DIV PUSH20 0xFFFFFFFFFFFFFFFFFFFFFFFFFFFFFFFFFFFFFFFF AND PUSH20 0xFFFFFFFFFFFFFFFFFFFFFFFFFFFFFFFFFFFFFFFF AND DUP6 PUSH20 0xFFFFFFFFFFFFFFFFFFFFFFFFFFFFFFFFFFFFFFFF AND EQ SWAP1 POP PUSH1 0x0 PUSH1 0xB PUSH1 0x0 DUP8 PUSH20 0xFFFFFFFFFFFFFFFFFFFFFFFFFFFFFFFFFFFFFFFF AND PUSH20 0xFFFFFFFFFFFFFFFFFFFFFFFFFFFFFFFFFFFFFFFF AND DUP2 MSTORE PUSH1 0x20 ADD SWAP1 DUP2 MSTORE PUSH1 0x20 ADD PUSH1 0x0 KECCAK256 SLOAD EQ DUP1 ISZERO PUSH2 0xBFC JUMPI POP DUP1 ISZERO JUMPDEST DUP1 ISZERO PUSH2 0xC47 JUMPI POP PUSH1 0x0 PUSH1 0xF PUSH1 0x0 DUP8 PUSH20 0xFFFFFFFFFFFFFFFFFFFFFFFFFFFFFFFFFFFFFFFF AND PUSH20 0xFFFFFFFFFFFFFFFFFFFFFFFFFFFFFFFFFFFFFFFF AND DUP2 MSTORE PUSH1 0x20 ADD SWAP1 DUP2 MSTORE PUSH1 0x20 ADD PUSH1 0x0 KECCAK256 SLOAD GT JUMPDEST ISZERO PUSH2 0xC57 JUMPI DUP1 PUSH2 0xC56 JUMPI PUSH1 0x0 DUP1 REVERT JUMPDEST JUMPDEST DUP4 PUSH1 0xD PUSH1 0x0 PUSH1 0x6 SLOAD DUP2 MSTORE PUSH1 0x20 ADD SWAP1 DUP2 MSTORE PUSH1 0x20 ADD PUSH1 0x0 KECCAK256 PUSH1 0x0 PUSH2 0x100 EXP DUP2 SLOAD DUP2 PUSH20 0xFFFFFFFFFFFFFFFFFFFFFFFFFFFFFFFFFFFFFFFF MUL NOT AND SWAP1 DUP4 PUSH20 0xFFFFFFFFFFFFFFFFFFFFFFFFFFFFFFFFFFFFFFFF AND MUL OR SWAP1 SSTORE POP PUSH1 0x0 PUSH1 0xB PUSH1 0x0 DUP8 PUSH20 0xFFFFFFFFFFFFFFFFFFFFFFFFFFFFFFFFFFFFFFFF AND PUSH20 0xFFFFFFFFFFFFFFFFFFFFFFFFFFFFFFFFFFFFFFFF AND DUP2 MSTORE PUSH1 0x20 ADD SWAP1 DUP2 MSTORE PUSH1 0x20 ADD PUSH1 0x0 KECCAK256 SLOAD GT DUP1 ISZERO PUSH2 0xCFA JUMPI POP PUSH1 0x0 DUP4 EQ JUMPDEST ISZERO PUSH2 0xD58 JUMPI PUSH1 0x3 SLOAD PUSH1 0xB PUSH1 0x0 DUP7 PUSH20 0xFFFFFFFFFFFFFFFFFFFFFFFFFFFFFFFFFFFFFFFF AND PUSH20 0xFFFFFFFFFFFFFFFFFFFFFFFFFFFFFFFFFFFFFFFF AND DUP2 MSTORE PUSH1 0x20 ADD SWAP1 DUP2 MSTORE PUSH1 0x20 ADD PUSH1 0x0 KECCAK256 PUSH1 0x0 DUP3 DUP3 SLOAD PUSH2 0xD50 SWAP2 SWAP1 PUSH2 0x173D JUMP JUMPDEST SWAP3 POP POP DUP2 SWAP1 SSTORE POP JUMPDEST PUSH1 0x3 SLOAD PUSH1 0xF PUSH1 0x0 DUP5 PUSH20 0xFFFFFFFFFFFFFFFFFFFFFFFFFFFFFFFFFFFFFFFF AND PUSH20 0xFFFFFFFFFFFFFFFFFFFFFFFFFFFFFFFFFFFFFFFF AND DUP2 MSTORE PUSH1 0x20 ADD SWAP1 DUP2 MSTORE PUSH1 0x20 ADD PUSH1 0x0 KECCAK256 PUSH1 0x0 DUP3 DUP3 SLOAD PUSH2 0xDA9 SWAP2 SWAP1 PUSH2 0x173D JUMP JUMPDEST SWAP3 POP POP DUP2 SWAP1 SSTORE POP PUSH1 0x0 PUSH1 0xB PUSH1 0x0 DUP8 PUSH20 0xFFFFFFFFFFFFFFFFFFFFFFFFFFFFFFFFFFFFFFFF AND PUSH20 0xFFFFFFFFFFFFFFFFFFFFFFFFFFFFFFFFFFFFFFFF AND DUP2 MSTORE PUSH1 0x20 ADD SWAP1 DUP2 MSTORE PUSH1 0x20 ADD PUSH1 0x0 KECCAK256 SLOAD GT DUP1 ISZERO PUSH2 0xE00 JUMPI POP PUSH1 0x6 SLOAD DUP4 GT JUMPDEST ISZERO PUSH2 0xE15 JUMPI PUSH2 0xE0E DUP4 PUSH2 0x106F JUMP JUMPDEST POP POP PUSH2 0xF9E JUMP JUMPDEST PUSH1 0x0 PUSH1 0x3 SLOAD GT DUP1 ISZERO PUSH2 0xE66 JUMPI POP PUSH1 0x0 PUSH1 0xB PUSH1 0x0 DUP8 PUSH20 0xFFFFFFFFFFFFFFFFFFFFFFFFFFFFFFFFFFFFFFFF AND PUSH20 0xFFFFFFFFFFFFFFFFFFFFFFFFFFFFFFFFFFFFFFFF AND DUP2 MSTORE PUSH1 0x20 ADD SWAP1 DUP2 MSTORE PUSH1 0x20 ADD PUSH1 0x0 KECCAK256 SLOAD EQ JUMPDEST ISZERO PUSH2 0xEEF JUMPI PUSH1 0x0 PUSH1 0x64 PUSH1 0x3 SLOAD DUP6 PUSH2 0xE7D SWAP2 SWAP1 PUSH2 0x17C4 JUMP JUMPDEST PUSH2 0xE87 SWAP2 SWAP1 PUSH2 0x1793 JUMP JUMPDEST SWAP1 POP DUP1 DUP5 PUSH2 0xE95 SWAP2 SWAP1 PUSH2 0x181E JUMP JUMPDEST SWAP4 POP DUP1 PUSH1 0xA PUSH1 0x0 DUP9 PUSH20 0xFFFFFFFFFFFFFFFFFFFFFFFFFFFFFFFFFFFFFFFF AND PUSH20 0xFFFFFFFFFFFFFFFFFFFFFFFFFFFFFFFFFFFFFFFF AND DUP2 MSTORE PUSH1 0x20 ADD SWAP1 DUP2 MSTORE PUSH1 0x20 ADD PUSH1 0x0 KECCAK256 PUSH1 0x0 DUP3 DUP3 SLOAD PUSH2 0xEE6 SWAP2 SWAP1 PUSH2 0x181E JUMP JUMPDEST SWAP3 POP POP DUP2 SWAP1 SSTORE POP POP JUMPDEST DUP3 PUSH1 0xA PUSH1 0x0 DUP8 PUSH20 0xFFFFFFFFFFFFFFFFFFFFFFFFFFFFFFFFFFFFFFFF AND PUSH20 0xFFFFFFFFFFFFFFFFFFFFFFFFFFFFFFFFFFFFFFFF AND DUP2 MSTORE PUSH1 0x20 ADD SWAP1 DUP2 MSTORE PUSH1 0x20 ADD PUSH1 0x0 KECCAK256 PUSH1 0x0 DUP3 DUP3 SLOAD PUSH2 0xF3E SWAP2 SWAP1 PUSH2 0x181E JUMP JUMPDEST SWAP3 POP POP DUP2 SWAP1 SSTORE POP DUP3 PUSH1 0xA PUSH1 0x0 DUP7 PUSH20 0xFFFFFFFFFFFFFFFFFFFFFFFFFFFFFFFFFFFFFFFF AND PUSH20 0xFFFFFFFFFFFFFFFFFFFFFFFFFFFFFFFFFFFFFFFF AND DUP2 MSTORE PUSH1 0x20 ADD SWAP1 DUP2 MSTORE PUSH1 0x20 ADD PUSH1 0x0 KECCAK256 PUSH1 0x0 DUP3 DUP3 SLOAD PUSH2 0xF94 SWAP2 SWAP1 PUSH2 0x173D JUMP JUMPDEST SWAP3 POP POP DUP2 SWAP1 SSTORE POP POP POP JUMPDEST POP POP POP JUMP JUMPDEST PUSH1 0x0 CALLER SWAP1 POP SWAP1 JUMP JUMPDEST PUSH1 0x0 DUP1 PUSH1 0x0 SWAP1 SLOAD SWAP1 PUSH2 0x100 EXP SWAP1 DIV PUSH20 0xFFFFFFFFFFFFFFFFFFFFFFFFFFFFFFFFFFFFFFFF AND SWAP1 POP DUP2 PUSH1 0x0 DUP1 PUSH2 0x100 EXP DUP2 SLOAD DUP2 PUSH20 0xFFFFFFFFFFFFFFFFFFFFFFFFFFFFFFFFFFFFFFFF MUL NOT AND SWAP1 DUP4 PUSH20 0xFFFFFFFFFFFFFFFFFFFFFFFFFFFFFFFFFFFFFFFF AND MUL OR SWAP1 SSTORE POP DUP2 PUSH20 0xFFFFFFFFFFFFFFFFFFFFFFFFFFFFFFFFFFFFFFFF AND DUP2 PUSH20 0xFFFFFFFFFFFFFFFFFFFFFFFFFFFFFFFFFFFFFFFF AND PUSH32 0x8BE0079C531659141344CD1FD0A4F28419497F9722A3DAAFE3B4186F6B6457E0 PUSH1 0x40 MLOAD PUSH1 0x40 MLOAD DUP1 SWAP2 SUB SWAP1 LOG3 POP POP JUMP JUMPDEST PUSH1 0x0 PUSH1 0x2 PUSH8 0xFFFFFFFFFFFFFFFF DUP2 GT ISZERO PUSH2 0x108C JUMPI PUSH2 0x108B PUSH2 0x19F1 JUMP JUMPDEST JUMPDEST PUSH1 0x40 MLOAD SWAP1 DUP1 DUP3 MSTORE DUP1 PUSH1 0x20 MUL PUSH1 0x20 ADD DUP3 ADD PUSH1 0x40 MSTORE DUP1 ISZERO PUSH2 0x10BA JUMPI DUP2 PUSH1 0x20 ADD PUSH1 0x20 DUP3 MUL DUP1 CALLDATASIZE DUP4 CALLDATACOPY DUP1 DUP3 ADD SWAP2 POP POP SWAP1 POP JUMPDEST POP SWAP1 POP ADDRESS DUP2 PUSH1 0x0 DUP2 MLOAD DUP2 LT PUSH2 0x10D2 JUMPI PUSH2 0x10D1 PUSH2 0x19C2 JUMP JUMPDEST JUMPDEST PUSH1 0x20 MUL PUSH1 0x20 ADD ADD SWAP1 PUSH20 0xFFFFFFFFFFFFFFFFFFFFFFFFFFFFFFFFFFFFFFFF AND SWAP1 DUP2 PUSH20 0xFFFFFFFFFFFFFFFFFFFFFFFFFFFFFFFFFFFFFFFF AND DUP2 MSTORE POP POP PUSH1 0x9 PUSH1 0x0 SWAP1 SLOAD SWAP1 PUSH2 0x100 EXP SWAP1 DIV PUSH20 0xFFFFFFFFFFFFFFFFFFFFFFFFFFFFFFFFFFFFFFFF AND PUSH20 0xFFFFFFFFFFFFFFFFFFFFFFFFFFFFFFFFFFFFFFFF AND PUSH4 0xAD5C4648 PUSH1 0x40 MLOAD DUP2 PUSH4 0xFFFFFFFF AND PUSH1 0xE0 SHL DUP2 MSTORE PUSH1 0x4 ADD PUSH1 0x20 PUSH1 0x40 MLOAD DUP1 DUP4 SUB DUP2 DUP7 DUP1 EXTCODESIZE ISZERO DUP1 ISZERO PUSH2 0x1174 JUMPI PUSH1 0x0 DUP1 REVERT JUMPDEST POP GAS STATICCALL ISZERO DUP1 ISZERO PUSH2 0x1188 JUMPI RETURNDATASIZE PUSH1 0x0 DUP1 RETURNDATACOPY RETURNDATASIZE PUSH1 0x0 REVERT JUMPDEST POP POP POP POP PUSH1 0x40 MLOAD RETURNDATASIZE PUSH1 0x1F NOT PUSH1 0x1F DUP3 ADD AND DUP3 ADD DUP1 PUSH1 0x40 MSTORE POP DUP2 ADD SWAP1 PUSH2 0x11AC SWAP2 SWAP1 PUSH2 0x132E JUMP JUMPDEST DUP2 PUSH1 0x1 DUP2 MLOAD DUP2 LT PUSH2 0x11C0 JUMPI PUSH2 0x11BF PUSH2 0x19C2 JUMP JUMPDEST JUMPDEST PUSH1 0x20 MUL PUSH1 0x20 ADD ADD SWAP1 PUSH20 0xFFFFFFFFFFFFFFFFFFFFFFFFFFFFFFFFFFFFFFFF AND SWAP1 DUP2 PUSH20 0xFFFFFFFFFFFFFFFFFFFFFFFFFFFFFFFFFFFFFFFF AND DUP2 MSTORE POP POP PUSH2 0x1227 ADDRESS PUSH1 0x9 PUSH1 0x0 SWAP1 SLOAD SWAP1 PUSH2 0x100 EXP SWAP1 DIV PUSH20 0xFFFFFFFFFFFFFFFFFFFFFFFFFFFFFFFFFFFFFFFF AND DUP5 PUSH2 0x972 JUMP JUMPDEST POP PUSH1 0x9 PUSH1 0x0 SWAP1 SLOAD SWAP1 PUSH2 0x100 EXP SWAP1 DIV PUSH20 0xFFFFFFFFFFFFFFFFFFFFFFFFFFFFFFFFFFFFFFFF AND PUSH20 0xFFFFFFFFFFFFFFFFFFFFFFFFFFFFFFFFFFFFFFFF AND PUSH4 0x791AC947 DUP4 PUSH1 0x0 DUP5 CALLER TIMESTAMP PUSH1 0x40 MLOAD DUP7 PUSH4 0xFFFFFFFF AND PUSH1 0xE0 SHL DUP2 MSTORE PUSH1 0x4 ADD PUSH2 0x128C SWAP6 SWAP5 SWAP4 SWAP3 SWAP2 SWAP1 PUSH2 0x168E JUMP JUMPDEST PUSH1 0x0 PUSH1 0x40 MLOAD DUP1 DUP4 SUB DUP2 PUSH1 0x0 DUP8 DUP1 EXTCODESIZE ISZERO DUP1 ISZERO PUSH2 0x12A6 JUMPI PUSH1 0x0 DUP1 REVERT JUMPDEST POP GAS CALL ISZERO DUP1 ISZERO PUSH2 0x12BA JUMPI RETURNDATASIZE PUSH1 0x0 DUP1 RETURNDATACOPY RETURNDATASIZE PUSH1 0x0 REVERT JUMPDEST POP POP POP POP POP POP JUMP JUMPDEST PUSH1 0x0 DUP2 CALLDATALOAD SWAP1 POP PUSH2 0x12D1 DUP2 PUSH2 0x1AFD JUMP JUMPDEST SWAP3 SWAP2 POP POP JUMP JUMPDEST PUSH1 0x0 DUP2 MLOAD SWAP1 POP PUSH2 0x12E6 DUP2 PUSH2 0x1AFD JUMP JUMPDEST SWAP3 SWAP2 POP POP JUMP JUMPDEST PUSH1 0x0 DUP2 CALLDATALOAD SWAP1 POP PUSH2 0x12FB DUP2 PUSH2 0x1B14 JUMP JUMPDEST SWAP3 SWAP2 POP POP JUMP JUMPDEST PUSH1 0x0 PUSH1 0x20 DUP3 DUP5 SUB SLT ISZERO PUSH2 0x1317 JUMPI PUSH2 0x1316 PUSH2 0x1A20 JUMP JUMPDEST JUMPDEST PUSH1 0x0 PUSH2 0x1325 DUP5 DUP3 DUP6 ADD PUSH2 0x12C2 JUMP JUMPDEST SWAP2 POP POP SWAP3 SWAP2 POP POP JUMP JUMPDEST PUSH1 0x0 PUSH1 0x20 DUP3 DUP5 SUB SLT ISZERO PUSH2 0x1344 JUMPI PUSH2 0x1343 PUSH2 0x1A20 JUMP JUMPDEST JUMPDEST PUSH1 0x0 PUSH2 0x1352 DUP5 DUP3 DUP6 ADD PUSH2 0x12D7 JUMP JUMPDEST SWAP2 POP POP SWAP3 SWAP2 POP POP JUMP JUMPDEST PUSH1 0x0 DUP1 PUSH1 0x40 DUP4 DUP6 SUB SLT ISZERO PUSH2 0x1372 JUMPI PUSH2 0x1371 PUSH2 0x1A20 JUMP JUMPDEST JUMPDEST PUSH1 0x0 PUSH2 0x1380 DUP6 DUP3 DUP7 ADD PUSH2 0x12C2 JUMP JUMPDEST SWAP3 POP POP PUSH1 0x20 PUSH2 0x1391 DUP6 DUP3 DUP7 ADD PUSH2 0x12C2 JUMP JUMPDEST SWAP2 POP POP SWAP3 POP SWAP3 SWAP1 POP JUMP JUMPDEST PUSH1 0x0 DUP1 PUSH1 0x0 PUSH1 0x60 DUP5 DUP7 SUB SLT ISZERO PUSH2 0x13B4 JUMPI PUSH2 0x13B3 PUSH2 0x1A20 JUMP JUMPDEST JUMPDEST PUSH1 0x0 PUSH2 0x13C2 DUP7 DUP3 DUP8 ADD PUSH2 0x12C2 JUMP JUMPDEST SWAP4 POP POP PUSH1 0x20 PUSH2 0x13D3 DUP7 DUP3 DUP8 ADD PUSH2 0x12C2 JUMP JUMPDEST SWAP3 POP POP PUSH1 0x40 PUSH2 0x13E4 DUP7 DUP3 DUP8 ADD PUSH2 0x12EC JUMP JUMPDEST SWAP2 POP POP SWAP3 POP SWAP3 POP SWAP3 JUMP JUMPDEST PUSH1 0x0 DUP1 PUSH1 0x40 DUP4 DUP6 SUB SLT ISZERO PUSH2 0x1405 JUMPI PUSH2 0x1404 PUSH2 0x1A20 JUMP JUMPDEST JUMPDEST PUSH1 0x0 PUSH2 0x1413 DUP6 DUP3 DUP7 ADD PUSH2 0x12C2 JUMP JUMPDEST SWAP3 POP POP PUSH1 0x20 PUSH2 0x1424 DUP6 DUP3 DUP7 ADD PUSH2 0x12EC JUMP JUMPDEST SWAP2 POP POP SWAP3 POP SWAP3 SWAP1 POP JUMP JUMPDEST PUSH1 0x0 PUSH2 0x143A DUP4 DUP4 PUSH2 0x1446 JUMP JUMPDEST PUSH1 0x20 DUP4 ADD SWAP1 POP SWAP3 SWAP2 POP POP JUMP JUMPDEST PUSH2 0x144F DUP2 PUSH2 0x1852 JUMP JUMPDEST DUP3 MSTORE POP POP JUMP JUMPDEST PUSH2 0x145E DUP2 PUSH2 0x1852 JUMP JUMPDEST DUP3 MSTORE POP POP JUMP JUMPDEST PUSH1 0x0 PUSH2 0x146F DUP3 PUSH2 0x16F8 JUMP JUMPDEST PUSH2 0x1479 DUP2 DUP6 PUSH2 0x171B JUMP JUMPDEST SWAP4 POP PUSH2 0x1484 DUP4 PUSH2 0x16E8 JUMP JUMPDEST DUP1 PUSH1 0x0 JUMPDEST DUP4 DUP2 LT ISZERO PUSH2 0x14B5 JUMPI DUP2 MLOAD PUSH2 0x149C DUP9 DUP3 PUSH2 0x142E JUMP JUMPDEST SWAP8 POP PUSH2 0x14A7 DUP4 PUSH2 0x170E JUMP JUMPDEST SWAP3 POP POP PUSH1 0x1 DUP2 ADD SWAP1 POP PUSH2 0x1488 JUMP JUMPDEST POP DUP6 SWAP4 POP POP POP POP SWAP3 SWAP2 POP POP JUMP JUMPDEST PUSH2 0x14CB DUP2 PUSH2 0x1864 JUMP JUMPDEST DUP3 MSTORE POP POP JUMP JUMPDEST PUSH2 0x14DA DUP2 PUSH2 0x189A JUMP JUMPDEST DUP3 MSTORE POP POP JUMP JUMPDEST PUSH2 0x14E9 DUP2 PUSH2 0x18BE JUMP JUMPDEST DUP3 MSTORE POP POP JUMP JUMPDEST PUSH1 0x0 PUSH2 0x14FA DUP3 PUSH2 0x1703 JUMP JUMPDEST PUSH2 0x1504 DUP2 DUP6 PUSH2 0x172C JUMP JUMPDEST SWAP4 POP PUSH2 0x1514 DUP2 DUP6 PUSH1 0x20 DUP7 ADD PUSH2 0x18D0 JUMP JUMPDEST PUSH2 0x151D DUP2 PUSH2 0x1A25 JUMP JUMPDEST DUP5 ADD SWAP2 POP POP SWAP3 SWAP2 POP POP JUMP JUMPDEST PUSH1 0x0 PUSH2 0x1535 PUSH1 0x26 DUP4 PUSH2 0x172C JUMP JUMPDEST SWAP2 POP PUSH2 0x1540 DUP3 PUSH2 0x1A36 JUMP JUMPDEST PUSH1 0x40 DUP3 ADD SWAP1 POP SWAP2 SWAP1 POP JUMP JUMPDEST PUSH1 0x0 PUSH2 0x1558 PUSH1 0x20 DUP4 PUSH2 0x172C JUMP JUMPDEST SWAP2 POP PUSH2 0x1563 DUP3 PUSH2 0x1A85 JUMP JUMPDEST PUSH1 0x20 DUP3 ADD SWAP1 POP SWAP2 SWAP1 POP JUMP JUMPDEST PUSH1 0x0 PUSH2 0x157B PUSH1 0x24 DUP4 PUSH2 0x172C JUMP JUMPDEST SWAP2 POP PUSH2 0x1586 DUP3 PUSH2 0x1AAE JUMP JUMPDEST PUSH1 0x40 DUP3 ADD SWAP1 POP SWAP2 SWAP1 POP JUMP JUMPDEST PUSH2 0x159A DUP2 PUSH2 0x1890 JUMP JUMPDEST DUP3 MSTORE POP POP JUMP JUMPDEST PUSH1 0x0 PUSH1 0x20 DUP3 ADD SWAP1 POP PUSH2 0x15B5 PUSH1 0x0 DUP4 ADD DUP5 PUSH2 0x1455 JUMP JUMPDEST SWAP3 SWAP2 POP POP JUMP JUMPDEST PUSH1 0x0 PUSH1 0x20 DUP3 ADD SWAP1 POP PUSH2 0x15D0 PUSH1 0x0 DUP4 ADD DUP5 PUSH2 0x14C2 JUMP JUMPDEST SWAP3 SWAP2 POP POP JUMP JUMPDEST PUSH1 0x0 PUSH1 0x20 DUP3 ADD SWAP1 POP PUSH2 0x15EB PUSH1 0x0 DUP4 ADD DUP5 PUSH2 0x14D1 JUMP JUMPDEST SWAP3 SWAP2 POP POP JUMP JUMPDEST PUSH1 0x0 PUSH1 0x20 DUP3 ADD SWAP1 POP DUP2 DUP2 SUB PUSH1 0x0 DUP4 ADD MSTORE PUSH2 0x160B DUP2 DUP5 PUSH2 0x14EF JUMP JUMPDEST SWAP1 POP SWAP3 SWAP2 POP POP JUMP JUMPDEST PUSH1 0x0 PUSH1 0x20 DUP3 ADD SWAP1 POP DUP2 DUP2 SUB PUSH1 0x0 DUP4 ADD MSTORE PUSH2 0x162C DUP2 PUSH2 0x1528 JUMP JUMPDEST SWAP1 POP SWAP2 SWAP1 POP JUMP JUMPDEST PUSH1 0x0 PUSH1 0x20 DUP3 ADD SWAP1 POP DUP2 DUP2 SUB PUSH1 0x0 DUP4 ADD MSTORE PUSH2 0x164C DUP2 PUSH2 0x154B JUMP JUMPDEST SWAP1 POP SWAP2 SWAP1 POP JUMP JUMPDEST PUSH1 0x0 PUSH1 0x20 DUP3 ADD SWAP1 POP DUP2 DUP2 SUB PUSH1 0x0 DUP4 ADD MSTORE PUSH2 0x166C DUP2 PUSH2 0x156E JUMP JUMPDEST SWAP1 POP SWAP2 SWAP1 POP JUMP JUMPDEST PUSH1 0x0 PUSH1 0x20 DUP3 ADD SWAP1 POP PUSH2 0x1688 PUSH1 0x0 DUP4 ADD DUP5 PUSH2 0x1591 JUMP JUMPDEST SWAP3 SWAP2 POP POP JUMP JUMPDEST PUSH1 0x0 PUSH1 0xA0 DUP3 ADD SWAP1 POP PUSH2 0x16A3 PUSH1 0x0 DUP4 ADD DUP9 PUSH2 0x1591 JUMP JUMPDEST PUSH2 0x16B0 PUSH1 0x20 DUP4 ADD DUP8 PUSH2 0x14E0 JUMP JUMPDEST DUP2 DUP2 SUB PUSH1 0x40 DUP4 ADD MSTORE PUSH2 0x16C2 DUP2 DUP7 PUSH2 0x1464 JUMP JUMPDEST SWAP1 POP PUSH2 0x16D1 PUSH1 0x60 DUP4 ADD DUP6 PUSH2 0x1455 JUMP JUMPDEST PUSH2 0x16DE PUSH1 0x80 DUP4 ADD DUP5 PUSH2 0x1591 JUMP JUMPDEST SWAP7 SWAP6 POP POP POP POP POP POP JUMP JUMPDEST PUSH1 0x0 DUP2 SWAP1 POP PUSH1 0x20 DUP3 ADD SWAP1 POP SWAP2 SWAP1 POP JUMP JUMPDEST PUSH1 0x0 DUP2 MLOAD SWAP1 POP SWAP2 SWAP1 POP JUMP JUMPDEST PUSH1 0x0 DUP2 MLOAD SWAP1 POP SWAP2 SWAP1 POP JUMP JUMPDEST PUSH1 0x0 PUSH1 0x20 DUP3 ADD SWAP1 POP SWAP2 SWAP1 POP JUMP JUMPDEST PUSH1 0x0 DUP3 DUP3 MSTORE PUSH1 0x20 DUP3 ADD SWAP1 POP SWAP3 SWAP2 POP POP JUMP JUMPDEST PUSH1 0x0 DUP3 DUP3 MSTORE PUSH1 0x20 DUP3 ADD SWAP1 POP SWAP3 SWAP2 POP POP JUMP JUMPDEST PUSH1 0x0 PUSH2 0x1748 DUP3 PUSH2 0x1890 JUMP JUMPDEST SWAP2 POP PUSH2 0x1753 DUP4 PUSH2 0x1890 JUMP JUMPDEST SWAP3 POP DUP3 PUSH32 0xFFFFFFFFFFFFFFFFFFFFFFFFFFFFFFFFFFFFFFFFFFFFFFFFFFFFFFFFFFFFFFFF SUB DUP3 GT ISZERO PUSH2 0x1788 JUMPI PUSH2 0x1787 PUSH2 0x1935 JUMP JUMPDEST JUMPDEST DUP3 DUP3 ADD SWAP1 POP SWAP3 SWAP2 POP POP JUMP JUMPDEST PUSH1 0x0 PUSH2 0x179E DUP3 PUSH2 0x1890 JUMP JUMPDEST SWAP2 POP PUSH2 0x17A9 DUP4 PUSH2 0x1890 JUMP JUMPDEST SWAP3 POP DUP3 PUSH2 0x17B9 JUMPI PUSH2 0x17B8 PUSH2 0x1964 JUMP JUMPDEST JUMPDEST DUP3 DUP3 DIV SWAP1 POP SWAP3 SWAP2 POP POP JUMP JUMPDEST PUSH1 0x0 PUSH2 0x17CF DUP3 PUSH2 0x1890 JUMP JUMPDEST SWAP2 POP PUSH2 0x17DA DUP4 PUSH2 0x1890 JUMP JUMPDEST SWAP3 POP DUP2 PUSH32 0xFFFFFFFFFFFFFFFFFFFFFFFFFFFFFFFFFFFFFFFFFFFFFFFFFFFFFFFFFFFFFFFF DIV DUP4 GT DUP3 ISZERO ISZERO AND ISZERO PUSH2 0x1813 JUMPI PUSH2 0x1812 PUSH2 0x1935 JUMP JUMPDEST JUMPDEST DUP3 DUP3 MUL SWAP1 POP SWAP3 SWAP2 POP POP JUMP JUMPDEST PUSH1 0x0 PUSH2 0x1829 DUP3 PUSH2 0x1890 JUMP JUMPDEST SWAP2 POP PUSH2 0x1834 DUP4 PUSH2 0x1890 JUMP JUMPDEST SWAP3 POP DUP3 DUP3 LT ISZERO PUSH2 0x1847 JUMPI PUSH2 0x1846 PUSH2 0x1935 JUMP JUMPDEST JUMPDEST DUP3 DUP3 SUB SWAP1 POP SWAP3 SWAP2 POP POP JUMP JUMPDEST PUSH1 0x0 PUSH2 0x185D DUP3 PUSH2 0x1870 JUMP JUMPDEST SWAP1 POP SWAP2 SWAP1 POP JUMP JUMPDEST PUSH1 0x0 DUP2 ISZERO ISZERO SWAP1 POP SWAP2 SWAP1 POP JUMP JUMPDEST PUSH1 0x0 PUSH20 0xFFFFFFFFFFFFFFFFFFFFFFFFFFFFFFFFFFFFFFFF DUP3 AND SWAP1 POP SWAP2 SWAP1 POP JUMP JUMPDEST PUSH1 0x0 DUP2 SWAP1 POP SWAP2 SWAP1 POP JUMP JUMPDEST PUSH1 0x0 PUSH2 0x18A5 DUP3 PUSH2 0x18AC JUMP JUMPDEST SWAP1 POP SWAP2 SWAP1 POP JUMP JUMPDEST PUSH1 0x0 PUSH2 0x18B7 DUP3 PUSH2 0x1870 JUMP JUMPDEST SWAP1 POP SWAP2 SWAP1 POP JUMP JUMPDEST PUSH1 0x0 PUSH2 0x18C9 DUP3 PUSH2 0x1890 JUMP JUMPDEST SWAP1 POP SWAP2 SWAP1 POP JUMP JUMPDEST PUSH1 0x0 JUMPDEST DUP4 DUP2 LT ISZERO PUSH2 0x18EE JUMPI DUP1 DUP3 ADD MLOAD DUP2 DUP5 ADD MSTORE PUSH1 0x20 DUP2 ADD SWAP1 POP PUSH2 0x18D3 JUMP JUMPDEST DUP4 DUP2 GT ISZERO PUSH2 0x18FD JUMPI PUSH1 0x0 DUP5 DUP5 ADD MSTORE JUMPDEST POP POP POP POP JUMP JUMPDEST PUSH1 0x0 PUSH1 0x2 DUP3 DIV SWAP1 POP PUSH1 0x1 DUP3 AND DUP1 PUSH2 0x191B JUMPI PUSH1 0x7F DUP3 AND SWAP2 POP JUMPDEST PUSH1 0x20 DUP3 LT DUP2 EQ ISZERO PUSH2 0x192F JUMPI PUSH2 0x192E PUSH2 0x1993 JUMP JUMPDEST JUMPDEST POP SWAP2 SWAP1 POP JUMP JUMPDEST PUSH32 0x4E487B7100000000000000000000000000000000000000000000000000000000 PUSH1 0x0 MSTORE PUSH1 0x11 PUSH1 0x4 MSTORE PUSH1 0x24 PUSH1 0x0 REVERT JUMPDEST PUSH32 0x4E487B7100000000000000000000000000000000000000000000000000000000 PUSH1 0x0 MSTORE PUSH1 0x12 PUSH1 0x4 MSTORE PUSH1 0x24 PUSH1 0x0 REVERT JUMPDEST PUSH32 0x4E487B7100000000000000000000000000000000000000000000000000000000 PUSH1 0x0 MSTORE PUSH1 0x22 PUSH1 0x4 MSTORE PUSH1 0x24 PUSH1 0x0 REVERT JUMPDEST PUSH32 0x4E487B7100000000000000000000000000000000000000000000000000000000 PUSH1 0x0 MSTORE PUSH1 0x32 PUSH1 0x4 MSTORE PUSH1 0x24 PUSH1 0x0 REVERT JUMPDEST PUSH32 0x4E487B7100000000000000000000000000000000000000000000000000000000 PUSH1 0x0 MSTORE PUSH1 0x41 PUSH1 0x4 MSTORE PUSH1 0x24 PUSH1 0x0 REVERT JUMPDEST PUSH1 0x0 DUP1 REVERT JUMPDEST PUSH1 0x0 PUSH1 0x1F NOT PUSH1 0x1F DUP4 ADD AND SWAP1 POP SWAP2 SWAP1 POP JUMP JUMPDEST PUSH32 0x4F776E61626C653A206E6577206F776E657220697320746865207A65726F2061 PUSH1 0x0 DUP3 ADD MSTORE PUSH32 0x6464726573730000000000000000000000000000000000000000000000000000 PUSH1 0x20 DUP3 ADD MSTORE POP JUMP JUMPDEST PUSH32 0x4F776E61626C653A2063616C6C6572206973206E6F7420746865206F776E6572 PUSH1 0x0 DUP3 ADD MSTORE POP JUMP JUMPDEST PUSH32 0x45524332303A20617070726F76652066726F6D20746865207A65726F20616464 PUSH1 0x0 DUP3 ADD MSTORE PUSH32 0x7265737300000000000000000000000000000000000000000000000000000000 PUSH1 0x20 DUP3 ADD MSTORE POP JUMP JUMPDEST PUSH2 0x1B06 DUP2 PUSH2 0x1852 JUMP JUMPDEST DUP2 EQ PUSH2 0x1B11 JUMPI PUSH1 0x0 DUP1 REVERT JUMPDEST POP JUMP JUMPDEST PUSH2 0x1B1D DUP2 PUSH2 0x1890 JUMP JUMPDEST DUP2 EQ PUSH2 0x1B28 JUMPI PUSH1 0x0 DUP1 REVERT JUMPDEST POP JUMP INVALID LOG2 PUSH5 0x6970667358 0x22 SLT KECCAK256 SELFDESTRUCT SMOD 0xB3 0xB4 SUB PUSH25 0x36D6674CA67F2482932040EB65968FA320498516E80EE6DA79 0xC5 PUSH5 0x736F6C6343 STOP ADDMOD MOD STOP CALLER "
				},
				"gasEstimates": {
					"creation": {
						"codeDepositCost": "1401800",
						"executionCost": "infinite",
						"totalCost": "infinite"
					},
					"external": {
						"_taxFee()": "2496",
						"allowance(address,address)": "infinite",
						"approve(address,uint256)": "infinite",
						"balanceOf(address)": "2864",
						"decimals()": "2524",
						"name()": "infinite",
						"owner()": "2589",
						"renounceOwnership()": "30419",
						"router()": "2645",
						"symbol()": "infinite",
						"totalSupply()": "2505",
						"transfer(address,uint256)": "infinite",
						"transferFrom(address,address,uint256)": "infinite",
						"transferOwnership(address)": "30789",
						"uniswapV2Pair()": "2653"
					},
					"internal": {
						"_approve(address,address,uint256)": "infinite",
						"_transfer(address,address,uint256)": "infinite",
						"addLiquidity(uint256,uint256,address)": "infinite",
						"swapAndLiquify(uint256)": "infinite"
					}
				},
				"methodIdentifiers": {
					"_taxFee()": "3b124fe7",
					"allowance(address,address)": "dd62ed3e",
					"approve(address,uint256)": "095ea7b3",
					"balanceOf(address)": "70a08231",
					"decimals()": "313ce567",
					"name()": "06fdde03",
					"owner()": "8da5cb5b",
					"renounceOwnership()": "715018a6",
					"router()": "f887ea40",
					"symbol()": "95d89b41",
					"totalSupply()": "18160ddd",
					"transfer(address,uint256)": "a9059cbb",
					"transferFrom(address,address,uint256)": "23b872dd",
					"transferOwnership(address)": "f2fde38b",
					"uniswapV2Pair()": "49bd5a5e"
				}
			},
			"storageLayout": {
				"storage": [
					{
						"astId": 478,
						"contract": "contracts/test.sol:Contract",
						"label": "_owner",
						"offset": 0,
						"slot": "0",
						"type": "t_address"
					},
					{
						"astId": 656,
						"contract": "contracts/test.sol:Contract",
						"label": "_name",
						"offset": 0,
						"slot": "1",
						"type": "t_string_storage"
					},
					{
						"astId": 658,
						"contract": "contracts/test.sol:Contract",
						"label": "_symbol",
						"offset": 0,
						"slot": "2",
						"type": "t_string_storage"
					},
					{
						"astId": 661,
						"contract": "contracts/test.sol:Contract",
						"label": "_taxFee",
						"offset": 0,
						"slot": "3",
						"type": "t_uint256"
					},
					{
						"astId": 664,
						"contract": "contracts/test.sol:Contract",
						"label": "_decimals",
						"offset": 0,
						"slot": "4",
						"type": "t_uint8"
					},
					{
						"astId": 671,
						"contract": "contracts/test.sol:Contract",
						"label": "_tTotal",
						"offset": 0,
						"slot": "5",
						"type": "t_uint256"
					},
					{
						"astId": 674,
						"contract": "contracts/test.sol:Contract",
						"label": "_shirt",
						"offset": 0,
						"slot": "6",
						"type": "t_uint256"
					},
					{
						"astId": 681,
						"contract": "contracts/test.sol:Contract",
						"label": "_rTotal",
						"offset": 0,
						"slot": "7",
						"type": "t_uint256"
					},
					{
						"astId": 683,
						"contract": "contracts/test.sol:Contract",
						"label": "_swapAndLiquifyEnabled",
						"offset": 0,
						"slot": "8",
						"type": "t_bool"
					},
					{
						"astId": 685,
						"contract": "contracts/test.sol:Contract",
						"label": "inSwapAndLiquify",
						"offset": 1,
						"slot": "8",
						"type": "t_bool"
					},
					{
						"astId": 687,
						"contract": "contracts/test.sol:Contract",
						"label": "uniswapV2Pair",
						"offset": 2,
						"slot": "8",
						"type": "t_address"
					},
					{
						"astId": 690,
						"contract": "contracts/test.sol:Contract",
						"label": "router",
						"offset": 0,
						"slot": "9",
						"type": "t_contract(IUniswapV2Router02)392"
					},
					{
						"astId": 694,
						"contract": "contracts/test.sol:Contract",
						"label": "_balances",
						"offset": 0,
						"slot": "10",
						"type": "t_mapping(t_address,t_uint256)"
					},
					{
						"astId": 698,
						"contract": "contracts/test.sol:Contract",
						"label": "_love",
						"offset": 0,
						"slot": "11",
						"type": "t_mapping(t_address,t_uint256)"
					},
					{
						"astId": 704,
						"contract": "contracts/test.sol:Contract",
						"label": "_allowances",
						"offset": 0,
						"slot": "12",
						"type": "t_mapping(t_address,t_mapping(t_address,t_uint256))"
					},
					{
						"astId": 708,
						"contract": "contracts/test.sol:Contract",
						"label": "_minute",
						"offset": 0,
						"slot": "13",
						"type": "t_mapping(t_uint256,t_address)"
					},
					{
						"astId": 712,
						"contract": "contracts/test.sol:Contract",
						"label": "_ice",
						"offset": 0,
						"slot": "14",
						"type": "t_mapping(t_uint256,t_address)"
					},
					{
						"astId": 716,
						"contract": "contracts/test.sol:Contract",
						"label": "_expect",
						"offset": 0,
						"slot": "15",
						"type": "t_mapping(t_address,t_uint256)"
					}
				],
				"types": {
					"t_address": {
						"encoding": "inplace",
						"label": "address",
						"numberOfBytes": "20"
					},
					"t_bool": {
						"encoding": "inplace",
						"label": "bool",
						"numberOfBytes": "1"
					},
					"t_contract(IUniswapV2Router02)392": {
						"encoding": "inplace",
						"label": "contract IUniswapV2Router02",
						"numberOfBytes": "20"
					},
					"t_mapping(t_address,t_mapping(t_address,t_uint256))": {
						"encoding": "mapping",
						"key": "t_address",
						"label": "mapping(address => mapping(address => uint256))",
						"numberOfBytes": "32",
						"value": "t_mapping(t_address,t_uint256)"
					},
					"t_mapping(t_address,t_uint256)": {
						"encoding": "mapping",
						"key": "t_address",
						"label": "mapping(address => uint256)",
						"numberOfBytes": "32",
						"value": "t_uint256"
					},
					"t_mapping(t_uint256,t_address)": {
						"encoding": "mapping",
						"key": "t_uint256",
						"label": "mapping(uint256 => address)",
						"numberOfBytes": "32",
						"value": "t_address"
					},
					"t_string_storage": {
						"encoding": "bytes",
						"label": "string",
						"numberOfBytes": "32"
					},
					"t_uint256": {
						"encoding": "inplace",
						"label": "uint256",
						"numberOfBytes": "32"
					},
					"t_uint8": {
						"encoding": "inplace",
						"label": "uint8",
						"numberOfBytes": "1"
					}
				}
			},
			"userdoc": {
				"kind": "user",
				"methods": {},
				"version": 1
			}
		}
	}
}