{
	"contracts/Registration.sol": {
		"SubjectRegistration": {
			"abi": [
				{
					"inputs": [],
					"stateMutability": "nonpayable",
					"type": "constructor"
				},
				{
					"inputs": [],
					"name": "MostPopularCourseId",
					"outputs": [
						{
							"internalType": "uint256",
							"name": "mostPopularCourseId_",
							"type": "uint256"
						}
					],
					"stateMutability": "view",
					"type": "function"
				},
				{
					"inputs": [
						{
							"internalType": "uint256",
							"name": "",
							"type": "uint256"
						}
					],
					"name": "courses",
					"outputs": [
						{
							"internalType": "uint256",
							"name": "",
							"type": "uint256"
						}
					],
					"stateMutability": "view",
					"type": "function"
				},
				{
					"inputs": [
						{
							"internalType": "uint256",
							"name": "courseID",
							"type": "uint256"
						},
						{
							"internalType": "string",
							"name": "studentID",
							"type": "string"
						}
					],
					"name": "register",
					"outputs": [],
					"stateMutability": "nonpayable",
					"type": "function"
				},
				{
					"inputs": [],
					"name": "result",
					"outputs": [
						{
							"internalType": "string",
							"name": "result_",
							"type": "string"
						}
					],
					"stateMutability": "view",
					"type": "function"
				},
				{
					"inputs": [
						{
							"internalType": "address",
							"name": "",
							"type": "address"
						}
					],
					"name": "student",
					"outputs": [
						{
							"internalType": "bool",
							"name": "registered",
							"type": "bool"
						},
						{
							"internalType": "string",
							"name": "studentID",
							"type": "string"
						},
						{
							"internalType": "uint256",
							"name": "courseID",
							"type": "uint256"
						},
						{
							"internalType": "string",
							"name": "result",
							"type": "string"
						}
					],
					"stateMutability": "view",
					"type": "function"
				}
			],
			"devdoc": {
				"kind": "dev",
				"methods": {},
				"version": 1
			},
			"evm": {
				"assembly": "    /* \"contracts/Registration.sol\":64:2316  contract SubjectRegistration {\r... */\n  mstore(0x40, 0x80)\n    /* \"contracts/Registration.sol\":766:878  constructor() {\r... */\n  callvalue\n  dup1\n  iszero\n  tag_1\n  jumpi\n  0x00\n  dup1\n  revert\ntag_1:\n  pop\n    /* \"contracts/Registration.sol\":806:812  uint i */\n  0x00\n    /* \"contracts/Registration.sol\":801:871  for (uint i = 0; i < 5; i++) {\r... */\ntag_4:\n    /* \"contracts/Registration.sol\":822:823  5 */\n  0x05\n    /* \"contracts/Registration.sol\":818:819  i */\n  dup2\n    /* \"contracts/Registration.sol\":818:823  i < 5 */\n  lt\n    /* \"contracts/Registration.sol\":801:871  for (uint i = 0; i < 5; i++) {\r... */\n  iszero\n  tag_5\n  jumpi\n    /* \"contracts/Registration.sol\":858:859  0 */\n  0x00\n    /* \"contracts/Registration.sol\":845:852  courses */\n  0x01\n    /* \"contracts/Registration.sol\":845:855  courses[i] */\n  0x00\n    /* \"contracts/Registration.sol\":853:854  i */\n  dup4\n    /* \"contracts/Registration.sol\":845:855  courses[i] */\n  dup2\n  mstore\n  0x20\n  add\n  swap1\n  dup2\n  mstore\n  0x20\n  add\n  0x00\n  keccak256\n    /* \"contracts/Registration.sol\":845:859  courses[i] = 0 */\n  dup2\n  swap1\n  sstore\n  pop\n    /* \"contracts/Registration.sol\":825:828  i++ */\n  dup1\n  dup1\n  tag_7\n  swap1\n  tag_8\n  jump\t// in\ntag_7:\n  swap2\n  pop\n  pop\n    /* \"contracts/Registration.sol\":801:871  for (uint i = 0; i < 5; i++) {\r... */\n  jump(tag_4)\ntag_5:\n  pop\n    /* \"contracts/Registration.sol\":64:2316  contract SubjectRegistration {\r... */\n  jump(tag_9)\n    /* \"#utility.yul\":7:84   */\ntag_11:\n    /* \"#utility.yul\":44:51   */\n  0x00\n    /* \"#utility.yul\":73:78   */\n  dup2\n    /* \"#utility.yul\":62:78   */\n  swap1\n  pop\n    /* \"#utility.yul\":7:84   */\n  swap2\n  swap1\n  pop\n  jump\t// out\n    /* \"#utility.yul\":90:323   */\ntag_8:\n    /* \"#utility.yul\":129:132   */\n  0x00\n    /* \"#utility.yul\":152:176   */\n  tag_14\n    /* \"#utility.yul\":170:175   */\n  dup3\n    /* \"#utility.yul\":152:176   */\n  tag_11\n  jump\t// in\ntag_14:\n    /* \"#utility.yul\":143:176   */\n  swap2\n  pop\n    /* \"#utility.yul\":198:264   */\n  0xffffffffffffffffffffffffffffffffffffffffffffffffffffffffffffffff\n    /* \"#utility.yul\":191:196   */\n  dup3\n    /* \"#utility.yul\":188:265   */\n  eq\n    /* \"#utility.yul\":185:288   */\n  iszero\n  tag_15\n  jumpi\n    /* \"#utility.yul\":268:286   */\n  tag_16\n  tag_17\n  jump\t// in\ntag_16:\n    /* \"#utility.yul\":185:288   */\ntag_15:\n    /* \"#utility.yul\":315:316   */\n  0x01\n    /* \"#utility.yul\":308:313   */\n  dup3\n    /* \"#utility.yul\":304:317   */\n  add\n    /* \"#utility.yul\":297:317   */\n  swap1\n  pop\n    /* \"#utility.yul\":90:323   */\n  swap2\n  swap1\n  pop\n  jump\t// out\n    /* \"#utility.yul\":329:509   */\ntag_17:\n    /* \"#utility.yul\":377:454   */\n  0x4e487b7100000000000000000000000000000000000000000000000000000000\n    /* \"#utility.yul\":374:375   */\n  0x00\n    /* \"#utility.yul\":367:455   */\n  mstore\n    /* \"#utility.yul\":474:478   */\n  0x11\n    /* \"#utility.yul\":471:472   */\n  0x04\n    /* \"#utility.yul\":464:479   */\n  mstore\n    /* \"#utility.yul\":498:502   */\n  0x24\n    /* \"#utility.yul\":495:496   */\n  0x00\n    /* \"#utility.yul\":488:503   */\n  revert\n    /* \"contracts/Registration.sol\":64:2316  contract SubjectRegistration {\r... */\ntag_9:\n  dataSize(sub_0)\n  dup1\n  dataOffset(sub_0)\n  0x00\n  codecopy\n  0x00\n  return\nstop\n\nsub_0: assembly {\n        /* \"contracts/Registration.sol\":64:2316  contract SubjectRegistration {\r... */\n      mstore(0x40, 0x80)\n      callvalue\n      dup1\n      iszero\n      tag_1\n      jumpi\n      0x00\n      dup1\n      revert\n    tag_1:\n      pop\n      jumpi(tag_2, lt(calldatasize, 0x04))\n      shr(0xe0, calldataload(0x00))\n      dup1\n      0x65372147\n      eq\n      tag_3\n      jumpi\n      dup1\n      0x96f979d2\n      eq\n      tag_4\n      jumpi\n      dup1\n      0xa00fd3c8\n      eq\n      tag_5\n      jumpi\n      dup1\n      0xdaadd00f\n      eq\n      tag_6\n      jumpi\n      dup1\n      0xe6f7eb7c\n      eq\n      tag_7\n      jumpi\n    tag_2:\n      0x00\n      dup1\n      revert\n        /* \"contracts/Registration.sol\":2155:2313  function result() public view returns (string memory result_){\r... */\n    tag_3:\n      tag_8\n      tag_9\n      jump\t// in\n    tag_8:\n      mload(0x40)\n      tag_10\n      swap2\n      swap1\n      tag_11\n      jump\t// in\n    tag_10:\n      mload(0x40)\n      dup1\n      swap2\n      sub\n      swap1\n      return\n        /* \"contracts/Registration.sol\":652:688  mapping(uint => uint) public courses */\n    tag_4:\n      tag_12\n      0x04\n      dup1\n      calldatasize\n      sub\n      dup2\n      add\n      swap1\n      tag_13\n      swap2\n      swap1\n      tag_14\n      jump\t// in\n    tag_13:\n      tag_15\n      jump\t// in\n    tag_12:\n      mload(0x40)\n      tag_16\n      swap2\n      swap1\n      tag_17\n      jump\t// in\n    tag_16:\n      mload(0x40)\n      dup1\n      swap2\n      sub\n      swap1\n      return\n        /* \"contracts/Registration.sol\":911:1539  function register(uint courseID, string memory studentID) public {\r... */\n    tag_5:\n      tag_18\n      0x04\n      dup1\n      calldatasize\n      sub\n      dup2\n      add\n      swap1\n      tag_19\n      swap2\n      swap1\n      tag_20\n      jump\t// in\n    tag_19:\n      tag_21\n      jump\t// in\n    tag_18:\n      stop\n        /* \"contracts/Registration.sol\":533:575  mapping(address => Student) public student */\n    tag_6:\n      tag_22\n      0x04\n      dup1\n      calldatasize\n      sub\n      dup2\n      add\n      swap1\n      tag_23\n      swap2\n      swap1\n      tag_24\n      jump\t// in\n    tag_23:\n      tag_25\n      jump\t// in\n    tag_22:\n      mload(0x40)\n      tag_26\n      swap5\n      swap4\n      swap3\n      swap2\n      swap1\n      tag_27\n      jump\t// in\n    tag_26:\n      mload(0x40)\n      dup1\n      swap2\n      sub\n      swap1\n      return\n        /* \"contracts/Registration.sol\":2008:2147  function MostPopularCourseId() public view returns (uint mostPopularCourseId_){\r... */\n    tag_7:\n      tag_28\n      tag_29\n      jump\t// in\n    tag_28:\n      mload(0x40)\n      tag_30\n      swap2\n      swap1\n      tag_17\n      jump\t// in\n    tag_30:\n      mload(0x40)\n      dup1\n      swap2\n      sub\n      swap1\n      return\n        /* \"contracts/Registration.sol\":2155:2313  function result() public view returns (string memory result_){\r... */\n    tag_9:\n        /* \"contracts/Registration.sol\":2194:2215  string memory result_ */\n      0x60\n        /* \"contracts/Registration.sol\":2227:2249  Student storage sender */\n      0x00\n        /* \"contracts/Registration.sol\":2252:2259  student */\n      dup1\n        /* \"contracts/Registration.sol\":2252:2271  student[msg.sender] */\n      0x00\n        /* \"contracts/Registration.sol\":2260:2270  msg.sender */\n      caller\n        /* \"contracts/Registration.sol\":2252:2271  student[msg.sender] */\n      0xffffffffffffffffffffffffffffffffffffffff\n      and\n      0xffffffffffffffffffffffffffffffffffffffff\n      and\n      dup2\n      mstore\n      0x20\n      add\n      swap1\n      dup2\n      mstore\n      0x20\n      add\n      0x00\n      keccak256\n        /* \"contracts/Registration.sol\":2227:2271  Student storage sender = student[msg.sender] */\n      swap1\n      pop\n        /* \"contracts/Registration.sol\":2292:2298  sender */\n      dup1\n        /* \"contracts/Registration.sol\":2292:2305  sender.result */\n      0x03\n      add\n        /* \"contracts/Registration.sol\":2282:2305  result_ = sender.result */\n      dup1\n      sload\n      tag_32\n      swap1\n      tag_33\n      jump\t// in\n    tag_32:\n      dup1\n      0x1f\n      add\n      0x20\n      dup1\n      swap2\n      div\n      mul\n      0x20\n      add\n      mload(0x40)\n      swap1\n      dup2\n      add\n      0x40\n      mstore\n      dup1\n      swap3\n      swap2\n      swap1\n      dup2\n      dup2\n      mstore\n      0x20\n      add\n      dup3\n      dup1\n      sload\n      tag_34\n      swap1\n      tag_33\n      jump\t// in\n    tag_34:\n      dup1\n      iszero\n      tag_35\n      jumpi\n      dup1\n      0x1f\n      lt\n      tag_36\n      jumpi\n      0x0100\n      dup1\n      dup4\n      sload\n      div\n      mul\n      dup4\n      mstore\n      swap2\n      0x20\n      add\n      swap2\n      jump(tag_35)\n    tag_36:\n      dup3\n      add\n      swap2\n      swap1\n      0x00\n      mstore\n      keccak256(0x00, 0x20)\n      swap1\n    tag_37:\n      dup2\n      sload\n      dup2\n      mstore\n      swap1\n      0x01\n      add\n      swap1\n      0x20\n      add\n      dup1\n      dup4\n      gt\n      tag_37\n      jumpi\n      dup3\n      swap1\n      sub\n      0x1f\n      and\n      dup3\n      add\n      swap2\n    tag_35:\n      pop\n      pop\n      pop\n      pop\n      pop\n      swap2\n      pop\n        /* \"contracts/Registration.sol\":2216:2313  {\r... */\n      pop\n        /* \"contracts/Registration.sol\":2155:2313  function result() public view returns (string memory result_){\r... */\n      swap1\n      jump\t// out\n        /* \"contracts/Registration.sol\":652:688  mapping(uint => uint) public courses */\n    tag_15:\n      mstore(0x20, 0x01)\n      dup1\n      0x00\n      mstore\n      keccak256(0x00, 0x40)\n      0x00\n      swap2\n      pop\n      swap1\n      pop\n      sload\n      dup2\n      jump\t// out\n        /* \"contracts/Registration.sol\":911:1539  function register(uint courseID, string memory studentID) public {\r... */\n    tag_21:\n        /* \"contracts/Registration.sol\":1007:1008  0 */\n      0x00\n        /* \"contracts/Registration.sol\":995:1003  courseID */\n      dup3\n        /* \"contracts/Registration.sol\":995:1008  courseID >= 0 */\n      lt\n      iszero\n        /* \"contracts/Registration.sol\":987:1049  require(courseID >= 0, 'The id must be greater or equal to 0') */\n      tag_39\n      jumpi\n      mload(0x40)\n      0x08c379a000000000000000000000000000000000000000000000000000000000\n      dup2\n      mstore\n      0x04\n      add\n      tag_40\n      swap1\n      tag_41\n      jump\t// in\n    tag_40:\n      mload(0x40)\n      dup1\n      swap2\n      sub\n      swap1\n      revert\n    tag_39:\n        /* \"contracts/Registration.sol\":1080:1081  4 */\n      0x04\n        /* \"contracts/Registration.sol\":1068:1076  courseID */\n      dup3\n        /* \"contracts/Registration.sol\":1068:1081  courseID <= 4 */\n      gt\n      iszero\n        /* \"contracts/Registration.sol\":1060:1119  require(courseID <= 4, 'The id must be less or equal to 4') */\n      tag_42\n      jumpi\n      mload(0x40)\n      0x08c379a000000000000000000000000000000000000000000000000000000000\n      dup2\n      mstore\n      0x04\n      add\n      tag_43\n      swap1\n      tag_44\n      jump\t// in\n    tag_43:\n      mload(0x40)\n      dup1\n      swap2\n      sub\n      swap1\n      revert\n    tag_42:\n        /* \"contracts/Registration.sol\":1132:1154  Student storage sender */\n      0x00\n        /* \"contracts/Registration.sol\":1157:1164  student */\n      dup1\n        /* \"contracts/Registration.sol\":1157:1176  student[msg.sender] */\n      0x00\n        /* \"contracts/Registration.sol\":1165:1175  msg.sender */\n      caller\n        /* \"contracts/Registration.sol\":1157:1176  student[msg.sender] */\n      0xffffffffffffffffffffffffffffffffffffffff\n      and\n      0xffffffffffffffffffffffffffffffffffffffff\n      and\n      dup2\n      mstore\n      0x20\n      add\n      swap1\n      dup2\n      mstore\n      0x20\n      add\n      0x00\n      keccak256\n        /* \"contracts/Registration.sol\":1132:1176  Student storage sender = student[msg.sender] */\n      swap1\n      pop\n        /* \"contracts/Registration.sol\":1196:1202  sender */\n      dup1\n        /* \"contracts/Registration.sol\":1196:1213  sender.registered */\n      0x00\n      add\n      0x00\n      swap1\n      sload\n      swap1\n      0x0100\n      exp\n      swap1\n      div\n      0xff\n      and\n        /* \"contracts/Registration.sol\":1195:1213  !sender.registered */\n      iszero\n        /* \"contracts/Registration.sol\":1187:1242  require(!sender.registered, \"Already choose a course.\") */\n      tag_45\n      jumpi\n      mload(0x40)\n      0x08c379a000000000000000000000000000000000000000000000000000000000\n      dup2\n      mstore\n      0x04\n      add\n      tag_46\n      swap1\n      tag_47\n      jump\t// in\n    tag_46:\n      mload(0x40)\n      dup1\n      swap2\n      sub\n      swap1\n      revert\n    tag_45:\n        /* \"contracts/Registration.sol\":1273:1277  true */\n      0x01\n        /* \"contracts/Registration.sol\":1253:1259  sender */\n      dup2\n        /* \"contracts/Registration.sol\":1253:1270  sender.registered */\n      0x00\n      add\n      0x00\n        /* \"contracts/Registration.sol\":1253:1277  sender.registered = true */\n      0x0100\n      exp\n      dup2\n      sload\n      dup2\n      0xff\n      mul\n      not\n      and\n      swap1\n      dup4\n      iszero\n      iszero\n      mul\n      or\n      swap1\n      sstore\n      pop\n        /* \"contracts/Registration.sol\":1307:1316  studentID */\n      dup2\n        /* \"contracts/Registration.sol\":1288:1294  sender */\n      dup2\n        /* \"contracts/Registration.sol\":1288:1304  sender.studentID */\n      0x01\n      add\n        /* \"contracts/Registration.sol\":1288:1316  sender.studentID = studentID */\n      swap1\n      dup1\n      mload\n      swap1\n      0x20\n      add\n      swap1\n      tag_48\n      swap3\n      swap2\n      swap1\n      tag_49\n      jump\t// in\n    tag_48:\n      pop\n        /* \"contracts/Registration.sol\":1345:1353  courseID */\n      dup3\n        /* \"contracts/Registration.sol\":1327:1333  sender */\n      dup2\n        /* \"contracts/Registration.sol\":1327:1342  sender.courseID */\n      0x02\n      add\n        /* \"contracts/Registration.sol\":1327:1353  sender.courseID = courseID */\n      dup2\n      swap1\n      sstore\n      pop\n        /* \"contracts/Registration.sol\":1385:1386  1 */\n      0x01\n        /* \"contracts/Registration.sol\":1364:1371  courses */\n      dup1\n        /* \"contracts/Registration.sol\":1364:1381  courses[courseID] */\n      0x00\n        /* \"contracts/Registration.sol\":1372:1380  courseID */\n      dup6\n        /* \"contracts/Registration.sol\":1364:1381  courses[courseID] */\n      dup2\n      mstore\n      0x20\n      add\n      swap1\n      dup2\n      mstore\n      0x20\n      add\n      0x00\n      keccak256\n      0x00\n        /* \"contracts/Registration.sol\":1364:1386  courses[courseID] += 1 */\n      dup3\n      dup3\n      sload\n      tag_50\n      swap2\n      swap1\n      tag_51\n      jump\t// in\n    tag_50:\n      swap3\n      pop\n      pop\n      dup2\n      swap1\n      sstore\n      pop\n        /* \"contracts/Registration.sol\":1432:1434  10 */\n      0x0a\n        /* \"contracts/Registration.sol\":1411:1418  courses */\n      0x01\n        /* \"contracts/Registration.sol\":1411:1428  courses[courseID] */\n      0x00\n        /* \"contracts/Registration.sol\":1419:1427  courseID */\n      dup6\n        /* \"contracts/Registration.sol\":1411:1428  courses[courseID] */\n      dup2\n      mstore\n      0x20\n      add\n      swap1\n      dup2\n      mstore\n      0x20\n      add\n      0x00\n      keccak256\n      sload\n        /* \"contracts/Registration.sol\":1411:1434  courses[courseID] <= 10 */\n      gt\n        /* \"contracts/Registration.sol\":1407:1532  if (courses[courseID] <= 10) {\r... */\n      tag_52\n      jumpi\n        /* \"contracts/Registration.sol\":1467:1469  SR */\n      mload(0x40)\n      dup1\n      0x60\n      add\n      0x40\n      mstore\n      dup1\n      0x2b\n      dup2\n      mstore\n      0x20\n      add\n      data_9687cf985cb6222715aaef6758d3670bafe2b0c2757af4d8855ddd35ba24781d\n      0x2b\n      swap2\n      codecopy\n        /* \"contracts/Registration.sol\":1451:1457  sender */\n      dup2\n        /* \"contracts/Registration.sol\":1451:1464  sender.result */\n      0x03\n      add\n        /* \"contracts/Registration.sol\":1451:1469  sender.result = SR */\n      swap1\n      dup1\n      mload\n      swap1\n      0x20\n      add\n      swap1\n      tag_53\n      swap3\n      swap2\n      swap1\n      tag_49\n      jump\t// in\n    tag_53:\n      pop\n        /* \"contracts/Registration.sol\":1407:1532  if (courses[courseID] <= 10) {\r... */\n      jump(tag_54)\n    tag_52:\n        /* \"contracts/Registration.sol\":1518:1520  WL */\n      mload(0x40)\n      dup1\n      0x60\n      add\n      0x40\n      mstore\n      dup1\n      0x23\n      dup2\n      mstore\n      0x20\n      add\n      data_5c70975c2b0c5530c20694c6c0aa88c9becbdbb0f8b71692471957c0e23ab5ce\n      0x23\n      swap2\n      codecopy\n        /* \"contracts/Registration.sol\":1502:1508  sender */\n      dup2\n        /* \"contracts/Registration.sol\":1502:1515  sender.result */\n      0x03\n      add\n        /* \"contracts/Registration.sol\":1502:1520  sender.result = WL */\n      swap1\n      dup1\n      mload\n      swap1\n      0x20\n      add\n      swap1\n      tag_55\n      swap3\n      swap2\n      swap1\n      tag_49\n      jump\t// in\n    tag_55:\n      pop\n        /* \"contracts/Registration.sol\":1407:1532  if (courses[courseID] <= 10) {\r... */\n    tag_54:\n        /* \"contracts/Registration.sol\":976:1539  {\r... */\n      pop\n        /* \"contracts/Registration.sol\":911:1539  function register(uint courseID, string memory studentID) public {\r... */\n      pop\n      pop\n      jump\t// out\n        /* \"contracts/Registration.sol\":533:575  mapping(address => Student) public student */\n    tag_25:\n      mstore(0x20, 0x00)\n      dup1\n      0x00\n      mstore\n      keccak256(0x00, 0x40)\n      0x00\n      swap2\n      pop\n      swap1\n      pop\n      dup1\n      0x00\n      add\n      0x00\n      swap1\n      sload\n      swap1\n      0x0100\n      exp\n      swap1\n      div\n      0xff\n      and\n      swap1\n      dup1\n      0x01\n      add\n      dup1\n      sload\n      tag_56\n      swap1\n      tag_33\n      jump\t// in\n    tag_56:\n      dup1\n      0x1f\n      add\n      0x20\n      dup1\n      swap2\n      div\n      mul\n      0x20\n      add\n      mload(0x40)\n      swap1\n      dup2\n      add\n      0x40\n      mstore\n      dup1\n      swap3\n      swap2\n      swap1\n      dup2\n      dup2\n      mstore\n      0x20\n      add\n      dup3\n      dup1\n      sload\n      tag_57\n      swap1\n      tag_33\n      jump\t// in\n    tag_57:\n      dup1\n      iszero\n      tag_58\n      jumpi\n      dup1\n      0x1f\n      lt\n      tag_59\n      jumpi\n      0x0100\n      dup1\n      dup4\n      sload\n      div\n      mul\n      dup4\n      mstore\n      swap2\n      0x20\n      add\n      swap2\n      jump(tag_58)\n    tag_59:\n      dup3\n      add\n      swap2\n      swap1\n      0x00\n      mstore\n      keccak256(0x00, 0x20)\n      swap1\n    tag_60:\n      dup2\n      sload\n      dup2\n      mstore\n      swap1\n      0x01\n      add\n      swap1\n      0x20\n      add\n      dup1\n      dup4\n      gt\n      tag_60\n      jumpi\n      dup3\n      swap1\n      sub\n      0x1f\n      and\n      dup3\n      add\n      swap2\n    tag_58:\n      pop\n      pop\n      pop\n      pop\n      pop\n      swap1\n      dup1\n      0x02\n      add\n      sload\n      swap1\n      dup1\n      0x03\n      add\n      dup1\n      sload\n      tag_61\n      swap1\n      tag_33\n      jump\t// in\n    tag_61:\n      dup1\n      0x1f\n      add\n      0x20\n      dup1\n      swap2\n      div\n      mul\n      0x20\n      add\n      mload(0x40)\n      swap1\n      dup2\n      add\n      0x40\n      mstore\n      dup1\n      swap3\n      swap2\n      swap1\n      dup2\n      dup2\n      mstore\n      0x20\n      add\n      dup3\n      dup1\n      sload\n      tag_62\n      swap1\n      tag_33\n      jump\t// in\n    tag_62:\n      dup1\n      iszero\n      tag_63\n      jumpi\n      dup1\n      0x1f\n      lt\n      tag_64\n      jumpi\n      0x0100\n      dup1\n      dup4\n      sload\n      div\n      mul\n      dup4\n      mstore\n      swap2\n      0x20\n      add\n      swap2\n      jump(tag_63)\n    tag_64:\n      dup3\n      add\n      swap2\n      swap1\n      0x00\n      mstore\n      keccak256(0x00, 0x20)\n      swap1\n    tag_65:\n      dup2\n      sload\n      dup2\n      mstore\n      swap1\n      0x01\n      add\n      swap1\n      0x20\n      add\n      dup1\n      dup4\n      gt\n      tag_65\n      jumpi\n      dup3\n      swap1\n      sub\n      0x1f\n      and\n      dup3\n      add\n      swap2\n    tag_63:\n      pop\n      pop\n      pop\n      pop\n      pop\n      swap1\n      pop\n      dup5\n      jump\t// out\n        /* \"contracts/Registration.sol\":2008:2147  function MostPopularCourseId() public view returns (uint mostPopularCourseId_){\r... */\n    tag_29:\n        /* \"contracts/Registration.sol\":2060:2085  uint mostPopularCourseId_ */\n      0x00\n        /* \"contracts/Registration.sol\":2120:2139  mostPopularCourse() */\n      tag_67\n        /* \"contracts/Registration.sol\":2120:2137  mostPopularCourse */\n      tag_68\n        /* \"contracts/Registration.sol\":2120:2139  mostPopularCourse() */\n      jump\t// in\n    tag_67:\n        /* \"contracts/Registration.sol\":2097:2139  mostPopularCourseId_ = mostPopularCourse() */\n      swap1\n      pop\n        /* \"contracts/Registration.sol\":2008:2147  function MostPopularCourseId() public view returns (uint mostPopularCourseId_){\r... */\n      swap1\n      jump\t// out\n        /* \"contracts/Registration.sol\":1588:1923  function mostPopularCourse() private view returns (uint mostPopularCourseID_) {\r... */\n    tag_68:\n        /* \"contracts/Registration.sol\":1639:1664  uint mostPopularCourseID_ */\n      0x00\n        /* \"contracts/Registration.sol\":1677:1700  uint winningCourseCount */\n      dup1\n        /* \"contracts/Registration.sol\":1703:1704  0 */\n      0x00\n        /* \"contracts/Registration.sol\":1677:1704  uint winningCourseCount = 0 */\n      swap1\n      pop\n        /* \"contracts/Registration.sol\":1720:1726  uint p */\n      0x00\n        /* \"contracts/Registration.sol\":1715:1916  for (uint p = 0; p < 5; p++) {\r... */\n    tag_70:\n        /* \"contracts/Registration.sol\":1736:1737  5 */\n      0x05\n        /* \"contracts/Registration.sol\":1732:1733  p */\n      dup2\n        /* \"contracts/Registration.sol\":1732:1737  p < 5 */\n      lt\n        /* \"contracts/Registration.sol\":1715:1916  for (uint p = 0; p < 5; p++) {\r... */\n      iszero\n      tag_71\n      jumpi\n        /* \"contracts/Registration.sol\":1776:1794  winningCourseCount */\n      dup2\n        /* \"contracts/Registration.sol\":1763:1770  courses */\n      0x01\n        /* \"contracts/Registration.sol\":1763:1773  courses[p] */\n      0x00\n        /* \"contracts/Registration.sol\":1771:1772  p */\n      dup4\n        /* \"contracts/Registration.sol\":1763:1773  courses[p] */\n      dup2\n      mstore\n      0x20\n      add\n      swap1\n      dup2\n      mstore\n      0x20\n      add\n      0x00\n      keccak256\n      sload\n        /* \"contracts/Registration.sol\":1763:1794  courses[p] > winningCourseCount */\n      gt\n        /* \"contracts/Registration.sol\":1759:1905  if (courses[p] > winningCourseCount) {\r... */\n      iszero\n      tag_73\n      jumpi\n        /* \"contracts/Registration.sol\":1836:1843  courses */\n      0x01\n        /* \"contracts/Registration.sol\":1836:1846  courses[p] */\n      0x00\n        /* \"contracts/Registration.sol\":1844:1845  p */\n      dup3\n        /* \"contracts/Registration.sol\":1836:1846  courses[p] */\n      dup2\n      mstore\n      0x20\n      add\n      swap1\n      dup2\n      mstore\n      0x20\n      add\n      0x00\n      keccak256\n      sload\n        /* \"contracts/Registration.sol\":1815:1846  winningCourseCount = courses[p] */\n      swap2\n      pop\n        /* \"contracts/Registration.sol\":1888:1889  p */\n      dup1\n        /* \"contracts/Registration.sol\":1865:1889  mostPopularCourseID_ = p */\n      swap3\n      pop\n        /* \"contracts/Registration.sol\":1759:1905  if (courses[p] > winningCourseCount) {\r... */\n    tag_73:\n        /* \"contracts/Registration.sol\":1739:1742  p++ */\n      dup1\n      dup1\n      tag_74\n      swap1\n      tag_75\n      jump\t// in\n    tag_74:\n      swap2\n      pop\n      pop\n        /* \"contracts/Registration.sol\":1715:1916  for (uint p = 0; p < 5; p++) {\r... */\n      jump(tag_70)\n    tag_71:\n      pop\n        /* \"contracts/Registration.sol\":1666:1923  {\r... */\n      pop\n        /* \"contracts/Registration.sol\":1588:1923  function mostPopularCourse() private view returns (uint mostPopularCourseID_) {\r... */\n      swap1\n      jump\t// out\n    tag_49:\n      dup3\n      dup1\n      sload\n      tag_76\n      swap1\n      tag_33\n      jump\t// in\n    tag_76:\n      swap1\n      0x00\n      mstore\n      keccak256(0x00, 0x20)\n      swap1\n      0x1f\n      add\n      0x20\n      swap1\n      div\n      dup2\n      add\n      swap3\n      dup3\n      tag_78\n      jumpi\n      0x00\n      dup6\n      sstore\n      jump(tag_77)\n    tag_78:\n      dup3\n      0x1f\n      lt\n      tag_79\n      jumpi\n      dup1\n      mload\n      not(0xff)\n      and\n      dup4\n      dup1\n      add\n      or\n      dup6\n      sstore\n      jump(tag_77)\n    tag_79:\n      dup3\n      dup1\n      add\n      0x01\n      add\n      dup6\n      sstore\n      dup3\n      iszero\n      tag_77\n      jumpi\n      swap2\n      dup3\n      add\n    tag_80:\n      dup3\n      dup2\n      gt\n      iszero\n      tag_81\n      jumpi\n      dup3\n      mload\n      dup3\n      sstore\n      swap2\n      0x20\n      add\n      swap2\n      swap1\n      0x01\n      add\n      swap1\n      jump(tag_80)\n    tag_81:\n    tag_77:\n      pop\n      swap1\n      pop\n      tag_82\n      swap2\n      swap1\n      tag_83\n      jump\t// in\n    tag_82:\n      pop\n      swap1\n      jump\t// out\n    tag_83:\n    tag_84:\n      dup1\n      dup3\n      gt\n      iszero\n      tag_85\n      jumpi\n      0x00\n      dup2\n      0x00\n      swap1\n      sstore\n      pop\n      0x01\n      add\n      jump(tag_84)\n    tag_85:\n      pop\n      swap1\n      jump\t// out\n        /* \"#utility.yul\":7:419   */\n    tag_87:\n        /* \"#utility.yul\":85:90   */\n      0x00\n        /* \"#utility.yul\":110:176   */\n      tag_89\n        /* \"#utility.yul\":126:175   */\n      tag_90\n        /* \"#utility.yul\":168:174   */\n      dup5\n        /* \"#utility.yul\":126:175   */\n      tag_91\n      jump\t// in\n    tag_90:\n        /* \"#utility.yul\":110:176   */\n      tag_92\n      jump\t// in\n    tag_89:\n        /* \"#utility.yul\":101:176   */\n      swap1\n      pop\n        /* \"#utility.yul\":199:205   */\n      dup3\n        /* \"#utility.yul\":192:197   */\n      dup2\n        /* \"#utility.yul\":185:206   */\n      mstore\n        /* \"#utility.yul\":237:241   */\n      0x20\n        /* \"#utility.yul\":230:235   */\n      dup2\n        /* \"#utility.yul\":226:242   */\n      add\n        /* \"#utility.yul\":275:278   */\n      dup5\n        /* \"#utility.yul\":266:272   */\n      dup5\n        /* \"#utility.yul\":261:264   */\n      dup5\n        /* \"#utility.yul\":257:273   */\n      add\n        /* \"#utility.yul\":254:279   */\n      gt\n        /* \"#utility.yul\":251:363   */\n      iszero\n      tag_93\n      jumpi\n        /* \"#utility.yul\":282:361   */\n      tag_94\n      tag_95\n      jump\t// in\n    tag_94:\n        /* \"#utility.yul\":251:363   */\n    tag_93:\n        /* \"#utility.yul\":372:413   */\n      tag_96\n        /* \"#utility.yul\":406:412   */\n      dup5\n        /* \"#utility.yul\":401:404   */\n      dup3\n        /* \"#utility.yul\":396:399   */\n      dup6\n        /* \"#utility.yul\":372:413   */\n      tag_97\n      jump\t// in\n    tag_96:\n        /* \"#utility.yul\":91:419   */\n      pop\n        /* \"#utility.yul\":7:419   */\n      swap4\n      swap3\n      pop\n      pop\n      pop\n      jump\t// out\n        /* \"#utility.yul\":425:564   */\n    tag_98:\n        /* \"#utility.yul\":471:476   */\n      0x00\n        /* \"#utility.yul\":509:515   */\n      dup2\n        /* \"#utility.yul\":496:516   */\n      calldataload\n        /* \"#utility.yul\":487:516   */\n      swap1\n      pop\n        /* \"#utility.yul\":525:558   */\n      tag_100\n        /* \"#utility.yul\":552:557   */\n      dup2\n        /* \"#utility.yul\":525:558   */\n      tag_101\n      jump\t// in\n    tag_100:\n        /* \"#utility.yul\":425:564   */\n      swap3\n      swap2\n      pop\n      pop\n      jump\t// out\n        /* \"#utility.yul\":584:924   */\n    tag_102:\n        /* \"#utility.yul\":640:645   */\n      0x00\n        /* \"#utility.yul\":689:692   */\n      dup3\n        /* \"#utility.yul\":682:686   */\n      0x1f\n        /* \"#utility.yul\":674:680   */\n      dup4\n        /* \"#utility.yul\":670:687   */\n      add\n        /* \"#utility.yul\":666:693   */\n      slt\n        /* \"#utility.yul\":656:778   */\n      tag_104\n      jumpi\n        /* \"#utility.yul\":697:776   */\n      tag_105\n      tag_106\n      jump\t// in\n    tag_105:\n        /* \"#utility.yul\":656:778   */\n    tag_104:\n        /* \"#utility.yul\":814:820   */\n      dup2\n        /* \"#utility.yul\":801:821   */\n      calldataload\n        /* \"#utility.yul\":839:918   */\n      tag_107\n        /* \"#utility.yul\":914:917   */\n      dup5\n        /* \"#utility.yul\":906:912   */\n      dup3\n        /* \"#utility.yul\":899:903   */\n      0x20\n        /* \"#utility.yul\":891:897   */\n      dup7\n        /* \"#utility.yul\":887:904   */\n      add\n        /* \"#utility.yul\":839:918   */\n      tag_87\n      jump\t// in\n    tag_107:\n        /* \"#utility.yul\":830:918   */\n      swap2\n      pop\n        /* \"#utility.yul\":646:924   */\n      pop\n        /* \"#utility.yul\":584:924   */\n      swap3\n      swap2\n      pop\n      pop\n      jump\t// out\n        /* \"#utility.yul\":930:1069   */\n    tag_108:\n        /* \"#utility.yul\":976:981   */\n      0x00\n        /* \"#utility.yul\":1014:1020   */\n      dup2\n        /* \"#utility.yul\":1001:1021   */\n      calldataload\n        /* \"#utility.yul\":992:1021   */\n      swap1\n      pop\n        /* \"#utility.yul\":1030:1063   */\n      tag_110\n        /* \"#utility.yul\":1057:1062   */\n      dup2\n        /* \"#utility.yul\":1030:1063   */\n      tag_111\n      jump\t// in\n    tag_110:\n        /* \"#utility.yul\":930:1069   */\n      swap3\n      swap2\n      pop\n      pop\n      jump\t// out\n        /* \"#utility.yul\":1075:1404   */\n    tag_24:\n        /* \"#utility.yul\":1134:1140   */\n      0x00\n        /* \"#utility.yul\":1183:1185   */\n      0x20\n        /* \"#utility.yul\":1171:1180   */\n      dup3\n        /* \"#utility.yul\":1162:1169   */\n      dup5\n        /* \"#utility.yul\":1158:1181   */\n      sub\n        /* \"#utility.yul\":1154:1186   */\n      slt\n        /* \"#utility.yul\":1151:1270   */\n      iszero\n      tag_113\n      jumpi\n        /* \"#utility.yul\":1189:1268   */\n      tag_114\n      tag_115\n      jump\t// in\n    tag_114:\n        /* \"#utility.yul\":1151:1270   */\n    tag_113:\n        /* \"#utility.yul\":1309:1310   */\n      0x00\n        /* \"#utility.yul\":1334:1387   */\n      tag_116\n        /* \"#utility.yul\":1379:1386   */\n      dup5\n        /* \"#utility.yul\":1370:1376   */\n      dup3\n        /* \"#utility.yul\":1359:1368   */\n      dup6\n        /* \"#utility.yul\":1355:1377   */\n      add\n        /* \"#utility.yul\":1334:1387   */\n      tag_98\n      jump\t// in\n    tag_116:\n        /* \"#utility.yul\":1324:1387   */\n      swap2\n      pop\n        /* \"#utility.yul\":1280:1397   */\n      pop\n        /* \"#utility.yul\":1075:1404   */\n      swap3\n      swap2\n      pop\n      pop\n      jump\t// out\n        /* \"#utility.yul\":1410:1739   */\n    tag_14:\n        /* \"#utility.yul\":1469:1475   */\n      0x00\n        /* \"#utility.yul\":1518:1520   */\n      0x20\n        /* \"#utility.yul\":1506:1515   */\n      dup3\n        /* \"#utility.yul\":1497:1504   */\n      dup5\n        /* \"#utility.yul\":1493:1516   */\n      sub\n        /* \"#utility.yul\":1489:1521   */\n      slt\n        /* \"#utility.yul\":1486:1605   */\n      iszero\n      tag_118\n      jumpi\n        /* \"#utility.yul\":1524:1603   */\n      tag_119\n      tag_115\n      jump\t// in\n    tag_119:\n        /* \"#utility.yul\":1486:1605   */\n    tag_118:\n        /* \"#utility.yul\":1644:1645   */\n      0x00\n        /* \"#utility.yul\":1669:1722   */\n      tag_120\n        /* \"#utility.yul\":1714:1721   */\n      dup5\n        /* \"#utility.yul\":1705:1711   */\n      dup3\n        /* \"#utility.yul\":1694:1703   */\n      dup6\n        /* \"#utility.yul\":1690:1712   */\n      add\n        /* \"#utility.yul\":1669:1722   */\n      tag_108\n      jump\t// in\n    tag_120:\n        /* \"#utility.yul\":1659:1722   */\n      swap2\n      pop\n        /* \"#utility.yul\":1615:1732   */\n      pop\n        /* \"#utility.yul\":1410:1739   */\n      swap3\n      swap2\n      pop\n      pop\n      jump\t// out\n        /* \"#utility.yul\":1745:2399   */\n    tag_20:\n        /* \"#utility.yul\":1823:1829   */\n      0x00\n        /* \"#utility.yul\":1831:1837   */\n      dup1\n        /* \"#utility.yul\":1880:1882   */\n      0x40\n        /* \"#utility.yul\":1868:1877   */\n      dup4\n        /* \"#utility.yul\":1859:1866   */\n      dup6\n        /* \"#utility.yul\":1855:1878   */\n      sub\n        /* \"#utility.yul\":1851:1883   */\n      slt\n        /* \"#utility.yul\":1848:1967   */\n      iszero\n      tag_122\n      jumpi\n        /* \"#utility.yul\":1886:1965   */\n      tag_123\n      tag_115\n      jump\t// in\n    tag_123:\n        /* \"#utility.yul\":1848:1967   */\n    tag_122:\n        /* \"#utility.yul\":2006:2007   */\n      0x00\n        /* \"#utility.yul\":2031:2084   */\n      tag_124\n        /* \"#utility.yul\":2076:2083   */\n      dup6\n        /* \"#utility.yul\":2067:2073   */\n      dup3\n        /* \"#utility.yul\":2056:2065   */\n      dup7\n        /* \"#utility.yul\":2052:2074   */\n      add\n        /* \"#utility.yul\":2031:2084   */\n      tag_108\n      jump\t// in\n    tag_124:\n        /* \"#utility.yul\":2021:2084   */\n      swap3\n      pop\n        /* \"#utility.yul\":1977:2094   */\n      pop\n        /* \"#utility.yul\":2161:2163   */\n      0x20\n        /* \"#utility.yul\":2150:2159   */\n      dup4\n        /* \"#utility.yul\":2146:2164   */\n      add\n        /* \"#utility.yul\":2133:2165   */\n      calldataload\n        /* \"#utility.yul\":2192:2210   */\n      0xffffffffffffffff\n        /* \"#utility.yul\":2184:2190   */\n      dup2\n        /* \"#utility.yul\":2181:2211   */\n      gt\n        /* \"#utility.yul\":2178:2295   */\n      iszero\n      tag_125\n      jumpi\n        /* \"#utility.yul\":2214:2293   */\n      tag_126\n      tag_127\n      jump\t// in\n    tag_126:\n        /* \"#utility.yul\":2178:2295   */\n    tag_125:\n        /* \"#utility.yul\":2319:2382   */\n      tag_128\n        /* \"#utility.yul\":2374:2381   */\n      dup6\n        /* \"#utility.yul\":2365:2371   */\n      dup3\n        /* \"#utility.yul\":2354:2363   */\n      dup7\n        /* \"#utility.yul\":2350:2372   */\n      add\n        /* \"#utility.yul\":2319:2382   */\n      tag_102\n      jump\t// in\n    tag_128:\n        /* \"#utility.yul\":2309:2382   */\n      swap2\n      pop\n        /* \"#utility.yul\":2104:2392   */\n      pop\n        /* \"#utility.yul\":1745:2399   */\n      swap3\n      pop\n      swap3\n      swap1\n      pop\n      jump\t// out\n        /* \"#utility.yul\":2405:2514   */\n    tag_129:\n        /* \"#utility.yul\":2486:2507   */\n      tag_131\n        /* \"#utility.yul\":2501:2506   */\n      dup2\n        /* \"#utility.yul\":2486:2507   */\n      tag_132\n      jump\t// in\n    tag_131:\n        /* \"#utility.yul\":2481:2484   */\n      dup3\n        /* \"#utility.yul\":2474:2508   */\n      mstore\n        /* \"#utility.yul\":2405:2514   */\n      pop\n      pop\n      jump\t// out\n        /* \"#utility.yul\":2520:2884   */\n    tag_133:\n        /* \"#utility.yul\":2608:2611   */\n      0x00\n        /* \"#utility.yul\":2636:2675   */\n      tag_135\n        /* \"#utility.yul\":2669:2674   */\n      dup3\n        /* \"#utility.yul\":2636:2675   */\n      tag_136\n      jump\t// in\n    tag_135:\n        /* \"#utility.yul\":2691:2762   */\n      tag_137\n        /* \"#utility.yul\":2755:2761   */\n      dup2\n        /* \"#utility.yul\":2750:2753   */\n      dup6\n        /* \"#utility.yul\":2691:2762   */\n      tag_138\n      jump\t// in\n    tag_137:\n        /* \"#utility.yul\":2684:2762   */\n      swap4\n      pop\n        /* \"#utility.yul\":2771:2823   */\n      tag_139\n        /* \"#utility.yul\":2816:2822   */\n      dup2\n        /* \"#utility.yul\":2811:2814   */\n      dup6\n        /* \"#utility.yul\":2804:2808   */\n      0x20\n        /* \"#utility.yul\":2797:2802   */\n      dup7\n        /* \"#utility.yul\":2793:2809   */\n      add\n        /* \"#utility.yul\":2771:2823   */\n      tag_140\n      jump\t// in\n    tag_139:\n        /* \"#utility.yul\":2848:2877   */\n      tag_141\n        /* \"#utility.yul\":2870:2876   */\n      dup2\n        /* \"#utility.yul\":2848:2877   */\n      tag_142\n      jump\t// in\n    tag_141:\n        /* \"#utility.yul\":2843:2846   */\n      dup5\n        /* \"#utility.yul\":2839:2878   */\n      add\n        /* \"#utility.yul\":2832:2878   */\n      swap2\n      pop\n        /* \"#utility.yul\":2612:2884   */\n      pop\n        /* \"#utility.yul\":2520:2884   */\n      swap3\n      swap2\n      pop\n      pop\n      jump\t// out\n        /* \"#utility.yul\":2890:3256   */\n    tag_143:\n        /* \"#utility.yul\":3032:3035   */\n      0x00\n        /* \"#utility.yul\":3053:3120   */\n      tag_145\n        /* \"#utility.yul\":3117:3119   */\n      0x21\n        /* \"#utility.yul\":3112:3115   */\n      dup4\n        /* \"#utility.yul\":3053:3120   */\n      tag_138\n      jump\t// in\n    tag_145:\n        /* \"#utility.yul\":3046:3120   */\n      swap2\n      pop\n        /* \"#utility.yul\":3129:3222   */\n      tag_146\n        /* \"#utility.yul\":3218:3221   */\n      dup3\n        /* \"#utility.yul\":3129:3222   */\n      tag_147\n      jump\t// in\n    tag_146:\n        /* \"#utility.yul\":3247:3249   */\n      0x40\n        /* \"#utility.yul\":3242:3245   */\n      dup3\n        /* \"#utility.yul\":3238:3250   */\n      add\n        /* \"#utility.yul\":3231:3250   */\n      swap1\n      pop\n        /* \"#utility.yul\":2890:3256   */\n      swap2\n      swap1\n      pop\n      jump\t// out\n        /* \"#utility.yul\":3262:3628   */\n    tag_148:\n        /* \"#utility.yul\":3404:3407   */\n      0x00\n        /* \"#utility.yul\":3425:3492   */\n      tag_150\n        /* \"#utility.yul\":3489:3491   */\n      0x18\n        /* \"#utility.yul\":3484:3487   */\n      dup4\n        /* \"#utility.yul\":3425:3492   */\n      tag_138\n      jump\t// in\n    tag_150:\n        /* \"#utility.yul\":3418:3492   */\n      swap2\n      pop\n        /* \"#utility.yul\":3501:3594   */\n      tag_151\n        /* \"#utility.yul\":3590:3593   */\n      dup3\n        /* \"#utility.yul\":3501:3594   */\n      tag_152\n      jump\t// in\n    tag_151:\n        /* \"#utility.yul\":3619:3621   */\n      0x20\n        /* \"#utility.yul\":3614:3617   */\n      dup3\n        /* \"#utility.yul\":3610:3622   */\n      add\n        /* \"#utility.yul\":3603:3622   */\n      swap1\n      pop\n        /* \"#utility.yul\":3262:3628   */\n      swap2\n      swap1\n      pop\n      jump\t// out\n        /* \"#utility.yul\":3634:4000   */\n    tag_153:\n        /* \"#utility.yul\":3776:3779   */\n      0x00\n        /* \"#utility.yul\":3797:3864   */\n      tag_155\n        /* \"#utility.yul\":3861:3863   */\n      0x24\n        /* \"#utility.yul\":3856:3859   */\n      dup4\n        /* \"#utility.yul\":3797:3864   */\n      tag_138\n      jump\t// in\n    tag_155:\n        /* \"#utility.yul\":3790:3864   */\n      swap2\n      pop\n        /* \"#utility.yul\":3873:3966   */\n      tag_156\n        /* \"#utility.yul\":3962:3965   */\n      dup3\n        /* \"#utility.yul\":3873:3966   */\n      tag_157\n      jump\t// in\n    tag_156:\n        /* \"#utility.yul\":3991:3993   */\n      0x40\n        /* \"#utility.yul\":3986:3989   */\n      dup3\n        /* \"#utility.yul\":3982:3994   */\n      add\n        /* \"#utility.yul\":3975:3994   */\n      swap1\n      pop\n        /* \"#utility.yul\":3634:4000   */\n      swap2\n      swap1\n      pop\n      jump\t// out\n        /* \"#utility.yul\":4006:4124   */\n    tag_158:\n        /* \"#utility.yul\":4093:4117   */\n      tag_160\n        /* \"#utility.yul\":4111:4116   */\n      dup2\n        /* \"#utility.yul\":4093:4117   */\n      tag_161\n      jump\t// in\n    tag_160:\n        /* \"#utility.yul\":4088:4091   */\n      dup3\n        /* \"#utility.yul\":4081:4118   */\n      mstore\n        /* \"#utility.yul\":4006:4124   */\n      pop\n      pop\n      jump\t// out\n        /* \"#utility.yul\":4130:4853   */\n    tag_27:\n        /* \"#utility.yul\":4341:4345   */\n      0x00\n        /* \"#utility.yul\":4379:4382   */\n      0x80\n        /* \"#utility.yul\":4368:4377   */\n      dup3\n        /* \"#utility.yul\":4364:4383   */\n      add\n        /* \"#utility.yul\":4356:4383   */\n      swap1\n      pop\n        /* \"#utility.yul\":4393:4458   */\n      tag_163\n        /* \"#utility.yul\":4455:4456   */\n      0x00\n        /* \"#utility.yul\":4444:4453   */\n      dup4\n        /* \"#utility.yul\":4440:4457   */\n      add\n        /* \"#utility.yul\":4431:4437   */\n      dup8\n        /* \"#utility.yul\":4393:4458   */\n      tag_129\n      jump\t// in\n    tag_163:\n        /* \"#utility.yul\":4505:4514   */\n      dup2\n        /* \"#utility.yul\":4499:4503   */\n      dup2\n        /* \"#utility.yul\":4495:4515   */\n      sub\n        /* \"#utility.yul\":4490:4492   */\n      0x20\n        /* \"#utility.yul\":4479:4488   */\n      dup4\n        /* \"#utility.yul\":4475:4493   */\n      add\n        /* \"#utility.yul\":4468:4516   */\n      mstore\n        /* \"#utility.yul\":4533:4611   */\n      tag_164\n        /* \"#utility.yul\":4606:4610   */\n      dup2\n        /* \"#utility.yul\":4597:4603   */\n      dup7\n        /* \"#utility.yul\":4533:4611   */\n      tag_133\n      jump\t// in\n    tag_164:\n        /* \"#utility.yul\":4525:4611   */\n      swap1\n      pop\n        /* \"#utility.yul\":4621:4693   */\n      tag_165\n        /* \"#utility.yul\":4689:4691   */\n      0x40\n        /* \"#utility.yul\":4678:4687   */\n      dup4\n        /* \"#utility.yul\":4674:4692   */\n      add\n        /* \"#utility.yul\":4665:4671   */\n      dup6\n        /* \"#utility.yul\":4621:4693   */\n      tag_158\n      jump\t// in\n    tag_165:\n        /* \"#utility.yul\":4740:4749   */\n      dup2\n        /* \"#utility.yul\":4734:4738   */\n      dup2\n        /* \"#utility.yul\":4730:4750   */\n      sub\n        /* \"#utility.yul\":4725:4727   */\n      0x60\n        /* \"#utility.yul\":4714:4723   */\n      dup4\n        /* \"#utility.yul\":4710:4728   */\n      add\n        /* \"#utility.yul\":4703:4751   */\n      mstore\n        /* \"#utility.yul\":4768:4846   */\n      tag_166\n        /* \"#utility.yul\":4841:4845   */\n      dup2\n        /* \"#utility.yul\":4832:4838   */\n      dup5\n        /* \"#utility.yul\":4768:4846   */\n      tag_133\n      jump\t// in\n    tag_166:\n        /* \"#utility.yul\":4760:4846   */\n      swap1\n      pop\n        /* \"#utility.yul\":4130:4853   */\n      swap6\n      swap5\n      pop\n      pop\n      pop\n      pop\n      pop\n      jump\t// out\n        /* \"#utility.yul\":4859:5172   */\n    tag_11:\n        /* \"#utility.yul\":4972:4976   */\n      0x00\n        /* \"#utility.yul\":5010:5012   */\n      0x20\n        /* \"#utility.yul\":4999:5008   */\n      dup3\n        /* \"#utility.yul\":4995:5013   */\n      add\n        /* \"#utility.yul\":4987:5013   */\n      swap1\n      pop\n        /* \"#utility.yul\":5059:5068   */\n      dup2\n        /* \"#utility.yul\":5053:5057   */\n      dup2\n        /* \"#utility.yul\":5049:5069   */\n      sub\n        /* \"#utility.yul\":5045:5046   */\n      0x00\n        /* \"#utility.yul\":5034:5043   */\n      dup4\n        /* \"#utility.yul\":5030:5047   */\n      add\n        /* \"#utility.yul\":5023:5070   */\n      mstore\n        /* \"#utility.yul\":5087:5165   */\n      tag_168\n        /* \"#utility.yul\":5160:5164   */\n      dup2\n        /* \"#utility.yul\":5151:5157   */\n      dup5\n        /* \"#utility.yul\":5087:5165   */\n      tag_133\n      jump\t// in\n    tag_168:\n        /* \"#utility.yul\":5079:5165   */\n      swap1\n      pop\n        /* \"#utility.yul\":4859:5172   */\n      swap3\n      swap2\n      pop\n      pop\n      jump\t// out\n        /* \"#utility.yul\":5178:5597   */\n    tag_44:\n        /* \"#utility.yul\":5344:5348   */\n      0x00\n        /* \"#utility.yul\":5382:5384   */\n      0x20\n        /* \"#utility.yul\":5371:5380   */\n      dup3\n        /* \"#utility.yul\":5367:5385   */\n      add\n        /* \"#utility.yul\":5359:5385   */\n      swap1\n      pop\n        /* \"#utility.yul\":5431:5440   */\n      dup2\n        /* \"#utility.yul\":5425:5429   */\n      dup2\n        /* \"#utility.yul\":5421:5441   */\n      sub\n        /* \"#utility.yul\":5417:5418   */\n      0x00\n        /* \"#utility.yul\":5406:5415   */\n      dup4\n        /* \"#utility.yul\":5402:5419   */\n      add\n        /* \"#utility.yul\":5395:5442   */\n      mstore\n        /* \"#utility.yul\":5459:5590   */\n      tag_170\n        /* \"#utility.yul\":5585:5589   */\n      dup2\n        /* \"#utility.yul\":5459:5590   */\n      tag_143\n      jump\t// in\n    tag_170:\n        /* \"#utility.yul\":5451:5590   */\n      swap1\n      pop\n        /* \"#utility.yul\":5178:5597   */\n      swap2\n      swap1\n      pop\n      jump\t// out\n        /* \"#utility.yul\":5603:6022   */\n    tag_47:\n        /* \"#utility.yul\":5769:5773   */\n      0x00\n        /* \"#utility.yul\":5807:5809   */\n      0x20\n        /* \"#utility.yul\":5796:5805   */\n      dup3\n        /* \"#utility.yul\":5792:5810   */\n      add\n        /* \"#utility.yul\":5784:5810   */\n      swap1\n      pop\n        /* \"#utility.yul\":5856:5865   */\n      dup2\n        /* \"#utility.yul\":5850:5854   */\n      dup2\n        /* \"#utility.yul\":5846:5866   */\n      sub\n        /* \"#utility.yul\":5842:5843   */\n      0x00\n        /* \"#utility.yul\":5831:5840   */\n      dup4\n        /* \"#utility.yul\":5827:5844   */\n      add\n        /* \"#utility.yul\":5820:5867   */\n      mstore\n        /* \"#utility.yul\":5884:6015   */\n      tag_172\n        /* \"#utility.yul\":6010:6014   */\n      dup2\n        /* \"#utility.yul\":5884:6015   */\n      tag_148\n      jump\t// in\n    tag_172:\n        /* \"#utility.yul\":5876:6015   */\n      swap1\n      pop\n        /* \"#utility.yul\":5603:6022   */\n      swap2\n      swap1\n      pop\n      jump\t// out\n        /* \"#utility.yul\":6028:6447   */\n    tag_41:\n        /* \"#utility.yul\":6194:6198   */\n      0x00\n        /* \"#utility.yul\":6232:6234   */\n      0x20\n        /* \"#utility.yul\":6221:6230   */\n      dup3\n        /* \"#utility.yul\":6217:6235   */\n      add\n        /* \"#utility.yul\":6209:6235   */\n      swap1\n      pop\n        /* \"#utility.yul\":6281:6290   */\n      dup2\n        /* \"#utility.yul\":6275:6279   */\n      dup2\n        /* \"#utility.yul\":6271:6291   */\n      sub\n        /* \"#utility.yul\":6267:6268   */\n      0x00\n        /* \"#utility.yul\":6256:6265   */\n      dup4\n        /* \"#utility.yul\":6252:6269   */\n      add\n        /* \"#utility.yul\":6245:6292   */\n      mstore\n        /* \"#utility.yul\":6309:6440   */\n      tag_174\n        /* \"#utility.yul\":6435:6439   */\n      dup2\n        /* \"#utility.yul\":6309:6440   */\n      tag_153\n      jump\t// in\n    tag_174:\n        /* \"#utility.yul\":6301:6440   */\n      swap1\n      pop\n        /* \"#utility.yul\":6028:6447   */\n      swap2\n      swap1\n      pop\n      jump\t// out\n        /* \"#utility.yul\":6453:6675   */\n    tag_17:\n        /* \"#utility.yul\":6546:6550   */\n      0x00\n        /* \"#utility.yul\":6584:6586   */\n      0x20\n        /* \"#utility.yul\":6573:6582   */\n      dup3\n        /* \"#utility.yul\":6569:6587   */\n      add\n        /* \"#utility.yul\":6561:6587   */\n      swap1\n      pop\n        /* \"#utility.yul\":6597:6668   */\n      tag_176\n        /* \"#utility.yul\":6665:6666   */\n      0x00\n        /* \"#utility.yul\":6654:6663   */\n      dup4\n        /* \"#utility.yul\":6650:6667   */\n      add\n        /* \"#utility.yul\":6641:6647   */\n      dup5\n        /* \"#utility.yul\":6597:6668   */\n      tag_158\n      jump\t// in\n    tag_176:\n        /* \"#utility.yul\":6453:6675   */\n      swap3\n      swap2\n      pop\n      pop\n      jump\t// out\n        /* \"#utility.yul\":6681:6810   */\n    tag_92:\n        /* \"#utility.yul\":6715:6721   */\n      0x00\n        /* \"#utility.yul\":6742:6762   */\n      tag_178\n      tag_179\n      jump\t// in\n    tag_178:\n        /* \"#utility.yul\":6732:6762   */\n      swap1\n      pop\n        /* \"#utility.yul\":6771:6804   */\n      tag_180\n        /* \"#utility.yul\":6799:6803   */\n      dup3\n        /* \"#utility.yul\":6791:6797   */\n      dup3\n        /* \"#utility.yul\":6771:6804   */\n      tag_181\n      jump\t// in\n    tag_180:\n        /* \"#utility.yul\":6681:6810   */\n      swap2\n      swap1\n      pop\n      jump\t// out\n        /* \"#utility.yul\":6816:6891   */\n    tag_179:\n        /* \"#utility.yul\":6849:6855   */\n      0x00\n        /* \"#utility.yul\":6882:6884   */\n      0x40\n        /* \"#utility.yul\":6876:6885   */\n      mload\n        /* \"#utility.yul\":6866:6885   */\n      swap1\n      pop\n        /* \"#utility.yul\":6816:6891   */\n      swap1\n      jump\t// out\n        /* \"#utility.yul\":6897:7205   */\n    tag_91:\n        /* \"#utility.yul\":6959:6963   */\n      0x00\n        /* \"#utility.yul\":7049:7067   */\n      0xffffffffffffffff\n        /* \"#utility.yul\":7041:7047   */\n      dup3\n        /* \"#utility.yul\":7038:7068   */\n      gt\n        /* \"#utility.yul\":7035:7091   */\n      iszero\n      tag_184\n      jumpi\n        /* \"#utility.yul\":7071:7089   */\n      tag_185\n      tag_186\n      jump\t// in\n    tag_185:\n        /* \"#utility.yul\":7035:7091   */\n    tag_184:\n        /* \"#utility.yul\":7109:7138   */\n      tag_187\n        /* \"#utility.yul\":7131:7137   */\n      dup3\n        /* \"#utility.yul\":7109:7138   */\n      tag_142\n      jump\t// in\n    tag_187:\n        /* \"#utility.yul\":7101:7138   */\n      swap1\n      pop\n        /* \"#utility.yul\":7193:7197   */\n      0x20\n        /* \"#utility.yul\":7187:7191   */\n      dup2\n        /* \"#utility.yul\":7183:7198   */\n      add\n        /* \"#utility.yul\":7175:7198   */\n      swap1\n      pop\n        /* \"#utility.yul\":6897:7205   */\n      swap2\n      swap1\n      pop\n      jump\t// out\n        /* \"#utility.yul\":7211:7310   */\n    tag_136:\n        /* \"#utility.yul\":7263:7269   */\n      0x00\n        /* \"#utility.yul\":7297:7302   */\n      dup2\n        /* \"#utility.yul\":7291:7303   */\n      mload\n        /* \"#utility.yul\":7281:7303   */\n      swap1\n      pop\n        /* \"#utility.yul\":7211:7310   */\n      swap2\n      swap1\n      pop\n      jump\t// out\n        /* \"#utility.yul\":7316:7485   */\n    tag_138:\n        /* \"#utility.yul\":7400:7411   */\n      0x00\n        /* \"#utility.yul\":7434:7440   */\n      dup3\n        /* \"#utility.yul\":7429:7432   */\n      dup3\n        /* \"#utility.yul\":7422:7441   */\n      mstore\n        /* \"#utility.yul\":7474:7478   */\n      0x20\n        /* \"#utility.yul\":7469:7472   */\n      dup3\n        /* \"#utility.yul\":7465:7479   */\n      add\n        /* \"#utility.yul\":7450:7479   */\n      swap1\n      pop\n        /* \"#utility.yul\":7316:7485   */\n      swap3\n      swap2\n      pop\n      pop\n      jump\t// out\n        /* \"#utility.yul\":7491:7796   */\n    tag_51:\n        /* \"#utility.yul\":7531:7534   */\n      0x00\n        /* \"#utility.yul\":7550:7570   */\n      tag_191\n        /* \"#utility.yul\":7568:7569   */\n      dup3\n        /* \"#utility.yul\":7550:7570   */\n      tag_161\n      jump\t// in\n    tag_191:\n        /* \"#utility.yul\":7545:7570   */\n      swap2\n      pop\n        /* \"#utility.yul\":7584:7604   */\n      tag_192\n        /* \"#utility.yul\":7602:7603   */\n      dup4\n        /* \"#utility.yul\":7584:7604   */\n      tag_161\n      jump\t// in\n    tag_192:\n        /* \"#utility.yul\":7579:7604   */\n      swap3\n      pop\n        /* \"#utility.yul\":7738:7739   */\n      dup3\n        /* \"#utility.yul\":7670:7736   */\n      0xffffffffffffffffffffffffffffffffffffffffffffffffffffffffffffffff\n        /* \"#utility.yul\":7666:7740   */\n      sub\n        /* \"#utility.yul\":7663:7664   */\n      dup3\n        /* \"#utility.yul\":7660:7741   */\n      gt\n        /* \"#utility.yul\":7657:7764   */\n      iszero\n      tag_193\n      jumpi\n        /* \"#utility.yul\":7744:7762   */\n      tag_194\n      tag_195\n      jump\t// in\n    tag_194:\n        /* \"#utility.yul\":7657:7764   */\n    tag_193:\n        /* \"#utility.yul\":7788:7789   */\n      dup3\n        /* \"#utility.yul\":7785:7786   */\n      dup3\n        /* \"#utility.yul\":7781:7790   */\n      add\n        /* \"#utility.yul\":7774:7790   */\n      swap1\n      pop\n        /* \"#utility.yul\":7491:7796   */\n      swap3\n      swap2\n      pop\n      pop\n      jump\t// out\n        /* \"#utility.yul\":7802:7898   */\n    tag_196:\n        /* \"#utility.yul\":7839:7846   */\n      0x00\n        /* \"#utility.yul\":7868:7892   */\n      tag_198\n        /* \"#utility.yul\":7886:7891   */\n      dup3\n        /* \"#utility.yul\":7868:7892   */\n      tag_199\n      jump\t// in\n    tag_198:\n        /* \"#utility.yul\":7857:7892   */\n      swap1\n      pop\n        /* \"#utility.yul\":7802:7898   */\n      swap2\n      swap1\n      pop\n      jump\t// out\n        /* \"#utility.yul\":7904:7994   */\n    tag_132:\n        /* \"#utility.yul\":7938:7945   */\n      0x00\n        /* \"#utility.yul\":7981:7986   */\n      dup2\n        /* \"#utility.yul\":7974:7987   */\n      iszero\n        /* \"#utility.yul\":7967:7988   */\n      iszero\n        /* \"#utility.yul\":7956:7988   */\n      swap1\n      pop\n        /* \"#utility.yul\":7904:7994   */\n      swap2\n      swap1\n      pop\n      jump\t// out\n        /* \"#utility.yul\":8000:8126   */\n    tag_199:\n        /* \"#utility.yul\":8037:8044   */\n      0x00\n        /* \"#utility.yul\":8077:8119   */\n      0xffffffffffffffffffffffffffffffffffffffff\n        /* \"#utility.yul\":8070:8075   */\n      dup3\n        /* \"#utility.yul\":8066:8120   */\n      and\n        /* \"#utility.yul\":8055:8120   */\n      swap1\n      pop\n        /* \"#utility.yul\":8000:8126   */\n      swap2\n      swap1\n      pop\n      jump\t// out\n        /* \"#utility.yul\":8132:8209   */\n    tag_161:\n        /* \"#utility.yul\":8169:8176   */\n      0x00\n        /* \"#utility.yul\":8198:8203   */\n      dup2\n        /* \"#utility.yul\":8187:8203   */\n      swap1\n      pop\n        /* \"#utility.yul\":8132:8209   */\n      swap2\n      swap1\n      pop\n      jump\t// out\n        /* \"#utility.yul\":8215:8369   */\n    tag_97:\n        /* \"#utility.yul\":8299:8305   */\n      dup3\n        /* \"#utility.yul\":8294:8297   */\n      dup2\n        /* \"#utility.yul\":8289:8292   */\n      dup4\n        /* \"#utility.yul\":8276:8306   */\n      calldatacopy\n        /* \"#utility.yul\":8361:8362   */\n      0x00\n        /* \"#utility.yul\":8352:8358   */\n      dup4\n        /* \"#utility.yul\":8347:8350   */\n      dup4\n        /* \"#utility.yul\":8343:8359   */\n      add\n        /* \"#utility.yul\":8336:8363   */\n      mstore\n        /* \"#utility.yul\":8215:8369   */\n      pop\n      pop\n      pop\n      jump\t// out\n        /* \"#utility.yul\":8375:8682   */\n    tag_140:\n        /* \"#utility.yul\":8443:8444   */\n      0x00\n        /* \"#utility.yul\":8453:8566   */\n    tag_205:\n        /* \"#utility.yul\":8467:8473   */\n      dup4\n        /* \"#utility.yul\":8464:8465   */\n      dup2\n        /* \"#utility.yul\":8461:8474   */\n      lt\n        /* \"#utility.yul\":8453:8566   */\n      iszero\n      tag_207\n      jumpi\n        /* \"#utility.yul\":8552:8553   */\n      dup1\n        /* \"#utility.yul\":8547:8550   */\n      dup3\n        /* \"#utility.yul\":8543:8554   */\n      add\n        /* \"#utility.yul\":8537:8555   */\n      mload\n        /* \"#utility.yul\":8533:8534   */\n      dup2\n        /* \"#utility.yul\":8528:8531   */\n      dup5\n        /* \"#utility.yul\":8524:8535   */\n      add\n        /* \"#utility.yul\":8517:8556   */\n      mstore\n        /* \"#utility.yul\":8489:8491   */\n      0x20\n        /* \"#utility.yul\":8486:8487   */\n      dup2\n        /* \"#utility.yul\":8482:8492   */\n      add\n        /* \"#utility.yul\":8477:8492   */\n      swap1\n      pop\n        /* \"#utility.yul\":8453:8566   */\n      jump(tag_205)\n    tag_207:\n        /* \"#utility.yul\":8584:8590   */\n      dup4\n        /* \"#utility.yul\":8581:8582   */\n      dup2\n        /* \"#utility.yul\":8578:8591   */\n      gt\n        /* \"#utility.yul\":8575:8676   */\n      iszero\n      tag_208\n      jumpi\n        /* \"#utility.yul\":8664:8665   */\n      0x00\n        /* \"#utility.yul\":8655:8661   */\n      dup5\n        /* \"#utility.yul\":8650:8653   */\n      dup5\n        /* \"#utility.yul\":8646:8662   */\n      add\n        /* \"#utility.yul\":8639:8666   */\n      mstore\n        /* \"#utility.yul\":8575:8676   */\n    tag_208:\n        /* \"#utility.yul\":8424:8682   */\n      pop\n        /* \"#utility.yul\":8375:8682   */\n      pop\n      pop\n      pop\n      jump\t// out\n        /* \"#utility.yul\":8688:9008   */\n    tag_33:\n        /* \"#utility.yul\":8732:8738   */\n      0x00\n        /* \"#utility.yul\":8769:8770   */\n      0x02\n        /* \"#utility.yul\":8763:8767   */\n      dup3\n        /* \"#utility.yul\":8759:8771   */\n      div\n        /* \"#utility.yul\":8749:8771   */\n      swap1\n      pop\n        /* \"#utility.yul\":8816:8817   */\n      0x01\n        /* \"#utility.yul\":8810:8814   */\n      dup3\n        /* \"#utility.yul\":8806:8818   */\n      and\n        /* \"#utility.yul\":8837:8855   */\n      dup1\n        /* \"#utility.yul\":8827:8908   */\n      tag_210\n      jumpi\n        /* \"#utility.yul\":8893:8897   */\n      0x7f\n        /* \"#utility.yul\":8885:8891   */\n      dup3\n        /* \"#utility.yul\":8881:8898   */\n      and\n        /* \"#utility.yul\":8871:8898   */\n      swap2\n      pop\n        /* \"#utility.yul\":8827:8908   */\n    tag_210:\n        /* \"#utility.yul\":8955:8957   */\n      0x20\n        /* \"#utility.yul\":8947:8953   */\n      dup3\n        /* \"#utility.yul\":8944:8958   */\n      lt\n        /* \"#utility.yul\":8924:8942   */\n      dup2\n        /* \"#utility.yul\":8921:8959   */\n      eq\n        /* \"#utility.yul\":8918:9002   */\n      iszero\n      tag_211\n      jumpi\n        /* \"#utility.yul\":8974:8992   */\n      tag_212\n      tag_213\n      jump\t// in\n    tag_212:\n        /* \"#utility.yul\":8918:9002   */\n    tag_211:\n        /* \"#utility.yul\":8739:9008   */\n      pop\n        /* \"#utility.yul\":8688:9008   */\n      swap2\n      swap1\n      pop\n      jump\t// out\n        /* \"#utility.yul\":9014:9295   */\n    tag_181:\n        /* \"#utility.yul\":9097:9124   */\n      tag_215\n        /* \"#utility.yul\":9119:9123   */\n      dup3\n        /* \"#utility.yul\":9097:9124   */\n      tag_142\n      jump\t// in\n    tag_215:\n        /* \"#utility.yul\":9089:9095   */\n      dup2\n        /* \"#utility.yul\":9085:9125   */\n      add\n        /* \"#utility.yul\":9227:9233   */\n      dup2\n        /* \"#utility.yul\":9215:9225   */\n      dup2\n        /* \"#utility.yul\":9212:9234   */\n      lt\n        /* \"#utility.yul\":9191:9209   */\n      0xffffffffffffffff\n        /* \"#utility.yul\":9179:9189   */\n      dup3\n        /* \"#utility.yul\":9176:9210   */\n      gt\n        /* \"#utility.yul\":9173:9235   */\n      or\n        /* \"#utility.yul\":9170:9258   */\n      iszero\n      tag_216\n      jumpi\n        /* \"#utility.yul\":9238:9256   */\n      tag_217\n      tag_186\n      jump\t// in\n    tag_217:\n        /* \"#utility.yul\":9170:9258   */\n    tag_216:\n        /* \"#utility.yul\":9278:9288   */\n      dup1\n        /* \"#utility.yul\":9274:9276   */\n      0x40\n        /* \"#utility.yul\":9267:9289   */\n      mstore\n        /* \"#utility.yul\":9057:9295   */\n      pop\n        /* \"#utility.yul\":9014:9295   */\n      pop\n      pop\n      jump\t// out\n        /* \"#utility.yul\":9301:9534   */\n    tag_75:\n        /* \"#utility.yul\":9340:9343   */\n      0x00\n        /* \"#utility.yul\":9363:9387   */\n      tag_219\n        /* \"#utility.yul\":9381:9386   */\n      dup3\n        /* \"#utility.yul\":9363:9387   */\n      tag_161\n      jump\t// in\n    tag_219:\n        /* \"#utility.yul\":9354:9387   */\n      swap2\n      pop\n        /* \"#utility.yul\":9409:9475   */\n      0xffffffffffffffffffffffffffffffffffffffffffffffffffffffffffffffff\n        /* \"#utility.yul\":9402:9407   */\n      dup3\n        /* \"#utility.yul\":9399:9476   */\n      eq\n        /* \"#utility.yul\":9396:9499   */\n      iszero\n      tag_220\n      jumpi\n        /* \"#utility.yul\":9479:9497   */\n      tag_221\n      tag_195\n      jump\t// in\n    tag_221:\n        /* \"#utility.yul\":9396:9499   */\n    tag_220:\n        /* \"#utility.yul\":9526:9527   */\n      0x01\n        /* \"#utility.yul\":9519:9524   */\n      dup3\n        /* \"#utility.yul\":9515:9528   */\n      add\n        /* \"#utility.yul\":9508:9528   */\n      swap1\n      pop\n        /* \"#utility.yul\":9301:9534   */\n      swap2\n      swap1\n      pop\n      jump\t// out\n        /* \"#utility.yul\":9540:9720   */\n    tag_195:\n        /* \"#utility.yul\":9588:9665   */\n      0x4e487b7100000000000000000000000000000000000000000000000000000000\n        /* \"#utility.yul\":9585:9586   */\n      0x00\n        /* \"#utility.yul\":9578:9666   */\n      mstore\n        /* \"#utility.yul\":9685:9689   */\n      0x11\n        /* \"#utility.yul\":9682:9683   */\n      0x04\n        /* \"#utility.yul\":9675:9690   */\n      mstore\n        /* \"#utility.yul\":9709:9713   */\n      0x24\n        /* \"#utility.yul\":9706:9707   */\n      0x00\n        /* \"#utility.yul\":9699:9714   */\n      revert\n        /* \"#utility.yul\":9726:9906   */\n    tag_213:\n        /* \"#utility.yul\":9774:9851   */\n      0x4e487b7100000000000000000000000000000000000000000000000000000000\n        /* \"#utility.yul\":9771:9772   */\n      0x00\n        /* \"#utility.yul\":9764:9852   */\n      mstore\n        /* \"#utility.yul\":9871:9875   */\n      0x22\n        /* \"#utility.yul\":9868:9869   */\n      0x04\n        /* \"#utility.yul\":9861:9876   */\n      mstore\n        /* \"#utility.yul\":9895:9899   */\n      0x24\n        /* \"#utility.yul\":9892:9893   */\n      0x00\n        /* \"#utility.yul\":9885:9900   */\n      revert\n        /* \"#utility.yul\":9912:10092   */\n    tag_186:\n        /* \"#utility.yul\":9960:10037   */\n      0x4e487b7100000000000000000000000000000000000000000000000000000000\n        /* \"#utility.yul\":9957:9958   */\n      0x00\n        /* \"#utility.yul\":9950:10038   */\n      mstore\n        /* \"#utility.yul\":10057:10061   */\n      0x41\n        /* \"#utility.yul\":10054:10055   */\n      0x04\n        /* \"#utility.yul\":10047:10062   */\n      mstore\n        /* \"#utility.yul\":10081:10085   */\n      0x24\n        /* \"#utility.yul\":10078:10079   */\n      0x00\n        /* \"#utility.yul\":10071:10086   */\n      revert\n        /* \"#utility.yul\":10098:10215   */\n    tag_106:\n        /* \"#utility.yul\":10207:10208   */\n      0x00\n        /* \"#utility.yul\":10204:10205   */\n      dup1\n        /* \"#utility.yul\":10197:10209   */\n      revert\n        /* \"#utility.yul\":10221:10338   */\n    tag_95:\n        /* \"#utility.yul\":10330:10331   */\n      0x00\n        /* \"#utility.yul\":10327:10328   */\n      dup1\n        /* \"#utility.yul\":10320:10332   */\n      revert\n        /* \"#utility.yul\":10344:10461   */\n    tag_127:\n        /* \"#utility.yul\":10453:10454   */\n      0x00\n        /* \"#utility.yul\":10450:10451   */\n      dup1\n        /* \"#utility.yul\":10443:10455   */\n      revert\n        /* \"#utility.yul\":10467:10584   */\n    tag_115:\n        /* \"#utility.yul\":10576:10577   */\n      0x00\n        /* \"#utility.yul\":10573:10574   */\n      dup1\n        /* \"#utility.yul\":10566:10578   */\n      revert\n        /* \"#utility.yul\":10590:10692   */\n    tag_142:\n        /* \"#utility.yul\":10631:10637   */\n      0x00\n        /* \"#utility.yul\":10682:10684   */\n      0x1f\n        /* \"#utility.yul\":10678:10685   */\n      not\n        /* \"#utility.yul\":10673:10675   */\n      0x1f\n        /* \"#utility.yul\":10666:10671   */\n      dup4\n        /* \"#utility.yul\":10662:10676   */\n      add\n        /* \"#utility.yul\":10658:10686   */\n      and\n        /* \"#utility.yul\":10648:10686   */\n      swap1\n      pop\n        /* \"#utility.yul\":10590:10692   */\n      swap2\n      swap1\n      pop\n      jump\t// out\n        /* \"#utility.yul\":10698:10918   */\n    tag_147:\n        /* \"#utility.yul\":10838:10872   */\n      0x546865206964206d757374206265206c657373206f7220657175616c20746f20\n        /* \"#utility.yul\":10834:10835   */\n      0x00\n        /* \"#utility.yul\":10826:10832   */\n      dup3\n        /* \"#utility.yul\":10822:10836   */\n      add\n        /* \"#utility.yul\":10815:10873   */\n      mstore\n        /* \"#utility.yul\":10907:10910   */\n      0x3400000000000000000000000000000000000000000000000000000000000000\n        /* \"#utility.yul\":10902:10904   */\n      0x20\n        /* \"#utility.yul\":10894:10900   */\n      dup3\n        /* \"#utility.yul\":10890:10905   */\n      add\n        /* \"#utility.yul\":10883:10911   */\n      mstore\n        /* \"#utility.yul\":10698:10918   */\n      pop\n      jump\t// out\n        /* \"#utility.yul\":10924:11098   */\n    tag_152:\n        /* \"#utility.yul\":11064:11090   */\n      0x416c72656164792063686f6f7365206120636f757273652e0000000000000000\n        /* \"#utility.yul\":11060:11061   */\n      0x00\n        /* \"#utility.yul\":11052:11058   */\n      dup3\n        /* \"#utility.yul\":11048:11062   */\n      add\n        /* \"#utility.yul\":11041:11091   */\n      mstore\n        /* \"#utility.yul\":10924:11098   */\n      pop\n      jump\t// out\n        /* \"#utility.yul\":11104:11327   */\n    tag_157:\n        /* \"#utility.yul\":11244:11278   */\n      0x546865206964206d7573742062652067726561746572206f7220657175616c20\n        /* \"#utility.yul\":11240:11241   */\n      0x00\n        /* \"#utility.yul\":11232:11238   */\n      dup3\n        /* \"#utility.yul\":11228:11242   */\n      add\n        /* \"#utility.yul\":11221:11279   */\n      mstore\n        /* \"#utility.yul\":11313:11319   */\n      0x746f203000000000000000000000000000000000000000000000000000000000\n        /* \"#utility.yul\":11308:11310   */\n      0x20\n        /* \"#utility.yul\":11300:11306   */\n      dup3\n        /* \"#utility.yul\":11296:11311   */\n      add\n        /* \"#utility.yul\":11289:11320   */\n      mstore\n        /* \"#utility.yul\":11104:11327   */\n      pop\n      jump\t// out\n        /* \"#utility.yul\":11333:11455   */\n    tag_101:\n        /* \"#utility.yul\":11406:11430   */\n      tag_234\n        /* \"#utility.yul\":11424:11429   */\n      dup2\n        /* \"#utility.yul\":11406:11430   */\n      tag_196\n      jump\t// in\n    tag_234:\n        /* \"#utility.yul\":11399:11404   */\n      dup2\n        /* \"#utility.yul\":11396:11431   */\n      eq\n        /* \"#utility.yul\":11386:11449   */\n      tag_235\n      jumpi\n        /* \"#utility.yul\":11445:11446   */\n      0x00\n        /* \"#utility.yul\":11442:11443   */\n      dup1\n        /* \"#utility.yul\":11435:11447   */\n      revert\n        /* \"#utility.yul\":11386:11449   */\n    tag_235:\n        /* \"#utility.yul\":11333:11455   */\n      pop\n      jump\t// out\n        /* \"#utility.yul\":11461:11583   */\n    tag_111:\n        /* \"#utility.yul\":11534:11558   */\n      tag_237\n        /* \"#utility.yul\":11552:11557   */\n      dup2\n        /* \"#utility.yul\":11534:11558   */\n      tag_161\n      jump\t// in\n    tag_237:\n        /* \"#utility.yul\":11527:11532   */\n      dup2\n        /* \"#utility.yul\":11524:11559   */\n      eq\n        /* \"#utility.yul\":11514:11577   */\n      tag_238\n      jumpi\n        /* \"#utility.yul\":11573:11574   */\n      0x00\n        /* \"#utility.yul\":11570:11571   */\n      dup1\n        /* \"#utility.yul\":11563:11575   */\n      revert\n        /* \"#utility.yul\":11514:11577   */\n    tag_238:\n        /* \"#utility.yul\":11461:11583   */\n      pop\n      jump\t// out\n    stop\n    data_5c70975c2b0c5530c20694c6c0aa88c9becbdbb0f8b71692471957c0e23ab5ce 5b303030315d20596f752061726520696e207468652077616974696e67206c69737421\n    data_9687cf985cb6222715aaef6758d3670bafe2b0c2757af4d8855ddd35ba24781d 5b303030305d20596f752072656769737465722074686520636f75727365207375636365737366756c6c79\n\n    auxdata: 0xa2646970667358221220989a212e885d7e53b21083d89f723d742a9af6d17a2052c7a388ca8487f8cbfa64736f6c63430008070033\n}\n",
				"bytecode": {
					"linkReferences": {},
					"object": "608060405234801561001057600080fd5b5060005b60058110156100495760006001600083815260200190815260200160002081905550808061004190610059565b915050610014565b506100d1565b6000819050919050565b60006100648261004f565b91507fffffffffffffffffffffffffffffffffffffffffffffffffffffffffffffffff821415610097576100966100a2565b5b600182019050919050565b7f4e487b7100000000000000000000000000000000000000000000000000000000600052601160045260246000fd5b610d9b806100e06000396000f3fe608060405234801561001057600080fd5b50600436106100575760003560e01c8063653721471461005c57806396f979d21461007a578063a00fd3c8146100aa578063daadd00f146100c6578063e6f7eb7c146100f9575b600080fd5b610064610117565b60405161007191906108d5565b60405180910390f35b610094600480360381019061008f9190610739565b6101ee565b6040516100a19190610957565b60405180910390f35b6100c460048036038101906100bf9190610766565b610206565b005b6100e060048036038101906100db919061070c565b610413565b6040516100f09493929190610882565b60405180910390f35b610101610560565b60405161010e9190610957565b60405180910390f35b606060008060003373ffffffffffffffffffffffffffffffffffffffff1673ffffffffffffffffffffffffffffffffffffffff168152602001908152602001600020905080600301805461016a90610ac4565b80601f016020809104026020016040519081016040528092919081815260200182805461019690610ac4565b80156101e35780601f106101b8576101008083540402835291602001916101e3565b820191906000526020600020905b8154815290600101906020018083116101c657829003601f168201915b505050505091505090565b60016020528060005260406000206000915090505481565b600082101561024a576040517f08c379a000000000000000000000000000000000000000000000000000000000815260040161024190610937565b60405180910390fd5b600482111561028e576040517f08c379a0000000000000000000000000000000000000000000000000000000008152600401610285906108f7565b60405180910390fd5b60008060003373ffffffffffffffffffffffffffffffffffffffff1673ffffffffffffffffffffffffffffffffffffffff16815260200190815260200160002090508060000160009054906101000a900460ff1615610322576040517f08c379a000000000000000000000000000000000000000000000000000000000815260040161031990610917565b60405180910390fd5b60018160000160006101000a81548160ff021916908315150217905550818160010190805190602001906103579291906105cf565b508281600201819055506001806000858152602001908152602001600020600082825461038491906109e4565b92505081905550600a6001600085815260200190815260200160002054116103dc576040518060600160405280602b8152602001610d3b602b91398160030190805190602001906103d69291906105cf565b5061040e565b604051806060016040528060238152602001610d186023913981600301908051906020019061040c9291906105cf565b505b505050565b60006020528060005260406000206000915090508060000160009054906101000a900460ff169080600101805461044990610ac4565b80601f016020809104026020016040519081016040528092919081815260200182805461047590610ac4565b80156104c25780601f10610497576101008083540402835291602001916104c2565b820191906000526020600020905b8154815290600101906020018083116104a557829003601f168201915b5050505050908060020154908060030180546104dd90610ac4565b80601f016020809104026020016040519081016040528092919081815260200182805461050990610ac4565b80156105565780601f1061052b57610100808354040283529160200191610556565b820191906000526020600020905b81548152906001019060200180831161053957829003601f168201915b5050505050905084565b600061056a61056f565b905090565b6000806000905060005b60058110156105ca5781600160008381526020019081526020016000205411156105b757600160008281526020019081526020016000205491508092505b80806105c290610b27565b915050610579565b505090565b8280546105db90610ac4565b90600052602060002090601f0160209004810192826105fd5760008555610644565b82601f1061061657805160ff1916838001178555610644565b82800160010185558215610644579182015b82811115610643578251825591602001919060010190610628565b5b5090506106519190610655565b5090565b5b8082111561066e576000816000905550600101610656565b5090565b600061068561068084610997565b610972565b9050828152602081018484840111156106a1576106a0610c02565b5b6106ac848285610a82565b509392505050565b6000813590506106c381610ce9565b92915050565b600082601f8301126106de576106dd610bfd565b5b81356106ee848260208601610672565b91505092915050565b60008135905061070681610d00565b92915050565b60006020828403121561072257610721610c0c565b5b6000610730848285016106b4565b91505092915050565b60006020828403121561074f5761074e610c0c565b5b600061075d848285016106f7565b91505092915050565b6000806040838503121561077d5761077c610c0c565b5b600061078b858286016106f7565b925050602083013567ffffffffffffffff8111156107ac576107ab610c07565b5b6107b8858286016106c9565b9150509250929050565b6107cb81610a4c565b82525050565b60006107dc826109c8565b6107e681856109d3565b93506107f6818560208601610a91565b6107ff81610c11565b840191505092915050565b60006108176021836109d3565b915061082282610c22565b604082019050919050565b600061083a6018836109d3565b915061084582610c71565b602082019050919050565b600061085d6024836109d3565b915061086882610c9a565b604082019050919050565b61087c81610a78565b82525050565b600060808201905061089760008301876107c2565b81810360208301526108a981866107d1565b90506108b86040830185610873565b81810360608301526108ca81846107d1565b905095945050505050565b600060208201905081810360008301526108ef81846107d1565b905092915050565b600060208201905081810360008301526109108161080a565b9050919050565b600060208201905081810360008301526109308161082d565b9050919050565b6000602082019050818103600083015261095081610850565b9050919050565b600060208201905061096c6000830184610873565b92915050565b600061097c61098d565b90506109888282610af6565b919050565b6000604051905090565b600067ffffffffffffffff8211156109b2576109b1610bce565b5b6109bb82610c11565b9050602081019050919050565b600081519050919050565b600082825260208201905092915050565b60006109ef82610a78565b91506109fa83610a78565b9250827fffffffffffffffffffffffffffffffffffffffffffffffffffffffffffffffff03821115610a2f57610a2e610b70565b5b828201905092915050565b6000610a4582610a58565b9050919050565b60008115159050919050565b600073ffffffffffffffffffffffffffffffffffffffff82169050919050565b6000819050919050565b82818337600083830152505050565b60005b83811015610aaf578082015181840152602081019050610a94565b83811115610abe576000848401525b50505050565b60006002820490506001821680610adc57607f821691505b60208210811415610af057610aef610b9f565b5b50919050565b610aff82610c11565b810181811067ffffffffffffffff82111715610b1e57610b1d610bce565b5b80604052505050565b6000610b3282610a78565b91507fffffffffffffffffffffffffffffffffffffffffffffffffffffffffffffffff821415610b6557610b64610b70565b5b600182019050919050565b7f4e487b7100000000000000000000000000000000000000000000000000000000600052601160045260246000fd5b7f4e487b7100000000000000000000000000000000000000000000000000000000600052602260045260246000fd5b7f4e487b7100000000000000000000000000000000000000000000000000000000600052604160045260246000fd5b600080fd5b600080fd5b600080fd5b600080fd5b6000601f19601f8301169050919050565b7f546865206964206d757374206265206c657373206f7220657175616c20746f2060008201527f3400000000000000000000000000000000000000000000000000000000000000602082015250565b7f416c72656164792063686f6f7365206120636f757273652e0000000000000000600082015250565b7f546865206964206d7573742062652067726561746572206f7220657175616c2060008201527f746f203000000000000000000000000000000000000000000000000000000000602082015250565b610cf281610a3a565b8114610cfd57600080fd5b50565b610d0981610a78565b8114610d1457600080fd5b5056fe5b303030315d20596f752061726520696e207468652077616974696e67206c697374215b303030305d20596f752072656769737465722074686520636f75727365207375636365737366756c6c79a2646970667358221220989a212e885d7e53b21083d89f723d742a9af6d17a2052c7a388ca8487f8cbfa64736f6c63430008070033",
					"opcodes": "PUSH1 0x80 PUSH1 0x40 MSTORE CALLVALUE DUP1 ISZERO PUSH2 0x10 JUMPI PUSH1 0x0 DUP1 REVERT JUMPDEST POP PUSH1 0x0 JUMPDEST PUSH1 0x5 DUP2 LT ISZERO PUSH2 0x49 JUMPI PUSH1 0x0 PUSH1 0x1 PUSH1 0x0 DUP4 DUP2 MSTORE PUSH1 0x20 ADD SWAP1 DUP2 MSTORE PUSH1 0x20 ADD PUSH1 0x0 KECCAK256 DUP2 SWAP1 SSTORE POP DUP1 DUP1 PUSH2 0x41 SWAP1 PUSH2 0x59 JUMP JUMPDEST SWAP2 POP POP PUSH2 0x14 JUMP JUMPDEST POP PUSH2 0xD1 JUMP JUMPDEST PUSH1 0x0 DUP2 SWAP1 POP SWAP2 SWAP1 POP JUMP JUMPDEST PUSH1 0x0 PUSH2 0x64 DUP3 PUSH2 0x4F JUMP JUMPDEST SWAP2 POP PUSH32 0xFFFFFFFFFFFFFFFFFFFFFFFFFFFFFFFFFFFFFFFFFFFFFFFFFFFFFFFFFFFFFFFF DUP3 EQ ISZERO PUSH2 0x97 JUMPI PUSH2 0x96 PUSH2 0xA2 JUMP JUMPDEST JUMPDEST PUSH1 0x1 DUP3 ADD SWAP1 POP SWAP2 SWAP1 POP JUMP JUMPDEST PUSH32 0x4E487B7100000000000000000000000000000000000000000000000000000000 PUSH1 0x0 MSTORE PUSH1 0x11 PUSH1 0x4 MSTORE PUSH1 0x24 PUSH1 0x0 REVERT JUMPDEST PUSH2 0xD9B DUP1 PUSH2 0xE0 PUSH1 0x0 CODECOPY PUSH1 0x0 RETURN INVALID PUSH1 0x80 PUSH1 0x40 MSTORE CALLVALUE DUP1 ISZERO PUSH2 0x10 JUMPI PUSH1 0x0 DUP1 REVERT JUMPDEST POP PUSH1 0x4 CALLDATASIZE LT PUSH2 0x57 JUMPI PUSH1 0x0 CALLDATALOAD PUSH1 0xE0 SHR DUP1 PUSH4 0x65372147 EQ PUSH2 0x5C JUMPI DUP1 PUSH4 0x96F979D2 EQ PUSH2 0x7A JUMPI DUP1 PUSH4 0xA00FD3C8 EQ PUSH2 0xAA JUMPI DUP1 PUSH4 0xDAADD00F EQ PUSH2 0xC6 JUMPI DUP1 PUSH4 0xE6F7EB7C EQ PUSH2 0xF9 JUMPI JUMPDEST PUSH1 0x0 DUP1 REVERT JUMPDEST PUSH2 0x64 PUSH2 0x117 JUMP JUMPDEST PUSH1 0x40 MLOAD PUSH2 0x71 SWAP2 SWAP1 PUSH2 0x8D5 JUMP JUMPDEST PUSH1 0x40 MLOAD DUP1 SWAP2 SUB SWAP1 RETURN JUMPDEST PUSH2 0x94 PUSH1 0x4 DUP1 CALLDATASIZE SUB DUP2 ADD SWAP1 PUSH2 0x8F SWAP2 SWAP1 PUSH2 0x739 JUMP JUMPDEST PUSH2 0x1EE JUMP JUMPDEST PUSH1 0x40 MLOAD PUSH2 0xA1 SWAP2 SWAP1 PUSH2 0x957 JUMP JUMPDEST PUSH1 0x40 MLOAD DUP1 SWAP2 SUB SWAP1 RETURN JUMPDEST PUSH2 0xC4 PUSH1 0x4 DUP1 CALLDATASIZE SUB DUP2 ADD SWAP1 PUSH2 0xBF SWAP2 SWAP1 PUSH2 0x766 JUMP JUMPDEST PUSH2 0x206 JUMP JUMPDEST STOP JUMPDEST PUSH2 0xE0 PUSH1 0x4 DUP1 CALLDATASIZE SUB DUP2 ADD SWAP1 PUSH2 0xDB SWAP2 SWAP1 PUSH2 0x70C JUMP JUMPDEST PUSH2 0x413 JUMP JUMPDEST PUSH1 0x40 MLOAD PUSH2 0xF0 SWAP5 SWAP4 SWAP3 SWAP2 SWAP1 PUSH2 0x882 JUMP JUMPDEST PUSH1 0x40 MLOAD DUP1 SWAP2 SUB SWAP1 RETURN JUMPDEST PUSH2 0x101 PUSH2 0x560 JUMP JUMPDEST PUSH1 0x40 MLOAD PUSH2 0x10E SWAP2 SWAP1 PUSH2 0x957 JUMP JUMPDEST PUSH1 0x40 MLOAD DUP1 SWAP2 SUB SWAP1 RETURN JUMPDEST PUSH1 0x60 PUSH1 0x0 DUP1 PUSH1 0x0 CALLER PUSH20 0xFFFFFFFFFFFFFFFFFFFFFFFFFFFFFFFFFFFFFFFF AND PUSH20 0xFFFFFFFFFFFFFFFFFFFFFFFFFFFFFFFFFFFFFFFF AND DUP2 MSTORE PUSH1 0x20 ADD SWAP1 DUP2 MSTORE PUSH1 0x20 ADD PUSH1 0x0 KECCAK256 SWAP1 POP DUP1 PUSH1 0x3 ADD DUP1 SLOAD PUSH2 0x16A SWAP1 PUSH2 0xAC4 JUMP JUMPDEST DUP1 PUSH1 0x1F ADD PUSH1 0x20 DUP1 SWAP2 DIV MUL PUSH1 0x20 ADD PUSH1 0x40 MLOAD SWAP1 DUP2 ADD PUSH1 0x40 MSTORE DUP1 SWAP3 SWAP2 SWAP1 DUP2 DUP2 MSTORE PUSH1 0x20 ADD DUP3 DUP1 SLOAD PUSH2 0x196 SWAP1 PUSH2 0xAC4 JUMP JUMPDEST DUP1 ISZERO PUSH2 0x1E3 JUMPI DUP1 PUSH1 0x1F LT PUSH2 0x1B8 JUMPI PUSH2 0x100 DUP1 DUP4 SLOAD DIV MUL DUP4 MSTORE SWAP2 PUSH1 0x20 ADD SWAP2 PUSH2 0x1E3 JUMP JUMPDEST DUP3 ADD SWAP2 SWAP1 PUSH1 0x0 MSTORE PUSH1 0x20 PUSH1 0x0 KECCAK256 SWAP1 JUMPDEST DUP2 SLOAD DUP2 MSTORE SWAP1 PUSH1 0x1 ADD SWAP1 PUSH1 0x20 ADD DUP1 DUP4 GT PUSH2 0x1C6 JUMPI DUP3 SWAP1 SUB PUSH1 0x1F AND DUP3 ADD SWAP2 JUMPDEST POP POP POP POP POP SWAP2 POP POP SWAP1 JUMP JUMPDEST PUSH1 0x1 PUSH1 0x20 MSTORE DUP1 PUSH1 0x0 MSTORE PUSH1 0x40 PUSH1 0x0 KECCAK256 PUSH1 0x0 SWAP2 POP SWAP1 POP SLOAD DUP2 JUMP JUMPDEST PUSH1 0x0 DUP3 LT ISZERO PUSH2 0x24A JUMPI PUSH1 0x40 MLOAD PUSH32 0x8C379A000000000000000000000000000000000000000000000000000000000 DUP2 MSTORE PUSH1 0x4 ADD PUSH2 0x241 SWAP1 PUSH2 0x937 JUMP JUMPDEST PUSH1 0x40 MLOAD DUP1 SWAP2 SUB SWAP1 REVERT JUMPDEST PUSH1 0x4 DUP3 GT ISZERO PUSH2 0x28E JUMPI PUSH1 0x40 MLOAD PUSH32 0x8C379A000000000000000000000000000000000000000000000000000000000 DUP2 MSTORE PUSH1 0x4 ADD PUSH2 0x285 SWAP1 PUSH2 0x8F7 JUMP JUMPDEST PUSH1 0x40 MLOAD DUP1 SWAP2 SUB SWAP1 REVERT JUMPDEST PUSH1 0x0 DUP1 PUSH1 0x0 CALLER PUSH20 0xFFFFFFFFFFFFFFFFFFFFFFFFFFFFFFFFFFFFFFFF AND PUSH20 0xFFFFFFFFFFFFFFFFFFFFFFFFFFFFFFFFFFFFFFFF AND DUP2 MSTORE PUSH1 0x20 ADD SWAP1 DUP2 MSTORE PUSH1 0x20 ADD PUSH1 0x0 KECCAK256 SWAP1 POP DUP1 PUSH1 0x0 ADD PUSH1 0x0 SWAP1 SLOAD SWAP1 PUSH2 0x100 EXP SWAP1 DIV PUSH1 0xFF AND ISZERO PUSH2 0x322 JUMPI PUSH1 0x40 MLOAD PUSH32 0x8C379A000000000000000000000000000000000000000000000000000000000 DUP2 MSTORE PUSH1 0x4 ADD PUSH2 0x319 SWAP1 PUSH2 0x917 JUMP JUMPDEST PUSH1 0x40 MLOAD DUP1 SWAP2 SUB SWAP1 REVERT JUMPDEST PUSH1 0x1 DUP2 PUSH1 0x0 ADD PUSH1 0x0 PUSH2 0x100 EXP DUP2 SLOAD DUP2 PUSH1 0xFF MUL NOT AND SWAP1 DUP4 ISZERO ISZERO MUL OR SWAP1 SSTORE POP DUP2 DUP2 PUSH1 0x1 ADD SWAP1 DUP1 MLOAD SWAP1 PUSH1 0x20 ADD SWAP1 PUSH2 0x357 SWAP3 SWAP2 SWAP1 PUSH2 0x5CF JUMP JUMPDEST POP DUP3 DUP2 PUSH1 0x2 ADD DUP2 SWAP1 SSTORE POP PUSH1 0x1 DUP1 PUSH1 0x0 DUP6 DUP2 MSTORE PUSH1 0x20 ADD SWAP1 DUP2 MSTORE PUSH1 0x20 ADD PUSH1 0x0 KECCAK256 PUSH1 0x0 DUP3 DUP3 SLOAD PUSH2 0x384 SWAP2 SWAP1 PUSH2 0x9E4 JUMP JUMPDEST SWAP3 POP POP DUP2 SWAP1 SSTORE POP PUSH1 0xA PUSH1 0x1 PUSH1 0x0 DUP6 DUP2 MSTORE PUSH1 0x20 ADD SWAP1 DUP2 MSTORE PUSH1 0x20 ADD PUSH1 0x0 KECCAK256 SLOAD GT PUSH2 0x3DC JUMPI PUSH1 0x40 MLOAD DUP1 PUSH1 0x60 ADD PUSH1 0x40 MSTORE DUP1 PUSH1 0x2B DUP2 MSTORE PUSH1 0x20 ADD PUSH2 0xD3B PUSH1 0x2B SWAP2 CODECOPY DUP2 PUSH1 0x3 ADD SWAP1 DUP1 MLOAD SWAP1 PUSH1 0x20 ADD SWAP1 PUSH2 0x3D6 SWAP3 SWAP2 SWAP1 PUSH2 0x5CF JUMP JUMPDEST POP PUSH2 0x40E JUMP JUMPDEST PUSH1 0x40 MLOAD DUP1 PUSH1 0x60 ADD PUSH1 0x40 MSTORE DUP1 PUSH1 0x23 DUP2 MSTORE PUSH1 0x20 ADD PUSH2 0xD18 PUSH1 0x23 SWAP2 CODECOPY DUP2 PUSH1 0x3 ADD SWAP1 DUP1 MLOAD SWAP1 PUSH1 0x20 ADD SWAP1 PUSH2 0x40C SWAP3 SWAP2 SWAP1 PUSH2 0x5CF JUMP JUMPDEST POP JUMPDEST POP POP POP JUMP JUMPDEST PUSH1 0x0 PUSH1 0x20 MSTORE DUP1 PUSH1 0x0 MSTORE PUSH1 0x40 PUSH1 0x0 KECCAK256 PUSH1 0x0 SWAP2 POP SWAP1 POP DUP1 PUSH1 0x0 ADD PUSH1 0x0 SWAP1 SLOAD SWAP1 PUSH2 0x100 EXP SWAP1 DIV PUSH1 0xFF AND SWAP1 DUP1 PUSH1 0x1 ADD DUP1 SLOAD PUSH2 0x449 SWAP1 PUSH2 0xAC4 JUMP JUMPDEST DUP1 PUSH1 0x1F ADD PUSH1 0x20 DUP1 SWAP2 DIV MUL PUSH1 0x20 ADD PUSH1 0x40 MLOAD SWAP1 DUP2 ADD PUSH1 0x40 MSTORE DUP1 SWAP3 SWAP2 SWAP1 DUP2 DUP2 MSTORE PUSH1 0x20 ADD DUP3 DUP1 SLOAD PUSH2 0x475 SWAP1 PUSH2 0xAC4 JUMP JUMPDEST DUP1 ISZERO PUSH2 0x4C2 JUMPI DUP1 PUSH1 0x1F LT PUSH2 0x497 JUMPI PUSH2 0x100 DUP1 DUP4 SLOAD DIV MUL DUP4 MSTORE SWAP2 PUSH1 0x20 ADD SWAP2 PUSH2 0x4C2 JUMP JUMPDEST DUP3 ADD SWAP2 SWAP1 PUSH1 0x0 MSTORE PUSH1 0x20 PUSH1 0x0 KECCAK256 SWAP1 JUMPDEST DUP2 SLOAD DUP2 MSTORE SWAP1 PUSH1 0x1 ADD SWAP1 PUSH1 0x20 ADD DUP1 DUP4 GT PUSH2 0x4A5 JUMPI DUP3 SWAP1 SUB PUSH1 0x1F AND DUP3 ADD SWAP2 JUMPDEST POP POP POP POP POP SWAP1 DUP1 PUSH1 0x2 ADD SLOAD SWAP1 DUP1 PUSH1 0x3 ADD DUP1 SLOAD PUSH2 0x4DD SWAP1 PUSH2 0xAC4 JUMP JUMPDEST DUP1 PUSH1 0x1F ADD PUSH1 0x20 DUP1 SWAP2 DIV MUL PUSH1 0x20 ADD PUSH1 0x40 MLOAD SWAP1 DUP2 ADD PUSH1 0x40 MSTORE DUP1 SWAP3 SWAP2 SWAP1 DUP2 DUP2 MSTORE PUSH1 0x20 ADD DUP3 DUP1 SLOAD PUSH2 0x509 SWAP1 PUSH2 0xAC4 JUMP JUMPDEST DUP1 ISZERO PUSH2 0x556 JUMPI DUP1 PUSH1 0x1F LT PUSH2 0x52B JUMPI PUSH2 0x100 DUP1 DUP4 SLOAD DIV MUL DUP4 MSTORE SWAP2 PUSH1 0x20 ADD SWAP2 PUSH2 0x556 JUMP JUMPDEST DUP3 ADD SWAP2 SWAP1 PUSH1 0x0 MSTORE PUSH1 0x20 PUSH1 0x0 KECCAK256 SWAP1 JUMPDEST DUP2 SLOAD DUP2 MSTORE SWAP1 PUSH1 0x1 ADD SWAP1 PUSH1 0x20 ADD DUP1 DUP4 GT PUSH2 0x539 JUMPI DUP3 SWAP1 SUB PUSH1 0x1F AND DUP3 ADD SWAP2 JUMPDEST POP POP POP POP POP SWAP1 POP DUP5 JUMP JUMPDEST PUSH1 0x0 PUSH2 0x56A PUSH2 0x56F JUMP JUMPDEST SWAP1 POP SWAP1 JUMP JUMPDEST PUSH1 0x0 DUP1 PUSH1 0x0 SWAP1 POP PUSH1 0x0 JUMPDEST PUSH1 0x5 DUP2 LT ISZERO PUSH2 0x5CA JUMPI DUP2 PUSH1 0x1 PUSH1 0x0 DUP4 DUP2 MSTORE PUSH1 0x20 ADD SWAP1 DUP2 MSTORE PUSH1 0x20 ADD PUSH1 0x0 KECCAK256 SLOAD GT ISZERO PUSH2 0x5B7 JUMPI PUSH1 0x1 PUSH1 0x0 DUP3 DUP2 MSTORE PUSH1 0x20 ADD SWAP1 DUP2 MSTORE PUSH1 0x20 ADD PUSH1 0x0 KECCAK256 SLOAD SWAP2 POP DUP1 SWAP3 POP JUMPDEST DUP1 DUP1 PUSH2 0x5C2 SWAP1 PUSH2 0xB27 JUMP JUMPDEST SWAP2 POP POP PUSH2 0x579 JUMP JUMPDEST POP POP SWAP1 JUMP JUMPDEST DUP3 DUP1 SLOAD PUSH2 0x5DB SWAP1 PUSH2 0xAC4 JUMP JUMPDEST SWAP1 PUSH1 0x0 MSTORE PUSH1 0x20 PUSH1 0x0 KECCAK256 SWAP1 PUSH1 0x1F ADD PUSH1 0x20 SWAP1 DIV DUP2 ADD SWAP3 DUP3 PUSH2 0x5FD JUMPI PUSH1 0x0 DUP6 SSTORE PUSH2 0x644 JUMP JUMPDEST DUP3 PUSH1 0x1F LT PUSH2 0x616 JUMPI DUP1 MLOAD PUSH1 0xFF NOT AND DUP4 DUP1 ADD OR DUP6 SSTORE PUSH2 0x644 JUMP JUMPDEST DUP3 DUP1 ADD PUSH1 0x1 ADD DUP6 SSTORE DUP3 ISZERO PUSH2 0x644 JUMPI SWAP2 DUP3 ADD JUMPDEST DUP3 DUP2 GT ISZERO PUSH2 0x643 JUMPI DUP3 MLOAD DUP3 SSTORE SWAP2 PUSH1 0x20 ADD SWAP2 SWAP1 PUSH1 0x1 ADD SWAP1 PUSH2 0x628 JUMP JUMPDEST JUMPDEST POP SWAP1 POP PUSH2 0x651 SWAP2 SWAP1 PUSH2 0x655 JUMP JUMPDEST POP SWAP1 JUMP JUMPDEST JUMPDEST DUP1 DUP3 GT ISZERO PUSH2 0x66E JUMPI PUSH1 0x0 DUP2 PUSH1 0x0 SWAP1 SSTORE POP PUSH1 0x1 ADD PUSH2 0x656 JUMP JUMPDEST POP SWAP1 JUMP JUMPDEST PUSH1 0x0 PUSH2 0x685 PUSH2 0x680 DUP5 PUSH2 0x997 JUMP JUMPDEST PUSH2 0x972 JUMP JUMPDEST SWAP1 POP DUP3 DUP2 MSTORE PUSH1 0x20 DUP2 ADD DUP5 DUP5 DUP5 ADD GT ISZERO PUSH2 0x6A1 JUMPI PUSH2 0x6A0 PUSH2 0xC02 JUMP JUMPDEST JUMPDEST PUSH2 0x6AC DUP5 DUP3 DUP6 PUSH2 0xA82 JUMP JUMPDEST POP SWAP4 SWAP3 POP POP POP JUMP JUMPDEST PUSH1 0x0 DUP2 CALLDATALOAD SWAP1 POP PUSH2 0x6C3 DUP2 PUSH2 0xCE9 JUMP JUMPDEST SWAP3 SWAP2 POP POP JUMP JUMPDEST PUSH1 0x0 DUP3 PUSH1 0x1F DUP4 ADD SLT PUSH2 0x6DE JUMPI PUSH2 0x6DD PUSH2 0xBFD JUMP JUMPDEST JUMPDEST DUP2 CALLDATALOAD PUSH2 0x6EE DUP5 DUP3 PUSH1 0x20 DUP7 ADD PUSH2 0x672 JUMP JUMPDEST SWAP2 POP POP SWAP3 SWAP2 POP POP JUMP JUMPDEST PUSH1 0x0 DUP2 CALLDATALOAD SWAP1 POP PUSH2 0x706 DUP2 PUSH2 0xD00 JUMP JUMPDEST SWAP3 SWAP2 POP POP JUMP JUMPDEST PUSH1 0x0 PUSH1 0x20 DUP3 DUP5 SUB SLT ISZERO PUSH2 0x722 JUMPI PUSH2 0x721 PUSH2 0xC0C JUMP JUMPDEST JUMPDEST PUSH1 0x0 PUSH2 0x730 DUP5 DUP3 DUP6 ADD PUSH2 0x6B4 JUMP JUMPDEST SWAP2 POP POP SWAP3 SWAP2 POP POP JUMP JUMPDEST PUSH1 0x0 PUSH1 0x20 DUP3 DUP5 SUB SLT ISZERO PUSH2 0x74F JUMPI PUSH2 0x74E PUSH2 0xC0C JUMP JUMPDEST JUMPDEST PUSH1 0x0 PUSH2 0x75D DUP5 DUP3 DUP6 ADD PUSH2 0x6F7 JUMP JUMPDEST SWAP2 POP POP SWAP3 SWAP2 POP POP JUMP JUMPDEST PUSH1 0x0 DUP1 PUSH1 0x40 DUP4 DUP6 SUB SLT ISZERO PUSH2 0x77D JUMPI PUSH2 0x77C PUSH2 0xC0C JUMP JUMPDEST JUMPDEST PUSH1 0x0 PUSH2 0x78B DUP6 DUP3 DUP7 ADD PUSH2 0x6F7 JUMP JUMPDEST SWAP3 POP POP PUSH1 0x20 DUP4 ADD CALLDATALOAD PUSH8 0xFFFFFFFFFFFFFFFF DUP2 GT ISZERO PUSH2 0x7AC JUMPI PUSH2 0x7AB PUSH2 0xC07 JUMP JUMPDEST JUMPDEST PUSH2 0x7B8 DUP6 DUP3 DUP7 ADD PUSH2 0x6C9 JUMP JUMPDEST SWAP2 POP POP SWAP3 POP SWAP3 SWAP1 POP JUMP JUMPDEST PUSH2 0x7CB DUP2 PUSH2 0xA4C JUMP JUMPDEST DUP3 MSTORE POP POP JUMP JUMPDEST PUSH1 0x0 PUSH2 0x7DC DUP3 PUSH2 0x9C8 JUMP JUMPDEST PUSH2 0x7E6 DUP2 DUP6 PUSH2 0x9D3 JUMP JUMPDEST SWAP4 POP PUSH2 0x7F6 DUP2 DUP6 PUSH1 0x20 DUP7 ADD PUSH2 0xA91 JUMP JUMPDEST PUSH2 0x7FF DUP2 PUSH2 0xC11 JUMP JUMPDEST DUP5 ADD SWAP2 POP POP SWAP3 SWAP2 POP POP JUMP JUMPDEST PUSH1 0x0 PUSH2 0x817 PUSH1 0x21 DUP4 PUSH2 0x9D3 JUMP JUMPDEST SWAP2 POP PUSH2 0x822 DUP3 PUSH2 0xC22 JUMP JUMPDEST PUSH1 0x40 DUP3 ADD SWAP1 POP SWAP2 SWAP1 POP JUMP JUMPDEST PUSH1 0x0 PUSH2 0x83A PUSH1 0x18 DUP4 PUSH2 0x9D3 JUMP JUMPDEST SWAP2 POP PUSH2 0x845 DUP3 PUSH2 0xC71 JUMP JUMPDEST PUSH1 0x20 DUP3 ADD SWAP1 POP SWAP2 SWAP1 POP JUMP JUMPDEST PUSH1 0x0 PUSH2 0x85D PUSH1 0x24 DUP4 PUSH2 0x9D3 JUMP JUMPDEST SWAP2 POP PUSH2 0x868 DUP3 PUSH2 0xC9A JUMP JUMPDEST PUSH1 0x40 DUP3 ADD SWAP1 POP SWAP2 SWAP1 POP JUMP JUMPDEST PUSH2 0x87C DUP2 PUSH2 0xA78 JUMP JUMPDEST DUP3 MSTORE POP POP JUMP JUMPDEST PUSH1 0x0 PUSH1 0x80 DUP3 ADD SWAP1 POP PUSH2 0x897 PUSH1 0x0 DUP4 ADD DUP8 PUSH2 0x7C2 JUMP JUMPDEST DUP2 DUP2 SUB PUSH1 0x20 DUP4 ADD MSTORE PUSH2 0x8A9 DUP2 DUP7 PUSH2 0x7D1 JUMP JUMPDEST SWAP1 POP PUSH2 0x8B8 PUSH1 0x40 DUP4 ADD DUP6 PUSH2 0x873 JUMP JUMPDEST DUP2 DUP2 SUB PUSH1 0x60 DUP4 ADD MSTORE PUSH2 0x8CA DUP2 DUP5 PUSH2 0x7D1 JUMP JUMPDEST SWAP1 POP SWAP6 SWAP5 POP POP POP POP POP JUMP JUMPDEST PUSH1 0x0 PUSH1 0x20 DUP3 ADD SWAP1 POP DUP2 DUP2 SUB PUSH1 0x0 DUP4 ADD MSTORE PUSH2 0x8EF DUP2 DUP5 PUSH2 0x7D1 JUMP JUMPDEST SWAP1 POP SWAP3 SWAP2 POP POP JUMP JUMPDEST PUSH1 0x0 PUSH1 0x20 DUP3 ADD SWAP1 POP DUP2 DUP2 SUB PUSH1 0x0 DUP4 ADD MSTORE PUSH2 0x910 DUP2 PUSH2 0x80A JUMP JUMPDEST SWAP1 POP SWAP2 SWAP1 POP JUMP JUMPDEST PUSH1 0x0 PUSH1 0x20 DUP3 ADD SWAP1 POP DUP2 DUP2 SUB PUSH1 0x0 DUP4 ADD MSTORE PUSH2 0x930 DUP2 PUSH2 0x82D JUMP JUMPDEST SWAP1 POP SWAP2 SWAP1 POP JUMP JUMPDEST PUSH1 0x0 PUSH1 0x20 DUP3 ADD SWAP1 POP DUP2 DUP2 SUB PUSH1 0x0 DUP4 ADD MSTORE PUSH2 0x950 DUP2 PUSH2 0x850 JUMP JUMPDEST SWAP1 POP SWAP2 SWAP1 POP JUMP JUMPDEST PUSH1 0x0 PUSH1 0x20 DUP3 ADD SWAP1 POP PUSH2 0x96C PUSH1 0x0 DUP4 ADD DUP5 PUSH2 0x873 JUMP JUMPDEST SWAP3 SWAP2 POP POP JUMP JUMPDEST PUSH1 0x0 PUSH2 0x97C PUSH2 0x98D JUMP JUMPDEST SWAP1 POP PUSH2 0x988 DUP3 DUP3 PUSH2 0xAF6 JUMP JUMPDEST SWAP2 SWAP1 POP JUMP JUMPDEST PUSH1 0x0 PUSH1 0x40 MLOAD SWAP1 POP SWAP1 JUMP JUMPDEST PUSH1 0x0 PUSH8 0xFFFFFFFFFFFFFFFF DUP3 GT ISZERO PUSH2 0x9B2 JUMPI PUSH2 0x9B1 PUSH2 0xBCE JUMP JUMPDEST JUMPDEST PUSH2 0x9BB DUP3 PUSH2 0xC11 JUMP JUMPDEST SWAP1 POP PUSH1 0x20 DUP2 ADD SWAP1 POP SWAP2 SWAP1 POP JUMP JUMPDEST PUSH1 0x0 DUP2 MLOAD SWAP1 POP SWAP2 SWAP1 POP JUMP JUMPDEST PUSH1 0x0 DUP3 DUP3 MSTORE PUSH1 0x20 DUP3 ADD SWAP1 POP SWAP3 SWAP2 POP POP JUMP JUMPDEST PUSH1 0x0 PUSH2 0x9EF DUP3 PUSH2 0xA78 JUMP JUMPDEST SWAP2 POP PUSH2 0x9FA DUP4 PUSH2 0xA78 JUMP JUMPDEST SWAP3 POP DUP3 PUSH32 0xFFFFFFFFFFFFFFFFFFFFFFFFFFFFFFFFFFFFFFFFFFFFFFFFFFFFFFFFFFFFFFFF SUB DUP3 GT ISZERO PUSH2 0xA2F JUMPI PUSH2 0xA2E PUSH2 0xB70 JUMP JUMPDEST JUMPDEST DUP3 DUP3 ADD SWAP1 POP SWAP3 SWAP2 POP POP JUMP JUMPDEST PUSH1 0x0 PUSH2 0xA45 DUP3 PUSH2 0xA58 JUMP JUMPDEST SWAP1 POP SWAP2 SWAP1 POP JUMP JUMPDEST PUSH1 0x0 DUP2 ISZERO ISZERO SWAP1 POP SWAP2 SWAP1 POP JUMP JUMPDEST PUSH1 0x0 PUSH20 0xFFFFFFFFFFFFFFFFFFFFFFFFFFFFFFFFFFFFFFFF DUP3 AND SWAP1 POP SWAP2 SWAP1 POP JUMP JUMPDEST PUSH1 0x0 DUP2 SWAP1 POP SWAP2 SWAP1 POP JUMP JUMPDEST DUP3 DUP2 DUP4 CALLDATACOPY PUSH1 0x0 DUP4 DUP4 ADD MSTORE POP POP POP JUMP JUMPDEST PUSH1 0x0 JUMPDEST DUP4 DUP2 LT ISZERO PUSH2 0xAAF JUMPI DUP1 DUP3 ADD MLOAD DUP2 DUP5 ADD MSTORE PUSH1 0x20 DUP2 ADD SWAP1 POP PUSH2 0xA94 JUMP JUMPDEST DUP4 DUP2 GT ISZERO PUSH2 0xABE JUMPI PUSH1 0x0 DUP5 DUP5 ADD MSTORE JUMPDEST POP POP POP POP JUMP JUMPDEST PUSH1 0x0 PUSH1 0x2 DUP3 DIV SWAP1 POP PUSH1 0x1 DUP3 AND DUP1 PUSH2 0xADC JUMPI PUSH1 0x7F DUP3 AND SWAP2 POP JUMPDEST PUSH1 0x20 DUP3 LT DUP2 EQ ISZERO PUSH2 0xAF0 JUMPI PUSH2 0xAEF PUSH2 0xB9F JUMP JUMPDEST JUMPDEST POP SWAP2 SWAP1 POP JUMP JUMPDEST PUSH2 0xAFF DUP3 PUSH2 0xC11 JUMP JUMPDEST DUP2 ADD DUP2 DUP2 LT PUSH8 0xFFFFFFFFFFFFFFFF DUP3 GT OR ISZERO PUSH2 0xB1E JUMPI PUSH2 0xB1D PUSH2 0xBCE JUMP JUMPDEST JUMPDEST DUP1 PUSH1 0x40 MSTORE POP POP POP JUMP JUMPDEST PUSH1 0x0 PUSH2 0xB32 DUP3 PUSH2 0xA78 JUMP JUMPDEST SWAP2 POP PUSH32 0xFFFFFFFFFFFFFFFFFFFFFFFFFFFFFFFFFFFFFFFFFFFFFFFFFFFFFFFFFFFFFFFF DUP3 EQ ISZERO PUSH2 0xB65 JUMPI PUSH2 0xB64 PUSH2 0xB70 JUMP JUMPDEST JUMPDEST PUSH1 0x1 DUP3 ADD SWAP1 POP SWAP2 SWAP1 POP JUMP JUMPDEST PUSH32 0x4E487B7100000000000000000000000000000000000000000000000000000000 PUSH1 0x0 MSTORE PUSH1 0x11 PUSH1 0x4 MSTORE PUSH1 0x24 PUSH1 0x0 REVERT JUMPDEST PUSH32 0x4E487B7100000000000000000000000000000000000000000000000000000000 PUSH1 0x0 MSTORE PUSH1 0x22 PUSH1 0x4 MSTORE PUSH1 0x24 PUSH1 0x0 REVERT JUMPDEST PUSH32 0x4E487B7100000000000000000000000000000000000000000000000000000000 PUSH1 0x0 MSTORE PUSH1 0x41 PUSH1 0x4 MSTORE PUSH1 0x24 PUSH1 0x0 REVERT JUMPDEST PUSH1 0x0 DUP1 REVERT JUMPDEST PUSH1 0x0 DUP1 REVERT JUMPDEST PUSH1 0x0 DUP1 REVERT JUMPDEST PUSH1 0x0 DUP1 REVERT JUMPDEST PUSH1 0x0 PUSH1 0x1F NOT PUSH1 0x1F DUP4 ADD AND SWAP1 POP SWAP2 SWAP1 POP JUMP JUMPDEST PUSH32 0x546865206964206D757374206265206C657373206F7220657175616C20746F20 PUSH1 0x0 DUP3 ADD MSTORE PUSH32 0x3400000000000000000000000000000000000000000000000000000000000000 PUSH1 0x20 DUP3 ADD MSTORE POP JUMP JUMPDEST PUSH32 0x416C72656164792063686F6F7365206120636F757273652E0000000000000000 PUSH1 0x0 DUP3 ADD MSTORE POP JUMP JUMPDEST PUSH32 0x546865206964206D7573742062652067726561746572206F7220657175616C20 PUSH1 0x0 DUP3 ADD MSTORE PUSH32 0x746F203000000000000000000000000000000000000000000000000000000000 PUSH1 0x20 DUP3 ADD MSTORE POP JUMP JUMPDEST PUSH2 0xCF2 DUP2 PUSH2 0xA3A JUMP JUMPDEST DUP2 EQ PUSH2 0xCFD JUMPI PUSH1 0x0 DUP1 REVERT JUMPDEST POP JUMP JUMPDEST PUSH2 0xD09 DUP2 PUSH2 0xA78 JUMP JUMPDEST DUP2 EQ PUSH2 0xD14 JUMPI PUSH1 0x0 DUP1 REVERT JUMPDEST POP JUMP INVALID JUMPDEST ADDRESS ADDRESS ADDRESS BALANCE 0x5D KECCAK256 MSIZE PUSH16 0x752061726520696E2074686520776169 PUSH21 0x696E67206C697374215B303030305D20596F752072 PUSH6 0x676973746572 KECCAK256 PUSH21 0x686520636F75727365207375636365737366756C6C PUSH26 0xA2646970667358221220989A212E885D7E53B21083D89F723D74 0x2A SWAP11 0xF6 0xD1 PUSH27 0x2052C7A388CA8487F8CBFA64736F6C634300080700330000000000 "
				},
				"gasEstimates": {
					"creation": {
						"codeDepositCost": "696600",
						"executionCost": "infinite",
						"totalCost": "infinite"
					},
					"external": {
						"MostPopularCourseId()": "infinite",
						"courses(uint256)": "infinite",
						"register(uint256,string)": "infinite",
						"result()": "infinite",
						"student(address)": "infinite"
					},
					"internal": {
						"mostPopularCourse()": "infinite"
					}
				},
				"methodIdentifiers": {
					"MostPopularCourseId()": "e6f7eb7c",
					"courses(uint256)": "96f979d2",
					"register(uint256,string)": "a00fd3c8",
					"result()": "65372147",
					"student(address)": "daadd00f"
				}
			},
			"storageLayout": {
				"storage": [
					{
						"astId": 21,
						"contract": "contracts/Registration.sol:SubjectRegistration",
						"label": "student",
						"offset": 0,
						"slot": "0",
						"type": "t_mapping(t_address,t_struct(Student)16_storage)"
					},
					{
						"astId": 25,
						"contract": "contracts/Registration.sol:SubjectRegistration",
						"label": "courses",
						"offset": 0,
						"slot": "1",
						"type": "t_mapping(t_uint256,t_uint256)"
					}
				],
				"types": {
					"t_address": {
						"encoding": "inplace",
						"label": "address",
						"numberOfBytes": "20"
					},
					"t_bool": {
						"encoding": "inplace",
						"label": "bool",
						"numberOfBytes": "1"
					},
					"t_mapping(t_address,t_struct(Student)16_storage)": {
						"encoding": "mapping",
						"key": "t_address",
						"label": "mapping(address => struct SubjectRegistration.Student)",
						"numberOfBytes": "32",
						"value": "t_struct(Student)16_storage"
					},
					"t_mapping(t_uint256,t_uint256)": {
						"encoding": "mapping",
						"key": "t_uint256",
						"label": "mapping(uint256 => uint256)",
						"numberOfBytes": "32",
						"value": "t_uint256"
					},
					"t_string_storage": {
						"encoding": "bytes",
						"label": "string",
						"numberOfBytes": "32"
					},
					"t_struct(Student)16_storage": {
						"encoding": "inplace",
						"label": "struct SubjectRegistration.Student",
						"members": [
							{
								"astId": 9,
								"contract": "contracts/Registration.sol:SubjectRegistration",
								"label": "registered",
								"offset": 0,
								"slot": "0",
								"type": "t_bool"
							},
							{
								"astId": 11,
								"contract": "contracts/Registration.sol:SubjectRegistration",
								"label": "studentID",
								"offset": 0,
								"slot": "1",
								"type": "t_string_storage"
							},
							{
								"astId": 13,
								"contract": "contracts/Registration.sol:SubjectRegistration",
								"label": "courseID",
								"offset": 0,
								"slot": "2",
								"type": "t_uint256"
							},
							{
								"astId": 15,
								"contract": "contracts/Registration.sol:SubjectRegistration",
								"label": "result",
								"offset": 0,
								"slot": "3",
								"type": "t_string_storage"
							}
						],
						"numberOfBytes": "128"
					},
					"t_uint256": {
						"encoding": "inplace",
						"label": "uint256",
						"numberOfBytes": "32"
					}
				}
			},
			"userdoc": {
				"kind": "user",
				"methods": {},
				"version": 1
			}
		}
	}
}